:020000040800F2
:10000000C00A002029020008D31A0008F5190008C8
:10001000D11A00080D0600080520000800000000A5
:10002000000000000000000000000000D71A0008D7
:10003000DD07000800000000D51A0008D91A0008E2
:10004000430200084302000843020008430200087C
:10005000430200084302000843020008430200086C
:10006000430200084302000843020008430200085C
:10007000430200084302000843020008430200084C
:10008000430200084302000843020008430200083C
:10009000430200084302000843020008430200082C
:1000A000430200084302000843020008430200081C
:1000B000430200084302000843020008430200080C
:1000C00043020008430200084302000843020008FC
:1000D00043020008430200084302000843020008EC
:1000E00043020008430200084302000843020008DC
:1000F00043020008430200084302000843020008CC
:1001000043020008430200084302000843020008BB
:1001100043020008430200084302000843020008AB
:1001200043020008110600084302000843020008C9
:100130004302000800000000000000004302000825
:10014000430200084302000843020008430200087B
:10015000430200084302000843020008F91F000898
:10016000430200084302000843020008430200085B
:1001700043020008430200080000000000000000E5
:10018000430200084302000800F002F800F03CF8C7
:100190000AA090E8000C82448344AAF10107DA45E2
:1001A00001D100F031F8AFF2090EBAE80F0013F0F8
:1001B000010F18BFFB1A43F0010318474421000048
:1001C00064210000103A24BF78C878C1FAD85207D9
:1001D00024BF30C830C144BF04680C6070470000C1
:1001E0000023002400250026103A28BF78C1FBD840
:1001F000520728BF30C148BF0B6070471FB502F0DF
:100200006AF81FBD10B510BD00F04EF91146FFF79A
:10021000F5FF02F04BF800F06CF903B4FFF7F2FFC2
:1002200003BC00F073F90000094880470948004703
:10023000FEE7FEE7FEE7FEE7FEE7FEE7FEE7FEE796
:10024000FEE7FEE704480549054A064B70470000F3
:10025000551B000889010008C0040020C00A0020C6
:10026000C0060020C006002053EA020C00F069809E
:100270002DE9F04B4FF00006002B1FBFB3FA83F5BA
:1002800003FA05F424FA05F65E4012BF1643B2FAEB
:1002900082F502FA05F4C5F120051EBF22FA05FC1D
:1002A00044EA0C04203556EA044C4FEA144418BFC3
:1002B000641C4FF000084FF00009904271EB030CF2
:1002C00039D3002919BFB1FA81F701FA07F6B0FA5C
:1002D00080F700FA07F6C7F120071EBF20FA07FCD7
:1002E00046EA0C062037B6FBF4FCA7EB0507103FE7
:1002F00007F01F0BCBF120060CFA0BFB2CFA06F6CD
:1003000044BFB3460026202FA4BF5E464FF0000B2B
:100310005BEA060C08BF4FF0010B19EB0B09ABFBB6
:10032000027C48EB0608C01B06FB02CC0BFB03CC8F
:1003300071EB0C01C1E70B46024641464846BDE859
:10034000F08B13B54FF000004FF00001AFF30080C9
:10035000BDE81C40704710B5203AC0F00B80B1E8F2
:100360001850203AA0E81850B1E81850A0E81850EA
:10037000BFF4F5AF5FEA027C24BFB1E81850A0E8F3
:10038000185044BF18C918C0BDE810405FEA827C0D
:1003900024BF51F8043B40F8043B08BF7047D20724
:1003A00028BF31F8023B48BF11F8012B28BF20F8C5
:1003B000023B48BF00F8012B70474FF0000200B528
:1003C000134694469646203922BFA0E80C50A0E878
:1003D0000C50B1F12001BFF4F7AF090728BFA0E826
:1003E0000C5048BF0CC05DF804EB890028BF40F8F2
:1003F000042B08BF704748BF20F8022B11F0804F34
:1004000018BF00F8012B704710B5044610F0030F19
:1004100008BF11F0030F40F015804FF0013E121F8E
:10042000C0F20E8051F8043BA3EB0E0C2CEA030C37
:100430001CEACE1C08BF40F8043BF0D0A1F1040137
:1004400002F10402521E08DB11F8013B002B00F8F8
:10045000013BF7D1114600F005F8204610BD70476A
:10046000704770474FF000020429C0F0128010F06E
:10047000030C3FF4A4AFCCF1040CBCF1020F18BF85
:1004800000F8012BA8BF20F8022BA1EB0C01FFF70D
:1004900096BF5FEAC17C24BF00F8012B00F8012B56
:1004A00048BF00F8012B7047754600F02BF8AE46A8
:1004B00005006946534620F00700854618B020B570
:1004C000FFF7C0FEBDE820404FF000064FF00007E8
:1004D0004FF000084FF0000B21F00701AC46ACE8EC
:1004E000C009ACE8C009ACE8C009ACE8C0098D4659
:1004F000704710B50446AFF300802046BDE81040B9
:10050000FFF78BBE004870475C04002001491820AB
:10051000ABBEFEE7260002007047000010B50A4A95
:10052000002100BF52F821303BB15C7E2CB11B682A
:10053000834202D152F8210010BD491CC9B20729DB
:10054000F0D3002010BD00001C0400202DE9F04174
:100550000400DDE90760069D0DD061B1012A0AD8CB
:100560000BB145B138B1072E05D2114F57F826C04F
:10057000BCF1000F02D00020BDE8F08121602271A3
:10058000A360A5810025E5812574606126760120A0
:10059000607647F82640204600F02AF808B101208E
:1005A000EAE7657647F8265025606561E3E70000D5
:1005B0001C04002010B5040016D0607EA0B1206895
:1005C00090B101B982B92379012B04D0642301F0E1
:1005D00073F958B108E0237C33B90123237401F087
:1005E000BBF918B100202074002010BD012010BDFF
:1005F00010B50021C181816831B18289006800F0A5
:100600000BFF08B1002010BD012010BDFEE7000067
:10061000014800F041B90000A4000020016818233F
:10062000CAB2103AB2FBF3F2054B6FF30901032A89
:100630009B5CC36500D9091D8165084670470000B1
:10064000E022000810B5014600208B698A6A4FF04D
:10065000C07453B1B3F5005F15D072B1012A0CD04C
:10066000022A0AD0032A09D104E01AB1012A06D0CD
:10067000022A03D1C96AC90100D5012010BDC96A87
:10068000A142FAD010BD002AF7D0012AF2D0022AE6
:10069000F3D0032AF3D010BD30B50468256825F4E3
:1006A00080252560046863608368402B036803D05D
:1006B00099600068C26030BD9A600068C16030BD5A
:1006C000014890ED010A70473804002010B5044637
:1006D00024210348FFF771FE01480470012010BD7A
:1006E000380400202DE9F0430178552938D14178AC
:1006F000AA2935D11E4E81783278914230D1817C41
:100700000A292DD1B0F8109010274FF6FF752A4610
:10071000002341F2210CC15C81EA1221090200246C
:100720005FEA014803D58CEA410189B201E005EA9C
:100730004101641CE4B2082CF2D35B1C81EA420143
:100740009BB28AB2BB42E4D34A4509D1C17802299F
:1007500008D0032904D1C06800EE100A86ED010A12
:10076000BDE8F083C06800EE100A86ED020AF7E7E4
:10077000380400202DE9F04717460E0025D0164C0E
:100780000025A94604F10C081DE0208C10B10128B9
:1007900007D00CE0705D552813D120730120208410
:1007A0000FE0715DAA2902D0A4F8209009E0715DE4
:1007B00000F80810208C4246401C80B22084132888
:1007C00005D06D1CADB2BD42DFD3BDE8F087104649
:1007D000FFF788FFE8E7000038040020704772B692
:1007E000FEE72DE9F0410446876D00F0BFFA0646AA
:1007F00094F835000025022806D08020606584F832
:1008000034500120BDE8F0812068016821F0160114
:1008100001602068416921F080014161206C08B9C4
:10082000A06C20B12068016821F0080101602068F7
:10083000016821F0010101600CE000F097FA801BD3
:10084000052807D920206065032084F8350084F846
:100850003450D7E720680068C007EED194F85C10E8
:100860003F208840B860012084F8350084F8345077
:100870000020C7E790F83510022903D08021416598
:1008800001207047052180F835100068016821F0CB
:1008900001010160002070472DE9F84304464FF044
:1008A0000009CDF8009063484FF41651A56D00681B
:1008B000B0FBF1F72E6894F85C10082000FA01F103
:1008C00031420FD021680A6852070BD50A6822F01E
:1008D00004020A6094F85C108840A860606D40F0E3
:1008E0000100606594F85C104FF0010808FA01F00F
:1008F000304208D021684969090604D5A860606DB6
:1009000040F00200606594F85C100420884030429A
:1009100008D021680968890704D5A860606D40F097
:100920000400606594F85C1010208840304218D0B4
:1009300021680968090714D5A8602068016849037F
:1009400004D50068000308D5A16C07E00168C9055B
:1009500003D4016821F008010160216C09B120462F
:10096000884794F85C1020208840304231D02168BC
:100970000968C9062DD5A86094F8350005282068B7
:10098000016806D0490347D5006800031DD4616C97
:100990001CE021F0160101602068416921F080010E
:1009A0004161206C08B9A06C20B12068016821F079
:1009B0000801016094F85C103F208840A86084F82A
:1009C000358084F83490216D1FE0E16B09B1204639
:1009D0008847606D00282BD0606DC00714D00520BB
:1009E00084F835002068016821F001010160009859
:1009F000401C0090B84203D820680068C007F6D1B8
:100A000084F8358084F83490E16C002910D001B06E
:100A10002046BDE8F04308470168C905D5D4016800
:100A200021F01001016084F8358084F83490CCE71F
:100A3000BDE8F883100000202DE9F041044600F0E5
:100A400095F906465CB1022084F83500002584F84B
:100A500034502068016821F0010101600DE001209F
:100A6000BDE8F08100F082F9801B052805D920201F
:100A70006065032084F83500F2E720680068C0074D
:100A8000F0D12268116820480140D4E901031843DD
:100A9000D4E903363343184363691843A369184301
:100AA000E3691843236A18430843616A042903D1A0
:100AB000D4E90B1319430843106020684069666A43
:100AC00020F0070130460E43012704280CD1A06A0C
:100AD0000643E06A40B12046FFF7B4FD20B1402054
:100AE000606584F83570BAE7206846612046FFF7F4
:100AF00095FD94F85C203F2191408160656584F804
:100B000035700020ACE700003F8010F02DE9F04187
:100B10000446866D90F83400002501280DD0012090
:100B200084F8340094F835700020012F07D084F841
:100B3000340002252846BDE8F0810220FBE70227A9
:100B400084F8357060652046FFF7A6FD94F85C10C8
:100B50003F208840B0602068016841F016010160C4
:100B6000206C20B12068016841F008010160206814
:100B7000016841F001010160DCE700002DE9F84F58
:100B8000DFF8BCA10022012503264FF00F090AF16E
:100B9000040BAAF1040E00BF0B6805FA02F423400F
:100BA000A34270D10F7907F00307012F01D0022F64
:100BB00016D187684FEA420806FA08FC27EA0C07B4
:100BC000D1F80CC00CFA08FC4CEA070CC0F808C0BD
:100BD0004768A7430C79C4F3001494403C43446035
:100BE0000C79E443A4070AD0C4684FEA420C06FA21
:100BF0000CF7BC438F6807FA0CF72743C7600C79E2
:100C000004F00304022C12D1D40800EB840CDCF8AD
:100C100020405707FF0E09FA07F824EA0804D1F824
:100C2000108008FA07F848EA0408CCF82080046825
:100C30004FEA420C06FA0CF7BC430F7907F00307A2
:100C400007FA0CF7274307604C6814F4403F70D054
:100C50003C4C276847F480472760246822F003074C
:100C600004F480440094384C07EB040CDCF808488A
:100C700097074FEA177809FA08F7BC43334FB84291
:100C800002D1002724E054E0314FB84201D10127BE
:100C90001EE0304FB84201D1022719E02E4FB84272
:100CA00001D1032714E02D4FB84201D104270FE0F2
:100CB0002B4FB84201D105270AE02A4FB84201D193
:100CC000062705E0284FB84201D1072700E0082792
:100CD00007FA08F72743CCF80878DAF800405746B7
:100CE000D1F804C09C435FEACC2C00D51C433C6087
:100CF000DBF800405F46D1F804C09C435FEA8C2CCF
:100D000000D51C433C60DEF800407746D1F804C0B3
:100D10009C435FEA8C3C00D51C433C60084F083F75
:100D20003C68D1F804C09C435FEACC3C00D51C432E
:100D30003C60521C102AFFF42FAFBDE8F88F000072
:100D4000083C0140443802400030014000000240AD
:100D50000004024000080240000C02400010024063
:100D60000014024000180240001C02400148806844
:100D70007047000004000020024881680278114496
:100D800081607047040000200B4810B5016841F4F1
:100D900000710160016841F480610160016841F403
:100DA00080710160032000F06FF80F2000F006F85A
:100DB00000F024F8002010BD003C024070B50D4D3D
:100DC00004464FF47A712878B1FBF0F00A490968BB
:100DD000B1FBF0F000F00CFB48B9102C07D2002258
:100DE0002146501E00F030F800206C6070BD0120DC
:100DF00070BD000004000020100000200A4808B563
:100E0000016841F480410160006800F48040009076
:100E10000548001F016841F080510160006800F042
:100E20008050009008BD000044380240002809DBD3
:100E300000F01F02012191404009800000F1E020F4
:100E4000C0F8001170470000F0B40E4B1B680C4650
:100E5000C3F30223C3F10705042D00D90425191D8E
:100E6000072901D2002300E0DB1E012606FA05F166
:100E7000491E214099409E40761E16403143F0BCE9
:100E800001F003BA0CED00E0064900F00702086823
:100E90004FF6FF03184040EA0220034A104308605F
:100EA000704700000CED00E00000FA052DE9F04766
:100EB0000E46050065D0DFF81481D8F80000F7B2BF
:100EC00000F00700B04207D288F80070D8F80000A0
:100ED00000F00700B04254D128683D4C810712D57C
:100EE000400703D5206840F4E050206028780007D0
:100EF00003D5206840F4604020602068A96820F095
:100F0000F000084320602878C0072DD03049686879
:100F10000839012812D0022813D0032811D00968FB
:100F2000890700292DDA216821F00301014321609E
:100F3000FFF71CFF814641F2883A0EE009688903F9
:100F4000EFE709688901ECE7FFF710FFA0EB090163
:100F5000514502D90320BDE8F0872068696800F098
:100F60000C00B0EB810FEFD1D8F80010404601F033
:100F70000701B14207D90770006800F00700B042CE
:100F800001D00120E7E72878400705D52068E96807
:100F900020F4E050084320602878000706D5206838
:100FA000296920F4604040EAC100206000F038F870
:100FB0002168084AC1F30311515CC8400649086022
:100FC00006480068FFF7FAFE0020C4E7003C024034
:100FD00008380240E8220008100000200800002025
:100FE0000448054900680968044AC1F38221515C3C
:100FF000C84070471000002008380240F82200085E
:101000000448054900680968044AC1F34231515C4B
:10101000C84070471000002008380240F82200083D
:10102000154810B5006810F00C02144813D014498C
:10103000042A0FD0082A0ED10F4C241F22682368DF
:1010400002F03F025B0207D52068C0F38810A0FBC6
:10105000010106E0084610BD2168C1F38811A1FB1B
:1010600000010023FFF700F92168C1F30141491C89
:101070004900B0FBF1F010BD083802400024F40034
:1010800040787D012DE9F84F04006ED02078DFF81C
:101090004C93C007A9F104054AD009F10400016886
:1010A000C1F38101012908D00068C0F38100022842
:1010B0000AD1D9F80000400206D52868800337D548
:1010C00060680028E1D033E06068B0F5803F10D060
:1010D000B0F5A02F286810D020F480302860286850
:1010E00020F4802028606068A8B1FFF73FFE064624
:1010F0000DE0286840F48030F4E740F48020286058
:10110000F7E700BFFFF732FE801B642873D828681A
:101110008003F7D50CE0FFF729FE064605E000BF87
:10112000FFF724FE801B6428F0D828688003F7D4DA
:101130002078DFF8AC8280074FF0000A3ED5A74840
:10114000001D016811F00C0F08D00068C0F3810089
:1011500002280BD1D9F80000400207D42868800784
:1011600016D5E068012800D112E033E1E068B8B19B
:101170000120C8F80000FFF7F9FD064605E000BFB2
:10118000FFF7F4FD801B0228C0D828688007F7D538
:101190002868216920F0F80040EAC10028600DE0CD
:1011A000C8F800A0FFF7E2FD064604E0FFF7DEFD09
:1011B000801B02281FD828688007F7D420780007F2
:1011C00022D5864F87486169703771B1012101606E
:1011D000FFF7CCFD064604E0FFF7C8FD801B0228A0
:1011E00009D838688007F7D50EE0C0F800A0FFF7EF
:1011F000BDFD064605E082E0FFF7B8FD801B022832
:101200007DD838688007F7D42078400768D5DFF8A4
:10121000CCB100270BF13C0BDBF80000C0000BD475
:10122000DBF8001041F08051CBF80010DBF8000033
:10123000012700F0805000906B4E3068C00510D43C
:10124000306840F480703060FFF790FD009005E05A
:10125000FFF78CFD0099401A022850D83068C0056D
:10126000F6D55E4EA0686C3601280FD00528306890
:1012700010D020F001003060306820F004003060B1
:10128000A068B8B1FFF772FD00900FE0306840F041
:101290000100F4E740F004003060F7E7FFF766FD77
:1012A0000099411A41F28830814266D8306880073F
:1012B000F4D50EE0FFF75AFD009007E0FFF756FD6A
:1012C0000099411A41F28830814256D8306880072F
:1012D000F4D42FB1DBF8001021F08051CBF80010CE
:1012E000A069C8B33D49091D0968C1F381010229FC
:1012F0004AD00228504607D0C8F8600000E03CE021
:10130000FFF734FD04463BE04746C8F86000FFF7AE
:101310002DFD064605E000BFFFF728FD801B0228D3
:101320002BD828688001F7D4D4E907010843A16AC3
:101330002E4A490802EB0141626A41EA82110843E0
:1013400094F82C1040EA0161C9F8001001203866B9
:10135000FFF70CFD044606E03EE000BFFFF706FD88
:10136000001B022809D828688001F7D534E000BFA7
:10137000FFF7FCFC001B022802D90320BDE8F88F10
:1013800028688001F4D427E00128F7D0D9F80000BC
:10139000E26900F4800191421CD1226A00F03F0111
:1013A000914217D147F6C071626A0140B1EB821FCA
:1013B00010D1A26A4FF0FF3300F4403103EB520228
:1013C000B1EB024F06D194F82C1000F07060B0EB36
:1013D000016F01D00120D1E70020CFE7043802409F
:1013E00000004742800E4742007000400000FFFFAF
:1013F00010B5401EB0F1807F01D3012010BD4FF029
:10140000E02460610F21601700F03FFF0020A06121
:1014100007202061002010BD38B5044690F8420036
:10142000202801D0022038BD51B14AB101202063EB
:1014300000206063204600F055FD216B012901D09A
:10144000012038BD21680A684968009121680C3183
:1014500051E8002F42F0100241E80023002BF5D1A3
:1014600038BD70B50C46FFF759F8002822D08168C6
:1014700000291FD0C28905468089A0421AD36B6912
:10148000002B17D0944205D9A4EB020080B211447E
:1014900002460CE00DD2904205D9801A80B2114468
:1014A00002462846984724B16B69A9682246284617
:1014B0009847EC8170BD38B50446FFF72FF8002837
:1014C0000CD08168002909D0216800220B68496886
:1014D00000916264BDE83840FFF78AB838BD00006B
:1014E000F8B5016804460868CA684B6910F00F0F28
:1014F0004FF0000559D003F0010602F4907737430E
:1015000065D0C10705D0D10503D5616C41F001015B
:101510006164410705D5D90703D0616C41F0020130
:101520006164810705D5D90703D0616C41F00401DE
:101530006164010707D502F02001314303D0616CDB
:1015400041F008016164616C00293AD0800604D53D
:10155000900602D5204600F0DEFB20684069616CF1
:10156000C0F38010090700D460B3204600F09EFB52
:1015700020684069400621D52068143050E8001FDB
:1015800021F0400140E80012002AF5D1E06BA8B13B
:1015900072490165E06BFFF76DF9002811D0E06B2F
:1015A000016D01B0BDE8F040084783060FD59306F2
:1015B0000DD52046BDE8F84000F0ADBB2046FFF752
:1015C0007AFFF8BD2046FFF776FF6564F8BD266B0D
:1015D0002023012E7ED1C6067CD5D6067AD5086892
:1015E0004868009048694FF0020640064DD5E26B0E
:1015F000106840684FF480770004000C3AD0A18D49
:10160000814237D9E085D069B8422DD020680C30AE
:1016100050E8001F21F4807140E80012002AF5D143
:101620002068143050E8001F21F0010140E800124A
:10163000002AF5D12068143050E8001F21F0400145
:1016400040E80012002AF5D184F842302563206872
:101650000C3050E8001F21F0100140E80012002A71
:10166000F5D1E06BFFF7BDF86663A08DE18D401A00
:1016700081B206E0A18D8142A8D1D069B842A5D13E
:1016800066632046FFF7EDFEF8BDA08DE18D401AA0
:1016900081B2E08D0028F7D00029F5D020680C3009
:1016A00050E8002F22F4907240E80027002FF5D177
:1016B0002068143050E8002F22F0010240E8002793
:1016C000002FF5D184F84230256320680C3050E8B3
:1016D000002F00E006E022F0100240E80023002B7B
:1016E000F3D1CDE705062BD5150629D594F8410091
:1016F0002128C9D1A068B0F5805F01D12069B0B1BF
:10170000206A411C2162216800784860E08C401EFC
:101710000004000CE084B7D12068C16821F080018A
:10172000C1602068C16841F04001C160F8BD206A15
:101730000088C0F308004860206A801C2062E5E74A
:101740004006F3D55006F1D5CA68204622F0400283
:10175000CA6084F8413000F041F9F8BD651B00080B
:1017600070B5040004D094F84100002510B106E0E3
:10177000012070BD84F84050204600F023F824205A
:1017800084F841002068C16821F40051C1602046FE
:1017900000F022FB2068016921F49041016120687A
:1017A000416921F02A0141612068C16841F400517A
:1017B000C1606564202084F8410084F842006563BC
:1017C000002070BDF0B587B0064614216846FEF7CC
:1017D000F4FD3249304F3468002530481439022274
:1017E0000323BC421BD1046844F010040460006869
:1017F00000F010000590086840F0010008600868DB
:10180000694600F00100059058028DE82500072088
:10181000CDE903302248FFF7B1F907B0F0BD214F01
:10182000BC42FAD1046844F020040460006800F06F
:1018300020000590086840F00400086008686946C8
:1018400000F004000590C0208DE825000820CDE9B7
:1018500003301548FFF792F9154C144820608005B5
:10186000C4E901053815C4E9035080106561C4E975
:101870000650256220466562FFF7DEF808B1FEF7E4
:10188000AEFFF463002211464720A663FFF7DCFA9F
:101890004720FFF7CBFAC0E7001001404438024070
:1018A0000000024000140140000802402864024089
:1018B000A4000020704770472DE9F843044690F8D3
:1018C0004100984616460D46202802D00220BDE869
:1018D000F88385B17EB100206064212084F8410046
:1018E000FFF744FAA6848146E684A0682027B0F575
:1018F000805F02D003E00120E9E7206910B12E46A5
:1019000000250EE000260CE08021204600F03AFB86
:10191000A8B9C6B116F8010B21684860E08C401EDA
:10192000E084E08C4B464FF00002CDF800800028A8
:10193000EAD14FF04001204600F024FB40B184F88A
:1019400041700320C3E735F8020BC0F30800E3E75A
:1019500084F841700020BAE770B5044690F8410061
:10196000202801D0022070BD01B3FAB12162A28407
:10197000E28400206064212384F84130A56B144B7D
:10198000EB63A56B134B2B64A56B134BEB64A36B41
:10199000186520681346A56B021D2846FFF7B6F8A8
:1019A00030B110206064202084F84100012070BD17
:1019B00021686FF0400008602068143050E8001F74
:1019C00041F0800140E80012002AF5D1002070BDEE
:1019D000611C0008A31C0008731B000810B5FEF76B
:1019E0009DFD002804D00179012901D10021017455
:1019F00010BD7047FEE70000094808B5016841F4D2
:101A0000800101600068002200F48000009011460F
:101A10003920FFF719FABDE808403920FFF706BA68
:101A2000303802400D4808B5016841F0800101607E
:101A3000016801F080010091016841F0040101603A
:101A4000016801F004010091016841F001010160A9
:101A5000006800F00100009008BD0000303802402E
:101A60000C4810B50A4901604FF4E1314160002192
:101A700081600C22C160C0E904128161C161FFF77D
:101A80006FFE002803D0BDE81040FEF7A8BE10BDD1
:101A900000100140140000200C4810B50A490160F4
:101AA0004FF461214160002181600C22C160C0E9D6
:101AB00004128161C161FFF753FE002803D0BDE825
:101AC0001040FEF78CBE10BD001401405C000020E9
:101AD000FEE7FEE770477047FFF74EB930B593B0A9
:101AE00030216846FEF769FC14210CA8FEF765FC5E
:101AF00016480024016841F080510160006800F040
:101B0000805011901248016841F4804101600068E2
:101B1000012500F48040119028040694CDE900507E
:101B20006846FFF7AFFA08B172B6FEE70F200C90D7
:101B3000CDE90D540F9400210CA81094FFF7B6F9CD
:101B4000002801D072B6FEE713B030BD4038024025
:101B5000007000400248016841F470010160704764
:101B600088ED00E010B5806B0021C185FFF7A3FC74
:101B700010BD70B5846B2068406994F84110C0F3C3
:101B8000C0100025212904D118B1E584204600F0B9
:101B9000B4F82068406994F84210C0F380102229FC
:101BA00004D118B1E585204600F080F8606C40F063
:101BB000100060642046FFF77EFC70BD10B5014642
:101BC000806B096809684FF00002C9052ED4C285F0
:101BD00001680C3151E8003F23F4807341E8003480
:101BE000002CF5D10168143151E8003F23F00103C6
:101BF00041E80034002CF5D10168143151E8003F70
:101C000023F0400341E80034002CF5D1202180F876
:101C10004210016B012909D101680C3151E8003FE4
:101C200023F0100341E80034002CF5D14263016B2E
:101C3000012902D0FFF73EFE10BD818DFFF711FC98
:101C400010BD10B5806B01214163016B012902D0E9
:101C5000FFF731FE10BD818D4908FFF702FC10BD72
:101C600010B50146806B09680968C90516D40021C2
:101C7000C1840168143151E8002F22F0800241E84C
:101C80000023002BF5D101680C3151E8002F42F000
:101C9000400241E80023002BF5D110BDFFF79EFE66
:101CA00010BD10B5806BFFF7A4FE10BD01680C31AC
:101CB00051E8002F22F4907241E80023002BF5D167
:101CC0000168143151E8002F22F0010241E800239D
:101CD000002BF5D1016B012909D101680C3151E8C4
:101CE000002F22F0100241E80023002BF5D1202123
:101CF00080F8421000210163704701680C3151E8FF
:101D0000002F22F0C00241E80023002BF5D1202152
:101D100080F84110704708B590F84210222901D090
:101D2000022008BD82684FF480539A4201D10169B4
:101D300021B1816A9A421BD04AB10AE00268816AE5
:101D40005268C2F308020A80816A891C08E00269AD
:101D500072B10268526802F07F020A70816A491CFF
:101D60008162C18D491E0904090CC18503D01BE0A5
:101D700002685268F1E70168CA6822F02002CA606E
:101D80000168CA6822F48072CA6001684A6922F058
:101D900001024A61202180F8421000214163026B58
:101DA000012A03D0FFF786FD002008BD016301680A
:101DB0000C3151E8002F22F0100241E80023002BE3
:101DC000F5D101680A68D20602D50A68496800910F
:101DD000818DFFF746FBE7E770B5044600680169AF
:101DE000E26821F44051114301612169A068E26970
:101DF00008436169114308432168CA6849F20C63CA
:101E00009A430243CA6020684169A26921F4407183
:101E10001143416131492068884202D030498842EB
:101E200002D1FFF7EDF801E0FFF7DAF8E2690023ED
:101E3000192164253226B2F5004F626828D0A0FB34
:101E40000101930F9200FEF70FFA0146B0FBF5F087
:101E50006FF01802504301EB800006EB0010B0FB5E
:101E6000F5F000F0F002B1FBF5F002EB0012B1FB6F
:101E7000F5F06FF01803584301EB800006EB0010FB
:101E8000B0FBF5F000F00F0021681044886070BDD1
:101E9000A0FB010192185B41FEF7E6F90146B0FB99
:101EA000F5F00201B1FBF5F06FF01803584301EBB8
:101EB000800006EBC000B0FBF5F000F0F80002EB8C
:101EC0004002B1FBF5F0584301EB800006EBC00087
:101ED000B0FBF5F000F00700D6E70000001001406D
:101EE0000014014038B58162044682850020134603
:101EF0006064222284F84220E56B1F4AEA63E56BA6
:101F00001E4A2A64E56B1E4AEA64E26B10650A46C3
:101F10002168E06B091DFEF7F9FD30B11020606407
:101F2000202084F84200012038BD20680168406804
:101F30000090206948B120680C3050E8001F41F43F
:101F4000807140E80012002AF5D12068143050E872
:101F5000001F41F0010140E80012002AF5D120687D
:101F6000143050E8001F41F0400140E80012002A00
:101F7000F5D1002038BD0000BD1B0008431C00083F
:101F8000731B00082DE9F843984617460D46044692
:101F9000089E24E0701C22D0FEF7E8FEA0EB0800AB
:101FA000B0421AD8CEB12068C168490717D5802D34
:101FB00015D0402D13D00168C94309070FD401681B
:101FC0000025406800902046FFF770FE08206064FE
:101FD00084F840500120BDE8F8830320FBE7206827
:101FE000006835EA000004D00020B842D2D00020BA
:101FF000F1E70120F9E700000148FFF771BA00009E
:102000005C000020FEE700000EB50120FEF75EFB3D
:1020100000282CD0174A032180208DE80700164B9A
:1020200000221649A3F52670FEF790FA00281ED06C
:1020300000200121CDE9000103460246029010492B
:102040001048FEF783FA98B10E4901F11C0000F028
:102050002FF868B10B480C4A0CA11C3000F058F85E
:1020600030B108480A211C3000F005F901200EBDEE
:1020700000200EBD750700089C0300205C000020B6
:10208000140000202001002000000020596177008A
:1020900010B5FEF715FB044880ED000ABDE81040BE
:1020A000024800F019B80000000000203C010020A8
:1020B00070B50D4604000DD065B14FF41871FEF7F0
:1020C0007CF92560FEF752FEC4F80801C4F80C0143
:1020D000012070BD002070BD10B5040017D0B4F809
:1020E0000401002813D094F85C0200280FD0FEF7FA
:1020F0003DFED4F80C11B4F80421411A914206D3E4
:10210000C4F80C012046BDE8104000F051B810BDE5
:1021100070B51646040005D021B11EB194F85C02DA
:10212000102801D3002070BD00EB800004EB800577
:1021300005F58E750F222846FEF766F90020E87334
:102140002E6194F85C02401C84F85C02012070BD92
:1021500070B5C0B014460E46050008D016B10CB1DB
:102160003F2C07D3D5F81801401CC5F818010020F2
:1021700040B070BDFEF7FAFDD5F80811DFED0B0A8F
:10218000401A00EE100AA2003146B8EE400A01A83B
:1021900080EE201A8DED001AFEF7DDF8641CA2B265
:1021A0006946284600F027F8E2E7000000007A447C
:1021B00000B591B028B190F85C1211B100216A46C7
:1021C00010E0002011B000BD01EB810300EB8303A0
:1021D000D3F82C3193ED000A02EB8103491C83ED07
:1021E000000AC9B290F85C328B42EDD8DAB2694687
:1021F000FFF7AEFFE6E770B504000AD0206818B11B
:1022000011B10AB13F2A06D9D4F81801401CC4F80C
:102210001801002070BD4FF6FF7000EA8205281DEE
:1022200086B22A46201DFEF796F86019002101713A
:102230004171802181717F21C1713246211D206849
:10224000FEF7B8F928B1D4F81011491CC4F81011E0
:1022500070BD21680A79012A07D1097C29B1D4F817
:102260001411491CC4F8141170BDD4F81811491C7C
:10227000C4F8181170BD10B5040005D0A4F80411FD
:10228000FEF774FDC4F80C0110BD0907090E002803
:1022900004DB00F1E02080F80014704700F00F002C
:1022A00000F1E02080F8141D70470000FEF76CFD7F
:1022B000FFF714FCFFF7B6FBFFF79EFBFFF7D0FB21
:1022C000FFF7EAFBFFF7A0FE18B100BFFFF7E0FE43
:1022D000FCE772B6FEE74FF04070E1EE100A70477F
:1022E0000006101600061016000000000000000096
:1022F00001020304060708090000000001020304AC
:10230000202300080000002014000000C401000881
:102310003423000814000020AC0A0000E00100088B
:10232000000000000100000010000000000000009C
:042330000024F40091
:040000050800018965
:00000001FF
