:020000040800F2
:10000000680A002089010008AB1800088115000863
:100010005D16000879040008551D00080000000066
:10002000000000000000000000000000AF18000801
:10003000BF04000800000000AD180008B118000857
:10004000A3010008A3010008A3010008A301000800
:10005000A3010008A3010008A3010008A3010008F0
:10006000A3010008A3010008A3010008A3010008E0
:10007000A3010008A30100087D040008890400080A
:10008000A3010008A3010008A3010008A3010008C0
:10009000A3010008A3010008A3010008A3010008B0
:1000A000A3010008A3010008A3010008A3010008A0
:1000B000A3010008A3010008A3010008A301000890
:1000C000A3010008A3010008A3010008A301000880
:1000D000A3010008491D0008A3010008A3010008AE
:1000E000A3010008A3010008A301000800F002F822
:1000F00000F03AF80AA090E8000C82448344AAF188
:100100000107DA4501D100F02FF8AFF2090EBAE885
:100110000F0013F0010F18BFFB1A43F0010318473B
:100120004024000060240000103A24BF78C878C141
:10013000FAD8520724BF30C830C144BF04680C60ED
:10014000704700000023002400250026103A28BF35
:1001500078C1FBD8520728BF30C148BF0B60704739
:100160001FB51FBD10B510BD00F0D7F81146FFF741
:10017000F7FF01F04BFF00F0F5F803B4FFF7F2FFD3
:1001800003BC00F0FDF8000009488047094800471B
:10019000FEE7FEE7FEE7FEE7FEE7FEE7FEE7FEE737
:1001A000FEE7FEE704480549054A064B7047000094
:1001B00013190008ED00000868040020680A0020F8
:1001C000680600206806002010B5203AC0F00B80B9
:1001D000B1E81850203AA0E81850B1E81850A0E84B
:1001E0001850BFF4F5AF5FEA027C24BFB1E81850A5
:1001F000A0E8185044BF18C918C0BDE810405FEA15
:10020000827C24BF51F8043B40F8043B08BF704790
:10021000D20728BF31F8023B48BF11F8012B28BF95
:1002200020F8023B48BF00F8012B70474FF0000256
:1002300000B5134694469646203922BFA0E80C50DC
:10024000A0E80C50B1F12001BFF4F7AF090728BFB7
:10025000A0E80C5048BF0CC05DF804EB890028BF33
:1002600040F8042B08BF704748BF20F8022B11F05C
:10027000804F18BF00F8012B704710B5044610F0EE
:10028000030F08BF11F0030F40F015804FF0013E3F
:10029000121FC0F20E8051F8043BA3EB0E0C2CEAA7
:1002A000030C1CEACE1C08BF40F8043BF0D0A1F1BF
:1002B000040102F10402521E08DB11F8013B002B7D
:1002C00000F8013BF7D1114600F005F8204610BDBB
:1002D0007047704770474FF000020429C0F0128049
:1002E00010F0030C3FF4A4AFCCF1040CBCF1020FEE
:1002F00018BF00F8012BA8BF20F8022BA1EB0C01BE
:10030000FFF796BF5FEAC17C24BF00F8012B00F81D
:10031000012B48BF00F8012B7047754600F02CF800
:10032000AE4605006946534620F00700854618B0E2
:1003300020B5FFF737FFBDE820404FF000064FF033
:1003400000074FF000084FF0000B21F00701AC460A
:10035000ACE8C009ACE8C009ACE8C009ACE8C00929
:100360008D46704710B50446AFF300802046BDE8C7
:100370001040FFF702BF000000487047040400204F
:1003800001491820ABBEFEE72600020070470000BE
:1003900010B50A4A002100BF52F821303BB15C7D04
:1003A0002CB11B68834202D152F8210010BD491CB8
:1003B000C9B20329F0D3002010BD0000280100209D
:1003C0002DE9F0410400DDE90760069D0DD061B123
:1003D000012A0AD80BB145B138B1032E05D2104F0E
:1003E00057F826C0BCF1000F02D00020BDE8F08114
:1003F00021602271A360A5810025A5732061267567
:10040000657547F82640204600F02AF810B1012013
:100410006075EBE747F8265025602561E5E70000A9
:100420002801002010B5040016D0607DA0B120681E
:1004300090B101B982B92379012B04D0642301F072
:1004400007F858B108E0A37B33B90123A37301F087
:100450004FF818B10020A073002010BD012010BD7E
:1004600010B5816831B18289006800F0B9FD08B12A
:10047000002010BD012010BDFEE70000014800F083
:1004800091B80000E4000020014800F08BB80000A3
:10049000A000002030B590F840500124AC40C56B5E
:1004A0006C60046863604368102B036803D0996034
:1004B0000068C26030BD9A600068C16030BD70479E
:1004C00072B6FEE710B590F821100022022905D07F
:1004D0000421816380F82020012010BD01680B6891
:1004E00023F00E030B6001680B6823F001030B601F
:1004F00090F84030C46B012101FA03F3636080F887
:10050000211080F82020104610BD000010B590F892
:1005100021100024022903D00421816301243DE03D
:1005200001680A6822F00E020A6001680A6822F077
:1005300001020A601A4A0168914201D1012121E0B9
:10054000174A1432914201D110211BE0144A28327B
:10055000914201D1891515E0114A3C32914201D1F5
:1005600089140FE00E4A5032914202D14FF480318B
:1005700008E00B4A6432914202D14FF4801101E04D
:100580004FF08071064A083A5160012180F821102D
:10059000002180F82010416B01B18847204610BD32
:1005A000080002402DE9F05FC16B0C6801680B6820
:1005B000D0F840C0042202FA0CF2494DDFF824A121
:1005C000494E4A4FDFF828B1DFF828E122422CD00B
:1005D0005A072AD50A68920603D40A6822F0040250
:1005E0000A600168A94201D1042219E0514501D1F4
:1005F000402215E0B14202D14FF4806210E0B942CE
:1006000002D14FF480420BE0594502D14FF48022D1
:1006100006E0714502D14FF4800201E04FF08062A4
:100620002F4908394A60C16A3BE04FF0020808FAD6
:100630000CF818EA040F4FF000094FF0010235D012
:100640005FEA837832D50B689B0605D40B6823F0EC
:100650000A030B6080F821200168A94201D102221F
:1006600019E0514501D1202215E0B14202D14FF4E9
:10067000007210E0B94202D14FF400520BE059452C
:1006800002D14FF4003206E0714502D14FF400125E
:1006900001E04FF00072124908394A6080F820905A
:1006A000816A00291AD0BDE8F05F0847082505FADD
:1006B0000CF5254212D01B0710D50B6823F00E0352
:1006C0000B6090F84010C36B02FA01F1596082632D
:1006D00080F8212080F82090016BE2E7BDE8F09FD0
:1006E000080002401C00024030000240440002406A
:1006F000580002406C00024030B528B308C81349C6
:1007000014221944B1FBF2F18900C16310498163DD
:10071000022141771A6843F6F0718A43D0E9001448
:100720002143D0E902452C43214304692143446914
:10073000214384692143114319600021416301224F
:1007400042770177084630BD012030BDF8FFFDBF7C
:100750000000024070B5044690F8200000250128F2
:100760000CD0012084F8200094F821600020012E94
:1007700006D084F820000225284670BD022070BDF6
:10078000022684F82160A0632068066826F001062E
:1007900006602046FFF77EFEE06A002820680168B8
:1007A00002D041F00E0106E021F004010160206852
:1007B000016841F00A0101602068016841F001010F
:1007C0000160D9E72DE9F84FDFF8B8910024A9F1CD
:1007D000040B23460F2709F1040AABF1040EC9E00C
:1007E0000125A5402A40AA427DD1674ED1F804C018
:1007F000ACEB0608B44532D014DCBCF1030F3AD0A0
:1008000009DCBCF1000F2AD0BCF1010F1CD0BCF1F7
:10081000020F31D11DE0BCF1110F17D0BCF1120F46
:100820002AD119E0B8F5881F19D006DCB8F5803F49
:1008300015D0B8F5801F1FD111E0B8F5001F0ED0FC
:10084000B8F5041F18D10AE0CB6815E0CB681B1D72
:1008500012E0CB6808330FE0CB680C330CE08B68F8
:100860002BB1012B4FF0080303D0456104E00423B2
:1008700002E0056100E00023FF2A01D8064601E0FE
:1008800000F104064FEA840501D9A5F12005D6F848
:10089000008007FA05FC28EA0C0803FA05F548EA87
:1008A0000508C6F800804D68ED0062D5374DAE6989
:1008B00046F00106AE61AD6924F0030605F00105BE
:1008C0000095334D06EB050CDCF80850A607360FF3
:1008D00007FA06F825EA0805DFF8B880404503D195
:1008E0004FF0000817E044E0DFF8AC80404502D14B
:1008F0004FF001080FE0DFF8A480404502D14FF02F
:10090000020808E0DFF89880404502D14FF0030864
:1009100001E04FF0040808FA06F848EA0508CCF8A8
:1009200008804D68D9F80060ED024D4601D51643A8
:1009300000E096432E604D68DAF80060AD0255463F
:1009400001D5164300E096432E604D68DBF8006049
:10095000AD035D4601D5164300E096432E604D6819
:10096000DEF80060ED03754601D5164300E09643BE
:100970002E60641C0D682A46E5407FF431AFBDE867
:10098000F88F000008040140000011100010024020
:100990000000014000080140000C0140001001402F
:1009A00000140140014880687047000000000020EA
:1009B000024881680278114481607047000000207D
:1009C000074810B5016841F010010160032000F0F4
:1009D00075F80F2000F006F800F024F8002010BD94
:1009E0000020024070B50D4D04464FF47A7128780E
:1009F000B1FBF0F00A490968B1FBF0F000F0DCFA55
:100A000048B9102C07D200222146501E00F036F8BB
:100A100000206C6070BD012070BD0000000000204F
:100A20000C0000200C4808B5816941F0010181618A
:100A3000816901F001010091C16941F08051C161FA
:100A4000C06900F0805000900448416821F0E061E6
:100A500041F00071416008BD0010024000000140FB
:100A6000002809DB00F01F020121914040098000AD
:100A700000F1E020C0F8001170470000F0B40E4B08
:100A80001B680C46C3F30223C3F10705042D00D9EC
:100A90000425191D072901D2002300E0DB1E0126D1
:100AA00006FA05F1491E214099409E40761E1640E7
:100AB0003143F0BC01F09ABA0CED00E0064900F0B9
:100AC000070208684FF6FF03184040EA0220034A75
:100AD00010430860704700000CED00E00000FA05CC
:100AE0002DE9F0470F46050061D0434E306800F015
:100AF0000700B84209D2306820F007003843306060
:100B0000306800F00700B84251D128683B4C81079B
:100B100012D5400703D5606840F4E0606060287833
:100B2000000703D5606840F4605060606068A968A1
:100B300020F0F000084360602878C00728D068687B
:100B4000012810D02168022810D0890700292EDA48
:100B5000616821F0030101436160FFF723FF8046D4
:100B600041F288390DE021688903EFE78901EDE75B
:100B7000FFF718FFA0EB0801494502D90320BDE8A3
:100B8000F0876068696800F00C00B0EB810FEFD16E
:100B9000306800F00700B8420BD9306820F0070039
:100BA00038433060306800F00700B84201D00120BF
:100BB000E5E72878400705D56068E96820F4E0603B
:100BC000084360602878000706D56068296920F42A
:100BD000605040EAC100606000F038F86168084A7F
:100BE000C1F30311515CC84006490860064800681B
:100BF000FFF7F8FE0020C2E700200240001002408C
:100C0000482500080C000020040000200448054985
:100C100000684968044AC1F30221515CC84070472A
:100C20000C00002000100240582500080448054927
:100C300000684968044AC1F3C221515CC84070474A
:100C40000C00002000100240582500080E4A516890
:100C50000E4801F00C03042B11D0082B0FD10C48C7
:100C6000C1F38343C903C05C0AD55168084AC1F384
:100C70004041921E515C054A5043B0FBF1F0704771
:100C800004494843704700000010024000127A00F7
:100C90003825000800093D002DE9F84F040070D008
:100CA0002078C04DC00749D06868C0F38100012892
:100CB00007D06868C0F38100022809D16868C003C2
:100CC00006D52868800339D560680028E7D035E06C
:100CD0006068B0F5803F0BD010B1B0F5A02F11D0F7
:100CE000286820F480302860286820F4802002E002
:100CF000286840F480302860606890B1FFF752FEA9
:100D000006460AE0286840F480202860F0E700BF2B
:100D1000FFF748FE801B642873D828688003F7D546
:100D20000CE0FFF73FFE064605E000BFFFF73AFE86
:100D3000801B6428F0D828688003F7D420789A4E66
:100D400080074FF001094FF0000839D5686810F0AE
:100D50000C0F07D06868C0F38100022809D16868C9
:100D6000C00306D42868800714D52069012808D15B
:100D700010E02069B0B1C6F80090FFF713FE0746F7
:100D800005E00AE1FFF70EFEC01B0228C4D8286860
:100D90008007F7D52868616920F0F80040EAC100B3
:100DA00028600DE0C6F80080FFF7FCFD074604E070
:100DB000FFF7F8FDC01B022823D828688007F7D466
:100DC000207800072CD57948A169D9B1C0F80090E6
:100DD000FFF7E8FD074604E0FFF7E4FDC01B02282B
:100DE0000FD8686A8007F7D571484FF4FA51006848
:100DF000B0FBF1F0009000BF0098411E0091FAD2C4
:100E00000EE080E0C0F80080FFF7CCFD074604E06C
:100E1000FFF7C8FDC01B022875D8686A8007F7D4A1
:100E20002078400760D5E8690027C00008D4E86949
:100E300040F08050E861E869012700F080500090A0
:100E40005C480168C90513D40168834641F4807188
:100E50000160FFF7A7FD824606E000BFFFF7A2FD95
:100E6000A0EB0A0064284ED8DBF80000C005F5D5D9
:100E7000E06801280AD008B1052813D0286A20F0BC
:100E800001002862286A20F0040002E0286A40F08D
:100E900001002862E06841F2883B98B1FFF782FDCB
:100EA00082460BE0286A40F004002862EEE700BFAB
:100EB000FFF778FDA0EB0A0159455AD8286A800748
:100EC000F6D50CE0FFF76EFD824605E0FFF76AFD00
:100ED000A0EB0A0159454CD8286A8007F6D41FB107
:100EE000E86920F08050E861E06988B36968C1F37F
:100EF0008101022944D00228C6F8608004D0FFF79F
:100F000051FD044638E034E0FFF74CFD074604E0AD
:100F1000FFF748FDC01B02282BD828688001F7D4B2
:100F2000206AB0F5803F05D16868A16820F40030E0
:100F300008436860D4E908010843696821F4741122
:100F400008436860C6F86090FFF72CFD044606E091
:100F500025E000BFFFF726FD001B022809D82868FE
:100F60008001F7D51BE000BFFFF71CFD001B022826
:100F700002D90320BDE8F88F28688001F4D40EE080
:100F80000128F7D06868226A00F48031914204D1C8
:100F9000616A00F47010884201D00120EAE7002065
:100FA000E8E7000000100240000042428004424294
:100FB0000C0000200070004010B5401EB0F1807F92
:100FC00001D3012010BD4FF0E02460610F216017B4
:100FD00001F00CF80020A06107202061002010BD66
:100FE00038B5044690F84200202801D0022038BDD0
:100FF00051B14AB10120206300206063204600F017
:1010000021FE216B012901D0012038BD21680A6829
:101010004968009121680C3151E8002F42F010021C
:1010200041E80023002BF5D138BD70B50D46FFF720
:10103000AFF904000CD0A168002909D01DB12369C3
:101040000BB12A4698472046BDE87040FFF708BA22
:1010500070BD7047F8B5016804460868CA684B69F6
:1010600010F00F0F4FF0000559D003F0010602F405
:101070009077374365D0C10705D0D10503D5616CA2
:1010800041F001016164410705D5D90703D0616CC6
:1010900041F002016164810705D5D90703D0616C75
:1010A00041F004016164010707D502F020013143DA
:1010B00003D0616C41F008016164616C00293AD091
:1010C000800604D5900602D5204600F0FDFC20687D
:1010D0004069616CC0F38010090700D460B32046FA
:1010E00000F0BDFC20684069400621D5206814301E
:1010F00050E8001F21F0400140E80012002AF5D11D
:10110000E06BA8B16D494163E06BFFF7FFF9002880
:1011100011D0E06B416B01B0BDE8F0400847830699
:101120000FD593060DD52046BDE8F84000F0CCBCA5
:101130002046FFF78EFFF8BD2046FFF78AFF656463
:10114000F8BD266B2023012E7CD1C6067AD5D606A3
:1011500078D508684868009048694FF00206400654
:1011600040D5E16B086840680004000CE8D0A28D0F
:101170008242E5D9E085886920282DD020680C308E
:1011800050E8001F21F4807140E80012002AF5D1D8
:101190002068143050E8001F21F0010140E80012DF
:1011A000002AF5D12068143050E8001F21F04001DA
:1011B00040E80012002AF5D184F842302563206807
:1011C0000C3050E8001F21F0100140E80012002A06
:1011D000F5D1E06BFFF776F96663A08DE18D401ADB
:1011E00081B22AE0A08DE18D401A81B2E08D002805
:1011F000A6D00029A4D022680C3252E8000F20F4B7
:10120000907042E80007002FF5D12068143050E8B4
:10121000002F22F0010240E80027002FF5D184F8CA
:101220004230256320680C3050E8002F22F0100275
:1012300040E80023002BF5D166632046FFF7F5FE5A
:10124000F8BDFFE705062BD5150629D594F8410012
:101250002128F5D1A068B0F5805F01D12069B0B137
:10126000206A411C2162216800784860E08C401EA1
:101270000004000CE084E3D12068C16821F0800103
:10128000C1602068C16841F04001C160D8E7206AB0
:101290000088C0F308004860206A801C2062E5E7EF
:1012A0004006CDD55006CBD5CA68204622F0400274
:1012B000CA6084F8413000F057F9C1E715190008F9
:1012C00070B5040004D094F84100002510B106E088
:1012D000012070BD84F84050204600F023F82420FF
:1012E00084F841002068C16821F40051C1602046A3
:1012F00000F04CFC2068016921F4904101612068F4
:10130000416921F02A0141612068C16841F400511E
:10131000C1606564202084F8410084F84200656360
:10132000002070BDF0B585B00024009401940294B3
:10133000039406463F4F03683F48022103223F4D76
:10134000BB4252D1836943F480438361836903F4D0
:1013500080430493836943F00403836180690392AB
:1013600000F0040004900802CDE900016946284617
:10137000FFF728FA2815CDE90004694628460294AB
:10138000FFF720FA2F4D2E488027C5E90004C5E954
:10139000024720202C61C5E905402846EC61FFF793
:1013A000ABF908B1FFF78CF8F5636E62254D244860
:1013B0004435143801C5102091C5224845F810491C
:1013C00044306C61AC61EC61FFF796F908B1FFF74E
:1013D00077F8B5630022114625206E62FFF74EFBB9
:1013E0002520FFF73DFB05B0F0BD174EB342FAD103
:1013F000C36943F40033C361C36903F40033049346
:10140000836943F0040383618069039200F0040060
:1014100004900420CDE9000169462846FFF7D2F97F
:101420000820CDE90004694628460294FFF7CAF96E
:10143000D9E70000003801400010024000080140D8
:1014400058000240A0000020004400407047704750
:101450002DE9F843044690F84100984616460D469B
:10146000202802D00220BDE8F88385B17EB100209B
:101470006064212084F84100FFF794FAA684814635
:10148000E684A0682027B0F5805F02D003E0012049
:10149000E9E7206910B12E4600250EE000260CE099
:1014A0008021204600F016FCA8B9C6B116F8010B41
:1014B00021684860E08C401EE084E08C4B464FF091
:1014C0000002CDF800800028EAD14FF0400120460C
:1014D00000F000FC40B184F841700320C3E735F808
:1014E000020BC0F30800E3E784F841700020BAE77C
:1014F00070B5044690F84100202801D0022070BD4C
:1015000049B342B32162A284E284002060642123B3
:1015100084F84130A56B114BAB62A56B104BEB62AD
:10152000A56B104B2B63A36B5863256813462A1DCC
:10153000A06BFFF70FF921686FF04000086020688A
:10154000143050E8001F41F0800140E80012002AEA
:10155000F5D1002070BD012070BD0000131A0008F5
:10156000551A00082519000810B5FEF711FF0028CC
:1015700004D00179012901D10021817310BD704788
:10158000FEE700000D4808B5416941F001014161E5
:101590004069002200F00100009011460E20FFF784
:1015A0006DFA0E20FFF75CFA002211460F20FFF7BC
:1015B00065FABDE808400F20FFF752BA001002405C
:1015C000094808B5816941F020018161816901F014
:1015D00020010091816941F004018161806900F07E
:1015E0000400009008BD0000001002400C4810B537
:1015F0000A4901604FF4E1314160002181600C2211
:10160000C160C0E904128161C161FFF759FE002881
:1016100003D0BDE81040FEF753BF10BD00380140B5
:10162000100000200C4810B50A4901604FF4E13168
:101630004160002181600C22C160C0E90412816117
:10164000C161FFF73DFE002803D0BDE81040FEF762
:1016500037BF10BD0044004058000020FEE70000E6
:101660002DE9F0410678044606F00F006421484356
:1016700000F002FE67780546380900EB8000400064
:1016800000F0FAFD294600F0D3FC054607F00F00F4
:1016900000F0F2FD294600F0CBFCA778054638099A
:1016A00000F0EAFD0C4900F0FBFD294600F0C0FC0B
:1016B000044607F00F0000F0DFFD084900F0F0FDE0
:1016C000214600F0B5FC0121B1EB161F01D180F0DD
:1016D0000040BDE8F0810000CDCCCC3D0AD7233CD2
:1016E00070B50C46050005D0002C03D02021FEF774
:1016F0009DFD2C6070BD00002DE9F84F16460D468B
:101700005FEA00097BD0002D79D000244FF0010B57
:10171000DFF8F0A070E0285D77286BD128190090E1
:10172000407800F101080D2860D10098C078842825
:101730005CD1009B4746B8F1050F57D30E2F55D10A
:1017400000220121781E05E013F801C0491C624403
:10175000D2B289B28142F7D3D81910F8010C904265
:1017600044D15F46181DFFF77BFFC9F804000098BD
:10177000C01DFFF775FFC9F8080000980A30FFF791
:101780006FFF009099F8180030B1D9F81010009848
:1017900000F05CFE1C4F0BE00098C9F81000002020
:1017A000C9F8140089F8187014E0514600F04EFE94
:1017B000B842FADA154FB84203D9514600F038FC66
:1017C000F9E7D9F8141000F037FEC9F814000098B2
:1017D000C9F810000E49D9F8140000F029FCC9F826
:1017E0000C00D9F81C00401CC9F81C0004EB0800D0
:1017F000401E84B2641CA4B2A01CB0428BD9BDE8C8
:10180000F88F00000000B44300003443000034C3EC
:101810008FC235400148FFF76FBF00006C01002008
:101820002DE9FC41002829D00468002C26D077241B
:101830008DF800401C1DE5B28DF8015000248DF894
:1018400002408DF8031021466C4604E0565C671890
:10185000491C3E71C9B29942F8D30022012104E02B
:10186000665C491C3244D2B2C9B28D42F8D8E11844
:101870000A7100685A1D2146FEF7D4FDBDE8FC81BF
:1018800038B5054600200C468DF8000001236A4655
:1018900056212846FFF7C4FF8DF8004001236A4611
:1018A0000C212846FFF7BCFF38BDFEE770477047A4
:1018B000FFF77EB830B58FB028216846FEF7B6FC3A
:1018C00014210AA8FEF7B2FC01210804CDE900109A
:1018D0000024029402250491CDE907504FF4E01052
:1018E00009906846FFF7D8F908B172B6FEE70F20F5
:1018F000CDE90A054FF48060CDE90C4002210AA829
:101900000E94FFF7EDF8002801D072B6FEE70FB095
:1019100030BD704710B5406A0021C185C184FFF712
:1019200098FB10BD70B5446A2068406994F8411076
:10193000C0F3C0100025212904D118B1E584204648
:1019400000F0B4F82068406994F84210C0F38010A9
:10195000222904D118B1E585204600F080F8606C9A
:1019600040F0100060642046FFF773FB70BD10B5B7
:101970000146406A096809684FF0000289062ED4C2
:10198000C28501680C3151E8003F23F4807341E8BF
:101990000034002CF5D10168143151E8003F23F0E8
:1019A000010341E80034002CF5D10168143151E8FD
:1019B000003F23F0400341E80034002CF5D1202102
:1019C00080F84210016B012909D101680C3151E8FE
:1019D000003F23F0100341E80034002CF5D14263AE
:1019E000016B012902D0FFF731FD10BD818DFFF79A
:1019F0001CFB10BD10B5406A01214163016B012938
:101A000002D0FFF724FD10BD818D4908FFF70DFBC3
:101A100010BD10B50146406A09680968890616D4E8
:101A20000021C1840168143151E8002F22F08002A6
:101A300041E80023002BF5D101680C3151E8002F5B
:101A400042F0400241E80023002BF5D110BDFFF722
:101A50008BFD10BD10B5406AFFF791FD10BD016808
:101A60000C3151E8002F22F4907241E80023002B42
:101A7000F5D10168143151E8002F22F0010241E84C
:101A80000023002BF5D1016B012909D101680C312C
:101A900051E8002F22F0100241E80023002BF5D17D
:101AA000202180F8421000210163704701680C3149
:101AB00051E8002F22F0C00241E80023002BF5D1AD
:101AC000202180F84110704708B590F84210222973
:101AD00001D0022008BD82684FF480539A4201D1A0
:101AE000016921B1816A9A421BD04AB10AE00268B9
:101AF000816A5268C2F308020A80816A891C08E080
:101B0000026972B10268526802F07F020A70816A4B
:101B1000491C8162C18D491E0904090CC18503D08D
:101B20001BE002685268F1E70168CA6822F02002EF
:101B3000CA600168CA6822F48072CA6001684A6992
:101B400022F001024A61202180F842100021416305
:101B5000026B012A03D0FFF779FC002008BD016366
:101B600001680C3151E8002F22F0100241E80023F7
:101B7000002BF5D101680A68D20602D50A684968C7
:101B80000091818DFFF751FAE7E7000070B5044638
:101B900000680169E26821F4405111430161216943
:101BA000A0680843616908432168CA6841F20C6370
:101BB0009A430243CA6020684169A26921F44071D6
:101BC000114341611E492068884202D1FFF72EF877
:101BD00001E0FFF71BF800EBC00101EB00126068A9
:101BE00064218000B2FBF0F3B3FBF1F36FF0180651
:101BF0007343B2FBF0F5B2FBF0F605EB830532233D
:101C000003EB0515B5FBF1F5B6FBF1F605F0F005B4
:101C100005EB0615B2FBF0F6B2FBF0F0B0FBF1F00D
:101C20006FF01802504306EB800003EB0010B0FB8E
:101C3000F1F0216800F00F002844886070BD0000BA
:101C40000038014038B58162044682850020134681
:101C50006064222284F84220E56B1B4AAA62E56B8D
:101C60001A4AEA62E56B1A4A2A63E26B50630A4633
:101C70002168E06B091DFEF76DFD20680168406872
:101C80000090206948B120680C3050E8001F41F4F2
:101C9000807140E80012002AF5D12068143050E825
:101CA000001F41F0010140E80012002AF5D1206830
:101CB000143050E8001F41F0400140E80012002AB3
:101CC000F5D1002038BD00006F190008F519000893
:101CD000251900082DE9F843984617460D46044695
:101CE000089E24E0701C22D0FEF75CFEA0EB0800EA
:101CF000B0421AD8CEB12068C168490717D5802DE7
:101D000015D0402D13D00168C94309070FD40168CD
:101D10000025406800902046FFF7A1FE082060647F
:101D200084F840500120BDE8F8830320FBE72068D9
:101D3000006835EA000004D00020B842D2D000206C
:101D4000F1E70120F9E700000148FFF783B900003F
:101D500010000020FEE700003EB5254901F1180003
:101D6000FFF7BEFC00242021CDE900142148204BC0
:101D70000290203B224620491D48FEF721FB20B15E
:101D80001B4806211830FFF77BFD0120CDE90040FC
:101D9000174800231A46194938300294FEF710FB01
:101DA000002824D01249383101F1180000F038F829
:101DB00000281CD00E4A12A11C3202F1340000F09F
:101DC0005FF80B4A10A1203202F1300000F058F801
:101DD000074A0FA1243202F12C0000F051F803B0A1
:101DE0000348BDE830401421503000F0F5B83EBD46
:101DF0005401002015180008100000205800002091
:101E00007069746368000000726F6C6C0000000001
:101E100079617700014800F017B80000A4010020A4
:101E200070B50D4604000DD065B14FF41871FEF782
:101E3000FDF92560FEF7B6FDC4F80801C4F80C01F1
:101E4000012070BD002070BD10B5040017D0B4F89B
:101E50000401002813D094F85C0200280FD0FEF78C
:101E6000A1FDD4F80C11B4F80421411A914206D313
:101E7000C4F80C012046BDE8104000F04DB810BD7C
:101E800070B51646040005D021B11EB194F85C026D
:101E9000102801D3002070BD00EB800004EB80050A
:101EA00005F58E750F222846FEF7E7F90020E87346
:101EB0002E6194F85C02401C84F85C02012070BD25
:101EC00070B5C0B014460E46050008D016B10CB16E
:101ED0003F2C07D3D5F81801401CC5F81801002085
:101EE00040B070BDFEF75EFDD5F80811401A00F055
:101EF000C3F9084900F0FEF80090A200314601A89D
:101F0000FEF762F9641CA2B26946284600F024F884
:101F1000E6E7000000007A4400B591B028B190F8DF
:101F20005C1211B100216A460DE0002011B000BD25
:101F300001EB810300EB8303D3F82C311B6842F8DB
:101F40002130491CC9B290F85C328B42F0D8DAB229
:101F50006946FFF7B5FFE9E770B504000AD02068CD
:101F600018B111B10AB13F2A06D9D4F81801401CA2
:101F7000C4F81801002070BD4FF6FF7000EA82051A
:101F8000281D86B22A46201DFEF71EF96019002181
:101F900001714171802181717F21C1713246211D02
:101FA0002068FEF73FFA28B1D4F81011491CC4F894
:101FB000101170BD21680A79012A07D1897B29B1E6
:101FC000D4F81411491CC4F8141170BDD4F81811B8
:101FD000491CC4F8181170BD10B5040005D0A4F850
:101FE0000411FEF7DFFCC4F80C0110BD0907090E4F
:101FF000002804DB00F1E02080F80014704700F0B6
:102000000F0000F1E02080F8141D7047FEF7D8FCA7
:10201000FFF750FCFFF7D4FAFFF7B4FAFFF7E6FA40
:10202000FFF700FBFFF798FEFFF7F4FEFCE7000068
:1020300090EA010F48BF81F0004100F10E82421A80
:102040003CBF801A89184FEAD0524FF07F4C1CEAEF
:10205000410FA2EBD15318BF9CEA026F00F03B8006
:102060004FF0004C4CEA00204CEA012121FA03FC1D
:1020700010EB0C0C1ED202F1FF325FEA1C2040EB89
:10208000C25038BF70471CF07F0F4FEA400C18BF9A
:10209000BCF17F4F38BF7047C3F12003994008BFA0
:1020A00020F00100BCF17F4F38BF7047A0F1C04065
:1020B00000F0BDB94FEA3C00000A40EBC25028BF17
:1020C0001CF0FF0F4FEA400CE6D018BFBCF17F4F69
:1020D00038BF7047EAE79CEA026F05D010EA5C0F50
:1020E00008BF00F00040704710B500F05AF900BF7B
:1020F00064FBBE3E4FF47F0C1CEAD0121EBF1CEAEC
:10210000D11392EA0C0F93EA0C0F00F0858090EA4D
:10211000010F48BF42F4807240F4000C41F400000B
:102120002CF07F4120F07F4000B58142A2EB0302FA
:102130000FF2081CACEB504EC0F100009EF800E01E
:102140004FEA4E0E00FB0EFC38BF49004FEA2C1C34
:1021500002F5FA020CFB0EF34FEACE1E4FEA112CE9
:102160004FEAC1210EEB635E42EB22420EFB0CFCF8
:102170004FEA1C5300FB03114FEA112C4FEA0131C7
:102180000EFB0CFC4FEADC4C00FB0C11C14228BFDB
:1021900009184CEB03335DF804EB10EB410143EB02
:1021A000C250B2F57C0F38BF704729D512F0F00F3E
:1021B0001CBF00F1C04000F00040704700818283E6
:1021C0008485868788898B8C8D8E8F919293959646
:1021D00097999A9C9D9FA0A2A3A5A7A8AAACAEB0D0
:1021E000B2B3B5B7B9BCBEC0C2C5C7C9CCCED1D4D5
:1021F000D7D9DCDFE2E6E9ECF0F3F7FAFE00000005
:102200004FEA400C0CF1807CBCF17E4F28BF704738
:10221000B0F1C04000F00BB990EA010F0CEAD11305
:1022200048BF42F48072624538BF634507D213F459
:102230007F0F16D080EA010000F00040704710B513
:1022400000F0AFF8097EFC3E00F005B880EA01001E
:1022500000F00040704780EA010000F0004000F00C
:10226000E6B812F47F0F04BF0248704780EA01000D
:1022700000F0DDB80000C07FB0FA80F310FA03F27E
:10228000C3F19D030AD0D90501EB1220530638BFD4
:10229000704700F1010008BF20F001007047000006
:1022A0004FF47F0C1CEAD0121EBF1CEAD11392EA35
:1022B0000C0F93EA0C0F00F0478090EA010F48BF23
:1022C00042F480724FF0004C4CEA00204CEA0121AD
:1022D00002EB0302A0FB0113A2F50002002918BFC4
:1022E00043F001035B0028BF4FEA330342EB224275
:1022F0005FEA132C4CEBC2502EBFBCEB436FB2F520
:102300007C0F70474FEA036CBCF1004F08BF20F010
:102310000100B2F57C0F38BF70470BD582F0FF0289
:1023200012F5803FC8BF704700F1C040D8BF00F031
:102330000040704700F5000C5FEA4C0C48BF704746
:10234000B0F1C04000F073B890EA010F0CEAD1136D
:1023500048BF42F48072624538BF634504D280EAC8
:10236000010000F00040704710B500F01AF800BFFF
:102370008900013E00F007B800F009B85FEA410C9F
:102380005FEA1C6C08D080EA010000F050B85FEAF8
:10239000400C5FEA1C6CF6D14FF00040A0F58000C5
:1023A00070470EF1020E2EF0030E5EF8044B24422D
:1023B00004D44FEA4102B2F17F4F11D84FEA4003F3
:1023C000B3F17F4F0CD80ED14FEAD07CB2F17F4FE2
:1023D0000CEB4C0C0CF1020C08BF4CEBD17C04E074
:1023E0004FF0080C01E04FEAD17C0CEB4C0324FACF
:1023F00003F404F00704B4F1040C06D20EEB840CD1
:10240000BDE810404CF0010C6047DFE80CF0070815
:1024100002024FF00040A0F5800010BD08464200C7
:1024200018BFD2F1807288BF00F0004010BDFF21BC
:1024300041EAD050C005704780F0004090EA010F9B
:102440007FF5FDAD81F0004100F007B890EA010F83
:1024500048BF81F000413FF5F2AD421A04D882F046
:102460000042A0EB020011444FEAD0524FF07F4CE3
:102470001CEA410FA2EBD15318BF9CEA026F4AD06D
:102480004FF0004C4CEA00204CEA012121FA03FCF9
:10249000B0EB0C0C0FD412F0FE0F36D05FEA4C00FC
:1024A0001DD5001240EBC25038BF70471CF03F0FE3
:1024B00018BF70470BE0A2F101025FEA1C2040EB5D
:1024C000C25038BF70471CF07F0F18BF7047C3F170
:1024D0002003994014BF401E20F00100704780087F
:1024E0004FEA122308BF7047B0FA80FCA2EB0C023F
:1024F000CCF1280C60FA0CF093EA122F04BF00EB29
:10250000C25070474FEAC3707047130A5FEADC108D
:1025100008BF7047F6E79CEA026F04D010EA5C0F30
:1025200008BF0020704710B5FFF73BFF40DFF63EC5
:1025300081F0004070470102020304050607080904
:102540000A0B0C0D0E0F1010000000000000000020
:102550000102030406070809000000000102030449
:10256000802500080000002010000000280100085D
:102570009025000810000020580A000044010008BF
:1025800001000000100000000000000000127A00AE
:04000005080000ED02
:00000001FF
