:020000040800F2
:10000000100A002089010008C31B00082D170008F2
:10001000C11B00081D0400085D200008000000004E
:10002000000000000000000000000000C71B0008E6
:100030004904000800000000C51B0008C91B000897
:10004000A3010008A3010008A3010008A301000800
:10005000A3010008A3010008A3010008A3010008F0
:10006000A3010008A3010008A3010008A3010008E0
:10007000A3010008A3010008A3010008A3010008D0
:10008000A3010008A3010008A3010008A3010008C0
:10009000A3010008A3010008A3010008A3010008B0
:1000A000A3010008A3010008A3010008A3010008A0
:1000B000A3010008A3010008A3010008A301000890
:1000C000A3010008A3010008A3010008A301000880
:1000D000A3010008A301000851200008A3010008A3
:1000E000A3010008A3010008A301000800F002F822
:1000F00000F03AF80AA090E8000C82448344AAF188
:100100000107DA4501D100F02FF8AFF2090EBAE885
:100110000F0013F0010F18BFFB1A43F0010318473B
:100120005026000070260000103A24BF78C878C11D
:10013000FAD8520724BF30C830C144BF04680C60ED
:10014000704700000023002400250026103A28BF35
:1001500078C1FBD8520728BF30C148BF0B60704739
:100160001FB51FBD10B510BD00F08AF81146FFF78E
:10017000F7FF02F05DF800F0A8F803B4FFF7F2FF14
:1001800003BC00F0AFF80000094880470948004769
:10019000FEE7FEE7FEE7FEE7FEE7FEE7FEE7FEE737
:1001A000FEE7FEE704480549054A064B7047000094
:1001B0001D1C0008ED00000810040020100A00209B
:1001C000100600201006002010B5203AC0F00B8069
:1001D000B1E81850203AA0E81850B1E81850A0E84B
:1001E0001850BFF4F5AF5FEA027C24BFB1E81850A5
:1001F000A0E8185044BF18C918C0BDE810405FEA15
:10020000827C24BF51F8043B40F8043B08BF704790
:10021000D20728BF31F8023B48BF11F8012B28BF95
:1002200020F8023B48BF00F8012B70474FF0000256
:1002300000B5134694469646203922BFA0E80C50DC
:10024000A0E80C50B1F12001BFF4F7AF090728BFB7
:10025000A0E80C5048BF0CC05DF804EB890028BF33
:1002600040F8042B08BF704748BF20F8022B11F05C
:10027000804F18BF00F8012B7047704770477047D8
:10028000754600F02BF8AE4605006946534620F04F
:100290000700854618B020B5FFF784FFBDE8204071
:1002A0004FF000064FF000074FF000084FF0000B32
:1002B00021F00701AC46ACE8C009ACE8C009ACE8E5
:1002C000C009ACE8C0098D46704710B50446AFF3CD
:1002D00000802046BDE81040FFF74FBF0048704740
:1002E000B003002001491820ABBEFEE72600020043
:1002F000704728B121B101600121017108467047A2
:10030000002070473EB5069C78B105796DB1006854
:1003100058B17F2909D843B13CB10A258DE838008E
:100320004900012300F0F4FA08B100203EBD01208D
:100330003EBD000010B50A4A002100BF52F821302E
:100340003BB15C7D2CB11B68834202D152F8210085
:1003500010BD491CC9B20729F0D3002010BD000010
:10036000A40200202DE9F0410400DDE90760069DAC
:100370000DD061B1012A0AD80BB145B138B1072EB1
:1003800005D2104F57F826C0BCF1000F02D0002054
:10039000BDE8F08121602271A360A5810025A573CD
:1003A00020612675657547F82640204600F02AF83A
:1003B00010B101206075EBE747F8265025602561F4
:1003C000E5E70000A402002010B5040016D0607D0F
:1003D000A0B1206890B101B982B92379012B04D072
:1003E000642301F00BF958B108E0A37B33B9012372
:1003F000A37301F053F918B10020A073002010BDC1
:10040000012010BD10B5816831B18289006800F00B
:1004100011FF08B1002010BD012010BDFEE730B56E
:1004200090F840500124AC40C56B6C600468636078
:100430004368102B036803D099600068C26030BD28
:100440009A600068C16030BD704772B6FEE710B5B3
:1004500090F821100022022905D00421816380F840
:100460002020012010BD01680B6823F00E030B60F3
:1004700001680B6823F001030B6090F84030C46BF7
:10048000012101FA03F3636080F8211080F8202035
:10049000104610BD10B590F821100024022903D099
:1004A0000421816301243DE001680A6822F00E0204
:1004B0000A6001680A6822F001020A601A4A0168AB
:1004C000914201D1012121E0174A1432914201D118
:1004D00010211BE0144A2832914201D1891515E000
:1004E000114A3C32914201D189140FE00E4A503238
:1004F000914202D14FF4803108E00B4A64329142BC
:1005000002D14FF4801101E04FF08071064A083AA1
:100510005160012180F82110002180F82010416BEA
:1005200001B18847204610BD0800024070B504465E
:1005300090F82000002501280CD0012084F820002C
:1005400094F821600020012E06D084F820000225B6
:10055000284670BD022070BD022684F82160A06389
:100560002068066826F0010606602046FFF757FF60
:10057000E06A00282068016802D041F00E0106E020
:1005800021F0040101602068016841F00A01016066
:100590002068016841F001010160D9E72DE9F84FB9
:1005A000DFF8B8910024A9F1040B23460F2709F1C5
:1005B000040AABF1040EC9E00125A5402A40AA4275
:1005C0007DD1674ED1F804C0ACEB0608B44532D0FB
:1005D00014DCBCF1030F3AD009DCBCF1000F2AD0C7
:1005E000BCF1010F1CD0BCF1020F31D11DE0BCF1F8
:1005F000110F17D0BCF1120F2AD119E0B8F5881FDE
:1006000019D006DCB8F5803F15D0B8F5801F1FD192
:1006100011E0B8F5001F0ED0B8F5041F18D10AE09C
:10062000CB6815E0CB681B1D12E0CB6808330FE0E8
:10063000CB680C330CE08B682BB1012B4FF0080317
:1006400003D0456104E0042302E0056100E00023DB
:10065000FF2A01D8064601E000F104064FEA8405AE
:1006600001D9A5F12005D6F8008007FA05FC28EA93
:100670000C0803FA05F548EA0508C6F800804D683D
:10068000ED0062D5374DAE6946F00106AE61AD6949
:1006900024F0030605F001050095334D06EB050C2B
:1006A000DCF80850A607360F07FA06F825EA080511
:1006B000DFF8B880404503D14FF0000817E044E070
:1006C000DFF8AC80404502D14FF001080FE0DFF8C1
:1006D000A480404502D14FF0020808E0DFF898807E
:1006E000404502D14FF0030801E04FF0040808FA3A
:1006F00006F848EA0508CCF808804D68D9F800608B
:10070000ED024D4601D5164300E096432E604D683C
:10071000DAF80060AD02554601D5164300E0964375
:100720002E604D68DBF80060AD035D4601D51643D1
:1007300000E096432E604D68DEF80060ED037546DC
:1007400001D5164300E096432E60641C0D682A46CE
:10075000E5407FF431AFBDE8F88F000008040140A8
:10076000000011100010024000000140000801408C
:10077000000C014000100140001401400148806855
:10078000704700001C00002070B5040025D094F8CC
:100790003D00002520B984F83C50204600F0E6F9E1
:1007A000242084F83D002068016821F001010160E7
:1007B0002068016841F4004101602068016821F46B
:1007C0000041016000F04CFB4D4A6168914201D844
:1007D0004C4900E04C49884201D2012070BD4B4990
:1007E0002368B0FBF1F15E6826F03F060E435E60C1
:1007F0006368934206D94FF4967359434FF47A7362
:10080000B1FBF3F12368491C1E6A26F03F06314311
:1008100019626168914210D84900401EB0FBF1F2A4
:10082000521CC2F30B02042A01D2042022E0B0FBC6
:10083000F1F0401CC0F30B001CE0A268F2B301EB26
:10084000C10303EB0116431EB3FBF6F35B1C43F439
:1008500080431B0549D092B301EBC10202EB0111A9
:10086000401EB0FBF1F0401CC0F30B0040F4804090
:1008700040F400402168CA694CF6FF739A43104364
:10088000C861D4E9071001432068026822F0C00261
:1008900011430160D4E9030101432068826848F2F2
:1008A000FF339A4311438160D4E90501084321686D
:1008B000CA6822F0FF021043C86001E00EE016E0B3
:1008C0002068016841F0010101602564202084F85E
:1008D0003D00256384F83E50002070BD01EB4106C9
:1008E000431EB3FBF6F35B1CB3E70120C2E701EB49
:1008F0004101401EB0FBF1F0401CC0F30B00B7E714
:10090000A086010080841E0000093D0040420F00C7
:100910002DE9FF4F83B00025DDE910799A46934613
:100920000446DDF848800095FFF728FF064694F856
:100930003D0020287CD119230122884920460096B9
:1009400000F08AFF0028F5D194F83C0001286FD010
:10095000012084F83C0020680168C90703D10168C0
:1009600041F0010101602068016821F4006101602B
:10097000222084F83D00402084F83E002564676210
:10098000A4F82A90608D20857548E062CDE9008644
:1009900053465A462046049900F0E0FE00287CD1D8
:1009A000208DDFF8C091202768B1012814D00228DB
:1009B000206801681ED041F48061016020684169AF
:1009C00080690090BCE020684169816900910168FC
:1009D00041F400710160B3E02068016821F4806196
:1009E000016072B62068416981690091016841F433
:1009F00000710AE041F40061016072B6206841694B
:100A000081690091016821F48061016062B697E01C
:100A1000032865D801280CD0022843464FF0000275
:100A20004946204600960BD000F016FFA8BB0CE00C
:100A300091E032464146204600F0B4FF68BB72E0C8
:100A400000F00AFF48BB72B633E02068016821F469
:100A50008061016072B620680069616A0870606A2E
:100A6000401C6062208D401E2085608D401E608588
:100A70003D4846F2A8110068B0FBF1F0C0EBC000A1
:100A800000EB80000090401E009007D02068406975
:100A9000C04340070DD50098F5E727E044F8305FE4
:100AA0006773A573206940F02000206162B625734A
:100AB0001CE02068016841F4007101602068006951
:100AC000616A0870606A401C6062218D491E218540
:100AD000618D491E618562B621680969017026E051
:100AE00032464146204600F05DFF18B1012007B0B4
:100AF000BDE8F08F20680069616A0870606A401C78
:100B00006062208D401E81B22185608D401E60850F
:100B100020684269D243520712D4032903D10168E5
:100B200021F48061016020680069616A0870606A70
:100B3000401C6062208D401E2085608D401E6085B7
:100B4000208D00287FF464AF84F83D7084F83E5017
:100B500084F83C50CBE70220C9E7000002001000F7
:100B60000000FFFF040001002800002030B585B020
:100B7000002100910191029103911E4D03681E4CCA
:100B8000122103221D48AB4216D1A36943F008038A
:100B9000A361A369039203F008030493C023CDE982
:100BA00000316946FFF7FAFCE06940F40010E061AB
:100BB000E06900F4001019E0114DAB4217D1A369B0
:100BC00043F00803A361A369039203F008030493AD
:100BD0004FF44063CDE900316946FFF7DFFCE0697F
:100BE00040F48000E061E06900F48000049005B00A
:100BF00030BD00000054004000100240000C0140D5
:100C000000580040024881680278114481607047B2
:100C10001C000020074810B5016841F01001016078
:100C2000032000F075F80F2000F006F800F024F81B
:100C3000002010BD0020024070B50D4D04464FF459
:100C40007A712878B1FBF0F00A490968B1FBF0F03D
:100C500000F0DCFA48B9102C07D200222146501EC1
:100C600000F036F800206C6070BD012070BD0000FF
:100C70001C000020280000200C4808B5816941F0C4
:100C800001018161816901F001010091C16941F0B7
:100C90008051C161C06900F08050009004484168F3
:100CA00021F0E06141F00071416008BD0010024098
:100CB00000000140002809DB00F01F0201219140E3
:100CC0004009800000F1E020C0F8001170470000EA
:100CD000F0B40E4B1B680C46C3F30223C3F10705A7
:100CE000042D00D90425191D072901D2002300E095
:100CF000DB1E012606FA05F1491E214099409E405F
:100D0000761E16403143F0BC01F082BA0CED00E0D3
:100D1000064900F0070208684FF6FF03184040EA52
:100D20000220034A10430860704700000CED00E009
:100D30000000FA052DE9F0470F46050061D0434E4B
:100D4000306800F00700B84209D2306820F0070090
:100D500038433060306800F00700B84251D128684D
:100D60003B4C810712D5400703D5606840F4E06032
:100D700060602878000703D5606840F460506060C8
:100D80006068A96820F0F000084360602878C00718
:100D900028D06868012810D02168022810D089075F
:100DA00000292EDA616821F0030101436160FFF739
:100DB000E5FC804641F288390DE021688903EFE7C0
:100DC0008901EDE7FFF7DAFCA0EB0801494502D9FC
:100DD0000320BDE8F0876068696800F00C00B0EBA4
:100DE000810FEFD1306800F00700B8420BD93068AE
:100DF00020F0070038433060306800F00700B84248
:100E000001D00120E5E72878400705D56068E9684A
:100E100020F4E060084360602878000706D5606829
:100E2000296920F4605040EAC100606000F038F8A1
:100E30006168084AC1F30311515CC8400649086063
:100E400006480068FFF7F8FE0020C2E700200240D5
:100E50000010024058270008280000202000002031
:100E60000448054900684968044AC1F30221515CFD
:100E7000C840704728000020001002406827000882
:100E80000448054900684968044AC1F3C221515C1D
:100E9000C840704728000020001002406827000862
:100EA0000E4A51680E4801F00C03042B11D0082B98
:100EB0000FD10C48C1F38343C903C05C0AD5516804
:100EC000084AC1F34041921E515C054A5043B0FBB1
:100ED000F1F0704704494843704700000010024099
:100EE00000127A004827000800093D002DE9F84F5C
:100EF000040070D02078C04DC00749D06868C0F3A6
:100F00008100012807D06868C0F38100022809D158
:100F10006868C00306D52868800339D56068002852
:100F2000E7D035E06068B0F5803F0BD010B1B0F588
:100F3000A02F11D0286820F480302860286820F481
:100F4000802002E0286840F480302860606890B11A
:100F5000FFF714FC06460AE0286840F48020286069
:100F6000F0E700BFFFF70AFC801B642873D82868ED
:100F70008003F7D50CE0FFF701FC064605E000BF53
:100F8000FFF7FCFB801B6428F0D828688003F7D4A7
:100F900020789A4E80074FF001094FF0000839D5AC
:100FA000686810F00C0F07D06868C0F38100022851
:100FB00009D16868C00306D42868800714D5206961
:100FC000012808D110E02069B0B1C6F80090FFF701
:100FD000D5FB074605E00AE1FFF7D0FBC01B02285E
:100FE000C4D828688007F7D52868616920F0F80020
:100FF00040EAC10028600DE0C6F80080FFF7BEFBA4
:10100000074604E0FFF7BAFBC01B022823D8286874
:101010008007F7D4207800072CD57948A169D9B189
:10102000C0F80090FFF7AAFB074604E0FFF7A6FB15
:10103000C01B02280FD8686A8007F7D571484FF4A3
:10104000FA510068B0FBF1F0009000BF0098411E1B
:101050000091FAD20EE080E0C0F80080FFF78EFB2E
:10106000074604E0FFF78AFBC01B022875D8686AB0
:101070008007F7D42078400760D5E8690027C000D2
:1010800008D4E86940F08050E861E869012700F081
:10109000805000905C480168C90513D401688346FC
:1010A00041F480710160FFF769FB824606E000BFF2
:1010B000FFF764FBA0EB0A0064284ED8DBF80000C1
:1010C000C005F5D5E06801280AD008B1052813D07D
:1010D000286A20F001002862286A20F0040002E05B
:1010E000286A40F001002862E06841F2883B98B12C
:1010F000FFF744FB82460BE0286A40F004002862B8
:10110000EEE700BFFFF73AFBA0EB0A0159455AD8BA
:10111000286A8007F6D50CE0FFF730FB824605E031
:10112000FFF72CFBA0EB0A0159454CD8286A800731
:10113000F6D41FB1E86920F08050E861E06988B317
:101140006968C1F38101022944D00228C6F8608091
:1011500004D0FFF713FB044638E034E0FFF70EFB42
:10116000074604E0FFF70AFBC01B02282BD82868BB
:101170008001F7D4206AB0F5803F05D16868A16886
:1011800020F4003008436860D4E908010843696826
:1011900021F4741108436860C6F86090FFF7EEFA16
:1011A000044606E025E000BFFFF7E8FA001B02282E
:1011B00009D828688001F7D51BE000BFFFF7DEFAE9
:1011C000001B022802D90320BDE8F88F286880019F
:1011D000F4D40EE00128F7D06868226A00F4803168
:1011E000914204D1616A00F47010884201D001205C
:1011F000EAE70020E8E70000001002400000424259
:1012000080044242280000200070004010B5401EBB
:10121000B0F1807F01D3012010BD4FF0E024606168
:101220000F21601700F0F4FF0020A061072020616B
:10123000002010BD38B5044690F84200202801D0A7
:10124000022038BD51B14AB1012020630020606303
:10125000204600F07BFE216B012901D0012038BD22
:1012600021680A684968009121680C3151E8002F13
:1012700042F0100241E80023002BF5D138BD70B5D3
:101280000D46FFF757F804000CD0A168002909D0DB
:101290001DB123690BB12A4698472046BDE870402E
:1012A000FFF7B0B870BD7047F8B50168044608682C
:1012B000CA684B6910F00F0F4FF0000559D003F0CA
:1012C000010602F49077374365D0C10705D0D105F8
:1012D00003D5616C41F001016164410705D5D9076F
:1012E00003D0616C41F002016164810705D5D90723
:1012F00003D0616C41F004016164010707D502F07D
:101300002001314303D0616C41F008016164616CDC
:1013100000293AD0800604D5900602D5204600F078
:1013200058FD20684069616CC0F38010090700D443
:1013300060B3204600F018FD20684069400621D5C2
:101340002068143050E8001F21F0400140E80012EE
:10135000002AF5D1E06BA8B16D494163E06BFFF75E
:1013600099F8002811D0E06B416B01B0BDE8F04066
:10137000084783060FD593060DD52046BDE8F840F3
:1013800000F027BD2046FFF78EFFF8BD2046FFF78F
:101390008AFF6564F8BD266B2023012E7CD1C6062A
:1013A0007AD5D60678D508684868009048694FF025
:1013B0000206400640D5E16B086840680004000C56
:1013C000E8D0A28D8242E5D9E085886920282DD019
:1013D00020680C3050E8001F21F4807140E80012B2
:1013E000002AF5D12068143050E8001F21F00101D7
:1013F00040E80012002AF5D12068143050E8001FA0
:1014000021F0400140E80012002AF5D184F8423072
:10141000256320680C3050E8001F21F0100140E8DF
:101420000012002AF5D1E06BFFF711F86663A08D7A
:10143000E18D401A81B22AE0A08DE18D401A81B27F
:10144000E08D0028A6D00029A4D022680C3252E8F2
:10145000000F20F4907042E80007002FF5D12068BB
:10146000143050E8002F22F0010240E80027002F3E
:10147000F5D184F84230256320680C3050E8002F05
:1014800022F0100240E80023002BF5D166632046CD
:10149000FFF7F5FEF8BDFFE705062BD5150629D5A4
:1014A00094F841002128F5D1A068B0F5805F01D102
:1014B0002069B0B1206A411C21622168007848602F
:1014C000E08C401E0004000CE084E3D12068C16879
:1014D00021F08001C1602068C16841F04001C16015
:1014E000D8E7206A0088C0F308004860206A801CA2
:1014F0002062E5E74006CDD55006CBD5CA68204628
:1015000022F04002CA6084F8413000F003F9C1E7DC
:101510001F1C000870B5040004D094F84100002599
:1015200010B106E0012070BD84F84050204600F064
:1015300023F8242084F841002068C16821F4005178
:10154000C160204600F0A6FC2068016921F49041AA
:1015500001612068416921F02A0141612068C16868
:1015600041F40051C1606564202084F8410084F892
:1015700042006563002070BD30B585B00024009442
:101580000194029403940068184988422BD11848AA
:10159000C16941F40031C161C16901F400310491B4
:1015A000816941F0040181618069124D00F00400FD
:1015B00004900420009002200190032003906946CB
:1015C0002846FEF7EBFF0820CDE9000469462846CF
:1015D0000294FEF7E3FF002211462620FFF778FB76
:1015E0002620FFF767FB05B030BD00000044004037
:1015F0000010024000080140704770472DE9F84391
:10160000044690F84100984616460D46202802D020
:101610000220BDE8F88385B17EB1002060642120FE
:1016200084F84100FFF7AAF8A6848146E684A06802
:101630002027B0F5805F02D003E00120E9E72069B0
:1016400010B12E4600250EE000260CE08021204639
:1016500000F0C4FCA8B9C6B116F8010B21684860B7
:10166000E08C401EE084E08C4B464FF00002CDF849
:1016700000800028EAD14FF04001204600F0AEFC87
:1016800040B184F841700320C3E735F8020BC0F382
:101690000800E3E784F841700020BAE770B504461B
:1016A00090F84100202801D0022070BD49B342B318
:1016B0002162A284E28400206064212384F8413006
:1016C000A56B114BAB62A56B104BEB62A56B104B7E
:1016D0002B63A36B5863256813462A1DA06BFEF786
:1016E00025FF21686FF0400008602068143050E842
:1016F000001F41F0800140E80012002AF5D10020CF
:1017000070BD012070BD00001D1D00085F1D000898
:101710002F1C000810B5FEF70DFE002804D001793B
:10172000012901D10021817310BD7047FEE70168D6
:101730004A69D24352050FD46FF480624A61002196
:1017400040F8301F202242738173026942F0040284
:101750000261017301207047002070472DE9F84FA6
:101760000446006889460B9D01689846174641F477
:10177000806101602068016841F48071016000951A
:101780004FF0011B0022594620460A9B00F064F8E6
:101790004FF4007A40B120680068C00501D5C4F854
:1017A00040A00320BDE8F88F216809F0FE00086121
:1017B0002B46284920460A9A00F096F8F0BB20688C
:1017C0004169806900902A4620460A9900F022F972
:1017D00040B1206C04283AD12068016841F40071BE
:1017E000016034E0FEB2B8F1010F09D02168380A77
:1017F00008612A4620460A9900F00CF90028E8D131
:10180000206806612A4620460A9900F003F900285C
:10181000DFD12068016841F48071016000950022E9
:10182000594620460A9B00F017F80028B3D12168DA
:1018300009F0FF0040F00100086100E007E02B46DE
:10184000044920460A9A00F04FF80028AAD0012047
:10185000A8E70000020001002DE9F047984617466E
:101860000D460446C1F30746DDF820902AE000BF8C
:10187000B8F1FF3F26D0FEF781FFA0EB09014145FB
:1018800002D8B8F1000F1DD12068012E16D0806952
:1018900025EA00000004000C12D00020B84211D14B
:1018A000002044F8300F20216173A073216941F0BA
:1018B0002001216120730120BDE8F0874069E7E73E
:1018C0000120EBE72068012E0AD0806925EA00009C
:1018D0000004000C06D00020B842C9D00020EBE77D
:1018E0004069F3E70120F7E72DE9F04798461646EF
:1018F0000D4604464FF000094FF0200AC1F3074798
:1019000023E020684069C043400515D42068016881
:1019100041F40071016021686FF480604861C4F88F
:10192000309084F83DA084F83E90216C41F0040191
:10193000216484F83C9021E0701C06D0FEF71EFF65
:10194000A0EB0800B04203D816B1012F1FD021E050
:101950002068012F15D0806925EA00000004000CE2
:1019600018D000BF44F8309F84F80DA084F80E9082
:10197000216941F02001216184F80C900120BDE82B
:10198000F087406925EA00000004000CEAD12068D5
:10199000406901E02068806925EA00000004000C2D
:1019A000AFD1ECE72DE9F041002590460E46044604
:1019B000202728E04069C043C0060CD454F8301BEF
:1019C0006FF01000486144F810596777A577206AD6
:1019D0002062257714E0FEF7D1FEA0EB0800B042AC
:1019E00000D886B920684069C04340060BD544F84A
:1019F000305F6773A573206940F020002061257374
:101A00000120BDE8F08120684169C9434906D1D46D
:101A10000020F6E770B516460D4604461EE0204647
:101A2000FFF785FE08B1012070BD681C16D0FEF7D7
:101A3000A5FE801BA84200D885B920684069C04334
:101A400000060BD5002044F8300F20216173A073ED
:101A5000216941F0200121612073E4E72068406999
:101A6000C0430006DBD4002070BD20B119B10B7952
:101A70000BB17F2A01D9002070470160027100215B
:101A800041710120704700007CB50D46040016D05E
:101A90002068A0B19DB102210091217901AB022201
:101AA000FEF730FC68B1BDF8040040BA00F0F6FC67
:101AB000054900F007FD2860012060717CBD002011
:101AC0007CBD00206071FAE70AD7A33A0D4808B53B
:101AD000816941F020018161816901F0200100915B
:101AE000816941F004018161816901F00401009183
:101AF000816941F008018161806900F0080000906F
:101B000008BD0000001002400D4810B50B490160EF
:101B10000C49416000214FF480428160C0E903120A
:101B200041618161C1610162FEF72EFE002803D090
:101B3000BDE81040FEF789BC10BD00000054004015
:101B4000C0020020A08601000D4810B50B490160BD
:101B50000C49416000214FF480428160C0E90312CA
:101B600041618161C1610162FEF70EFE002803D070
:101B7000BDE81040FEF769BC10BD000000580040F1
:101B800014030020A08601000C4810B50A4901602A
:101B90004FF4E1314160002181600C22C160C0E955
:101BA00004128161C161FFF7B5FC002803D0BDE8D4
:101BB0001040FEF74ABC10BD0044004068030020FE
:101BC000FEE7FEE770477047FFF71CB810B590B00E
:101BD00028216846FEF72AFB14210AA8FEF726FBF7
:101BE000022000900120049010200024059007940A
:101BF0006846FFF77BF908B172B6FEE70F20CDE922
:101C00000A040C940D9400210AA80E94FFF792F890
:101C1000002801D072B6FEE710B010BD704710B5B5
:101C2000406A0021C185C184FFF73DFB10BD70B53E
:101C3000446A2068406994F84110C0F3C010002540
:101C4000212904D118B1E584204600F0B4F82068B9
:101C5000406994F84210C0F38010222904D118B1D1
:101C6000E585204600F080F8606C40F0100060646C
:101C70002046FFF718FB70BD10B50146406A0968A1
:101C800009684FF0000289062ED4C28501680C3124
:101C900051E8003F23F4807341E80034002CF5D173
:101CA0000168143151E8003F23F0010341E800349A
:101CB000002CF5D10168143151E8003F23F04003B6
:101CC00041E80034002CF5D1202180F84210016B4E
:101CD000012909D101680C3151E8003F23F01003BC
:101CE00041E80034002CF5D14263016B012902D098
:101CF000FFF782FC10BD818DFFF7C1FA10BD10B552
:101D0000406A01214163016B012902D0FFF775FC94
:101D100010BD818D4908FFF7B2FA10BD10B501461C
:101D2000406A09680968890616D40021C1840168DF
:101D3000143151E8002F22F0800241E80023002BEB
:101D4000F5D101680C3151E8002F42F0400241E822
:101D50000023002BF5D110BDFFF7DCFC10BD10B542
:101D6000406AFFF7E2FC10BD01680C3151E8002F1A
:101D700022F4907241E80023002BF5D10168143160
:101D800051E8002F22F0010241E80023002BF5D199
:101D9000016B012909D101680C3151E8002F22F0B3
:101DA000100241E80023002BF5D1202180F84210D9
:101DB00000210163704701680C3151E8002F22F0C7
:101DC000C00241E80023002BF5D1202180F841100A
:101DD000704708B590F84210222901D0022008BDB2
:101DE00082684FF480539A4201D1016921B1816A1E
:101DF0009A421BD04AB10AE00268816A5268C2F373
:101E000008020A80816A891C08E0026972B10268CE
:101E1000526802F07F020A70816A491C8162C18D9A
:101E2000491E0904090CC18503D01BE002685268F1
:101E3000F1E70168CA6822F02002CA600168CA6836
:101E400022F48072CA6001684A6922F001024A6184
:101E5000202180F8421000214163026B012A03D047
:101E6000FFF7CAFB002008BD016301680C3151E88F
:101E7000002F22F0100241E80023002BF5D1016869
:101E80000A68D20602D50A6849680091818DFFF779
:101E9000F6F9E7E770B5044600680169E26821F4E5
:101EA0004051114301612169A068084361690843F9
:101EB0002168CA6841F20C639A430243CA602068F1
:101EC0004169A26921F44071114341611E492068B2
:101ED000884202D1FEF7D4FF01E0FEF7C1FF00EB1C
:101EE000C00101EB0012606864218000B2FBF0F3D6
:101EF000B3FBF1F36FF018067343B2FBF0F5B2FBDE
:101F0000F0F605EB8305322303EB0515B5FBF1F580
:101F1000B6FBF1F605F0F00505EB0615B2FBF0F6A1
:101F2000B2FBF0F0B0FBF1F06FF01802504306EB9B
:101F3000800003EB0010B0FBF1F0216800F00F000F
:101F40002844886070BD00000038014038B58162C7
:101F500004468285002013466064222284F84220D1
:101F6000E56B1B4AAA62E56B1A4AEA62E56B1A4AFC
:101F70002A63E26B50630A462168E06B091DFEF795
:101F8000D5FA2068016840680090206948B120684F
:101F90000C3050E8001F41F4807140E80012002A24
:101FA000F5D12068143050E8001F41F0010140E8ED
:101FB0000012002AF5D12068143050E8001F41F0CB
:101FC000400140E80012002AF5D1002038BD000091
:101FD000791C0008FF1C00082F1C00082DE9F8439D
:101FE000984617460D460446089E24E0701C22D0F1
:101FF000FEF7C4FBA0EB0800B0421AD8CEB12068AF
:10200000C168490717D5802D15D0402D13D0016820
:10201000C94309070FD40168002540680090204695
:10202000FFF7A2FE0820606484F840500120BDE85C
:10203000F8830320FBE72068006835EA000004D03D
:102040000020B842D2D00020F1E70120F9E70000DB
:102050000148FFF729B9000068030020FEE70000EF
:102060000EB50E490E48FEF744F90D49402201F124
:102070000800FFF7FAFC002000900190034602469A
:10208000029008490848FEF76DF9074903B001F1CD
:1020900018005DF804EB00F035B80000C002002025
:1020A0000C000020680300202C00002010B5FEF773
:1020B00065FB0F4CA168401A322818D3FEF75EFB6F
:1020C0002146A06001F11400FFF7DEFC09492068F9
:1020D00000F022F9084900F0F5F9084900F0BAF8D3
:1020E00060600146BDE81040054800F04BB810BDE7
:1020F0000000002000002041000048430000C842CA
:102100004400002070B50D4604000DD065B14FF4B9
:102110001871FEF78BF82560FEF730FBC4F8080154
:10212000C4F80C01012070BD002070BD70B5C0B0B6
:1021300014460E46050008D016B10CB13F2C07D34B
:10214000D5F81801401CC5F81801002040B070BD3A
:10215000FEF714FBD5F80811401A00F09FF9084962
:1021600000F0DAF80090A200314601A8FEF72CF842
:10217000641CA2B26946284600F00AF8E6E70000AF
:1021800000007A4413B5012201A9FFF7CFFF1CBD5F
:1021900070B504000AD0206818B111B10AB13F2A05
:1021A00006D9D4F81801401CC4F81801002070BDED
:1021B0004FF6FF7000EA8205281D86B22A46201DD0
:1021C000FEF702F8601900210171417180218171CF
:1021D0007F21C1713246211D2068FEF7F5F828B134
:1021E000D4F81011491CC4F8101170BD21680A7987
:1021F000012A07D1897B29B1D4F81411491CC4F8EC
:10220000141170BDD4F81811491CC4F8181170BD10
:102210000907090E002804DB00F1E02080F8001413
:10222000704700F00F0000F1E02080F8141D7047A7
:10223000FEF7F0FCFFF7CAFCFFF748FCFFF764FC71
:10224000FFF782FCFFF7A0FCFFF70AFFFFF72EFF66
:10225000FCE7000090EA010F48BF81F0004100F167
:102260000482421A3CBF801A89184FEAD0524FF0BC
:102270007F4C1CEA410FA2EBD15318BF9CEA026FBE
:1022800000F03B804FF0004C4CEA00204CEA01216A
:1022900021FA03FC10EB0C0C1ED202F1FF325FEAB4
:1022A0001C2040EBC25038BF70471CF07F0F4FEA34
:1022B000400C18BFBCF17F4F38BF7047C3F12003FB
:1022C000994008BF20F00100BCF17F4F38BF704734
:1022D000A0F1C04000F0BDB94FEA3C00000A40EB5D
:1022E000C25028BF1CF0FF0F4FEA400CE6D018BFC9
:1022F000BCF17F4F38BF7047EAE79CEA026F05D018
:1023000010EA5C0F08BF00F00040704710B500F005
:102310005AF900BF64FBBE3E4FF47F0C1CEAD0129A
:102320001EBF1CEAD11392EA0C0F93EA0C0F00F0C7
:10233000858090EA010F48BF42F4807240F4000C9F
:1023400041F400002CF07F4120F07F4000B5814235
:10235000A2EB03020FF2081CACEB504EC0F10000E0
:102360009EF800E04FEA4E0E00FB0EFC38BF49001D
:102370004FEA2C1C02F5FA020CFB0EF34FEACE1EBC
:102380004FEA112C4FEAC1210EEB635E42EB224271
:102390000EFB0CFC4FEA1C5300FB03114FEA112CFF
:1023A0004FEA01310EFB0CFC4FEADC4C00FB0C1138
:1023B000C14228BF09184CEB03335DF804EB10EB66
:1023C000410143EBC250B2F57C0F38BF704729D5AD
:1023D00012F0F00F1CBF00F1C04000F00040704749
:1023E000008182838485868788898B8C8D8E8F91EE
:1023F0009293959697999A9C9D9FA0A2A3A5A7A812
:10240000AAACAEB0B2B3B5B7B9BCBEC0C2C5C7C93D
:10241000CCCED1D4D7D9DCDFE2E6E9ECF0F3F7FAA1
:10242000FE0000004FEA400C0CF1807CBCF17E4FB6
:1024300028BF7047B0F1C04000F00BB990EA010F1F
:102440000CEAD11348BF42F48072624538BF63453D
:1024500007D213F47F0F16D080EA010000F000408D
:10246000704710B500F0AFF8097EFC3E00F005B8EB
:1024700080EA010000F00040704780EA010000F0AF
:10248000004000F0E6B812F47F0F04BF0248704726
:1024900080EA010000F0DDB80000C07FB0FA80F3F0
:1024A00010FA03F2C3F19D030AD0D90501EB122003
:1024B000530638BF704700F1010008BF20F001004B
:1024C000704700004FF47F0C1CEAD0121EBF1CEABC
:1024D000D11392EA0C0F93EA0C0F00F0478090EAB8
:1024E000010F48BF42F480724FF0004C4CEA0020CC
:1024F0004CEA012102EB0302A0FB0113A2F500024A
:10250000002918BF43F001035B0028BF4FEA3303E3
:1025100042EB22425FEA132C4CEBC2502EBFBCEBC5
:10252000436FB2F57C0F70474FEA036CBCF1004F6C
:1025300008BF20F00100B2F57C0F38BF70470BD503
:1025400082F0FF0212F5803FC8BF704700F1C04023
:10255000D8BF00F00040704700F5000C5FEA4C0C5B
:1025600048BF7047B0F1C04000F073B890EA010F67
:102570000CEAD11348BF42F48072624538BF63450C
:1025800004D280EA010000F00040704710B500F06E
:102590001AF800BF8900013E00F007B800F009B842
:1025A0005FEA410C5FEA1C6C08D080EA010000F091
:1025B00050B85FEA400C5FEA1C6CF6D14FF0004067
:1025C000A0F5800070470EF1020E2EF0030E5EF8AB
:1025D000044B244204D44FEA4102B2F17F4F11D898
:1025E0004FEA4003B3F17F4F0CD80ED14FEAD07CB5
:1025F000B2F17F4F0CEB4C0C0CF1020C08BF4CEB12
:10260000D17C04E04FF0080C01E04FEAD17C0CEBE8
:102610004C0324FA03F404F00704B4F1040C06D2CA
:102620000EEB840CBDE810404CF0010C6047DFE875
:102630000CF0070802024FF00040A0F5800010BD2A
:102640000846420018BFD2F1807288BF00F00040F7
:1026500010BDFF2141EAD050C005704790EA010F3C
:1026600048BF81F000413FF5FCAD421A04D882F02A
:102670000042A0EB020011444FEAD0524FF07F4CD1
:102680001CEA410FA2EBD15318BF9CEA026F4AD05B
:102690004FF0004C4CEA00204CEA012121FA03FCE7
:1026A000B0EB0C0C0FD412F0FE0F36D05FEA4C00EA
:1026B0001DD5001240EBC25038BF70471CF03F0FD1
:1026C00018BF70470BE0A2F101025FEA1C2040EB4B
:1026D000C25038BF70471CF07F0F18BF7047C3F15E
:1026E0002003994014BF401E20F00100704780086D
:1026F0004FEA122308BF7047B0FA80FCA2EB0C022D
:10270000CCF1280C60FA0CF093EA122F04BF00EB16
:10271000C25070474FEAC3707047130A5FEADC107B
:1027200008BF7047F6E79CEA026F04D010EA5C0F1E
:1027300008BF0020704710B5FFF745FF40DFF63EA9
:1027400081F00040704701020203040506070809F2
:102750000A0B0C0D0E0F101000000000000000000E
:102760000102030406070809000000000102030437
:1027700090270008000000202C000000280100081D
:10278000BC2700082C000020E409000044010008D8
:102790000000000000000000000000000000000039
:1027A0000000000000000000000000000100000028
:0C27B000100000000000000000127A0081
:04000005080000ED02
:00000001FF
