:020000040800F2
:100000005008002029020008E1200008A31E000873
:10001000911F000895070008DD240008000000007B
:100020000000000000000000000000005523000850
:10003000B10700080000000029220008572300082B
:10004000430200084302000843020008430200087C
:10005000430200084302000843020008430200086C
:10006000430200084302000843020008430200085C
:10007000430200084302000843020008430200084C
:10008000430200084302000843020008A5070008D5
:1000900099070008430200084302000843020008D1
:1000A000430200084302000843020008430200081C
:1000B000430200084302000843020008430200080C
:1000C00043020008430200084302000843020008FC
:1000D00043020008430200084302000843020008EC
:1000E00043020008430200084302000843020008DC
:1000F00043020008430200084302000843020008CC
:1001000043020008430200084302000843020008BB
:1001100043020008430200084302000801240008CB
:10012000430200084302000843020008430200089B
:100130004302000800000000000000004302000825
:10014000430200084302000843020008430200087B
:10015000430200084302000843020008430200086B
:10016000430200084302000843020008430200085B
:1001700043020008430200080000000000000000E5
:10018000430200084302000800F002F800F03CF8C7
:100190000AA090E8000C82448344AAF10107DA45E2
:1001A00001D100F031F8AFF2090EBAE80F0013F0F8
:1001B000010F18BFFB1A43F0010318472C2500005C
:1001C0004C250000103A24BF78C878C1FAD85207ED
:1001D00024BF30C830C144BF04680C6070470000C1
:1001E0000023002400250026103A28BF78C1FBD840
:1001F000520728BF30C148BF0B6070471FB502F0DF
:1002000065FA1FBD10B510BD00F0CFF81146FFF71D
:10021000F5FF02F025FA00F0EDF803B4FFF7F2FF66
:1002200003BC00F0F5F80000094880470948004782
:10023000FEE7FEE7FEE7FEE7FEE7FEE7FEE7FEE796
:10024000FEE7FEE704480549054A064B70470000F3
:10025000F123000889010008500200205008002006
:10026000500400205004002053EA020C00F0698082
:100270002DE9F04B4FF00006002B1FBFB3FA83F5BA
:1002800003FA05F424FA05F65E4012BF1643B2FAEB
:1002900082F502FA05F4C5F120051EBF22FA05FC1D
:1002A00044EA0C04203556EA044C4FEA144418BFC3
:1002B000641C4FF000084FF00009904271EB030CF2
:1002C00039D3002919BFB1FA81F701FA07F6B0FA5C
:1002D00080F700FA07F6C7F120071EBF20FA07FCD7
:1002E00046EA0C062037B6FBF4FCA7EB0507103FE7
:1002F00007F01F0BCBF120060CFA0BFB2CFA06F6CD
:1003000044BFB3460026202FA4BF5E464FF0000B2B
:100310005BEA060C08BF4FF0010B19EB0B09ABFBB6
:10032000027C48EB0608C01B06FB02CC0BFB03CC8F
:1003300071EB0C01C1E70B46024641464846BDE859
:10034000F08B13B54FF000004FF00001AFF30080C9
:10035000BDE81C4070474FF0000200B513469446BC
:100360009646203922BFA0E80C50A0E80C50B1F10D
:100370002001BFF4F7AF090728BFA0E80C5048BF21
:100380000CC05DF804EB890028BF40F8042B08BFBF
:10039000704748BF20F8022B11F0804F18BF00F8BB
:1003A000012B7047704770477047754600F02CF876
:1003B000AE4605006946534620F00700854618B052
:1003C00020B5FFF73FFFBDE820404FF000064FF09B
:1003D00000074FF000084FF0000B21F00701AC467A
:1003E000ACE8C009ACE8C009ACE8C009ACE8C00999
:1003F0008D46704710B50446AFF300802046BDE837
:100400001040FFF70ABF000000487047EC010020D1
:1004100001491820ABBEFEE726000200704710B568
:10042000C0F30E04204600F00FF808B944F400446D
:10043000204610BD10B190ED020A70479FED010AF1
:100440007047000000000000002103E0421E81F020
:10045000010110400028F9D181F00100704700002F
:1004600060B159B18A7A4AB1016000219FED040A56
:10047000818080ED020A01730120704700207047DF
:100480000000000038B504466A4643F6FF7100F0EC
:1004900019F878B1BDF80000DFED090A00EE100A86
:1004A000A0800120B8EE400A20EE200A84ED020A66
:1004B000207338BD0CB100202073002038BD00002F
:1004C000DB0FC9397CB51546040005D0206818B18A
:1004D00015B1B1F5804F01D300207CBDC1F30E00F2
:1004E00040F48040FFF79BFF010A8DF800108DF863
:1004F0000100022301AA6946206800F0E7F80028FD
:10050000EBD000208DF800008DF80100022301AA35
:100510006946206800F0DAF80028DED0BDF8040053
:1005200044BA2046FFF790FF0028D6D0C4F30D0050
:10053000288001207CBD0000DFED090A094801E0A8
:1005400030EE600A10EE101A8142F9DC064910EE16
:10055000100A884202D330EE200AF8E77047000004
:100560000000B44300003443000034C310B14068BD
:10057000002800D10020704710B58AB0FFF7F6FFC1
:10058000044628216846FFF7E6FED4B10021012287
:10059000CDE90612039104910E20CDE908200591C2
:1005A0000091019102916946204600F003FA40B99A
:1005B000204600F018FD20B90221204600F080F905
:1005C00010B100200AB010BD0120FBE72DE9F04179
:1005D0001546040007D031B12BB1032D03D20C4EC8
:1005E00056F8250010B10020BDE8F0812570C4E95F
:1005F00001130027277346F825402046FFF7BCFF6C
:1006000010B101202073EFE746F825706760EAE734
:10061000A8010020F0B587B00D4606461C461746D7
:1006200018216846FFF797FEB6B1307BA0B1B5F54B
:10063000006F11D2082C0FD804B16FB100200095C3
:100640000290CDE903043046FFF790FF06AB3A462F
:10065000694600F047F910B1002007B0F0BD012055
:10066000FBE700280AD0817A002907D04368002BD5
:1006700004D001890122184600F0D0BD704700283F
:100680000AD0817A002907D04368002B04D0018961
:100690000022184600F0C2BD704710B504000FD00C
:1006A0000020A07271B16AB163B1C4E900121046B2
:1006B00019462381012200F0B1FD0120A07210BD76
:1006C000002010BD206060602081F9E72DE9FE4F19
:1006D0001F46164688465FEA00092FD0B8F1000F82
:1006E0002CD05EB357B3F80728D14846FFF7C7FFB1
:1006F00000252C464FF00A0A1AE008EB04000123FB
:100700000088CDF800A040BAADF8080001AA02A9FF
:10071000D9F8000001F032F905000BD1BDF8040052
:100720003119000A3055BDF80400A41C4870A4B269
:10073000BC42E2D34846FFF794FF15B10020BDE864
:10074000FE8F0120FBE700002DE9F0411546040073
:1007500007D031B12BB10E2D03D20D4F57F8250024
:1007600010B10020BDE8F081C4E900132572002615
:10077000667247F82540084601F09EFA20B147F816
:10078000256026606660ECE701206072EAE7000001
:10079000B4010020FEE70000014800F01CBA000090
:1007A0001C000020014800F016BA00001C000020C8
:1007B0007047002814D0002912D0002A10D0082A2F
:1007C0000ED8012B0CD80270437000224280828028
:1007D0008260C26002744282828282750283C16139
:1007E000704710B5002828D0002926D00A8853BAAF
:1007F000027CB2B182889A1AB2F5805F05DD846806
:10080000A2F50052641E846007E012F5805F04DAEE
:10081000846802F50052641C8460C4682244C2608B
:1008200001E001220274438083804A8852BA4282E6
:100830008A8852BA82828979817510BD2DE9FC417E
:1008400000220092019240B1C26932B129B104295B
:1008500003D802780AB1082A02D90020BDE8FC8139
:10086000042A02D84FF4007501E040F2FF1500227F
:100870006E4609E000EB421306EB42041B8B1F0A95
:100880002770521C6370D2B28A42F3D3C069082326
:1008900032462946FFF7BEFEE0E700280FD0427837
:1008A0002AB14FF48042914204DD114606E042F243
:1008B0001072F8E75242914200DA11B20183704798
:1008C00090F82020012A07D0022A05D0416A41F47D
:1008D0008021416201207047006842690A434261F9
:1008E00000207047F0B590F820500468A468012DEE
:1008F00005D0022D03D0416A41F4802157E014F065
:10090000406F01D1E5004FD5C4F301640125A54036
:100910001D608B684FF4C0759BB1CE6833434E6841
:1009200043EAC603066805EB0417F3514FF4C2739C
:10093000076803EB04130E69FE50097D012905D0F9
:1009400009E00E88CB6843EA4653EBE70168CE58CE
:1009500046F48076CE501179D379567941EA036115
:1009600093791B0443EA062319434FF4C6760368C0
:1009700006EB041699511178D37841EA0361937814
:1009800052781B0443EA022211434FF4C4730268F5
:1009900003EB0413D150006805EB0411425842F0F8
:1009A000010242500020F0BD416A41F40011416251
:1009B0000120F0BD10B590F82020012A07D0022AAE
:1009C00005D0416A41F480214162012010BD3B48BD
:1009D000D0F8002242F00102C0F80022D0F8002234
:1009E00022F47C52C0F80022D0F800224B6A42EA7E
:1009F0000322C0F800220A7D02F01F0301229A4060
:100A0000D0F81C329343C0F81C32CB69B3B9D0F88C
:100A10000C329343C0F80C328C894B6864F31F434B
:100A20004C6900EBC404C4F840320C890B6864F3D1
:100A30001F434C6900EBC404C4F84432CB69012B5A
:100A400016D1D0F80C321343C0F80C320C884B6826
:100A500064F31F434C6900EBC404C4F840320C89B2
:100A6000CB6864F31F434C6900EBC404C4F8443200
:100A70008B69002BD0F804320ED01343C0F8043237
:100A80000B69002BD0F8143208D01343C0F814328D
:100A9000096A012904D008E09343EFE79343F5E79F
:100AA000D0F81C121143C0F81C12D0F8001221F02B
:100AB0000101C0F80012002010BD000000640040D9
:100AC00070470246002092F82030012B01D0022B03
:100AD00004D1106819B1006900F003007047C068C4
:100AE000FAE770B590F82040012C05D0022C03D015
:100AF000416A41F4802128E0046809B32469A4070D
:100B000020D04FF4D874056804EB01142D5915F06A
:100B10000405956005682D591AD0ED0855600568E3
:100B20002C5904F00204D4604FF4DA74056804EB25
:100B300001142E5906F00F06082E0CD308250DE0DF
:100B4000E468DCE7416A41F400114162012070BDB4
:100B50006D0D1560E3E72D5905F00F05156105686A
:100B60002D59C5F30725956105682C59240C54614E
:100B70004FF4DC72046802EB0112A4581C70046884
:100B8000A458240A5C700468A458240C9C7004685F
:100B9000A258120EDA704FF4DE72046802EB0112F2
:100BA000A4581C710468A458240A5C710468A458F1
:100BB000240C9C710468A258120EDA71006829B1E5
:100BC000016941F020010161002070BDC16841F060
:100BD0002001C160F8E72DE9F05F054600680024B8
:100BE0004669D0F804908768D0F80CB0D0F810A00F
:100BF000D0F81880F10748D0F90714D0012181609E
:100C0000B80703D5284600F01AFA0CE0780702D599
:100C10004FF4006407E0380702D54FF4805402E037
:100C2000284600F00BFAF80516D529684FF48070B5
:100C30008860B80503D5284600F003FA0CE0780573
:100C400002D544F4005407E0380502D544F480444A
:100C500002E0284600F0F4F9F80316D529684FF4AD
:100C600080308860B80303D5284600F0ECF90CE02A
:100C7000780302D544F4004407E0380302D544F475
:100C8000803402E0284600F0DDF9300707D55FEA3E
:100C9000CB6004D52968102044F40074C860700744
:100CA0004FF0080707D55FEA0B7004D52868C760C6
:100CB000284600F061F9B00706D52868C0688007AB
:100CC00002D0284600F05AF9700607D55FEACA60DC
:100CD00004D52968102044F480640861B00607D563
:100CE0005FEA0A7004D528680761284600F078F9A1
:100CF000F00606D528680069800702D0284600F073
:100D000070F9B00308D55FEAC96005D529681020DD
:100D10004860284600F066F9F00307D55FEA0970DD
:100D200004D528684760284600F08EF9300446D57F
:100D30005FEA497040D5F00504D55FEAC87001D07C
:100D400044F00104B00504D55FEA887001D544F091
:100D50000204700504D55FEA487001D544F004042C
:100D6000300529D518F0700F26D008F07000402803
:100D700015D006DC102809D020280AD0302816D13A
:100D80000AE050280ED0602811D10EE044F008048B
:100D90000DE044F010040AE044F0200407E044F0C1
:100DA000400404E044F0800401E044F480742868C6
:100DB000816921F070018161296804204860002C5C
:100DC00005D0686A204368622846FFF779FEBDE8CF
:100DD000F09F70B5040003D094F8200010B104E037
:100DE000012070BD204600F081F82068016841F0C4
:100DF0000101016000F018FA0546052604E000F044
:100E000013FA401B0A2811D820684068C007F6D0A2
:100E10002068016821F00201016000F005FA054632
:100E20000BE000F001FA401B0A2806D9606A40F482
:100E30000030606284F82060D2E720684068800754
:100E4000EFD4207E0128206801683DD021F0800188
:100E50000160607E01282068016838D021F04001DF
:100E60000160A07E01282068016833D021F02001B4
:100E70000160E07E0128206801682ED041F0100159
:100E80000160207F01282068016829D021F0080135
:100E90000160607F01282068016824D021F00401EE
:100EA0000160D4E902010843D4E904121143084364
:100EB0006168491E08432168C86100206062012002
:100EC00084F82000002070BD41F08001C0E741F0AF
:100ED0004001C5E741F02001CAE721F01001CFE74A
:100EE00041F00801D4E741F00401D9E710B586B01C
:100EF000044614216846FFF72EFA1C4920688842F0
:100F000031D11B480021026842F000720260006883
:100F100000F00070059016481038026842F0010297
:100F20000260006800F0010005904FF4C05000908E
:100F30000220CDE9010103200390092004906946B5
:100F40000C4800F083F800221146132000F0DAF973
:100F5000132000F0C9F900221146142000F0D2F944
:100F6000142000F0C1F906B010BD0000006400407C
:100F700040380240000002407047000070B505464E
:100F8000002416488AB0214650F821202AB1526820
:100F9000AA4202D150F8214018E0491CC9B20329E5
:100FA000F2D3002C18D011E007AB6A460021284686
:100FB000FFF797FD00280FD1029838B9A6682EB127
:100FC000049807AAC3B220460099B04700212846DA
:100FD000FFF777FD0028E7D10AB070BDA801002017
:100FE00070477047704770B5044690F8200001289C
:100FF00004D0606A40F40020606217E0022084F8A8
:1010000020002068016821F00101016000F00CF966
:1010100005460DE000F008F9401B0A2808D9606A6F
:1010200040F400306062052084F82000012070BD8B
:1010300020684068C007EDD1606270BD704770479E
:101040007047704770477047704700002DE9F84FB0
:10105000DFF89C910022A9F1040B03274FF00F0C3D
:1010600009F1040AABF1040E01250B6895402B40F1
:10107000AB426ED10C7904F00304012C01D0022C98
:1010800015D18668540007FA04F826EA0806D1F854
:101090000C8008FA04F848EA0608C0F8088044689A
:1010A000AC430D79C5F300159540254345600C7997
:1010B000E443A40708D0C568540007FA04F6B54312
:1010C0008E68A6402E43C6600C7904F00304022CFF
:1010D00011D1D40800EB8406356A5407E40E0CFAEB
:1010E00004F825EA0805D1F8108008FA04F848EA5F
:1010F0000508C6F820800568540007FA04F6B543D1
:101100000E7906F00306A6402E4306604C6814F4E0
:10111000403F66D0374C256845F4804525602468FB
:1011200022F0030504F480440094334C05EB0408DA
:10113000D8F808589407260F0CFA06F4A5432F4C4C
:10114000A04201D1002424E02D4CA04202D1012470
:101150001FE046E02B4CA04201D1022419E02A4CAA
:10116000A04201D1032414E0284CA04201D1042460
:101170000FE0274CA04201D105240AE0254CA042F3
:1011800001D1062405E0244CA04201D1072400E04F
:101190000824B4402C43C8F80848D9F800404D460C
:1011A0004E689C43F60200D51C432C60DAF80040E0
:1011B00055464E689C43B60200D51C432C60DBF8B4
:1011C00000405D464E689C43B60300D51C432C602E
:1011D000DEF8004075464E689C43F60300D51C437C
:1011E0002C60521C102AFFF43FAFBDE8F88F0000BE
:1011F000083C0140443802400030014000000240F9
:101200000004024000080240000C024000100240AE
:101210000014024000180240001C02400AB1816123
:1012200070470904FBE70000014880687047000030
:1012300000000020024881680278114481607047F4
:10124000000000200B4810B5016841F400710160F6
:10125000016841F480610160016841F480710160BE
:10126000032000F06FF80F2000F006F800F024F8DB
:10127000002010BD003C024070B50D4D04464FF4F7
:101280007A712878B1FBF0F00A490968B1FBF0F0F7
:1012900000F067FC48B9102C07D200222146501EEE
:1012A00000F030F800206C6070BD012070BD0000BF
:1012B000000000200C0000200A4808B5016841F435
:1012C00080410160006800F4804000900548001FE4
:1012D000016841F080510160006800F0805000908A
:1012E00008BD000044380240002809DB00F01F025E
:1012F000012191404009800000F1E020C0F8001178
:1013000070470000F0B40E4B1B68C3F30223C3F117
:101310000704042C00D904241D1D072D01D200232D
:1013200000E0DB1E012606FA04F56D1E0D409D400F
:101330009E40761E164045EA0601F0BC01F080B9D9
:101340000CED00E0064A00F0070110684FF6FF03BD
:10135000184040EA0120034908431060704700002C
:101360000CED00E00000FA052DE9F0470D46040001
:1013700065D0DFF81491D9F80000EFB200F0070053
:10138000A84207D289F80070D9F8000000F00700E1
:10139000A84254D120683D4E810712D5400703D59D
:1013A000306840F4E05030602078000703D53068A2
:1013B00040F4604030603068A16820F0F0000843DD
:1013C00030602078C0072DD0304960680839012886
:1013D00012D0022813D0032811D0096889070029E8
:1013E0002DDA316821F0030101433160FFF71CFF62
:1013F000804641F2883A0EE009688903EFE7096800
:101400008901ECE7FFF710FFA0EB0801514502D975
:101410000320BDE8F0873068616800F00C00B0EB95
:10142000810FEFD1D9F80010484601F00701A94219
:1014300007D90770006800F00700A84201D001201A
:10144000E7E72078400705D53068E16820F4E050F0
:10145000084330602078000706D53068216920F401
:10146000604040EAC100306000F018F83168084A76
:10147000C1F30311515CC840064908600648006882
:10148000FFF7FAFE0020C4E7003C024008380240A3
:10149000D62600080C00002004000020154810B5D6
:1014A000006810F00C01144813D0144B04290FD01D
:1014B00008290ED10F4C241F216801F03F0221683A
:1014C000490207D52068C0F38810A0FB030106E09D
:1014D000184610BD2168C1F38811A1FB000100234B
:1014E000FEF7C2FE2168C1F30141491C4900B0FB6F
:1014F000F1F010BD083802400024F40040787D016E
:101500002DE9F84F040075D02078DFF838A3C00724
:10151000AAF1040548D00AF104000168C1F3810171
:10152000012908D00068C0F3810002280AD1DAF846
:101530000000400206D52868800335D56068002881
:10154000E1D031E06068B0F5803F10D0B0F5A02F59
:10155000286810D020F480302860286820F480208B
:1015600028606068A0B1FFF75FFE06460CE02868BF
:1015700040F48030F4E740F480202860F7E7FFF77C
:1015800053FE801B642871D828688003F7D50BE0D0
:10159000FFF74AFE064604E0FFF746FE801B64287C
:1015A000F1D828688003F7D42078DFF89C92800770
:1015B0004FF0000B3DD5A348001D016811F00C0F42
:1015C00008D00068C0F3810002280AD1DAF80000D0
:1015D000400206D42868800715D5E068012809D1A3
:1015E00011E0E068B8B10120C9F80000FFF71CFE67
:1015F000064605E022E1FFF717FE801B0228C2D84D
:1016000028688007F7D52868216920F0F80040EAAB
:10161000C10028600DE0C9F800B0FFF705FE0646DE
:1016200004E0FFF701FE801B02281FD8286880070E
:10163000F7D42078000722D5824F8448616970373B
:1016400071B101210160FFF7EFFD064604E0FFF7ED
:10165000EBFD801B022809D838688007F7D50EE01B
:10166000C0F800B0FFF7E0FD064605E082E0FFF7B6
:10167000DBFD801B02287DD838688007F7D42078EE
:10168000400765D56F484FF000083C300068C00047
:101690000BD46C483C30016841F080510160006817
:1016A0004FF0010800F080500090694F3868C00585
:1016B0000FD4386840F480703860FFF7B5FD0646F7
:1016C00004E0FFF7B1FD801B022853D83868C0053D
:1016D000F7D55C4FA0686C3701280FD00528386813
:1016E00010D020F001003860386820F00400386025
:1016F000A068B0B1FFF798FD06460EE0386840F0EC
:101700000100F4E740F004003860F7E7FFF78CFDD4
:10171000811B41F28830814263D838688007F5D553
:101720000DE0FFF781FD064606E0FFF77DFD811B1A
:1017300041F28830814254D838688007F5D4B8F136
:10174000000F05D03F483C30016821F08051016016
:10175000A069B8B33B49091D0968C1F38101022999
:1017600046D00228584606D0C9F86000FFF75CFD55
:10177000044639E035E04F46C9F86000FFF754FDF4
:10178000064604E0FFF750FD801B022829D8286890
:101790008001F7D4D4E907010843A16A2D4A49081A
:1017A00002EB0141626A41EA8211084394F82C106D
:1017B00040EA0161CAF8001001203866FFF734FDE5
:1017C000044605E03CE0FFF72FFD001B022808D887
:1017D00028688001F7D533E0FFF726FD001B0228BB
:1017E00002D90320BDE8F88F28688001F4D427E0EF
:1017F0000128F7D0DAF80000E26900F48001914294
:101800001CD1226A00F03F01914217D147F6C07106
:10181000626A0140B1EB821F10D1A26A4FF0FF3320
:1018200000F4403103EB5202B1EB024F06D194F8C1
:101830002C1000F07060B0EB016F01D00120D1E7F7
:101840000020CFE70438024000004742800E4742A4
:10185000007000400000FFFF70B5040009D0606A0E
:10186000002540B125616561A56294F8510040B141
:101870000CE0012070BD6068B0F5827FF4D0E561B6
:10188000F2E784F85050204600F044F8022084F833
:1018900051002068016821F040010160A088218981
:1018A00000F4827001F404410843A18901F400614D
:1018B0000843217C01F002010843217D01F0010170
:1018C0000843218B01F400710843217F01F03801A6
:1018D000084394F8201001F080010843218D01F4A1
:1018E0000051084321680860A069042101EA104002
:1018F00094F8241001F01001084321684860206822
:10190000C16921F40061C1616565012084F851005D
:10191000002070BD10B586B0044614216846FEF75D
:101920001AFD13492068884220D11248002102681C
:1019300042F480520260006800F4805005900D4827
:101940001438026842F001020260006800F00100F1
:101950000590E02000900220CDE9010103200390D2
:101960000520049069460448FFF770FB06B010BDDF
:101970000030014044380240000002402DE9FF4F92
:1019800081B01F469346044601250E9EFFF74CFC8E
:10199000804694F851006168012806D0B1F5827F35
:1019A0003CD1A168C9BB042838D10298002870D066
:1019B000BBF1000FFBD0002FF9D094F850000128A4
:1019C0002CD04FF0010A84F850A094F8510004285C
:1019D00002D0052084F851004FF00009C4F854905B
:1019E000C4F838B0E787A78702992163E786A786FE
:1019F000C4F84090C4F8449020680168490603D4B4
:101A0000016841F040010160E068B0F5006F606876
:101A100008D0E8B3012F47D07DE0FFE7022005B0F2
:101A2000BDE8F08F08B1012F37D1206B2168008805
:101A3000C860206B801C2063E08E401EE0862CE096
:101A40002068816889070DD5E18E59B1012D09D132
:101A5000216B0988C160206B801C2063E08E401ED2
:101A6000E086002520688168C9070BD0E18F49B165
:101A7000C068A16B0880A06B801CA063E08F401E33
:101A8000E0870125FFF7D0FBA0EB0800B04201E0A2
:101A90000AE064E001D3701C4ED1E08E0028CFD163
:101AA000E08F0028CCD13CE0206B216800780873DF
:101AB000206B401C2063E08E401EE0862BE02068F7
:101AC000816889070DD5E18E59B1012D09D1216BAE
:101AD00009780173206B401C2063E08E401EE08675
:101AE000002520688168C9070BD0E18F49B1C06823
:101AF000A16B0870A06B401CA063E08F401EE087C4
:101B00000125FFF791FBA0EB0800B04202D3701C47
:101B100001D011E086B1E08E0028D0D1E08F0028FE
:101B2000CDD142463146204600F080FB50B1202006
:101B3000606584F8509012E084F851A084F85090C9
:101B400003206CE7A06818B92068C168806800901D
:101B500084F851A084F85090606D0028F1D00120E5
:101B60005DE710B5401EB0F1807F01D3012010BDAC
:101B70004FF0E02460610F21601700F061FD00204C
:101B8000A06107202061002010BD70477047000051
:101B900070B590F83C20012A32D0012580F83C50E5
:101BA000022280F83D2002685368946823F0700692
:101BB0000B6833435360134B02689A4214D0B2F15E
:101BC000804F11D0104B9A420ED0104B9A420BD03E
:101BD0000F4B9A4208D00F4B9A4205D00E4B9A42B7
:101BE00002D00E4B9A4204D1496824F08003194375
:101BF000916080F83D50002180F83C10084670BD8F
:101C0000022070BD000001400004004000080040B8
:101C1000000C00400004014000400140001800405A
:101C200010B5040003D094F83D0010B107E0012086
:101C300010BD002084F83C00204600F01FF8022070
:101C400084F83D00211D206800F0E0FB012084F8AD
:101C5000460084F83E0084F83F0084F8400084F891
:101C6000410084F8420084F8430084F8440084F87A
:101C7000450084F83D00002010BD000008B5006854
:101C80000B49884212D10B48016841F020010160E4
:101C90000068002200F02000009011463720FFF776
:101CA00031FBBDE808403720FFF71EBB08BD000030
:101CB000001400404038024090F83D10012901D046
:101CC00001207047022180F83D100168CA6842F087
:101CD0000102CA6000681149884214D0B0F1804FF7
:101CE00011D00F4988420ED00E4988420BD00E49C0
:101CF000884208D00D49884205D00D49884202D05B
:101D00000C49884204D1816801F00701062903D0FB
:101D1000016841F0010101600020704700000140AE
:101D20000004004000080040000C00400004014096
:101D3000004001400018004070472DE9F041044682
:101D40000068C66805694FF00007A90713D5B107F9
:101D500011D5F91E01610120207720688069800774
:101D6000204602D0FFF7E8FF04E000F07EF82046AE
:101D700000F07CF82777680716D5700714D521681E
:101D80006FF004000861022020772068806910F459
:101D9000407F204602D0FFF7CFFF04E000F065F857
:101DA000204600F063F82777280715D5300713D5AC
:101DB00021686FF008000861042020772068C0695E
:101DC0008007204602D0FFF7B7FF04E000F04DF88F
:101DD000204600F04BF82777E80616D5F00614D514
:101DE00021686FF010000861082020772068C06922
:101DF00010F4407F204602D0FFF79EFF04E000F081
:101E000034F8204600F032F82777E80708D0F007CA
:101E100006D021686FF001000861204600F028F824
:101E2000280608D5300606D521686FF080000861C5
:101E30002046FFF7AAFE680608D5700606D5216879
:101E40006FF040000861204600F02AF8A8060AD585
:101E5000B00608D521686FF0200008612046BDE873
:101E6000F041FFF793BEBDE8F08170477047000076
:101E700030B40A4B002153F821204AB1547A3CB1C6
:101E80001468844204D15068002805D030BC004753
:101E9000491CC9B20E29EED330BC7047B4010020F2
:101EA0007047FEE70F4810B50D49016003214160FE
:101EB00000214FF410228160C0E903124FF4001298
:101EC00042610176417681760122C27601774177BF
:101ED000FEF77FFF002801D072B6FEE710BD0000BC
:101EE000006400401C00002030B587B01421684613
:101EF000FEF731FA12480024016841F080010160C8
:101F0000016801F080010591016841F00101016063
:101F100000680C4D00F001000590012210212846B8
:101F2000FFF77CF910210120CDE900100320CDE955
:101F3000024069462846FFF789F807B030BD000027
:101F40003038024000000240104810B50E490160D0
:101F50004FF48271416000214FF40062C0E9021227
:101F60000122C0E90412520282611822C0E907214D
:101F7000416281620A21C162FFF76EFC002801D034
:101F800072B6FEE710BD00000030014044000020A2
:101F9000FEE7000030B50028039C19D0002917D0B7
:101FA000002A15D0002B13D0002C11D04D78002D15
:101FB0000ED180E81E009FED070A002180ED040A83
:101FC00080ED050A80ED060A80ED070A80F82010F2
:101FD00030BD00000000000080ED070ABDEEC00A21
:101FE000006810EE101A09B2FEF757BC10B50400D5
:101FF0000ED084ED040A94F82000012805D0E06892
:1020000000F004F9A06800F001F9012084F8200034
:1020100010BD002804D080ED060A022180F82010AF
:102020007047002807D080ED050A002180F82010B5
:10203000C06800F0EBB8704710B504002DED028BBE
:1020400047D02268002A44D06168002941D094F822
:10205000200030B19FED208A01280ED0022835D112
:1020600008E0B2F9120000EE100AF8EEC00A94ED92
:10207000050A21E094ED060A21E00846FEF702FA7F
:1020800020B36068FEF7D6F9DFED140A20EE208A4F
:1020900094ED040A30EE480AFEF74EFA30EE080AD4
:1020A000F0EE480AE06800F033F82068B0F912005A
:1020B00000EE900AF8EEE00AA06800F029F8BDEC06
:1020C000028B2046BDE81040FFF786BFB0EE480AFD
:1020D000F5E7BDEC028B10BD00000000E12E65426B
:1020E000FEE7000010B50548FFF7A6FF03480121F1
:1020F000BDE810402038FEF7A1BB00003C010020E5
:10210000B5EEC00AF1EE10FA01D2B1EE400A704706
:1021100010B504462DED028BB0EE608A70EE488A51
:1021200090ED040A30EE280A80ED040AD0ED070A8B
:1021300000F02AF884ED040ADFED120A94F820007A
:1021400038B1D4ED050AD4ED031A30EEC81AC1EE49
:10215000210A94ED011A012021EE000A94ED001AE3
:1021600001EE280A94ED021A84ED058A84F8200015
:1021700001EE200AD4ED060ABDEC028BBDE810404A
:1021800000F002B80000000010B52DED028BB0EE9B
:10219000408AB0EE600AFFF7B3FFB5EEC00AF1EE79
:1021A00010FA0BD0B4EEC08AF1EE10FA08DCB1EEF2
:1021B000400AB4EEC08AF1EE10FA01D3B0EE480A3C
:1021C000BDEC028B10BD10B504002DED028BB0EEFE
:1021D000628A04D0F5EEC01AF1EE10FA03D800209E
:1021E000BDEC028B10BD84EC040AB0EE420AFFF78E
:1021F00087FF84ED060AB0EE480AFFF781FF84ED01
:10220000070A204600F002F80120E9E7002808D07C
:1022100000219FED040A80ED040A80ED050A80F894
:10222000201070470000000070470000F8B5154608
:102230000E460B46009204460122022100F02CF8C3
:10224000A0B9134813490068B0FBF1F04FF47A715C
:10225000484300906068B0F5827F0DD1334600227C
:1022600080212046009500F017F870B1606D40F0B5
:10227000200060650320F8BD009830B1401E00903A
:1022800020688068C0430006F6D50020F8BD000035
:102290000C00002000366E012DE9F8431E469146E1
:1022A00088460446089DFEF7BFFF401B351AFEF71F
:1022B000BBFF074626480068C0F3CB3068430AE0FE
:1022C000701C09D0FEF7B0FFC01BA8420FD275B139
:1022D0000098B8B3401E00902068816838EA010079
:1022E00033D000204845EBD10020BDE8F8832068BA
:1022F000416821F0E00141606068B0F5827F0BD158
:10230000A068B0F5004F02D0B0F5806F04D120680E
:10231000016821F040010160A06AB0F5005F09D1B9
:102320002068016821F4005101602068016841F4CF
:1023300000510160012084F85100002084F8500011
:102340000320D2E7FFE70025C6E70120CAE7000027
:102350000C0000207047FEF76DBF000030B593B051
:1023600030216846FDF7F7FF14210CA8FDF7F3FFB5
:102370001D480025016841F080510160006800F0AF
:10238000805011901948016841F480410160006853
:10239000022400F48040119001200390102004904A
:1023A000009406940820CDE90750A820CDE909043F
:1023B00004200B906846FFF7A3F808B172B6FEE759
:1023C0000CA90F2081E831004FF4A0500F904FF47A
:1023D0008050109005210CA8FEF7C6FF002801D000
:1023E00072B6FEE713B030BD4038024000700040C6
:1023F0000248016841F470010160704788ED00E017
:102400000148FFF79ABC00009C000020F0B502686C
:10241000274D284E284FDFF8A4C0294B4FF0804E9F
:10242000A84209D0704507D0B04205D0B84203D0C9
:10243000604501D0984203D122F070044A682243DB
:10244000A8421BD0704519D0B04217D0B84215D061
:10245000604513D0984211D01A4CA0420ED01A4CAD
:10246000A0420BD0194CA04208D0194CA04205D074
:10247000184CA04202D0184CA04203D122F4407460
:10248000CA6822434C6922F0800222438C68C462ED
:102490000C688462A84201D0984201D109690163A5
:1024A000016841F004010160012141610260F0BD59
:1024B000000001400004004000080040000C004003
:1024C0000004014000400140004401400048014038
:1024D00000180040001C004000200040FEE7000003
:1024E00030B50C462DED028B1546014681B02A4BC6
:1024F00000222A48FEF76AF828490023012201F148
:102500003800FEF756F925481023254A2146103099
:10251000FEF7C3F82149103101F11800FDF7A0FFC3
:102520009FED208ADFED218A1C48F0EE482A9FEDBE
:102530001E2AF7EE001AB3EE091AF0EE680AB3EE9F
:102540000E0A7C30FFF73FFE1448DFED192AB0EE8B
:10255000482AF7EE001AB0EE001AF0EE680AB0EE64
:10256000040AA030FFF72FFE0C48A030A0F124038E
:10257000A0F17802A0F1680100904838FFF70AFD49
:1025800001B02946BDEC028B00220448BDE8304072
:10259000084B1C30FEF7D8B825260008E4000020C0
:1025A0000000024000409C4500401C460000000026
:1025B00000003443E520000810B5174C20786178FE
:1025C000884208D194ED010AD4ED020AB4EE600A03
:1025D000F1EE10FA10D001280FD0022810D00328F5
:1025E00014D094ED010A0D48FFF71BFD20786070B0
:1025F00094ED010A84ED020A10BD94ED010A07E092
:1026000094ED010A0548FFF704FDEFE79FED040A8A
:102610000248FFF7EBFCE9E7100000203C01002036
:1026200000000000A1F50070013805D1082B03D18E
:1026300011460248FEF7D5B8704700001C01002083
:102640000907090E002804DB00F1E02080F80014DF
:10265000704700F00F0000F1E02080F8141D704773
:102660001CB5FEF7EFFDFFF779FEFFF73DFCFFF726
:1026700019FCFFF769FC00241348009411490194E8
:1026800001605321C0E9011440F2E731C1608021AB
:102690008161FFF7C5FA08B172B6FEE7009469469A
:1026A00009480194FFF774FA08B172B6FEE7064ACA
:1026B000A2F15801A1F12800FFF712FFFFF77CFFFC
:1026C000FCE70000001400409C0000204FF0407028
:1026D000E1EE100A70470000000000000000010257
:1026E000030406070809000008270008000000206E
:1026F0001C000000C4010008242700081C00002062
:1027000034080000E0010008010000001000000093
:10271000000000000024F40000FF000000000000A2
:0427200000000000B5
:040000050800018965
:00000001FF
