:020000040800F2
:10000000B80A002029020008212400086122000803
:10001000F1220008B9060008712B0008000000005A
:100020000000000000000000000000004B25000858
:10003000FD06000800000000492500084D250008C5
:10004000430200084302000843020008430200087C
:10005000430200084302000843020008430200086C
:10006000430200084302000843020008430200085C
:10007000430200084302000843020008430200084C
:10008000430200084302000843020008C9060008B2
:10009000BD060008430200084302000843020008AE
:1000A000430200084302000843020008430200081C
:1000B000430200084302000843020008430200080C
:1000C00043020008430200084302000843020008FC
:1000D00043020008652B00084302000843020008A1
:1000E00043020008430200084302000843020008DC
:1000F00043020008430200084302000843020008CC
:1001000043020008430200084302000843020008BB
:10011000430200084302000843020008F5250008D6
:10012000430200084302000843020008430200089B
:100130004302000800000000000000004302000825
:10014000430200084302000843020008430200087B
:10015000430200084302000843020008430200086B
:10016000430200084302000843020008430200085B
:1001700043020008430200080000000000000000E5
:10018000430200084302000800F002F800F03CF8C7
:100190000AA090E8000C82448344AAF10107DA45E2
:1001A00001D100F031F8AFF2090EBAE80F0013F0F8
:1001B000010F18BFFB1A43F0010318475C2E000023
:1001C0007C2E0000103A24BF78C878C1FAD85207B4
:1001D00024BF30C830C144BF04680C6070470000C1
:1001E0000023002400250026103A28BF78C1FBD840
:1001F000520728BF30C148BF0B6070471FB502F0DF
:10020000F9FE1FBD10B510BD00F04EF91146FFF705
:10021000F5FF02F0ADFD00F06CF903B4FFF7F2FF5B
:1002200003BC00F073F90000094880470948004703
:10023000FEE7FEE7FEE7FEE7FEE7FEE7FEE7FEE796
:10024000FEE7FEE704480549054A064B70470000F3
:10025000E525000889010008B8040020B80A00203C
:10026000B8060020B806002053EA020C00F06980AE
:100270002DE9F04B4FF00006002B1FBFB3FA83F5BA
:1002800003FA05F424FA05F65E4012BF1643B2FAEB
:1002900082F502FA05F4C5F120051EBF22FA05FC1D
:1002A00044EA0C04203556EA044C4FEA144418BFC3
:1002B000641C4FF000084FF00009904271EB030CF2
:1002C00039D3002919BFB1FA81F701FA07F6B0FA5C
:1002D00080F700FA07F6C7F120071EBF20FA07FCD7
:1002E00046EA0C062037B6FBF4FCA7EB0507103FE7
:1002F00007F01F0BCBF120060CFA0BFB2CFA06F6CD
:1003000044BFB3460026202FA4BF5E464FF0000B2B
:100310005BEA060C08BF4FF0010B19EB0B09ABFBB6
:10032000027C48EB0608C01B06FB02CC0BFB03CC8F
:1003300071EB0C01C1E70B46024641464846BDE859
:10034000F08B13B54FF000004FF00001AFF30080C9
:10035000BDE81C40704710B5203AC0F00B80B1E8F2
:100360001850203AA0E81850B1E81850A0E81850EA
:10037000BFF4F5AF5FEA027C24BFB1E81850A0E8F3
:10038000185044BF18C918C0BDE810405FEA827C0D
:1003900024BF51F8043B40F8043B08BF7047D20724
:1003A00028BF31F8023B48BF11F8012B28BF20F8C5
:1003B000023B48BF00F8012B70474FF0000200B528
:1003C000134694469646203922BFA0E80C50A0E878
:1003D0000C50B1F12001BFF4F7AF090728BFA0E826
:1003E0000C5048BF0CC05DF804EB890028BF40F8F2
:1003F000042B08BF704748BF20F8022B11F0804F34
:1004000018BF00F8012B704710B5044610F0030F19
:1004100008BF11F0030F40F015804FF0013E121F8E
:10042000C0F20E8051F8043BA3EB0E0C2CEA030C37
:100430001CEACE1C08BF40F8043BF0D0A1F1040137
:1004400002F10402521E08DB11F8013B002B00F8F8
:10045000013BF7D1114600F005F8204610BD70476A
:10046000704770474FF000020429C0F0128010F06E
:10047000030C3FF4A4AFCCF1040CBCF1020F18BF85
:1004800000F8012BA8BF20F8022BA1EB0C01FFF70D
:1004900096BF5FEAC17C24BF00F8012B00F8012B56
:1004A00048BF00F8012B7047754600F02BF8AE46A8
:1004B00005006946534620F00700854618B020B570
:1004C000FFF7C0FEBDE820404FF000064FF00007E8
:1004D0004FF000084FF0000B21F00701AC46ACE8EC
:1004E000C009ACE8C009ACE8C009ACE8C0098D4659
:1004F000704710B50446AFF300802046BDE81040B9
:10050000FFF78BBE004870475804002001491820AF
:10051000ABBEFEE726000200704710B1406800281D
:1005200000D10020704710B58AB0FFF7F6FF0446EF
:1005300028216846FFF741FFD4B100210120CDE911
:10054000061003910491089005910E2000910191ED
:10055000029109906946204600F0D4F940B920463E
:1005600000F0EAFC20B90221204600F050F910B159
:1005700000200AB010BD0120FBE700002DE9F0418A
:100580001546040006D029B1032D03D20C4F57F8AD
:10059000250010B10020BDE8F08125700026C4E9D7
:1005A0000116267347F825402046FFF7BCFF10B11F
:1005B00001202073EFE747F825606660EAE7000056
:1005C0004C040020F0B587B00D4606461C46174681
:1005D00018216846FFF7F1FEB6B1307BA0B1B5F542
:1005E000006F11D2082C0FD804B16FB10020009514
:1005F0000290CDE903043046FFF78FFF06AB3A4681
:10060000694600F016F910B1002007B0F0BD0120D6
:10061000FBE7002800D081607047000010B5054C52
:10062000207828B9044801F0C3FA08B901202070E5
:10063000606810BD28000020BC03002030B4029C7C
:1006400070B169B1012A0BD803B14CB101600271DC
:100650008360848100218173016130BC00F01FB888
:1006600030BC0020704710B5040014D0206890B151
:1006700001B982B92379012B04D0642301F05CFD18
:1006800058B108E0A37B33B90123A37301F0A4FDA3
:1006900018B10020A073002010BD012010BD10B5BE
:1006A000816839B182891AB1006801F06CFB08B128
:1006B000002010BD012010BDFEE70000014800F041
:1006C00034BA00003C030020014800F02EBA0000BC
:1006D0003C03002030B50468256825F4802525609A
:1006E000046863608368402B036803D099600068E6
:1006F000C26030BD9A600068C16030BD704700289C
:1007000014D0002912D0002A10D0082A0ED8012BAC
:100710000CD8027043700022428082808260C260E6
:1007200002744282828282750283C161704710B571
:10073000002828D0002926D00A8853BA027CB2B1FA
:1007400082889A1AB2F5805F05DD8468A2F50052AE
:10075000641E846007E012F5805F04DA846802F5A5
:100760000052641C8460C4682244C26001E001221B
:100770000274438083804A8852BA42828A8852BA7D
:1007800082828979817510BD2DE9FC410C460021DA
:100790000091019140B1C16931B12CB1042C03D851
:1007A000017809B1082902D90020BDE8FC8104299B
:1007B00002D84FF4007101E040F2FF1100226E46B2
:1007C0000AE000BF00EB421306EB42051B8B1F0A39
:1007D0002F70521C6B70D2B2A242F3D3C0690823AF
:1007E0003246FFF7EFFEE0E700280FD042782AB14B
:1007F0004FF48042914204DD114606E042F210724D
:10080000F8E75242914200DA11B20183704790F842
:100810002020012A07D0022A05D0416A41F4802114
:10082000416201207047006842690A43426100202A
:100830007047F0B590F820500468A468012D05D0E9
:10084000022D03D0416A41F4802157E014F0406F3B
:1008500001D1E5004FD5C4F301640125A5401D6019
:100860008D684FF4C0739DB1CE6835434E6845EA3C
:10087000C605066803EB0417F5514FF4C275076807
:1008800005EB04150E697E51097D012905D009E0AB
:100890000E88CD6845EA4655EBE701684E5946F4A7
:1008A00080764E511179D579567941EA056195796D
:1008B0002D0445EA062529434FF4C676056806EB64
:1008C0000416A9511178D57841EA056195785278D6
:1008D0002D0445EA022211434FF4C475026805EB6A
:1008E00004155151006803EB0411425842F0010213
:1008F00042500020F0BD416A41F4001141620120E4
:10090000F0BD000010B590F82020012A07D0022A7F
:1009100005D0416A41F480214162012010BD3B486D
:10092000D0F8002242F00102C0F80022D0F80022E4
:1009300022F47C52C0F80022D0F800224B6A42EA2E
:100940000322C0F800220A7D02F01F0301229A4010
:10095000D0F81C329343C0F81C32CB69B3B9D0F83D
:100960000C329343C0F80C328C894B6864F31F43FC
:100970004C6900EBC404C4F840320C890B6864F382
:100980001F434C6900EBC404C4F84432CB69012B0B
:1009900016D1D0F80C321343C0F80C320C884B68D7
:1009A00064F31F434C6900EBC404C4F840320C8963
:1009B000CB6864F31F434C6900EBC404C4F84432B1
:1009C0008B69002BD0F804320ED01343C0F80432E8
:1009D0000B69002BD0F8143208D01343C0F814323E
:1009E000096A012904D008E09343EFE79343F5E750
:1009F000D0F81C121143C0F81C12D0F8001221F0DC
:100A00000101C0F80012002010BD00000064004089
:100A1000704700000246002092F82030012B01D0E0
:100A2000022B05D1106821B1D0F8100000F00300AE
:100A30007047C068FAE770B590F82040012C05D0E7
:100A4000022C03D0416A41F4802128E0046809B3F4
:100A50002469A40720D04FF4D874056804EB01146E
:100A60002D5915F00405956005682D591AD0ED082B
:100A7000556005682C5904F00204D4604FF4DA7410
:100A8000056804EB01142E5906F00F06082E0CD34E
:100A900008250DE0E468DCE7416A41F40011416299
:100AA000012070BD6D0D1560E3E72D5905F00F05B0
:100AB000156105682D59C5F30725956105682C5901
:100AC000240C54614FF4DC72046802EB0112A45848
:100AD0001C700468A458240A5C700468A458240C90
:100AE0009C700468A258120EDA704FF4DE7204682B
:100AF00002EB0112A4581C710468A458240A5C710A
:100B00000468A458240C9C710468A258120EDA716F
:100B1000006829B1016941F020010161002070BD28
:100B2000C16841F02001C160F8E72DE9F05F05469A
:100B3000006800244669D0F804908768D0F80CB0AB
:100B4000D0F810A0D0F81880F10748D0F90714D0D9
:100B500001218160B80703D5284600F01AFA0CE09D
:100B6000780702D54FF4006407E0380702D54FF448
:100B7000805402E0284600F00BFAF80516D52968E3
:100B80004FF480708860B80503D5284600F003FA5A
:100B90000CE0780502D544F4005407E0380502D58E
:100BA00044F4804402E0284600F0F4F9F80316D536
:100BB00029684FF480308860B80303D5284600F0D8
:100BC000ECF90CE0780302D544F4004407E0380364
:100BD00002D544F4803402E0284600F0DDF9300705
:100BE00007D55FEACB6004D52968102044F400746F
:100BF000C86070074FF0080707D55FEA0B7004D58F
:100C00002868C760284600F061F9B00706D5286853
:100C1000C068800702D0284600F05AF9700607D550
:100C20005FEACA6004D52968102044F48064086132
:100C3000B00607D55FEA0A7004D528680761284620
:100C400000F076F9F00606D528680069800702D022
:100C5000284600F06EF9B00308D55FEAC96005D5F3
:100C6000296810204860284600F064F9F00307D591
:100C70005FEA097004D528684760284600F08EF9BD
:100C8000300446D55FEA497040D5F00504D55FEAE7
:100C9000C87001D044F00104B00504D55FEA887043
:100CA00001D544F00204700504D55FEA487001D50F
:100CB00044F00404300529D518F0700F26D008F050
:100CC0007000402815D006DC102809D020280AD052
:100CD000302816D10AE050280ED0602811D10EE03D
:100CE00044F008040DE044F010040AE044F020044D
:100CF00007E044F0400404E044F0800401E044F4E0
:100D000080742868816921F070018161296804205C
:100D10004860002C05D0686A204368622846FFF7C7
:100D200077FEBDE8F09F70B5040003D094F8200072
:100D300010B104E0012070BD204600F081F8206869
:100D4000016841F00101016000F0B4FA0546052692
:100D500004E000F0AFFA401B0A2811D82068406870
:100D6000C007F6D02068016821F00201016000F0A0
:100D7000A1FA05460BE000F09DFA401B0A2806D9AF
:100D8000606A40F40030606284F82060D2E7206836
:100D900040688007EFD4207E0128206801683DD09C
:100DA00021F080010160607E01282068016838D050
:100DB00021F040010160A07E01282068016833D045
:100DC00021F020010160E07E0128206801682ED01A
:100DD00041F010010160207F01282068016829D0BE
:100DE00021F008010160607F01282068016824D09B
:100DF00021F004010160D4E902010843D4E904129E
:100E0000114308436168491E08432168C8610020F6
:100E10006062012084F82000002070BD41F0800154
:100E2000C0E741F04001C5E741F02001CAE721F0E9
:100E30001001CFE741F00801D4E741F00401D9E700
:100E400010B586B0044614216846FFF7B6FA1C496F
:100E50002068884231D11B480021026842F00072AC
:100E60000260006800F000700590164810380268B3
:100E700042F002020260006800F0020005904FF4A8
:100E8000407000900220CDE9010103200390092069
:100E9000049069460C4800F015F900221146132011
:100EA00000F076FA132000F065FA002211461420B3
:100EB00000F06EFA142000F05DFA06B010BD0000DC
:100EC00000640040403802400004024070470000C7
:100ED00070B5054615498AB0002000BF51F82020A2
:100EE0002AB15268AA4202D151F8204017E0401CB2
:100EF000C0B20328F2D30AB070BD07AB6A46002126
:100F00002846FFF798FD0028F5D1029838B9A66861
:100F10002EB1049807AAC3B220460099B047002119
:100F20002846FFF777FD0028E7D1E4E74C040020CE
:100F3000704770477047000070B5044690F8200075
:100F4000012804D0606A40F40020606218E00220AA
:100F500084F820002068016821F00101016000F0A0
:100F6000A9F905460EE000BF00F0A4F9401B0A28CD
:100F700008D9606A40F400306062052084F82000DF
:100F8000012070BD20684068C007EDD1606270BD6F
:100F900070477047704770477047704770472DE93A
:100FA000F0410446876D00F085F9064694F8350057
:100FB0000025022806D08020606584F83450012086
:100FC000BDE8F0812068016821F016010160206809
:100FD000416921F080014161206C08B9A06C20B109
:100FE0002068016821F0080101602068016821F093
:100FF000010101600CE000F05DF9801B052807D9B4
:1010000020206065032084F8350084F83450D7E749
:1010100020680068C007EED194F85C103F2088403B
:10102000B860012084F8350084F834500020C7E708
:1010300090F83510022903D08021416501207047C6
:10104000052180F835100068016821F00101016078
:10105000002070472DE9F0410446866D90F8340079
:10106000002501280DD0012084F8340094F8357053
:101070000020012F07D084F8340002252846BDE85F
:10108000F0810220FBE7022784F835706065204676
:10109000FFF720FB94F85C103F208840B060206888
:1010A000016841F016010160206C20B120680168E0
:1010B00041F0080101602068016841F00101016010
:1010C000DCE700002DE9F84FDFF8BCA10022012584
:1010D00003264FF00F090AF1040BAAF1040E00BF1A
:1010E0000B6805FA02F42340A34270D10F7907F090
:1010F0000307012F01D0022F16D187684FEA42085B
:1011000006FA08FC27EA0C07D1F80CC00CFA08FC18
:101110004CEA070CC0F808C04768A7430C79C4F331
:10112000001494403C4344600C79E443A4070AD083
:10113000C4684FEA420C06FA0CF7BC438F6807FA02
:101140000CF72743C7600C7904F00304022C12D17A
:10115000D40800EB840CDCF820405707FF0E09FA96
:1011600007F824EA0804D1F8108008FA07F848EADA
:101170000408CCF8208004684FEA420C06FA0CF709
:10118000BC430F7907F0030707FA0CF72743076002
:101190004C6814F4403F70D03C4C276847F48047BB
:1011A0002760246822F0030704F480440094384C3C
:1011B00007EB040CDCF8084897074FEA177809FAA0
:1011C00008F7BC43334FB84202D1002724E054E073
:1011D000314FB84201D101271EE0304FB84201D152
:1011E000022719E02E4FB84201D1032714E02D4FFA
:1011F000B84201D104270FE02B4FB84201D1052797
:101200000AE02A4FB84201D1062705E0284FB8422C
:1012100001D1072700E0082707FA08F72743CCF891
:101220000878DAF800405746D1F804C09C435FEADA
:10123000CC2C00D51C433C60DBF800405F46D1F865
:1012400004C09C435FEA8C2C00D51C433C60DEF854
:1012500000407746D1F804C09C435FEA8C3C00D53F
:101260001C433C60084F083F3C68D1F804C09C43D5
:101270005FEACC3C00D51C433C60521C102AFFF4B2
:101280002FAFBDE8F88F0000083C01404438024011
:10129000003001400000024000040240000802400B
:1012A000000C0240001002400014024000180240EE
:1012B000001C0240014880687047000018000020B0
:1012C000024881680278114481607047180000204C
:1012D0000B4810B5016841F400710160016841F4E8
:1012E00080610160016841F480710160032000F0B9
:1012F0006FF80F2000F006F800F024F8002010BD71
:10130000003C024070B50D4D04464FF47A712878C8
:10131000B1FBF0F00A490968B1FBF0F000F09EFB68
:1013200048B9102C07D200222146501E00F030F898
:1013300000206C6070BD012070BD0000180000200E
:10134000240000200A4808B5016841F4804101608A
:10135000006800F4804000900548001F016841F0DB
:1013600080510160006800F08050009008BD0000CE
:1013700044380240002809DB00F01F02012191409F
:101380004009800000F1E020C0F800117047000023
:10139000F0B40E4B1B680C46C3F30223C3F10705E0
:1013A000042D00D90425191D072901D2002300E0CE
:1013B000DB1E012606FA05F1491E214099409E4098
:1013C000761E16403143F0BC01F0C1BC0CED00E0CC
:1013D000064900F0070208684FF6FF03184040EA8C
:1013E0000220034A10430860704700000CED00E043
:1013F0000000FA052DE9F0470E46050065D0DFF83C
:101400001481D8F80000F7B200F00700B04207D20C
:1014100088F80070D8F8000000F00700B04254D1FE
:1014200028683D4C810712D5400703D5206840F459
:10143000E05020602878000703D5206840F4604021
:1014400020602068A96820F0F00008432060287818
:10145000C0072DD0304968680839012812D0022809
:1014600013D0032811D00968890700292DDA2168D3
:1014700021F0030101432160FFF71CFF814641F287
:10148000883A0EE009688903EFE709688901ECE70B
:10149000FFF710FFA0EB0901514502D90320BDE879
:1014A000F0872068696800F00C00B0EB810FEFD185
:1014B000D8F80010404601F00701B14207D9077083
:1014C000006800F00700B04201D00120E7E728786B
:1014D000400705D52068E96820F4E0500843206003
:1014E0002878000706D52068296920F4604040EA82
:1014F000C100206000F038F82168084AC1F30311E8
:10150000515CC8400649086006480068FFF7FAFECB
:101510000020C4E7003C024008380240FE2F0008CB
:10152000240000201C0000200448054900680968C8
:10153000044AC1F38221515CC84070472400002056
:10154000083802400E300008044805490068096860
:10155000044AC1F34231515CC84070472400002066
:10156000083802400E300008154810B5006810F029
:101570000C02144813D01449042A0FD0082A0ED1A3
:101580000F4C241F2268236802F03F025B0207D53C
:101590002068C0F38810A0FB010106E0084610BDDA
:1015A0002168C1F38811A1FB00010023FEF75CFE56
:1015B0002168C1F30141491C4900B0FBF1F010BDA5
:1015C000083802400024F40040787D012DE9F84FEE
:1015D00004006ED02078DFF84C93C007A9F1040511
:1015E0004AD009F104000168C1F38101012908D042
:1015F0000068C0F3810002280AD1D9F80000400237
:1016000006D52868800337D560680028E1D033E02C
:101610006068B0F5803F10D0B0F5A02F286810D0DA
:1016200020F480302860286820F4802028606068DA
:10163000A8B1FFF73FFE06460DE0286840F4803071
:10164000F4E740F480202860F7E700BFFFF732FEA0
:10165000801B642873D828688003F7D50CE0FFF757
:1016600029FE064605E000BFFFF724FE801B642824
:10167000F0D828688003F7D42078DFF8AC828007A0
:101680004FF0000A3ED5A748001D016811F00C0F6D
:1016900008D00068C0F3810002280BD1D9F80000FF
:1016A000400207D42868800716D5E068012800D1D9
:1016B00012E033E1E068B8B10120C8F80000FFF79C
:1016C000F9FD064605E000BFFFF7F4FD801B022888
:1016D000C0D828688007F7D52868216920F0F8006D
:1016E00040EAC10028600DE0C8F800A0FFF7E2FD65
:1016F000064604E0FFF7DEFD801B02281FD828689D
:101700008007F7D42078000722D5864F8748616983
:10171000703771B101210160FFF7CCFD064604E08E
:10172000FFF7C8FD801B022809D838688007F7D565
:101730000EE0C0F800A0FFF7BDFD064605E082E020
:10174000FFF7B8FD801B02287DD838688007F7D4E2
:101750002078400768D5DFF8CCB100270BF13C0BAF
:10176000DBF80000C0000BD4DBF8001041F0805122
:10177000CBF80010DBF80000012700F0805000904B
:101780006B4E3068C00510D4306840F48070306013
:10179000FFF790FD009005E0FFF78CFD0099401ADF
:1017A000022850D83068C005F6D55E4EA0686C3669
:1017B00001280FD00528306810D020F001003060DB
:1017C000306820F004003060A068B8B1FFF772FD07
:1017D00000900FE0306840F00100F4E740F00400B2
:1017E0003060F7E7FFF766FD0099411A41F2883053
:1017F000814266D830688007F4D50EE0FFF75AFDC5
:10180000009007E0FFF756FD0099411A41F2883039
:10181000814256D830688007F4D42FB1DBF800102D
:1018200021F08051CBF80010A069C8B33D49091DD3
:101830000968C1F3810102294AD00228504607D025
:10184000C8F8600000E03CE0FFF734FD04463BE0F0
:101850004746C8F86000FFF72DFD064605E000BFCB
:10186000FFF728FD801B02282BD828688001F7D4B9
:10187000D4E907010843A16A2E4A490802EB014155
:10188000626A41EA8211084394F82C1040EA01612F
:10189000C9F8001001203866FFF70CFD044606E089
:1018A0003EE000BFFFF706FD001B022809D82868AC
:1018B0008001F7D534E000BFFFF7FCFC001B0228D5
:1018C00002D90320BDE8F88F28688001F4D427E00E
:1018D0000128F7D0D9F80000E26900F480019142B4
:1018E0001CD1226A00F03F01914217D147F6C07126
:1018F000626A0140B1EB821F10D1A26A4FF0FF3340
:1019000000F4403103EB5202B1EB024F06D194F8E0
:101910002C1000F07060B0EB016F01D00120D1E716
:101920000020CFE70438024000004742800E4742C3
:10193000007000400000FFFF70B5040009D0606A2D
:10194000002540B125616561A56294F8510040B160
:101950000CE0012070BD6068B0F5827FF4D0E561D5
:10196000F2E784F85050204600F044F8022084F852
:1019700051002068016821F040010160A0882189A0
:1019800000F4827001F404410843A18901F400616C
:101990000843217C01F002010843217D01F001018F
:1019A0000843218B01F400710843217F01F03801C5
:1019B000084394F8201001F080010843218D01F4C0
:1019C0000051084321680860A069042101EA104021
:1019D00094F8241001F01001084321684860206841
:1019E000C16921F40061C1616565012084F851007D
:1019F000002070BD10B586B0044614216846FEF77D
:101A0000DCFC13492068884220D11248002102687A
:101A100042F480520260006800F4805005900D4846
:101A20001438026842F001020260006800F0010010
:101A30000590E02000900220CDE9010103200390F1
:101A40000520049069460448FFF73CFB06B010BD32
:101A500000300140443802400000024010B5401EF2
:101A6000B0F1807F01D3012010BD4FF0E024606110
:101A70000F21601701F06BF90020A06107202061A1
:101A8000002010BD7047704770B590F83C20012AC7
:101A900032D0012480F83C40022280F83D200368C7
:101AA0005A689D6822F070060A6832435A60134BE8
:101AB00002689A4214D0B2F1804F11D0104B9A4272
:101AC0000ED0104B9A420BD00F4B9A4208D00F4BBE
:101AD0009A4205D00E4B9A4202D00E4B9A4204D144
:101AE000496825F080031943916080F83D4000214A
:101AF00080F83C10084670BD022070BD0000014017
:101B00000004004000080040000C004000040140B8
:101B1000004001400018004010B5040003D094F8C4
:101B20003D0010B107E0012010BD002084F83C000A
:101B3000204600F01FF8022084F83D00211D206897
:101B400000F05EFD012084F8460084F83E0084F831
:101B50003F0084F8400084F8410084F8420084F893
:101B6000430084F8440084F8450084F83D000020D8
:101B700010BD000008B500680B49884212D10B481F
:101B8000016841F0200101600068002200F020009F
:101B9000009011463720FFF7FBFBBDE808403720D7
:101BA000FFF7E8BB08BD00000014004040380240C9
:101BB00090F83D10012901D001207047022180F8E2
:101BC0003D100168CA6842F00102CA60006811490C
:101BD000884214D0B0F1804F11D00F4988420ED006
:101BE0000E4988420BD00E49884208D00D498842E0
:101BF00005D00D49884202D00C49884204D1816841
:101C000001F00701062903D0016841F001010160DC
:101C10000020704700000140000400400008004020
:101C2000000C00400004014000400140001800404A
:101C300070472DE9F04104460068C66805694FF019
:101C40000007A90713D5B10711D5F91E01610120BD
:101C50002077206880698007204602D0FFF7E8FFE0
:101C600004E000F07EF8204600F07CF82777680753
:101C700016D5700714D521686FF0040008610220A2
:101C800020772068806910F4407F204602D0FFF75B
:101C9000CFFF04E000F065F8204600F063F82777F6
:101CA000280715D5300713D521686FF008000861A3
:101CB000042020772068C0698007204602D0FFF703
:101CC000B7FF04E000F04DF8204600F04BF827770E
:101CD000E80616D5F00614D521686FF010000861EB
:101CE000082020772068C06910F4407F204602D089
:101CF000FFF79EFF04E000F034F8204600F032F8D1
:101D00002777E80708D0F00706D021686FF00100B8
:101D10000861204600F028F8280608D5300606D5C8
:101D200021686FF0800008612046FFF7ABFE68066F
:101D300008D5700606D521686FF04000086120467E
:101D400000F020F8A8060AD5B00608D521686FF083
:101D5000200008612046BDE8F041FFF794BEBDE8D1
:101D6000F08170477047000000680449884203D141
:101D700003484168491C416070470000001400405E
:101D800028000020704738B5044690F8420020280B
:101D900001D0022038BD51B14AB10120206300209A
:101DA0006063204600F054FE216B012901D0012020
:101DB00038BD21680A684968009121680C3151E8F2
:101DC000002F42F0100241E80023002BF5D138BD6E
:101DD00070477047F8B5016804460868CA684B69DF
:101DE00010F00F0F4FF0000559D003F0010602F478
:101DF0009077374365D0C10705D0D10503D5616C15
:101E000041F001016164410705D5D90703D0616C38
:101E100041F002016164810705D5D90703D0616CE7
:101E200041F004016164010707D502F0200131434C
:101E300003D0616C41F008016164616C00293AD003
:101E4000800604D5900602D5204600F01AFD2068D1
:101E50004069616CC0F38010090700D460B320466C
:101E600000F0DAFC20684069400621D52068143073
:101E700050E8001F21F0400140E80012002AF5D18F
:101E8000E06BA8B172490165E06BFFF7D1F800285B
:101E900011D0E06B016D01B0BDE8F040084783064A
:101EA0000FD593060DD52046BDE8F84000F0E9BCFB
:101EB0002046FFF78EFFF8BD2046FFF78AFF6564D6
:101EC000F8BD266B2023012E7ED1C6067CD5D60612
:101ED0007AD508684868009048694FF002064006C5
:101EE0004DD5E26B106840684FF480770004000C19
:101EF0003AD0A18D814237D9E085D069B8422DD042
:101F000020680C3050E8001F21F4807140E8001276
:101F1000002AF5D12068143050E8001F21F001019B
:101F200040E80012002AF5D12068143050E8001F64
:101F300021F0400140E80012002AF5D184F8423037
:101F4000256320680C3050E8001F21F0100140E8A4
:101F50000012002AF5D1E06BFFF721F86663A08D2F
:101F6000E18D401A81B206E0A18D8142A8D1D069ED
:101F7000B842A5D166632046FFF72AFFF8BDA08DC1
:101F8000E18D401A81B2E08D0028F7D00029F5D00C
:101F900020680C3050E8002F22F4907240E80027AF
:101FA000002FF5D12068143050E8002F22F00102F4
:101FB00040E80027002FF5D184F8423025632068DF
:101FC0000C3050E8002F00E006E022F0100240E85C
:101FD0000023002BF3D1CDE705062BD5150629D517
:101FE00094F841002128C9D1A068B0F5805F01D1E3
:101FF0002069B0B1206A411C2162216800784860E4
:10200000E08C401E0004000CE084B7D12068C16859
:1020100021F08001C1602068C16841F04001C160C9
:10202000F8BD206A0088C0F308004860206A801C60
:102030002062E5E74006F3D55006F1D5CA68204690
:1020400022F04002CA6084F8413000F007F9F8BD80
:10205000D126000870B5040004D094F84100002592
:1020600010B106E0012070BD84F84050204600F019
:1020700023F8242084F841002068C16821F400512D
:10208000C160204600F05EFC2068016921F49041A7
:1020900001612068416921F02A0141612068C1681D
:1020A00041F40051C1606564202084F8410084F847
:1020B00042006563002070BD10B586B0044614214F
:1020C0006846FEF77AF918492068884229D11748EE
:1020D0000021026842F010020260006800F0100067
:1020E000059012481438026842F00102026000684C
:1020F00000F0010005904FF4C06000900220CDE98F
:102100000101032003900720049069460848FEF768
:10211000D9FF002211462520FFF73AF92520FFF7C5
:1021200029F906B010BD00000010014044380240FB
:1021300000000240704770472DE9F843044690F8CC
:102140004100984616460D46202802D00220BDE8E0
:10215000F88385B17EB100206064212084F84100BD
:10216000FFF7A8F8A6848146E684A0682027B0F58A
:10217000805F02D003E00120E9E7206910B12E461C
:1021800000250EE000260CE08021204600F0B0FC87
:10219000A8B9C6B116F8010B21684860E08C401E52
:1021A000E084E08C4B464FF00002CDF80080002820
:1021B000EAD14FF04001204600F09AFC40B184F88B
:1021C00041700320C3E735F8020BC0F30800E3E7D2
:1021D00084F841700020BAE770B5044690F84100D9
:1021E000202801D0022070BD01B3FAB12162A2847F
:1021F000E28400206064212384F84130A56B144BF5
:10220000EB63A56B134B2B64A56B134BEB64A36BB8
:10221000186520681346A56B021D2846FEF71AFFB5
:1022200030B110206064202084F84100012070BD8E
:1022300021686FF0400008602068143050E8001FEB
:1022400041F0800140E80012002AF5D1002070BD65
:10225000CD2700080F280008DF26000870477047C8
:10226000FEE700000F4810B50D49016003214160F1
:1022700000214FF410228160C0E903124FF40012D4
:1022800042610176417681760122C27601774177FB
:10229000FEF749FD002801D072B6FEE710BD000030
:1022A000006400403C030020104810B50E49016056
:1022B0004FF48271416000214FF40062C0E90212C4
:1022C0000122C0E90412520282611822C0E90721EA
:1022D000416281620A21C162FFF72EFB002801D012
:1022E00072B6FEE710BD000000300140640300201C
:1022F000FEE70000A1F50070013805D1082B03D1DD
:1023000011460248FEF713BA70470000540000203F
:1023100010B5002816D0002914D0002A12D0002BA6
:1023200010D04C78002C0DD180E80E009FED060AED
:10233000002180ED030A80ED040A80ED050A80ED9E
:10234000060A017710BD00000000000080ED060ABB
:10235000BDEEC00A006810EE101A09B2FEF744BACA
:10236000002803D080ED030A01210177704700287F
:1023700003D080ED050A022101777047002810D0B4
:1023800080ED040A002202778168002909D09FEDC0
:10239000050A81ED040A816881ED050A806880F8EC
:1023A000202070470000000010B5040033D02168E1
:1023B000002930D0207F30B102280DD001280ED066
:1023C0009FED150A22E0B1F9120000EE100AF8EEB6
:1023D000C00A94ED040A16E094ED050A16E091EDAA
:1023E000030ADFED0E0AA068B8EEC00A60EE200A0C
:1023F00094ED030A00F01EF82068B0F9120000EE18
:10240000900AF8EEE00A606800F014F82046BDE893
:102410001040FFF79BBF10BD000000000000343DDE
:10242000FEE7B5EEC00AF1EE10FA01D2B1EE400AB5
:102430007047000010B504462DED028BB0EE608AA7
:10244000D0ED030A70EE488A90ED040A08EEA00A67
:1024500080ED040AD0ED070A00F02AF884ED040AA2
:10246000DFED120A94F8200038B1D4ED050AD4ED5E
:10247000031A30EEC81AC1EE210A94ED011A0120A8
:1024800021EE000A94ED001A01EE280A94ED021ADA
:1024900084ED058A84F8200001EE200AD4ED060AB6
:1024A000BDEC028BBDE8104000F002B80000000057
:1024B00010B52DED028BB0EE408AB0EE600AFFF74A
:1024C000B0FFB5EEC00AF1EE10FA0BD0B4EEC08A40
:1024D000F1EE10FA08DCB1EE400AB4EEC08AF1EE7B
:1024E00010FA01D3B0EE480ABDEC028B10BD00001B
:1024F00010B504002DED028BB0EE628A04D0F5EE2B
:10250000C01AF1EE10FA03D80020BDEC028B10BD0A
:1025100084EC040AB0EE420AFFF783FF84ED060A5A
:10252000B0EE480AFFF77DFF84ED070A9FED050A2C
:10253000002084ED040A84ED050A84F820000120BF
:10254000E3E700000000000070477047FEF7B8BEE8
:1025500030B593B030216846FDF72FFF14210CA849
:10256000FDF72BFF1D480025016841F080510160F7
:10257000006800F0805011901948016841F48041D2
:1025800001600068022400F4804011900120039053
:1025900010200490009406940820CDE90750A8204C
:1025A000CDE9090404200B906846FFF70FF808B145
:1025B00072B6FEE70CA90F2081E831004FF4A0505D
:1025C0000F904FF48050109005210CA8FEF712FFD9
:1025D000002801D072B6FEE713B030BD403802408B
:1025E000007000400248016841F4700101607047CA
:1025F00088ED00E00148FFF71CBB0000BC03002091
:10260000F0B50268274B284D284E294F294C4FF032
:10261000804C984209D0604507D0A84205D0B0420E
:1026200003D0B84201D0A04204D122F0700E4A6813
:1026300042EA0E0298421BD0604519D0A84217D03A
:10264000B04215D0B84213D0A04211D01A4DA842C2
:102650000ED01A4DA8420BD0194DA84208D0194DE2
:10266000A84205D0184DA84202D0184DA84203D167
:1026700022F44075CA682A434D6922F080022A4339
:102680008D68C5620D688562984201D0A04201D173
:1026900009690163016841F00401016001214161A0
:1026A0000260F0BD0000014000040040000800404E
:1026B000000C004000040140004001400044014083
:1026C0000048014000180040001C0040002000406D
:1026D00010B5806B0021C185FFF77BFB10BD70B585
:1026E000846B2068406994F84110C0F3C010002545
:1026F000212904D118B1E584204600F0B4F82068FF
:10270000406994F84210C0F38010222904D118B116
:10271000E585204600F080F8606C40F010006064B1
:102720002046FFF756FB70BD10B50146806B096867
:1027300009684FF00002C9052ED4C28501680C312A
:1027400051E8003F23F4807341E80034002CF5D1B8
:102750000168143151E8003F23F0010341E80034DF
:10276000002CF5D10168143151E8003F23F04003FB
:1027700041E80034002CF5D1202180F84210016B93
:10278000012909D101680C3151E8003F23F0100301
:1027900041E80034002CF5D14263016B012902D0DD
:1027A000FFF7C8FC10BD818DFFF712FB10BD10B5FF
:1027B000806B01214163016B012902D0FFF7BBFC53
:1027C00010BD818D4908FFF703FB10BD10B5014610
:1027D000806B09680968C90516D40021C1840168A5
:1027E000143151E8002F22F0800241E80023002B31
:1027F000F5D101680C3151E8002F42F0400241E868
:102800000023002BF5D110BDFFF728FD10BD10B53A
:10281000806BFFF724FD10BD01680C3151E8002FDB
:1028200022F4907241E80023002BF5D101681431A5
:1028300051E8002F22F0010241E80023002BF5D1DE
:10284000016B012909D101680C3151E8002F22F0F8
:10285000100241E80023002BF5D1202180F842101E
:1028600000210163704701680C3151E8002F22F00C
:10287000C00241E80023002BF5D1202180F841104F
:10288000704708B590F84210222901D0022008BDF7
:1028900082684FF480539A4201D1016921B1816A63
:1028A0009A421BD04AB10AE00268816A5268C2F3B8
:1028B00008020A80816A891C08E0026972B1026814
:1028C000526802F07F020A70816A491C8162C18DE0
:1028D000491E0904090CC18503D01BE00268526837
:1028E000F1E70168CA6822F02002CA600168CA687C
:1028F00022F48072CA6001684A6922F001024A61CA
:10290000202180F8421000214163026B012A03D08C
:10291000FFF710FC002008BD016301680C3151E88D
:10292000002F22F0100241E80023002BF5D10168AE
:102930000A68D20602D50A6849680091818DFFF7BE
:1029400047FAE7E770B5044600680169E26821F4D8
:102950004051114301612169A068E269084361693E
:10296000114308432168CA6849F20C639A43024341
:10297000CA6020684169A26921F440711143416134
:1029800031492068884202D03049884202D1FEF79E
:10299000DBFD01E0FEF7C8FDE26900231921642593
:1029A0003226B2F5004F626828D0A0FB0101930FD8
:1029B0009200FDF759FC0146B0FBF5F06FF01802EC
:1029C000504301EB800006EB0010B0FBF5F000F087
:1029D000F002B1FBF5F002EB0012B1FBF5F06FF085
:1029E0001803584301EB800006EB0010B0FBF5F034
:1029F00000F00F0021681044886070BDA0FB010149
:102A000092185B41FDF730FC0146B0FBF5F0020186
:102A1000B1FBF5F06FF01803584301EB800006EBB3
:102A2000C000B0FBF5F000F0F80002EB4002B1FB93
:102A3000F5F0584301EB800006EBC000B0FBF5F069
:102A400000F00700D6E7000000100140001401402C
:102A500038B58162044682850020134660642222D4
:102A600084F84220E56B1F4AEA63E56B1E4A2A643C
:102A7000E56B1E4AEA64E26B10650A462168E06B6A
:102A8000091DFEF7E7FA30B110206064202084F8B9
:102A90004200012038BD206801684068009020692C
:102AA00048B120680C3050E8001F41F4807140E8C4
:102AB0000012002AF5D12068143050E8001F41F0C0
:102AC000010140E80012002AF5D12068143050E8D6
:102AD000001F41F0400140E80012002AF5D100201B
:102AE00038BD000029270008AF270008DF260008AE
:102AF0002DE9F843984617460D460446089E24E003
:102B0000701C22D0FEF7D6FBA0EB0800B0421AD80A
:102B1000CEB12068C168490717D5802D15D0402D4A
:102B200013D00168C94309070FD401680025406824
:102B300000902046FFF770FE0820606484F8405043
:102B40000120BDE8F8830320FBE72068006835EA30
:102B5000000004D00020B842D2D00020F1E70120CC
:102B6000F9E700000148FFF735B900000404002030
:102B7000FEE770B50D4604000DD065B14FF4187135
:102B8000FDF71BFC2560FEF795FBC4F80801C4F8AF
:102B90000C01012070BD002070BD10B5040017D0DD
:102BA000B4F80401002813D094F85C0200280FD078
:102BB000FEF780FBD4F80C11B4F80421411A9142BD
:102BC00006D3C4F80C012046BDE8104000F052B80E
:102BD00010BD70B51646040005D021B11EB194F8A1
:102BE0005C02102801D3002070BD00EB800004EBD4
:102BF000800505F58E750F222846FDF705FC00209F
:102C0000E8732E6194F85C02401C84F85C02012099
:102C100070BD000070B5C0B014460E46050008D067
:102C200016B10CB13F2C07D3D5F81801401CC5F8DC
:102C30001801002040B070BDFEF73CFBD5F808112C
:102C4000DFED0B0A401A00EE100AA2003146B8EE82
:102C5000400A01A880EE201A8DED001AFDF77BFBDB
:102C6000641CA2B26946284600F027F8E2E700009B
:102C700000007A4400B591B028B190F85C1211B10F
:102C800000216A4610E0002011B000BD01EB810375
:102C900000EB8303D3F82C3193ED000A02EB8103A0
:102CA000491C83ED000AC9B290F85C328B42EDD822
:102CB000DAB26946FFF7AEFFE6E770B504000AD066
:102CC000206818B111B10AB13F2A06D9D4F8180109
:102CD000401CC4F81801002070BD4FF6FF7000EAD8
:102CE0008205281D86B22A46201DFDF734FB601997
:102CF000002101714171802181717F21C1713246B2
:102D0000211D2068FDF7AFFC28B1D4F81011491C33
:102D1000C4F8101170BD21680A79012A07D1897B96
:102D200029B1D4F81411491CC4F8141170BDD4F899
:102D30001811491CC4F8181170BD10B5040005D055
:102D4000A4F80411FEF7B6FAC4F80C0110BD090787
:102D5000090E002804DB00F1E02080F80014704721
:102D600000F00F0000F1E02080F8141D7047000013
:102D70001CB5FEF7ADFAFFF7EBFB2848002401680D
:102D800041F080010160016801F08001009101685B
:102D900041F001010160016801F001010091016849
:102DA00041F002010160006800F002000090FFF7AE
:102DB00059FAFFF779FA1B48009419490194016008
:102DC0005321C0E9011440F2E731C16080218161E3
:102DD000FEF7A2FE08B172B6FEE7009469461148FC
:102DE0000194FEF751FE08B172B6FEE70D480E4998
:102DF000483001600D49C0E901140C21C460C0E9EC
:102E000004418461C461FFF725F908B172B6FEE799
:102E100000F00EF800F08EF8FCE7000030380240B9
:102E200000140040BC0300200010014040420F008D
:102E300000B500222DED028B81B031493148FDF7FC
:102E40009DFB31492F48FDF7E4FB2E490023012269
:102E500001F12400FDF753FC9FED2C8ADFED2D8A54
:102E60002848F0EE482A9FED2A2AF7EE001AB3EE22
:102E7000091AF0EE680AB3EE0E0A6430FFF738FB69
:102E80002048DFED252AB0EE482AF7EE001AB0EE12
:102E9000001AF0EE680AB0EE040A8830FFF728FB4B
:102EA000184B8833A3F12402A2F1400101F1200064
:102EB000FFF72EFA002003460246009011481749FA
:102EC0001030FDF7BBFB0F49103101F19C00FFF7FB
:102ED00050FE0C48124A13A1AC30FFF77AFE104A9C
:102EE0000848121D11A1AC30FFF773FE01B0054870
:102EF0000A21BDEC028BAC305DF804EBFFF71DBF7F
:102F00003C03002030000020F522000800409C45D2
:102F100000401C4600000000000034430404002070
:102F2000100000207370656564000000616E676CBE
:102F30006500000070B5FDF771FB2A4C054620784E
:102F40006178884208D194ED010AD4ED030AB4EE09
:102F5000600AF1EE10FA10D02078012838D02078DD
:102F600094ED010A0228204838D0FFF707FA2078AC
:102F7000607094ED010A84ED030AA068854208D0D0
:102F80001948A560FFF710FA174801212038FDF70E
:102F9000FBFB1548DFED150A2038B0F9121000EEE2
:102FA000101AB8EEC00A84ED040A408800EE100A38
:102FB0000D48B8EE400A683020EE200ADFED0C0A1A
:102FC00020EE200A84ED050ABDE87040FFF7E5BD5C
:102FD00094ED010A0448FFF7C3F9C8E7FFF7C7F902
:102FE000C5E7000000000020740000200000B4438A
:102FF000000000394FF04070E1EE100A7047000009
:103000000000000000000102030406070809000098
:103010000000010203040000383000080000002016
:1030200030000000C40100086830000830000020B3
:10303000880A0000E001000800FF00000000000016
:103040000000000000000000000000000000000080
:103050000100000010000000000000000024F40047
:08306000000000000000000068
:040000050800018965
:00000001FF
