:020000040800F2
:10000000402501242D040008AF4300089D3D000851
:10001000AD430008610C00087F520008000000009A
:100020000000000000000000000000006D03000858
:10003000630C000800000000C90300083D460008EA
:100040004B0400084B0400084B0400084B04000854
:100050004B0400084B0400084B0400084B04000844
:100060004B0400084B0400084B0400084B04000834
:100070004B0400084B0400084B0400084B04000824
:100080004B0400084B0400084B040008850C0008D2
:10009000910C00084B0400084B0400084B040008B6
:1000A0004B040008C94700084B0400084B04000833
:1000B0004B0400084B0400084B0400084B040008E4
:1000C0004B0400084B0400084B0400084B040008D4
:1000D0004B0400084B0400084B0400084B040008C4
:1000E0004B0400084B040008000000004B0400080B
:1000F0004B0400084B0400084B0400084B040008A4
:100100004B0400084B0400084B0400084B04000893
:100110004B0400084B0400084B0400084B04000883
:100120004B0400084B0400084B0400084B04000873
:100130004B0400084B0400084B0400084B04000863
:1001400000000000000000000000000000000000AF
:100150004B0400084B0400084B0400084B04000843
:100160004B0400084B0400084B0400084B04000833
:100170004B0400084B0400084B040008000000007A
:100180004B0400084B0400084B0400084B04000813
:100190004B0400084B0400084B0400084B04000803
:1001A0004B0400084B0400084B040008000000004A
:1001B0004B0400084B0400084B0400084B040008E3
:1001C0004B0400084B040008000000000000000081
:1001D00000000000000000004B04000800000000C8
:1001E000000000000000000000000000000000000F
:1001F00000000000000000004B0400084B04000851
:100200004B0400084B040008000000004B040008E9
:100210004B0400084B0400084B0400084B04000882
:100220004B040008000000004B0400080000000020
:100230004B0400084B040008000000004B040008B9
:100240004B0400084B0400084B0400084B04000852
:100250004B0400084B0400084B0400084B04000842
:100260004B0400084B0400084B0400084B04000832
:100270004B0400084B0400084B0400080000000079
:100280004B0400084B0400084B0400084B04000812
:10029000000000004B0400084B04000800000000B0
:1002A000000000004B0400084B0400084B04000849
:1002B0004B0400084B0400084B0400089D0C000888
:1002C0004B0400084B0400084B04000800F002F83F
:1002D00000F03CF80AA090E8000C82448344AAF1A4
:1002E0000107DA4501D100F031F8AFF2090EBAE8A2
:1002F0000F0013F0010F18BFFB1A43F0010318475A
:100300004C7C00006C7C0000103A24BF78C878C197
:10031000FAD8520724BF30C830C144BF04680C600B
:10032000704700000023002400250026103A28BF53
:1003300078C1FBD8520728BF30C148BF0B60704757
:100340001FB507F01FFC1FBD10B510BD00F0D4F99C
:100350001146FFF7F5FF04F0A4FF00F0F2F903B433
:10036000FFF7F2FF03BC00F0F9F900002C4B19680D
:100370000868B0E8F04F80F30988BFF36F8F4FF043
:10038000000080F3118870470000000008480068F2
:10039000006880F308884FF0000080F3148862B68C
:1003A00061B6BFF34F8FBFF36F8F00DF00BF00BF99
:1003B00008ED00E0DFF80C00016841F47001016015
:1003C000704700BF88ED00E0EFF30980BFF36F8F47
:1003D000134B1A681EF0100F08BF20ED108A20E999
:1003E000F04F106009B44FF0500080F31188BFF354
:1003F0004F8FBFF36F8F06F0F7F94FF0000080F3D7
:10040000118809BC19680868B0E8F04F1EF0100F99
:1004100008BFB0EC108A80F30988BFF36F8F704774
:1004200068000024EFF30580704700000A48804709
:100430000A4880470A480047FEE7FEE7FEE7FEE776
:10044000FEE7FEE7FEE7FEE7FEE7FEE705480649B2
:10045000064A074B70470000690C0008F146000887
:10046000CD020008401F0124402501244021012421
:100470004021012453EA020C00F069802DE9F04B81
:100480004FF00006002B1FBFB3FA83F503FA05F403
:1004900024FA05F65E4012BF1643B2FA82F502FA5C
:1004A00005F4C5F120051EBF22FA05FC44EA0C0440
:1004B000203556EA044C4FEA144418BF641C4FF030
:1004C00000084FF00009904271EB030C39D300296A
:1004D00019BFB1FA81F701FA07F6B0FA80F700FA0E
:1004E00007F6C7F120071EBF20FA07FC46EA0C06F4
:1004F0002037B6FBF4FCA7EB0507103F07F01F0BF6
:10050000CBF120060CFA0BFB2CFA06F644BFB346DF
:100510000026202FA4BF5E464FF0000B5BEA060CBE
:1005200008BF4FF0010B19EB0B09ABFB027C48EB4A
:100530000608C01B06FB02CC0BFB03CC71EB0C01C5
:10054000C1E70B46024641464846BDE8F08B13B56D
:100550004FF000004FF00001AFF30080BDE81C40F9
:100560007047032A40F2308010F0030C00F0158031
:1005700011F8013BBCF1020F624498BF11F801CBA6
:1005800000F8013B38BF11F8013BA2F1040298BF0B
:1005900000F801CB38BF00F8013B11F0030300F075
:1005A0002580083AC0F0088051F8043B083A51F819
:1005B00004CBA0E80810F5E7121D5CBF51F8043B1E
:1005C00040F8043BAFF30080D20724BF11F8013B91
:1005D00011F801CB48BF11F8012B24BF00F8013BF3
:1005E00000F801CB48BF00F8012B704710B5203A46
:1005F000C0F00B80B1E81850203AA0E81850B1E8DC
:100600001850A0E81850BFF4F5AF5FEA027C24BF91
:10061000B1E81850A0E8185044BF18C918C0BDE888
:1006200010405FEA827C24BF51F8043B40F8043B51
:1006300008BF7047D20728BF31F8023B48BF11F806
:10064000012B28BF20F8023B48BF00F8012B704760
:1006500002F0FF0343EA032242EA024200F002B83A
:100660004FF000020429C0F0128010F0030C00F0DB
:100670001B80CCF1040CBCF1020F18BF00F8012B59
:10068000A8BF20F8022BA1EB0C0100F00DB85FEA27
:10069000C17C24BF00F8012B00F8012B48BF00F8F3
:1006A000012B70474FF0000200B513469446964662
:1006B000203922BFA0E80C50A0E80C50B1F1200175
:1006C000BFF4F7AF090728BFA0E80C5048BF0CC023
:1006D0005DF804EB890028BF40F8042B08BF704781
:1006E00048BF20F8022B11F0804F18BF00F8012BF3
:1006F0007047704770477047754600F02BF8AE465C
:1007000005006946534620F00700854618B020B51D
:10071000FFF79CFEBDE820404FF000064FF00007B9
:100720004FF000084FF0000B21F00701AC46ACE899
:10073000C009ACE8C009ACE8C009ACE8C0098D4606
:10074000704710B50446AFF300802046BDE8104066
:10075000FFF705BE00487047DC1E01240149182040
:10076000ABBEFEE7260002007047000086B000F036
:1007700063FAD0B10E4D10240E4E4FF0FF37002219
:100780003B466946E86904F0CDFE0028F7D1B06821
:10079000401CB0609DF8080004FA00F1686B04F09A
:1007A00015FE684600F003FAE9E704F095FF000043
:1007B000040000242801002492B000F03DFA90B11A
:1007C0000A4D4FF0FF360A4C002233466946E86A6C
:1007D00004F0A8FE0028F7D12069401C206168467B
:1007E00000F0E6F9F0E704F077FF000004000024D1
:1007F0002801002490B018210AA8FFF753FF2821F0
:100800006846FFF74FFF00F017FAC0B304F042FE4E
:100810000546012000F0B5F91A4E07461A4C002390
:100820000AA91A46306A04F07DFE0028F7D000239A
:10083000706A1A46694604F075FE0028F7D0706B9E
:1008400004F09BFD024640F60C00024204D000205A
:100850008DF83C008DF824000AA8694600F06CF978
:10086000A0693D44401CA06104F014FE401B02D46A
:10087000E069401CE061284604F066FDCFE7FFE731
:1008800004F02AFF04000024280100240C48102151
:1008900010B500F08FF9202104460A4800F08AF9CB
:1008A00004400948402100F085F9084A204201D05F
:1008B000012100E00621506BBDE8104004F086BD28
:1008C0004C010024EC0100248C02002404000024CC
:1008D00070B504000ED008492422FFF787FE04F00B
:1008E000D9FD064D2060686B08B104F046FD6060DC
:1008F000686C206270BD0000280100240400002400
:100900004548402110B5FFF7CDFE43482421403033
:10091000FFF7C8FE414C002060641421404A40208B
:1009200004F03AFE3E4A1821E0610420183204F037
:1009300033FE3B4A282120620420303204F02CFE92
:10094000374A182160622020483204F025FE344ADC
:100950004821A0621020603204F01EFE304A24219B
:10096000E0620420783204F017FE20632C489030B7
:1009700004F016FD60632A48A03004F07BFEA063FB
:10098000E169002946D0216A002943D0616A002923
:1009900040D0A16AE9B3E16AD9B3216BC9B3616BF5
:1009A000B9B3B0B31E4A00211E48D83A04F098FEED
:1009B0001B4A002160601C48B43A04F091FE184ABA
:1009C0000021A0601948903A04F08AFE144A0021E0
:1009D000E06017486C3A04F083FE114A0021206160
:1009E0001448483A04F07CFE0D4A00216061124828
:1009F000243A04F075FEA061616851B1A16841B16B
:100A0000E16831B1216921B1616911B108B10120F9
:100A100010BDFFE70020FBE7E800002404000024ED
:100A20008C7C00086D070008F5070008B50A00086F
:100A3000B9070008010B0008650A0008022805D85C
:100A4000034901224B6C82401A434A6470470000FC
:100A5000040000240249087072B600BFFDE70000E0
:100A60000400002492B004F015FD114D04466846C0
:100A7000FFF72EFF0023286B1A46694604F0BEFDDF
:100A800058B10023286B09A91A4604F04BFD002336
:100A9000286B1A46694604F0B1FD684600F070F80C
:100AA000642000F06EF80444204604F04DFCDEE7BC
:100AB0000400002486B018216846FFF7F3FD00F01B
:100AC000BBF8B0B104F0E6FC0C4D044600236946C7
:100AD0001A46A86A04F026FD68B10021684600F0B5
:100AE00065F80A2000F04DF80444204604F02CFC80
:100AF000ECE704F0F1FD0121F0E700000400002420
:100B000004F0C8FC0B4D044640F60406686C18B1AE
:100B1000686B314604F05AFC686B04F02EFC00F060
:100B200048F80A2000F02DF80444204604F00CFC9C
:100B3000ECE700000400002470470000024A106443
:100B4000D1630420FFF786FF04000024094A904285
:100B500001D1002008E0084A904201D1012003E0C1
:100B6000064A904203D102200870012070470020FD
:100B7000704700004C010024EC0100248C0200248A
:100B8000704710B5044604F091FCA4FB000140F24C
:100B9000E732801841F10001521C0023FFF76AFC84
:100BA000002C02D0014300D1012010BD70477047D6
:100BB0007047704770B58AB00D462021064601A8DF
:100BC000FFF770FD02200022019201240692CDE978
:100BD0000220CDE9044201A9304600F0A0F990B905
:100BE000A007019001A9304600F099F958B90222F6
:100BF000304601231146009400F0D0F918B9304670
:100C000000F081FE10B100200AB070BD084900223A
:100C1000304600F03FF918B1304600F08DFEF2E7A3
:100C200004482946406B04F0D1FB0120ECE70000AA
:100C300001000002040000240848022210B503212C
:100C40004FF0FF33406B04F0EFFB002803DBC007DD
:100C500001D0012010BD002010BD000004000024C0
:100C6000FEE7704772B6FEE7054805490839026895
:100C700042F00202026008688004FCD57047000060
:100C80000C480258014800F08DBA00004C010024C5
:100C9000014800F087BA0000EC010024014800F090
:100CA00081BA00008C020024F0B503684FF6FC7195
:100CB0006D4C426BD3F884508D4345EA8205C3F8EE
:100CC0008450036853F8845F068F25F47F0545EA56
:100CD00006451D60836B654D9F180268D2F8883009
:100CE0008B4343EA8703C2F88830026852F8883F92
:100CF000868F23F4FE0343EA06431360066856F822
:100D0000A03FC26B8B4307EB420243EA820333608E
:100D1000076857F8A03FB0F8406023F4FE0343EAA9
:100D200006433B60D0E9103603FB06220368D3F884
:100D3000B0608E4346EA8206C3F8B0600368B0F83C
:100D40004860D3F8B07027F4FE0747EA0646C3F8B8
:100D5000B060D0E91267036806FB0722D3F8AC60E5
:100D60008E4346EA8206C3F8AC60D0E91467036894
:100D700006FB0722D3F8F0608E4346EA8206C3F8EA
:100D8000F0600368B0F85860D3F8F07027F47C176F
:100D900047EA0646C3F8F0600368876D53F8C06FF2
:100DA00002EB47028E4346EA820119600168B0F8FF
:100DB0005C20D1F8C03023F47C1343EA0242C1F82E
:100DC000C020016890F86020D1F8C03023F07C5337
:100DD00043EA0262C1F8C020416B04EB8101C166A5
:100DE000826B01EB82020267C36B02EBC3024267B4
:100DF000D0E91034634302EB83028267D0E91234F6
:100E0000634302EB8302C267D0E91434634302EB0D
:100E10008302C0F88020836D02EBC303C0F88430E6
:100E2000C46D826E544303EB8403C0F88830046EB3
:100E3000544303EB8402C0F89020AA420AD9D0F8A8
:100E40009C20032142F02002C0F89C2080F89810DA
:100E50000120F0BD002200E004C1D0F890308B42A8
:100E6000FAD80020F0BD000000AC0040FCD30040E8
:100E700070B5044600F0BCFE0546601C02D0044874
:100E80000078044400F0B4FE401BA042FAD370BDC9
:100E90005400002410B590F89830012B09D0022B93
:100EA00007D0D0F89C1041F00201C0F89C1001203E
:100EB00010BD03689C6D0C4203D1DC6D44F001044D
:100EC00004E09C6D31EA04041FD00324DC658B052B
:100ED00005D50368D3F8E0401443C3F8E0404B0560
:100EE00005D50368D3F8E4401443C3F8E440006830
:100EF000084A01EA0203446D074A1C43446510682E
:100F000040EA91701060002010BDDC6D44F00204D6
:100F1000DCE70000FFFFCF3F14A80040704770B52A
:100F200090F89820012A09D0022A07D0D0F89C1006
:100F300041F00201C0F89C10012070BD0B68CA6826
:100F400083B10B69072A43EA427325D00C7A4A69B8
:100F500042EA84724968006F00EBC100C0E90032C8
:100F6000002070BD072A0DD00C7AD6060D8A4B6979
:100F700043EA847246EA0543C06E49681A4340F862
:100F80002120EDE70B8A4FF06055D1E9062442EAB3
:100F9000034245EA0423EFE78A69DBE730B590F8BE
:100FA0009850039C012D07D0D0F89C1041F004010B
:100FB000C0F89C10012030BD0D01016845EA820097
:100FC00040EA43002043C1F88000002030BD704754
:100FD00008B56946FFF7BAFD002803D09DF8000068
:100FE000FFF72CFD08BD00000068402905D0D0F8AF
:100FF000B40000BF00F07F007047D0F8A400F9E70C
:10100000F0B590F898500024022D04D0D0F89C1030
:1010100041F0080130E0402905D0412930D0056D6C
:101020008D4220D94DE00568D5F8A04014F4FE0F9C
:1010300019D0D5F8A44064061AD0D5F8A440D5F844
:10104000A460C4F30524F6010AD5D5F8A06016F013
:10105000004F05D5D5F8A050641CC5F306452C40BB
:10106000466F456C2BE0D0F89C1041F0200103E066
:10107000D0F89C1041F48071C0F89C100120F0BDA4
:101080000568D5F8B04014F4FE0FECD0D5F8B440A4
:101090006406EDD0D5F8B440D5F8B460C4F30524A7
:1010A000F6010AD5D5F8B06016F0004F05D5D5F891
:1010B000B050641CC5F306452C40866FC56C654373
:1010C00002E0456DC66F4D4306EB85052E6816F0B0
:1010D000804656602E6836D026F060461660D5F8F9
:1010E00000C000262D4F0CF0005CC2F808C0D5F8F7
:1010F00000C00CF0004CC2F810C0B5F804C01FFAD4
:101100008CFCC2F81CC0D5F804C0CCF3034CC2F868
:101110000CC0D5F804C00CF4801CC2F814C0D5F87B
:1011200004C00CF4001CC2F818C0D5F804C0CCF3FD
:10113000066CC2F820C0D5F804C008354FEADC7C44
:10114000C2F824C007E0C6F38A46C7E715F806C010
:1011500003F806C0761CD2F80CC017F80CC0B445D2
:10116000F4D840290AD041290CD020294FF001029F
:101170000CD200688A40C0F898200DE00068C0F8E2
:10118000A84009E00068C0F8B84005E0006801F038
:101190001F018A40C0F89C200020F0BD3C7D000863
:1011A000704700002DE9FF5FDFF80CB304460BF138
:1011B0000401DBF8000025680F68AA468007D5F80F
:1011C0005090696DD5F850806E6D2A6DD5F854C079
:1011D0002B6D00EA8770009009F470496F6D286DDF
:1011E00001EA09010191DAF85410DAF85490DAF8BA
:1011F000505008F00F0806EA0806029602F0F002C6
:1012000003F071536FEA09061F4000F060700CEAAA
:10121000020CCDF80CC0F20501EA00090CD4E84339
:10122000C00509D400214FF48073CAF85030CBF8C0
:1012300000102046FFF7B4FF700512D4E8434005C4
:101240000FD4206800234FF48068D0F8DC20D0F859
:10125000E410C0F85080CBF800301140204600F078
:10126000B0FBDFF858A2009850B12268830F00EA63
:101270000A001065CBF8003020460099FFF74EFEBB
:10128000019850B12268830F00EA0A001065CBF87C
:1012900000302046019900F096FB029850B1226878
:1012A000830F00EA0A001065CBF80030204602994F
:1012B00000F0CAFA039850B12268830F00EA0A00CE
:1012C0001065CBF800302046039900F01BFB300579
:1012D0000CD4E843000509D4236800204FF40062D1
:1012E0001A65CBF80000204600F06EFBB00512D462
:1012F000E84380050FD4206800234FF40078D0F82D
:10130000D820D0F8E010C0F85080CBF80030114061
:10131000204600F057FB30030CD4E843000309D407
:10132000236800204FF400221A65CBF80000204605
:1013300000F088FAF0030CD4E843C00309D4236812
:1013400000204FF480321A65CBF80000204600F0F0
:1013500037FB70030CD4E843400309D42268002013
:101360004FF480231365CBF80000204600F027FBE4
:10137000B0030FD4E84380030CD4236800204FF45B
:1013800000321A65CBF80000D4F89C0040F08000D1
:10139000C4F89C00B9F1000F0BD022684FEA997392
:1013A00009EA0A001065CBF8003049462046FFF7ED
:1013B0000FFE5FB12268BB0F07EA0A001065CBF889
:1013C0000030D4F89C003843C4F89C003C492068A5
:1013D000884268D1606881468068800763D0D9F808
:1013E0002060D9F82410D9F82080D9F82400D9F841
:1013F00020C0D9F82470D9F82030D9F82450D9F871
:10140000202003F4FC4306F00F0AD9F824601D40A5
:10141000D9F824B008F030080CF4C07C02F4F022B3
:1014200011EA0A0100EA080807EA0C0706EA0206C0
:10143000D9F820A004D0C9F82010204600F0BCFA4A
:10144000B8F1000005D0616808624146204600F00E
:10145000B5FA6FEA0B0040060ED46FEA0A004006A8
:101460000AD460684021C36BC26B01622046190C2C
:1014700002F03F0200F0A1FA2FB16068076239461E
:10148000204600F098FA35B160680562D4F89C00F7
:101490002843C4F89C0036B160680662D4F89C000A
:1014A0003043C4F89C00D4F89C00002802D02046A9
:1014B000FFF78DFDBDE8FF9F10A80040FFFFCF3F65
:1014C00000A000402DE9F04194B08D494C22044623
:1014D0006846FFF78BF864B18A4D2068A84202D1B4
:1014E00000F58070606094F898004FF0000820B11B
:1014F00008E0012014B0BDE8F081204684F899800E
:1015000000F002F92068816921F01001816100F08A
:101510006FFB0327064604E000F06AFB801B0A28E5
:1015200011D8206880690007F6D42068816941F0ED
:101530000101816100F05CFB06460DE000F058FB04
:10154000801B0A2808D9D4F89C0040F00100C4F898
:101550009C0084F89870CCE720688069C007EDD0C3
:101560002068816941F002018161207C01282068A6
:10157000816937D041F040018161607C0128206899
:10158000816932D021F480418161A07C01282068EA
:1015900081692DD041F4805181612068A268816900
:1015A00021F44071114381612068816921F0A40117
:1015B00081612068016921F010010161E068012862
:1015C00019D010B302281BD02068816941F0800136
:1015D00081612068016941F010010161E068032820
:1015E0000ED012E021F04001C6E741F48041CBE784
:1015F00021F48051D0E72068816941F0040103E0C3
:101600002068816941F020018161207E6FF0FF0236
:10161000D4E90773A68A1102400602EB0727A0F15E
:101620000070384327685B1E184301EB06463043C1
:10163000F861A068B0F5407F11D104F12800A68CB4
:101640006FF00F0C89C801EB0641401E02EB03222C
:10165000104322680CEB071318430843D060206E38
:1016600030B12068626ED0F8C0101143C0F8C010CD
:10167000D4E917126846D14209D02168A36E51F807
:10168000C82F50F8233022F007021A430A60216C59
:1016900049B12168626C51F8BC3F50F8226023F0D8
:1016A000070232430A60A16C51B12168E36C51F822
:1016B000BC2F50F8233022F0700242EA03120A6075
:1016C000216D51B12168626D51F8BC3F50F8220084
:1016D00023F4E06242EA002008602068A84204D1B6
:1016E0006068816821F003018160C4F89480012161
:1016F000C4F89C8084F898102046FFF7D5FAF9E6E4
:101700004C7D000800A00040F0B587B005461421CC
:101710006846FEF7C7FF454E0024434B02272D685D
:101720004FF0090CDFF808E10C3B31683E4A754583
:10173000404801F1010122D10129316007D111682E
:1017400041F480711160116801F48071059119688C
:1017500041F008011960196801F0080105910321A1
:101760000091CDE90174CDE9034C694600F02EF9F2
:1017700000220521132000F027FB132026E0DFF8CC
:10178000B8E0754526D10129316007D1106840F4D1
:1017900080701060106800F480700590186840F048
:1017A000020018601868694600F002000590602089
:1017B0000090CDE901742148CDE9034C00F006F911
:1017C00000220521142000F0FFFA142000F0EEFAA8
:1017D00007B0F0BDDFF868C06545F9D10129316077
:1017E00007D1116841F480711160116801F48071B2
:1017F0000591196841F0080119601968052201F086
:10180000080105914FF440510091CDE90174CDE9F3
:101810000342694600F0DAF8002205219F2000F01B
:10182000D3FA9F20D2E70000EC4402584C00002479
:1018300000A00040000C025800A400400004025820
:1018400000D400407047000030B52C4C05468FB0E6
:10185000E069002812D002A92846FFF777F900288E
:101860000CD043E04021284605AA0DF10B03FFF7F9
:10187000C7FB28B19DF80800FFF7E0F80FB030BDB6
:1018800000F0B6F90090059801900698B0F1804FED
:101890000CD0002008998DF80900092918D2DFE83A
:1018A00001F01707090B0D0F111315000120F1E7C7
:1018B00001200EE002200CE003200AE0042008E0F2
:1018C000052006E0062004E0072002E0082000E0F2
:1018D00000208DF80A000023E0691A46694603F0EB
:1018E0008DFE18B10649C868401CC86040212846D2
:1018F000FFF77AFB0028B5D1C0E700000400002400
:1019000028010024704790F89810012907D0D0F8DA
:101910009C1041F00401C0F89C1001207047022186
:1019200080F89810002201688B6923F001038B6115
:10193000C0F89C201046704710B590F8981000220F
:10194000022906D0D0F89C1041F00801C0F89C1084
:1019500012E0016803238C6944F001048C61016882
:101960000DE0322A0AD900BFD0F89C1041F00101E5
:10197000C0F89C1080F89830012010BD521C8C6972
:10198000E407EED08C69002224F010048C61016819
:1019900002E0322AE8D8521C8C692407F9D48C69F9
:1019A0000023012244F002048C61C0F8943080F8D6
:1019B0009820184610BD70477047704770477047B1
:1019C0007047704770477047704700002DE9F84F27
:1019D00003247C4D00234FF001094FF0B04B4FF032
:1019E0000F0AE7E009FA03F632407BD00F7907F0DF
:1019F0000307012F01D0022F1AD187684FEA430E47
:101A0000D1F80CC004FA0EF827EA08070CFA0EFC0D
:101A10004CEA070CC0F808C0476891F804C0B74307
:101A2000CCF3001C0CFA03FC4CEA070CC0F804C011
:101A30000E79F643B60702D18E68012E0BD0C76827
:101A40004FEA43088E6804FA08FC27EA0C0706FAF6
:101A500008F63E43C6600E7906F00306022E12D148
:101A6000DE080F694FEA437C00EB8606B646366A0D
:101A70004FEADC6C0AFA0CF807FA0CF726EA0806BB
:101A80003743CEF820700F7906684FEA430807F015
:101A9000030704FA08FC07FA08F726EA0C0637439E
:101AA00007604E6816F4403F1CD0474E376847F039
:101AB0000207376036689F0706F00206009623F09B
:101AC000030606F1B046B6463F0FD6F80864DFF8C5
:101AD000FC800AFA07FC404526EA0C0603D14FF0C9
:101AE000000C3AE065E0DFF8E8C0604502D14FF055
:101AF000010C32E0DFF8DCC0604502D14FF0020C8F
:101B00002BE0DFF8D4C0604502D14FF0030C24E095
:101B1000DFF8C8C0604502D14FF0040C1DE0DFF8CB
:101B2000C0C0604502D14FF0050C16E0DFF8B4C02C
:101B3000604502D14FF0060C0FE0DFF8ACC0604505
:101B400002D14FF0070C08E0DFF8A0C0604502D1D9
:101B50004FF0090C01E04FF00A0C0CFA07FC4CEABC
:101B6000060CCEF808C44F68DBF80060FF0226EAD6
:101B7000020600D516435F46CBF80060D1F804C0DA
:101B8000DBF804605FEA8C2C26EA020600D51643D7
:101B90007E606E684F6826EA0206BF0300D51643D2
:101BA0006E602E684F6826EA0206FF0300D51643D2
:101BB0002E605B1C0A6832FA03F67FF413AFBDE8AF
:101BC000F88F000080000058F444025800000258CA
:101BD0000004025800080258000C02580010025875
:101BE0000014025800180258001C02580024025821
:101BF0000148806870470000540000240248816852
:101C0000027811448160704754000024032010B50D
:101C100000F0FAF801F0A6F90F4A104914681368A9
:101C2000C4F3032203F00F038A5CC95C02F01F02B5
:101C300001F01F01D0400A4A20FA01F11160094960
:101C400008600F2000F010F808B1012010BD00F06E
:101C50009BF8002010BD000018440258C07D000809
:101C6000640000246000002410B5102804468AB0E7
:101C70002AD200220146192000F0A6F8192000F00F
:101C800095F8154804601548016841F001010160AC
:101C9000006808A900F001000990684601F0EEF81C
:101CA00001F04EF90E49400000220E4CB0FBF1F15C
:101CB0000D4840F2E7330460C0E90332491EC0E931
:101CC000011201F0DDFC10B101200AB010BD064880
:101CD00001F042FDF9E7000058000024F0440258EA
:101CE00040420F00000001406C110024154BF0B57C
:101CF000083B427813491A600B680A1F23F001035E
:101D00000B6043681360057BC67A827A437B2D079C
:101D1000847B45EA0665C77B90F809C0067A90F88F
:101D200000E045EAC24040EA834040EA444040EADD
:101D3000074040EA0C2040EA460040EA0E000860F6
:101D4000F0BD0000A0ED00E0BFF35F8F044800216C
:101D50000368034A23F480330360703211607047D4
:101D600024ED00E0074A40F001000649703210609F
:101D7000086840F480300860BFF34F8FBFF36F8F67
:101D80007047000024ED00E0074882B0016841F090
:101D900002010160006800220F2100F002000090A3
:101DA000901E02B000F010B8F4440258002809DB7D
:101DB000410900F01F028900012001F1E02190405B
:101DC000C1F80001704700000E4BF0B41B680D46CF
:101DD000C3F30223C3F10706042E00D90426191DFC
:101DE000072901D2002300E0DB1E012404FA06F1DA
:101DF0009C40491E2940641E994014402143F0BC78
:101E000003F03EBA0CED00E0064900F0070210B501
:101E10004FF6FF040868044B204040EA02201843B4
:101E2000086010BD0CED00E00000FA050168012318
:101E3000C0F8D834002280F8CC248869044A40F0E5
:101E400000608861486D10434865002070470000BD
:101E500003000010F8B5040004D094F895040025A0
:101E600010B106E00120F8BD204684F8945400F03B
:101E700057F8032084F89504206803F091F9207C3A
:101E80008DF8000094E80F0003F052F80226B0BB72
:101E90002068002103F0C4F988BB002001270CE072
:101EA00000EBC001421C04EB81014F750D76CD6142
:101EB0000D624D620875C885D0B221798142EFD894
:101EC000002011E000EBC001421C04EB810181F80D
:101ED000555281F85852C1F85C52C1F86052C1F8AD
:101EE000645281F85402D0B221798142EAD8207C30
:101EF0008DF8000094E80F0003F09CF810B184F80E
:101F00009564AFE7207B657484F89574012802D14D
:101F10002046FFF78BFF206803F07DF80020F8BD16
:101F200070B5B4B0044614212EA8FEF7BBFBB8214F
:101F30006846FEF7B7FB23492068884240D100215C
:101F40004FF480200D460224CDE900010AA90522A4
:101F5000282381E81C00C6110D940E94C000CDE921
:101F60000F6511952190684600F0BCF908B1FEF7A5
:101F700079FE00F059F81448016841F00101016050
:101F800000682EAA0A2100F0010033904FF480600F
:101F900082E83100CDE931510C482EA9FFF716FD3A
:101FA0000B490868401C0860012809D10648083818
:101FB000016841F000710160006800F0007033902A
:101FC00034B070BD00000440E044025800000258E4
:101FD00050000024134970B50A68D243520705D552
:101FE000096801F00701814213D118E00A6822F064
:101FF000070202430A60FFF7FBFD0A4D4FF47A76B1
:102000000446083D07E000BFFFF7F2FD001BB042A9
:1020100001D9012070BD2868C0438004F4D4002099
:1020200070BD00000C4802580248016841F0807100
:10203000016070470C48025810B500F04DFF05498B
:102040000968054AC1F30211515C01F01F01C84043
:1020500010BD000020440258C07D0008494930B539
:10206000484C0B1D0A68143409681D68246802F086
:102070000303C5F30012C1F30531C4F3CC040029F6
:1020800014FB02F200EE102AF8EE400A75D03F4A27
:102090009FED3D1AB7EE000A6BB1DFED3D1A012B43
:1020A00001D0022B64D002EE101A1168F8EE422A19
:1020B00081EEA22A21E0334C283C23689B0612D5EE
:1020C000344B246801EE901A1168C4F3C104F8EE91
:1020D000612AE34001EE903AC1F30801F8EE611A7B
:1020E00081EEA22A0BE001EE901ADFED2B2A00BF51
:1020F000F8EE611A116882EEA12AC1F3080101EE1F
:10210000901A1168F8EE611A40EE811A71EE800A99
:1021100062EE200AC1F3462101EE101AB8EE411A10
:1021200031EE001AC0EE811ABCEEE11A80ED001A01
:102130001168C1F3064101EE101AB8EE411A31EEF2
:10214000001AC0EE811ABCEEE11A80ED011A116886
:10215000C1F3066101EE101AB8EE411A31EE000A21
:1021600080EE801ABCEEC10A80ED020A30BD04E0A8
:1021700001EE901ADFED092ABAE700210160416003
:102180008160F3E7284402580000003938440258BF
:102190000024744A0090D0030024744C20BCBE4B31
:1021A000494930B5484C0B1D0A681C3409681D6844
:1021B000246802F00303C5F30022C1F30551C4F300
:1021C000CC04002914FB02F200EE102AF8EE400ABB
:1021D00075D03F4A9FED3D1AB7EE000A6BB1DFEDB7
:1021E0003D1A012B01D0022B64D002EE101A1168A7
:1021F000F8EE422A81EEA22A21E0334C283C2368E3
:102200009B0612D5344B246801EE901A1168C4F372
:10221000C104F8EE612AE34001EE903AC1F30801EF
:10222000F8EE611A81EEA22A0BE001EE901ADFEDC2
:102230002B2A00BFF8EE611A116882EEA12AC1F3C1
:10224000080101EE901A1168F8EE611A40EE811A49
:1022500071EE800A62EE200AC1F3462101EE101AE7
:10226000B8EE411A31EE001AC0EE811ABCEEE11A46
:1022700080ED001A1168C1F3064101EE101AB8EEA4
:10228000411A31EE001AC0EE811ABCEEE11A80ED5F
:10229000011A1168C1F3066101EE101AB8EE411A75
:1022A00031EE000A80EE801ABCEEC10A80ED020A0F
:1022B00030BD04E001EE901ADFED092ABAE70021F3
:1022C000016041608160F3E7284402580000003952
:1022D000404402580024744A0090D0030024744CF7
:1022E00020BCBE4B2DE9FE4F0546DFF800A450F898
:1022F000081B0024FD4FC943019005F12800264624
:102300000AF1240A009008011DD4686E50B1B0F59E
:10231000801F0CD0B0F5001F0ED0B0F5401F1ED0AE
:1023200001240FE0386840F40030386017E001986D
:10233000022102F05FF803E00098022102F0EAF8BF
:1023400004000CD026462888C043C00523D4A86DBD
:1023500005281ED2DFE800F00C11161B1B006A6E68
:10236000DAF8001021F440111143CAF80010EAE72E
:10237000386840F40030386009E00198002102F02C
:1023800039F803E00098002102F0C4F80446C4B113
:1023900000E0012426462888DFF85083C04308F176
:1023A0002C0840052FD4D5F8A400B0F5C00F28D0D4
:1023B00010DCB8B1B0F5001F19D0B0F5800F0FD107
:1023C0001AE0AA6DDAF8001021F007011143CAF8EB
:1023D0000010E0E7B0F5000F13D0B0F5200F10D0DB
:1023E00001240FE0386840F40030386009E00198BB
:1023F000002101F0FFFF03E00098002102F08AF8BD
:10240000044694B126462888C043000530D4D5F848
:10241000A800B0F1407F29D011DCC0B1B0F1807FBD
:102420001AD0B0F1007F10D11BE0D5F8A420D8F865
:10243000001021F460011143C8F80010E3E7B0F187
:10244000806F13D0B0F1A06F10D001240FE0386876
:1024500040F40030386009E00198002101F0CAFF23
:1024600003E00098002102F055F8044694B1264696
:102470002868DFF878B2C0430BF1200B80011FD42D
:10248000E86CD8B110280FD0202812D0302815D0F1
:10249000012414E0D5F8A820D8F8001021F0E0615C
:1024A0001143C8F80010E3E7386840F400303860A2
:1024B00004E00198022101F09DFF044674B1264614
:1024C0002888C043C0042BD4E86DB0F5005F20D04D
:1024D0000DDCA0B1B0F5805F0FD115E0EA6CDBF840
:1024E000001021F030011143CBF80010E8E7B0F5FF
:1024F000405F13D0B0F5804F10D001240FE0386852
:1025000040F40030386009E00198002101F072FFCA
:1025100003E00098002101F0FDFF04468CB126463F
:102520002888C043800429D4286EB0F5403F23D0CA
:1025300010DC08B3B0F5803F14D0B0F5003F0FD1E8
:1025400015E0EA6DDAF8001021F4E0411143CAF811
:102550000010E5E7B0F5802F0ED0B0F5A02F0BD01E
:1025600001240AE00198012101F044FF03E00098F2
:10257000012101F0CFFF044694B126462888C043CC
:1025800040042AD4D5F8AC00B0F1405F23D010DC71
:1025900008B3B0F1805F14D0B0F1005F0FD115E047
:1025A0002A6EDAF8001021F4E0211143CAF8001075
:1025B000E4E7B0F1804F0ED0B0F1A04F0BD0012472
:1025C0000AE00198012101F015FF03E000980121C4
:1025D00001F0A0FF044674B126462888C0430004D9
:1025E0001FD4E86ED8B1B0F1805F0ED0B0F1005FBB
:1025F00010D0012414E0D5F8AC20D8F8001021F058
:10260000E0411143C8F80010E7E7386840F40030B3
:10261000386004E00198012101F0ECFE044674B139
:1026200026462868C043C0011ED4A86CD0B101283A
:102630000ED0022811D0032814D0012413E0EA6E32
:10264000DAF8001021F040511143CAF80010E8E711
:10265000386840F40030386004E00198022101F04D
:10266000C9FE04466CB126462868C043400255D4D2
:102670001F48016841F480710160FFF7B9FA814693
:102680000EE0AA6CDBF8001021F003011143CBF837
:102690000010E9E7FFF7ACFAA0EB090064283BD88B
:1026A00013480068C005F5D5BCBBDFF84090B5F80D
:1026B000B01009F14409D9F8000001F4407100F4A8
:1026C0004070884211D0D9F80010D9F8002021F4C8
:1026D000407142F48032C9F80020D9F8002022F479
:1026E0008032C9F80020C9F8001003E02C440258D9
:1026F00000480258D5F8B000B0F5807F19D1FFF737
:1027000077FA029011E000BFFFF772FA0299411ABE
:1027100041F28830814208D9032426462878DFF820
:102720001494C043C00721D03CE0D9F800008007D2
:10273000EAD5D5F8B010C1F301200328FE480DD02A
:10274000016821F47C510160B5F8B020D9F800107F
:10275000C2F30B021143C9F80010DFE7F74A036820
:1027600002EA111223F47C511143ECE7A86F1828F8
:1027700016D005DCA0B1082808D0102804D10AE042
:1027800020280DD028280BD001240AE0019801212F
:1027900001F030FE03E00098012101F0BBFE044689
:1027A00064B126462878C04380071ED4686F062887
:1027B00019D2DFE800F0160C11161616AA6FD9F818
:1027C000001021F038011143C9F80010EAE7019820
:1027D000012101F00FFE03E00098012101F09AFEB3
:1027E00004467CB100E0012426462878C043400717
:1027F0001FD4D5F89000062819D2DFE800F0160C97
:10280000111616166A6FD9F8001021F0070111434E
:10281000C9F80010E9E70198012101F0EBFD03E0A0
:102820000098012101F076FE0446A4B100E00124E5
:1028300026462878C04380062BD4D5F88C00B0F10A
:10284000405F24D011DC10B3B0F1805F15D0B0F13F
:10285000005F10D116E0D5F89020D8F8001021F0D4
:1028600007011143C8F80010E3E7B0F1804F0ED024
:10287000B0F1A04F0BD001240AE00198002101F033
:10288000B9FD03E00098022101F044FE044694B132
:1028900026462878C04340062BD4D5F89800B0F5DA
:1028A000406F24D011DC10B3B0F5806F15D0B0F5B7
:1028B000006F10D116E0D5F88C20D9F8001021F067
:1028C000E0411143C9F80010E3E7B0F5805F0ED096
:1028D000B0F5A05F0BD001240AE00198002101F0BF
:1028E00089FD03E00098022101F014FE044694B132
:1028F00026462878C04300062BD4D5F89C00B0F5B6
:10290000C04F24D011DC10B3B0F5005F15D0B0F586
:10291000804F10D116E0D5F89820D8F8001021F497
:10292000E0511143C8F80010E3E7B0F5004F0ED0B6
:10293000B0F5204F0BD001240AE00198002101F0EE
:1029400059FD03E00098022101F0E4FD044654B172
:1029500026462878C04300071ED4D5F88000B0F57D
:10296000805F0AD00FE0D5F89C20D8F8001021F441
:1029700060411143C8F80010EBE70098022101F014
:10298000C9FD00B10126D5F88020D9F8001021F446
:1029900040511143C9F800102878C043C00613D431
:1029A000D5F89400B0F5807F05D10098022101F0A0
:1029B000B1FD00B10126D5F89420D8F8001021F41B
:1029C00040711143C8F800102868C043000316D4B2
:1029D000D5F8A00038B1B0F5803F09D0B0F5003F80
:1029E0000BD001240AE00198002101F003FD03E06F
:1029F0000098022101F08EFD04468CB1264628681D
:102A0000C043400322D4D5F88400B0F5801F11D014
:102A1000B0F5001F13D0B0F5401F15D0012414E00D
:102A2000D5F8A020D8F8001021F440311143C8F89F
:102A30000010E4E7386840F40030386004E00098A3
:102A4000012101F067FD04465CB126462868C043B9
:102A5000C0031CD4286D70B1B0F5803F10D00124A4
:102A600014E0D5F88420D9F8001021F44011114366
:102A7000C9F80010EAE7386840F40030386004E034
:102A80000198022101F0B6FC0446DCB12646286814
:102A9000C043800005D40098022101F03BFD00B145
:102AA00001262868C04380031BD4E86FB8B1B0F595
:102AB000807F10D0B0F5007F11D0B0F5407F0ED0F0
:102AC00001240DE02A6DDBF8001021F48031114360
:102AD000CBF80010DBE7386840F4003038607CB396
:102AE00026462868C043C00207D42A6FDAF80010CF
:102AF00021F000411143CAF800102868C043800249
:102B000007D4AA6EDAF8001021F080711143CAF8D8
:102B100000102868C043400009D40748016821F428
:102B2000004101600168D5F8B420114301602868B4
:102B3000C04306E05444025810440258CFFFFF003F
:102B40001DE007D46A6DDBF8001021F040511143FD
:102B5000CBF800102868C043000208D4D5F88820BC
:102B6000D9F8001021F440011143C9F80010287968
:102B70000024C04300F00100204309D00EE0EA6FBA
:102B8000D9F8001021F440711143C9F80010A8E7EA
:102B90000198002101F02EFC00B106462879C043BF
:102BA00000F00200204305D10198012101F022FC30
:102BB00000B106462879C04300F00400204305D147
:102BC0000198022101F016FC00B106462879C043A5
:102BD00000F00800204305D10098002101F09AFC84
:102BE00000B106462879C04300F01000204305D10B
:102BF0000098012101F08EFC00B106462879C043FF
:102C000000F02000044304D10098022101F082FC6E
:102C100000B916B10120BDE8FE8F0020FBE70000DF
:102C20002DE9F05F04000F467ED0DFF83882D8F837
:102C3000000000F00F00B8420CD2D8F8001021F0CC
:102C40000F013943C8F80010D8F8000000F00F0059
:102C5000B84269D12078844D40070AD52069296897
:102C600001F07001884204D9296821F07001014304
:102C7000296020787C4E361D00070AD560693168CE
:102C800001F07001884204D9316821F070010143DC
:102C900031602078C0060AD5A069316801F4E0618E
:102CA000884204D9316821F4E06101433160207821
:102CB000DFF8B4B180060BF1080B0CD5E16958467A
:102CC000DBF8002002F07002914204D9026822F081
:102CD00070020A430260207880070AD5E0682968FC
:102CE00001F00F01884204D9296821F00F01014346
:102CF00029602078C0073ED05B49A268286818394F
:102D000020F47060104328606068022818D00328FF
:102D100019D00968012819D0490700294ADADFF8D3
:102D200048A1AAF1080A00E044E0DAF8002022F005
:102D300007020243CAF80020FEF75AFF814612E05C
:102D400009688903E9E709688901E6E7C905E4E755
:102D5000FEF74EFFA0EB090141F28830814202D913
:102D60000320BDE8F09F6168DAF8000000F0380049
:102D7000B0EBC10FECD1207880070AD5E068296854
:102D800001F00F01884204D2296821F00F010143AC
:102D90002960D8F80010404601F00F01B9420BD964
:102DA000016821F00F0139430160006800F00F0055
:102DB000B84201D00120D4E7207840070AD5206925
:102DC000296801F07001884204D2296821F070015D
:102DD00001432960207800070AD56069316801F055
:102DE0007001884204D2316821F0700101433160E2
:102DF0002078C0060AD5A069316801F4E0618842F4
:102E000004D2316821F4E06101433160207880060A
:102E10000CD5E1695846DBF8002002F070029142BF
:102E200004D2026822F070020A43026000F09AF8AD
:102E30000E492A682B68C2F3032203F00F038A5C51
:102E4000C95C02F01F0201F01F01D040084A20FABD
:102E500001F111600749086007480068BDE8F05FAC
:102E6000FEF702BF0020005218440258C07D00083F
:102E700064000024600000245800002470B5144C45
:102E80003F220260124A24680832131D114D04F0DB
:102E90000704446016681C1D06F470668660166898
:102EA00006F00F06C660126802F0700202611A682E
:102EB00002F0700242611A6802F4E06282612268E4
:102EC00002F07002C261286800F00F00086070BD57
:102ED000104402580020005230B500F043F80B4A6D
:102EE0000B490C4B15681468C5F3032204F00F045A
:102EF0008A5C095D02F01F0201F01F01D040064A02
:102F000020FA01F119601060084630BD18440258DB
:102F1000C07D0008640000246000002400B5FFF7B5
:102F2000DBFF05490968054AC1F30211515C01F054
:102F30001F01C84000BD00001C440258C07D0008AD
:102F400000B5FFF7C9FF05490968054AC1F3022129
:102F5000515C01F01F01C84000BD00001C44025834
:102F6000C07D0008454970B545480968434B103B92
:102F700011F0380208D00111082A03D0102A0BD012
:102F8000182A0BD0084670BD19688906FBD5196848
:102F9000C1F3C101C84070BD3A4870BD3749374DD3
:102FA00018310C1D24350A68096826682D6802F05E
:102FB000030406F00102C1F30511C5F3CC0515FBAE
:102FC00002F200EE102AB8EE400AE9B32F4ADFED14
:102FD0002E0AB7EE001A6CB1DFED2D1A012C01D0CC
:102FE000022C43D002EE101A1068F8EE422A81EE4D
:102FF000A22A1EE01C68A40611D51B6801EE901AD7
:103000001168C3F3C103F8EE612AD84001EE900ABB
:10301000C1F30800F8EE611A81EEA22A0BE001EE7E
:10302000901ADFED1C2A00BFF8EE611A106882EEDC
:10303000A12AC0F3080001EE900AF8EE611A40EEF2
:10304000201A31EE810A00E015E022EE000A106835
:10305000C0F34620401C00EE900AF8EE600A80EEB5
:10306000201ABCEEC10A10EE100A70BD01EE901AD3
:10307000DFED092AD8E7002070BD00001044025897
:103080000090D00340787D010000003930440258A0
:103090000024744A0024744C20BCBE4B2DE9F05F20
:1030A00004007DD0FF4F2078FE4D1837DFF8F48301
:1030B000103DC00748D0D8F80000396800F038004B
:1030C000102815D0182803D101F0030002280FD0D2
:1030D0006068B0F5803F12D010B1B0F5A02F18D0C5
:1030E000286820F480302860286820F4802009E0D7
:1030F0002868800328D560680028D2D024E028689A
:1031000040F480302860606888B1FEF771FD0646A3
:1031100009E0286840F480202860F0E7FEF768FDA9
:10312000801B64287ED828688003F7D50CE0FEF762
:103130005FFD064605E000BFFEF75AFD801B6428D0
:10314000F0D828688003F7D42078800756D5D8F8BF
:103150000000DFF85093396810F03800A9F10C092D
:103160000ED0182801D188070AD0E068A8B32968D2
:1031700021F0190101432960FEF73AFD064628E0D7
:103180002868400702D5E06800288AD0E1682868EE
:1031900020F0190008432860FEF72AFD064606E0E5
:1031A000D2E000BFFEF724FD801B0228BAD82868B1
:1031B0004007F7D5217CD9F8002022F0FE4242EAF0
:1031C0000161C9F8001019E0FEF712FD801B02280A
:1031D000A8D828684007F7D5ECE7FFE7286820F073
:1031E00001002860FEF704FD064604E0FEF700FD3E
:1031F000801B022896D828684007F7D42078C0069C
:1032000046D5D8F80000DFF89C92396800F0380005
:10321000A9F10409082812D0182805D101F00300EB
:10322000012800E0CEE00AD0E0690028286820D01C
:1032300040F080002860FEF7DBFC064615E02868B9
:10324000C00502D5E06980287ED194F82010D9F815
:10325000002022F07C5242EA0161C9F8001017E018
:10326000FEF7C6FC801B0228A0D82868C005F7D549
:10327000EBE720F080002860FEF7BAFC064604E089
:10328000FEF7B6FC801B022890D82868C005F7D44A
:103290002078000729D58348616964300029814678
:1032A000016811D041F001010160FEF7A1FC064662
:1032B00005E000BFFEF79CFC801B022888D8D9F8E7
:1032C00000008007F6D510E021F001010160FEF753
:1032D0008FFC064605E000BFFEF78AFC801B022833
:1032E00070D8D9F800008007F6D42078800623D55E
:1032F000A0690028286810D040F480502860FEF7AC
:1033000077FC064605E000BFFEF772FC801B022832
:1033100058D828688004F7D50EE020F48050286043
:10332000FEF766FC064604E0FEF762FC801B0228FE
:1033300048D828688004F7D42078400751D5DFF8B2
:103340006891D9F8001000E015E141F48071C9F8E6
:103350000010FEF74DFC064605E000BFFEF748FCF6
:10336000801B64282ED8D9F80000C005F6D54D4E34
:10337000A068603601280AD008B1052813D030684B
:1033800020F001003060306820F0040002E0306876
:1033900040F001003060A06841F2883A98B1FEF731
:1033A00027FC81460AE0306840F004003060EEE718
:1033B000FEF71EFCA0EB0901514503D830688007D9
:1033C000F6D50EE072E0FEF713FC814606E000BF82
:1033D000FEF70EFCA0EB0901514567D83068800765
:1033E000F6D4606A00287CD0DFF8B8A0D8F80010C6
:1033F0000AF1200A4FF6F87B0AF10408C1F3C20172
:103400000329AAF104096DD00228286820F08070F1
:10341000286003D0FEF7ECFB044681E0FEF7E8FBF2
:10342000064604E0FEF7E4FB801B022875D82868F6
:103430008001F7D4E26A40F2F331386854F8283F4B
:10344000884340EA021018433860217B4FF4FE0C99
:1034500022894FF0FE47208A4902267D521E401ED7
:10346000A1F5007189B2C2F308021143761E0CEA7D
:1034700000400143484607EA06621143CAF80010BB
:10348000D9F8001021F00101C9F80010D8F8003077
:10349000266A23EA0B0343EAC601C8F80010D9F8EC
:1034A000001004E0104402580048025835E0A269B8
:1034B00021F00C011143C9F800100168E26921F004
:1034C000020111430160016841F48031016001682B
:1034D00041F400310160016841F48021016001681C
:1034E00001E06CE020E041F001010160286840F05B
:1034F00080702860FEF77CFB044604E0FEF778FB52
:10350000001B022809D828688001F7D557E000BFC2
:10351000FEF76EFB001B022802D90320BDE8F09FD6
:1035200028688001F4D44AE039680128DAF80000FC
:1035300021D0A26A01F0030393421CD1E26AC1F3D5
:1035400005118A4217D1216BC0F30802491E8A4235
:1035500011D1616BC0F34622491E91420BD1A16B80
:10356000C0F30642491E914205D1E16BC0F30660EB
:10357000491E814201D00120D0E7A16C4646D8F80F
:103580000000C0F3CC00814219D0D9F800004D46AC
:1035900020F00100C9F80000FEF72AFB4FEA0007FF
:1035A000FEF726FBB842FBD0A26C306820EA0B0085
:1035B00040EAC2003060286840F001002860002026
:1035C000ACE7704770477047F0B590F83C20012A8F
:1035D00041D0224E012480F83C40022280F83D2058
:1035E00002681F4D5368B242D2F808C001D0AA4207
:1035F00003D14F6823F470033B430F6823F070033B
:103600001F4357600268B24219D0B2F1804F16D002
:10361000144B9A4213D0144B9A4210D0134B9A4237
:103620000DD0AA420BD0124B9A4208D0114B9A42AD
:1036300005D0114B9A4202D0104B9A4204D18968AE
:103640002CF0800319439160002180F83D4080F800
:103650003C100846F0BD0220F0BD00000000014013
:10366000000401400004004000080040000C00403D
:10367000001800400040014000E0004000E400402D
:1036800010B5040003D094F83D0010B107E001200C
:1036900010BD002084F83C00204600F023F80220F2
:1036A00084F83D002068211D01F094F8012084F881
:1036B000480084F83E0084F83F0084F8400084F815
:1036C000410084F8420084F8430084F8440084F800
:1036D000450084F8460084F8470084F83D00002047
:1036E00010BD000008B5174A01681748914207D17C
:1036F000016841F010010160006800F0100009E06D
:10370000124A914208D1016841F02001016000682D
:1037100000F02000009008BD0D4A914207D10168D9
:1037200041F080010160006800F08000F2E7094A82
:103730009142F0D1016841F480710160006800F4A9
:103740008070E7E700100040E84402580014004091
:10375000001C00400020004090F83D10012901D0DD
:10376000012070471A4A022180F83D100168CB6899
:1037700043F00103CB60006890421AD0B0F1804F53
:1037800017D01449884214D01349884211D01349E4
:1037900088420ED0124988420BD01249884208D084
:1037A0001149884205D01149884202D01049884207
:1037B00007D181680F4A1140062906D0B1F5803F34
:1037C00003D0016841F00101016000207047000052
:1037D000000001400004004000080040000C0040D0
:1037E00000040140001800400040014000E000409B
:1037F00000E400400700010070472DE9F041044655
:1038000000680027C6680569A90713D5B10711D557
:10381000FA1E026101212177206880698007204615
:1038200002D0FFF7E9FF04E000F08BF8204600F03B
:1038300089F82777680716D5700714D52268022003
:103840006FF00401116120772068806910F4407FD7
:10385000204602D0FFF7D0FF04E000F072F82046C7
:1038600000F070F82777280715D5300713D52268A0
:1038700004206FF00801116120772068C06980077B
:10388000204602D0FFF7B8FF04E000F05AF82046C7
:1038900000F058F82777E80616D5F00614D5226808
:1038A00008206FF01001116120772068C06910F4C2
:1038B000407F204602D0FFF79FFF04E000F041F870
:1038C000204600F03FF82777E80708D0F00706D039
:1038D00021686FF001000861204600F035F82806E5
:1038E00001D4A80408D5300606D521686FF402502B
:1038F00008612046FFF766FEE80508D5300606D5C4
:1039000021686FF4807008612046FFF75AFE680650
:1039100008D5700606D521686FF040000861204682
:1039200000F01CF8A8060AD5B00608D521686FF08B
:10393000200008612046BDE8F041FFF744BEBDE825
:10394000F08170477047000000680349884201D148
:10395000FEF754B97047000000000140704730B5D1
:1039600090F88410012918D0012280F884202421A5
:10397000C0F888100022202401680B680D6823F02D
:10398000005325F001050D60426601680B60C0F828
:10399000884080F88420104630BD022030BD70B5CC
:1039A000044690F8840001281DD0012284F8842068
:1039B0002420C4F8880020680568026822F001020B
:1039C00002602068826822F060620A4382602046BA
:1039D00000F070FF2268202100201560C4F88810D4
:1039E00084F8840070BD022070BD70B5044690F864
:1039F000840001281DD0012284F884202420C4F8EA
:103A0000880020680568026822F0010202602068D0
:103A1000826822F060420A438260204600F04AFF3A
:103A20002268202100201560C4F8881084F88400E2
:103A300070BD022070BD10B5040003D0D4F888001A
:103A400010B107E0012010BD002084F8840020465A
:103A500000F026F82420C4F888002068016821F0CE
:103A600001010160A06A10B1204600F045FF204628
:103A700001F026F80128E6D02068416821F4904141
:103A800041602068816821F02A0181602068016816
:103A900041F0010101602046BDE8104000F090BFF8
:103AA0002DE9F04FB5B0804614212EA8FCF7FAFDA1
:103AB000B8216846FCF7F6FDAA4C0226AA49082759
:103AC000D8F80000083CA74D4FF0030A88424FF099
:103AD000000823D10020CDF874800222CDE9002017
:103AE0006846FEF7FFFB08B1FDF7BCF8286840F414
:103AF00000202860286800F400203390206840F0FF
:103B00000100206020682EA9CDF8B8A000F00100C7
:103B10003390CDE92F68CDE93187EBE093494FF041
:103B2000040988423DD10020CDF874800222CDE9FD
:103B300000206846FEF7D6FB08B1FDF793F8286829
:103B400040F480102860286800F4801033902068CA
:103B500040F004002060206800F0040033902068EA
:103B600040F008002060206830AA444600F00800B9
:103B700033904FF48050CDE92E0682E8D0007C4887
:103B80002EA9FDF723FFCDF8B8902EA97948CDE9ED
:103B90002F64CDE9314700BFFDF718FF35B0BDE810
:103BA000F08F75494FF0070B884225D10020CDF8E2
:103BB00074800221CDE900106846FEF793FB08B13E
:103BC000FDF750F8286840F080402860286800F031
:103BD00080403390206840F01000206020682EAABA
:103BE0004FF4C07100F0100082E84201CDE932B01C
:103BF0002EA9CDF8C48025E06049884224D1002058
:103C0000CDF874800222CDE900206846FEF76AFBF9
:103C100008B1FDF727F8286840F0004028602868C0
:103C200000F000403390206840F0100020602068D1
:103C30002EA9CDF8B8A000F010003390CDE92F6880
:103C4000CDE931874E48A7E74E49DFF83CA18842CD
:103C500029D10020CDF878800121CDE900106846F7
:103C6000FEF740FB08B1FCF7FDFFDAF8001041F069
:103C70001001CAF80010DAF8000000F010003390CC
:103C8000206840F00200206020682EAA4FF44041D6
:103C900000F0020082E84201CDE932903B482EA9B3
:103CA000CDF8C48078E73A49884225D10020CDF884
:103CB00074800221CDE900106846FEF713FB08B1BD
:103CC000FCF7D0FF286840F400302860286800F432
:103CD00000303390206840F00100206020682EAA58
:103CE0000C2100F0010082E84201CDE932B02EA99A
:103CF000CDF8C48027484FE7274988427FF44EAF6C
:103D00000020CDF878800121CDE900106846FEF74B
:103D1000E9FA08B1FCF7A6FFDAF8001041F08001DB
:103D2000CAF80010DAF8000000F080003390206834
:103D300040F01000206020682EA9114C00F0100007
:103D40003390484681E84101CDE931892046FDF7AD
:103D50003DFE0B202E97CDE92F682EA9CDE93180AD
:103D6000204619E7E8440258004C0040005000404B
:103D700000080258000C025800780040007C004007
:103D80000010025800100140F0440258000402588C
:103D90000044004000000258001C0140FEE710B53E
:103DA0004FF00004EFF3058048B903F023FC01282D
:103DB00006D0EFF3108010B9EFF3118000B10124A9
:103DC000204610BD194800212DE9F041164F01256C
:103DD0008160022307600524C1600D26057404225A
:103DE00041748174C661C0E90543C0E90834C0E983
:103DF0000A3603631023C0E90D15C0E91121C0E99B
:103E000013212024C0E91521C0E91713C0E91912B4
:103E1000C0E90F54FDF756FB002803D0BDE8F04180
:103E2000FCF720BFBDE8F08100A000404C01002459
:103E30001A4800212DE9F041174D0123816000F15E
:103E4000140805600524C160022603740D2741741F
:103E50000422817488E8D000C0E908642024C0E905
:103E60000A6795010663C0E90D53C0E90F341023BA
:103E7000C0E91121C0E91321C0E91521C0E91713D8
:103E8000C0E91912FDF71EFB002803D0BDE8F04180
:103E9000FCF7E8BEBDE8F08100A40040EC0100247E
:103EA0001A4800212DE9F041174D0123816000F1EE
:103EB000140805600524C160022603740D274174AF
:103EC0000422817488E8D000C0E908642024C0E995
:103ED0000A67D5010663C0E90D53C0E90F3410230A
:103EE000C0E91121C0E91321C0E91521C0E9171368
:103EF000C0E91912FDF7E6FA002803D0BDE8F04149
:103F0000FCF7B0BEBDE8F08100D400408C02002474
:103F100010B5FCF7F5FC10B90120FCF79BFD044A35
:103F20000021044801F0DCFB0349086010BD0000DB
:103F3000907B00083546000800000024194808B5A9
:103F4000016841F010010160016801F01001009169
:103F5000016841F080010160016801F08001009179
:103F6000016841F001010160016801F00101009167
:103F7000016841F002010160016801F00201009155
:103F8000016841F008010160016801F00801009139
:103F9000016841F004010160006800F00400009035
:103FA00008BD0000E04402580B4800214FF6FF72A4
:103FB000084B10B5C0E90031C0E90212016181610E
:103FC000FFF75EFB002803D0BDE81040FCF74ABEB7
:103FD00010BD0000001C0040C40300240B48002159
:103FE0004FF6FF72084B10B5C0E90031C0E902126C
:103FF00001618161FFF744FB002803D0BDE8104058
:10400000FCF730BE10BD000000200040100400246A
:104010003EB50F4800244FF6FF710C4A00940194FE
:104020000294C0E90024C0E902418461FFF728FB43
:1040300008B1FCF717FE0648694600940294FFF7A2
:10404000C3FA002801D0FCF70DFE3EBD0010004071
:104050002C0300243EB50F4800244FF6FF710C4A94
:10406000009401940294C0E90024C0E902418461F3
:10407000FFF706FB08B1FCF7F5FD0648694600941A
:104080000294FFF7A1FA002801D0FCF7EBFD3EBD3A
:1040900000140040780300241848002110B5164C85
:1040A0000C224FF4E1330460C0E90131C160C0E982
:1040B00004128161C161016241628162FFF7BBFC50
:1040C00008B1FCF7CFFD0D480021FFF78EFC08B1C9
:1040D000FCF7C8FD09480021FFF761FC08B1FCF7B7
:1040E000C1FD0648FFF73BFC002803D0BDE81040A7
:1040F000FCF7B8BD10BD0000004C00405C0400247B
:104100001848002110B5164C0C224FF4E13304601E
:10411000C0E90131C160C0E904128161C16101627D
:1041200041628162FFF787FC08B1FCF79BFD0D48F7
:104130000021FFF75AFC08B1FCF794FD0948002163
:10414000FFF72DFC08B1FCF78DFD0648FFF707FCD3
:10415000002803D0BDE81040FCF784BD10BD00006E
:1041600000500040F00400241848002110B5164CFF
:104170000C224FF4E1330460C0E90131C160C0E9B1
:1041800004128161C161016241628162FFF753FCE7
:1041900008B1FCF767FD0D480021FFF726FC08B1C8
:1041A000FCF760FD09480021FFF7F9FB08B1FCF7B7
:1041B00059FD0648FFF7D3FB002803D0BDE81040A7
:1041C000FCF750BD10BD00000078004084050024BD
:1041D0001848002110B5164C0C224FF4E13304604E
:1041E000C0E90131C160C0E904128161C1610162AD
:1041F00041628162FFF71FFC08B1FCF733FD0D48F7
:104200000021FFF7F2FB08B1FCF72CFD0948002163
:10421000FFF7C5FB08B1FCF725FD0648FFF79FFB3C
:10422000002803D0BDE81040FCF71CBD10BD000005
:10423000007C0040180600241848002110B5164CD8
:104240000C224FF4E1330460C0E90131C160C0E9E0
:1042500004128161C161016241628162FFF7EBFB7F
:1042600008B1FCF7FFFC0D480021FFF7BEFB08B1C9
:10427000FCF7F8FC09480021FFF791FB08B1FCF7B7
:10428000F1FC0648FFF76BFB002803D0BDE81040A7
:10429000FCF7E8BC10BD0000001C0140D40700245E
:1042A0001848002110B5164C0C224FF4E13304607D
:1042B000C0E90131C160C0E904128161C1610162DC
:1042C00041628162FFF7B7FB08B1FCF7CBFC0D48F8
:1042D0000021FFF78AFB08B1FCF7C4FC0948002164
:1042E000FFF75DFB08B1FCF7BDFC0648FFF737FBA5
:1042F000002803D0BDE81040FCF7B4BC10BD00009E
:1043000000100140AC0600241848002110B5164CDE
:104310000C224FF4E1330460C0E90131C160C0E90F
:1043200004128161C161016241628162FFF783FB16
:1043300008B1FCF797FC0D480021FFF756FB08B1C8
:10434000FCF790FC09480021FFF729FB08B1FCF7B6
:1043500089FC0648FFF703FB002803D0BDE81040A6
:10436000FCF780BC10BD0000004400404007002462
:104370000D48092310B50B4C022200210460037183
:10438000C271817142728172C17201738173C17392
:104390000174FDF75FFD002803D0BDE81040FCF775
:1043A00061BC10BD0000044068080024FEE7FEE781
:1043B00070B5AEB0B8216846FCF774F90024052149
:1043C00050254FF40043CDE90034022006908026AA
:1043D000CDE90215CDE90401CDE90764030768467C
:1043E00009941B93FDF77EFF002801D072B6FEE70B
:1043F0002EB070BD2DE9F047454D044689464FF07B
:10440000000A2868C04380070AD0414E283E306821
:1044100020F080603060FDF7EBFB0746B04608E017
:104420000120BDE8F08700BFFDF7E2FBC01B0228BA
:1044300067D8D8F800000001F6D4206829684FF446
:10444000FE0721F47C313E0241EA00302860207AE8
:10445000A389B4F804C040022D4D2D495B1E227C77
:10446000ACF1010C1035091DA0F5007080B2521E90
:10447000CCF3080C07EA034340EA0C00184306EAB1
:104480000262104328600868626920F0C00010438F
:1044900008600A68A06922F0200202430A60281D11
:1044A0000A6822F010020A6002684FF6F873E469A5
:1044B0009A4342EAC40202600868B9F1000F40F072
:1044C00010020A6011D00868B9F1010F11D040F450
:1044D00000100860D8F80000444640F08060C8F83A
:1044E0000000FDF785FB05460DE0086840F400205C
:1044F000EFE740F48010ECE7FDF77AFB401B022861
:1045000001D903208DE720680001F5D5504688E7E2
:10451000284402582DE9F047454D044689464FF09E
:10452000000A2868C04380070AD0414E283E306800
:1045300020F080503060FDF75BFB0746B04608E096
:104540000120BDE8F08700BFFDF752FBC01B022829
:1045500067D8D8F800008000F6D4208829684FF486
:10456000FE0721F07C713E0241EA00502860207A6B
:10457000A389B4F804C040022D4D2D495B1E227C56
:10458000ACF1010C1835091DA0F5007080B2521E67
:10459000CCF3080C07EA034340EA0C00184306EA90
:1045A0000262104328600868626920F4406010438A
:1045B00008600A68A06922F4007202430A60281D9C
:1045C0000A6822F480720A6002684FF6F873E469A0
:1045D0009A4342EAC40202600868B9F1000F40F44D
:1045E00080720A6011D00868B9F1010F11D040F053
:1045F00080700860D8F80000444640F08050C8F849
:104600000000FDF7F5FA05460DE0086840F480006B
:10461000EFE740F40000ECE7FDF7EAFA401B022860
:1046200001D903208DE720688000F5D5504688E742
:1046300028440258FCF72AF901F04EF84FF0E02028
:1046400010B5006902F0D6FF012803D0BDE8104084
:1046500002F024BB10BD000070B59CB04C21684630
:10466000FCF720F8202113A8FCF71CF80220FDF726
:10467000B1FC1E48016821F440410160016800243A
:1046800001F440411B9101688904FCD502200A9085
:104690002C230990C20301210D910425CDE90012BC
:1046A000CDE90B030C261294CDE90E50CDE9106430
:1046B0006846FEF7F3FC08B172B6FEE740201A9098
:1046C00008230501CDE9163013ABCDE918053F21CC
:1046D000032283E8160013A81146FEF7A1FA00286A
:1046E00001D072B6FEE71CB070BD00001848025839
:1046F0002D48F0B52D4A016841F470010160106841
:1047000000F00F00072804D2106820F00F00C01D31
:10471000106027490020264C10340B68254D43F0CB
:1047200001030B6020600B682B400B60136803F0E3
:104730000F03072B04D9136823F00F03DB1D13604D
:104740001B4C1D4A18341D4B261D371D2060184C6C
:104750001B4D28343060261D3860371D23603B1DFB
:1047600035601C1D3A60251D2E1D1860331D22600A
:104770002860326018600B680D4A0D4C23F48023CA
:10478000D4320B60603420601068C0040BD413680E
:1047900043F2D2000B4943F4805313600860106861
:1047A00020F480501060F0BD88ED00E00020005241
:1047B000004402587FEDF6EA800201010002020285
:1047C0000000FF01004000520148FFF716B800004A
:1047D0006C1100242DE9F0472C4B4FF0804A2C4DF2
:1047E000026898422B4E2C4F2C4C09D0504507D0D4
:1047F000A84205D0B04203D0B84201D0A04205D1B2
:10480000D1F804C022F070024CEA0202DFF890C036
:10481000DFF890809842DFF8909015D0504513D083
:10482000A84211D0B0420FD0B8420DD0A0420BD058
:10483000604509D0404507D0484505D01B4DA842EA
:1048400002D01B4DA84203D1CD6822F440722A4306
:104850008E684D6922F08002C6620E682A43984233
:10486000866207D0A04205D0604503D0404501D004
:10487000484501D1096901630368012143F004033C
:10488000036041610260BDE8F08700000000014064
:104890000004004000080040000C004000040140FB
:1048A00000400140004401400048014000E0004059
:1048B00000E4004030B5416EB9B101680D4B03F121
:1048C00008048A688968C2F34262490F5D5C615CD2
:1048D0002D01B5FBF1F1A0F86A10995CA25C090109
:1048E000B1FBF2F1A0F8681030BD0121A0F86A1008
:1048F000F8E70000B07D000890F82810090706D5F9
:104900000168836B4A6822F400421A434A6090F8B7
:104910002810C90706D00168C36A4A6822F4003229
:104920001A434A6090F82810890706D50168036B7E
:104930004A6822F480321A434A6090F828104907E6
:1049400006D50168436B4A6822F480221A434A6004
:1049500090F82810C90606D50168C36B8A6822F44E
:1049600080521A438A6090F82810890606D501689B
:10497000036C8A6822F400521A438A6090F8281067
:10498000490611D50168436C4A6822F480121A4323
:104990004A60416CB1F5801F06D10168836C4A689A
:1049A00022F4C0021A434A6090F82810090606D57E
:1049B0000168C26C486820F40020104348607047CA
:1049C0002DE9F84300250446C0F89050FDF710F992
:1049D0008046206820266FF07E470068000713D5C8
:1049E0000022434631042046009700F057FA58B1A0
:1049F000216851E8000F20F0800041E80002002A01
:104A0000F6D1C4F8886021E020680068400722D50C
:104A1000002243464FF480012046009700F03EFA02
:104A2000C8B1206850E8001F21F4907140E80012DE
:104A3000002AF6D12068083050E8001F21F001015B
:104A400040E80012002AF5D1C4F88C60032084F8F5
:104A50008450BDE8F883C4F88860C4F88C60E566CB
:104A60002567002084F88450F3E7000010B5026841
:104A700052E8001F21F4907142E80013002BF6D198
:104A80000E4B0268083252E8001F194042E8001439
:104A9000002CF6D1C16E012908D1026852E8001F2E
:104AA00021F0100142E80013002BF6D10021202252
:104AB000C0F88C20C166416710BD0000FEFFFFEF0B
:104AC0002DE9F04304468068E24E87B0E24B21684E
:104AD000D4E90427D4F81CC010430A68002547EA2B
:104AE0000C073843324002430A602068E26841689C
:104AF00021F44051114341602268A1699A4201D0DA
:104B0000206A01439668DFF854C3D54FD54806EABA
:104B10000C060E4396602168666ACA6A22F00F028C
:104B20003243CA622268BA420ED1006800F03800EF
:104B300018286FD07ADCB8B308286CD010286BD155
:104B40008BE0282868D18EE0C7498A4209D10068E5
:104B500000F0070006285FD2DFE800F0507D7F817B
:104B60008385C2498A4209D1006800F007000628FF
:104B70007BD2DFE800F0437072747678BC498A42D9
:104B800009D1006800F0070006286ED2DFE800F0C7
:104B900036636567696BB7498A420BD1006800F0DC
:104BA0000700062861D200E043E0DFE800F0275468
:104BB00056585A5CB0498A4206D1006800F0380065
:104BC00018284CD0B7DD31E0AC498A4209D10068E1
:104BD00000F00700062848D2DFE800F0103D3F4112
:104BE0004345A7498A420BD1006800F00700062818
:104BF0003BD2DFE800F0033032343638002035E0B5
:104C0000A0498A4209D1006800F03800182826D04F
:104C100091DD0BE023E01EE027E09B498A420AD1A8
:104C2000006800F03800182819D084DD202888D1C9
:104C30001CE001201AE09A4217D18A48001D006842
:104C400000F00700062810D2DFE800F0030507098E
:104C50000B0D02200AE0042008E0082006E01020E6
:104C600004E0202002E0402000E080208749DFF8B7
:104C700020829A42874A4FF400434FEA21174FF0AF
:104C800000064ED110281AD006DC022809D00428CC
:104C90000BD008287ED10DE020283ED0402879D1C5
:104CA0003DE0FDF7C9F9014610E06846FDF7D6F989
:104CB00001990BE003A8FDF773FA049906E0106868
:104CC000800605D51068C0F3C100C140002970D02E
:104CD000606A676838F8102007EB4703B1FBF2F011
:104CE000834257D8B0EB073F54D8002308461946F3
:104CF000FBF7C0FB02467808130E120243EA0121BB
:104D000010183A4671410023FBF7B4FB624AA0F544
:104D1000407191423ED821688FE03946D8E7194664
:104D2000D6E7D4F81CC04FF6EF799C4546D1082849
:104D300019D005DC58B101280CD0042875D10DE03C
:104D4000102815D0202835D040286ED134E0FEF749
:104D5000E5F801E0FEF7F4F8014610E06846FDF7DB
:104D60007DF901990BE003A8FDF71AFA049906E012
:104D70001068800604D51068C0F3C100C140C1B1FD
:104D8000636A606838F81330B1FBF3F1490001EB56
:104D9000500100E049E0B1FBF0F0A0F110014945FD
:104DA00043D84FF6F0732168C0F342021840104315
:104DB00043E043E03946E3E71946E1E7082819D024
:104DC00005DC58B101280CD004282ED10DE01028A4
:104DD00015D020282BD0402827D12AE0FEF79EF8B6
:104DE00001E0FEF7ADF8014610E06846FDF736F940
:104DF00001990BE003A8FDF7D3F9049906E01068C8
:104E0000800604D51068C0F3C100C140B1B1636A27
:104E1000606838F81330B1FBF3F101EB5001B1FBDE
:104E2000F0F0A0F11001494505D9012506E0394609
:104E3000EDE71946EBE7216880B2C8600120A4F8CD
:104E40006A00A4F8680028466667A66707B0BDE850
:104E5000F0830000F369FFCF000C0058FFF4FF114E
:104E600000100140544402580044004000480040F3
:104E7000004C004000500040001401400078004009
:104E8000007C004000180140001C01400090D0034D
:104E9000987D000800440258FFFC0F002DE9F04700
:104EA000994617460D460446089E4FF0000833E029
:104EB000701C31D0FCF79CFEA0EB0900B04218D862
:104EC000BEB120680168490726D5802D24D0402D29
:104ED00022D0C169C94309070DD4082505622046BF
:104EE000FFF7C4FDC4F89050012084F88480BDE829
:104EF000F0870320FBE7C069C04300050CD421689C
:104F00004FF4006008622046FFF7B0FD2021C4F88E
:104F1000901084F88480ECE72068C06935EA0000CE
:104F200004D00020B842C3D00020E0E70120F9E718
:104F300070B50D460446C2F307211E4604980129A8
:104F400026D0E06840F04000E060204600F040F8E5
:104F5000C6F307210029A16B32D021F48031A1636F
:104F6000C5F30741012912D1E16D174A89B2E16504
:104F7000E16D1143E165A16821F01E01A160A16806
:104F800041F00601A160A16841F02001A16070BD5F
:104F9000A26BC3B20D49012B22F48030A063E068FC
:104FA00000EA0100E060E06820F44010E06003D116
:104FB000E06840F48010E060204600F009F8CFE798
:104FC00041F48031CBE700000000EE03BFFFBDFFDE
:104FD00008B500224FF070610092521C8A42009284
:104FE00012D80269002A01DB009AF6E70A22009231
:104FF000521E0092FCD1026942F001020261009A45
:10500000521C00928A4201D9032008BD0269D207CE
:10501000F5D1002008BDD0F8001E21F00301C0F832
:10502000001ED0F8041841F00201C0F80418002056
:10503000704700002DE9F04F00250F4690460446CA
:105040002E46284604EB8001C1F80451401C0F286D
:10505000F8D3C3F307405FEA0009204610D0806B05
:1050600040F40011C4F83810C8F30720C4F8005EFB
:105070000128204617D0D0F8001841F0030119E0AC
:10508000D0F8040840F00201C4F80418A06B20F422
:105090000011A163206840F040012160206840F0C9
:1050A00080012160E0E7D4F80018380E204601D0D6
:1050B00041F00101C0F80018102100F093F800B190
:1050C0000126204600F072F800B101264FF67F3A23
:1050D0004FF0006CC4F810584FF0904BC4F81458BF
:1050E000C4F81C580020FAB214E000BF04EB4011D1
:1050F000D1F80039002B06DA10B1C1F800B904E08C
:10510000C4F800C901E0C1F80059C1F81059C1F84C
:1051100008A9401C8242E9D8002013E004EB4011AA
:10512000D1F8003B002B06DA10B1C1F800BB04E057
:10513000C4F800CB01E0C1F8005BC1F8105BC1F816
:1051400008AB401C8242E9D8D4F81008C7F30742E4
:10515000002A6FF0804120F48072C4F81028A56105
:10516000616103D1A06940F01000A061A069C8F39B
:105170000741094A1043A06119B1A06940F0080035
:10518000A061B9F1010F03D1A06904490843A061EE
:105190003046BDE8F08F000000383C80040000403D
:1051A000816821F0010181600020704708B500216D
:1051B0004FF070620091009B5B1C009393420AD8F1
:1051C0000369002BF7DA0091102303610099491C51
:1051D0000091914201D9032008BD0169C906F5D4A7
:1051E000002008BD18B500224FF070630092009CAB
:1051F000641C00949C420CD80469002CF7DA20242B
:10520000009244EA811101610099491C0091994280
:1052100001D9032018BD01698906F5D4002018BD05
:1052200070B50446C06801294FF0000520F0C04069
:10523000E06001D079B120E0E06840F00050E0602B
:105240000A20FBF715FE60690A3510F0010F10D136
:10525000C82DF5D30DE0E06840F08040E0600A2002
:10526000FBF706FE60690A3510F0010F01D0C82D6A
:10527000F5D3C82D01D0002070BD012070BDFEE720
:10528000090700284FEA116104DB00F1E02080F8F3
:105290000014704700F00F0000F1E02080F8141DAA
:1052A00070471FB500240094019402940394FCF706
:1052B0004BFD01208DF80C001F218DF8081087226E
:1052C0008DF809208DF80D008DF8000068468DF8E6
:1052D0000A408DF80E408DF8014001948DF80B4086
:1052E0008DF80F40FCF702FD0420FCF73BFDFCF7B6
:1052F0008DFCFFF7B1F9FFF75BF8FEF71FFEFEF735
:1053000061FDFEF795FDFEF7CBFDFEF781FEFEF792
:10531000A1FEFEF749FEFEF761FEFEF7BDFEFEF7B9
:1053200023FFFEF755FFFEF7BBFFFEF785FFFFF7F4
:105330001FF8FEF7E5FEFEF7E7FF00F0BBF8FEF70B
:10534000E7FD00F0CFF8FEE738B50546FEF727FD8C
:1053500010B16FF005040EE0002402F059F9291A8B
:105360000090002905DD684602F0E8F818B9641ECF
:1053700001E06FF00304204638BD10B5044638B193
:10538000FEF70DFD30B12046BDE8104001F004BB32
:10539000002010BD2046BDE81040002101F084BA75
:1053A00070B500250446FEF7FAFC68B94CB1A06858
:1053B00028B1E168202907D301F0BCFA03E0E068D6
:1053C00010B901F0A9FA0546284670BD38B50400A9
:1053D0000D4601D0280E02D06FF0030038BDFEF755
:1053E000DEFCD0B100206A4629460090204601F03C
:1053F00041FB78B1204601F0CFFA009928430029FB
:10540000ECD0084A4FF080511160BFF34F8FBFF3CB
:105410006F8F38BD6FF0020038BD2946204601F07D
:10542000C9FA38BD04ED00E02DE9F84307001D4638
:105430006FF0030816460C4601D0200E02D04046FD
:10544000BDE8F883FEF7ABFC18B1002DF7D1A81F1B
:10545000F6E7F00701D0012300E00023B00701D5F3
:10546000002200E0012221463846009501F00AFBA7
:10547000F3076FF001016FF0020206D0844306D1FA
:10548000DEE70846DCE71046DAE70442D8D1002D13
:10549000F9D0F6E710B5FEF782FC18B1BDE8104070
:1054A00002F0BCB8BDE8104002F0B2B84FF47A7018
:1054B0007047000010B5FEF772FC10B16FF00500E8
:1054C00010BD02F097F8012802D10549086810B113
:1054D0004FF0FF3010BD01220A60002010BD000017
:1054E000BC00002410B5FEF75AFC10B16FF00500A7
:1054F00010BD02F07FF8012803D108480168012996
:1055000002D04FF0FF3010BD054A002182F8141D73
:105510000221016001F006F9002010BDBC0000244A
:105520000BE000E02DE9F84300241E460F46054637
:10553000FEF735FC00286FF003006FF0020816D06C
:1055400015B30FB306BB00206A46394600902846C3
:1055500001F0B8FE012819D10098C0B10D494FF0F3
:1055600080500860BFF34F8FBFF36F8F0FE05DB1C6
:1055700057B132463946284601F0F6FD012806D0DB
:1055800026B16FF0010402E0044600E044462046E4
:10559000BDE8F88304ED00E0F8B5002514460F4699
:1055A0000646FEF7FCFB30BB2EB327B3BCB1D4E9F3
:1055B00002307BB150281ED32269E2B106FB07F00E
:1055C0006169814217D3002039460090304601F0CE
:1055D000D7FB09E078B9206968B9606958B9002239
:1055E0003946304601F088FB050004D01CB1216823
:1055F00009B100F087FE2846F8BD00002DE9F84308
:1056000000241E460F460546FEF7C9FB00286FF032
:1056100003006FF0020817D025B31FB316BB00209C
:105620006A46034639460090284601F023FD0128CA
:105630001AD10098C8B10E494FF080500860BFF3EE
:105640004F8FBFF36F8F10E065B15FB1002332461B
:105650003946284601F050FC012806D026B16FF0EB
:10566000010402E0044600E044462046BDE8F88319
:1056700004ED00E070B500250446FEF790FB48BB42
:105680000CB1606800E00020C10701D0012600E0F5
:10569000002600071ED46CB1D4E9021021B15028B5
:1056A00018D31EB1042002E020B113E0012001F064
:1056B00016FB05E00EB1042000E0012001F004FB20
:1056C000050007D01CB1216809B100F01BFE0EB126
:1056D00045F00105284670BD002000F077FEFEE78A
:1056E0002DE9FF41002514460F4606460395FEF7B7
:1056F00056FB60BB5EB34FF080024FF018004FF0D6
:1057000000014CB3236803B11946A3691BB11846C5
:105710005B1E382B02D22379DB0703D0002004B0B4
:10572000BDE8F081636903B19A08D4F808C0BCF100
:10573000000F0DD0E568642D19D324693CB133B155
:105740008DE811103B46304601F0A6FE03900EE0B6
:10575000E36863B9236953B903AB92B2CDE900039F
:105760003B46304601F068FE012800D003950398BF
:10577000D5E700002DE9F0411A4C0F460546E668D2
:105780002068001D00F0A0FC681C15D1A7B11649C7
:1057900022684868906023688268DA6022688368BB
:1057A000121D5A602268121D8260206841610868DB
:1057B000401C0860BDE8F08120683544B542456072
:1057C000216805D2E06B091DBDE8F04100F0D6BCB0
:1057D000A06B091D00F0D2FCA06A8542EAD2A56246
:1057E000E8E7000068000024E81600242DE9F041F5
:1057F000054600F0E7FC354C354FA068401CA06022
:10580000206810B1606930B32BE02560A0680128E2
:1058100027D1002606EB860007EB800000F0A0FCF5
:10582000761C382EF6D32B4800F09AFC2948143009
:1058300000F096FC2748283000F092FC25483C30C8
:1058400000F08EFC2348503000F08AFC2148A06311
:105850001430E06305E0E86A2168C96A814200D833
:105860002560606A401C6062E864E86A21698842D9
:1058700000D9206100EB8000291D07EB8000406803
:10588000A8608268EA60826851608160E86A00EB23
:10589000800007EB8001696157F82010491C47F828
:1058A000201000F0ADFC606900280CD02068E96A87
:1058B000C06A884207D208494FF080500860BFF3A1
:1058C0004F8FBFF36F8FBDE8F081000068000024A8
:1058D000381200249816002404ED00E038B500F0DA
:1058E00071FC104C2068C8B90F4800F039FC0E4814
:1058F000143000F035FC0C490020E16014312161C6
:10590000A1F582730090A1F1B40210210A2001F0E8
:1059100037FA206010B105A100F0F4FCBDE8384072
:1059200000F06EBCA8000024EC170024546D7251E6
:105930000000000030B4026C0B46002A0BD0D0E906
:1059400002411144C160A14201D30168C1601846FF
:1059500030BCFAF706BE30BC70472DE9F041856BCC
:105960001746026C0446002682B1C7B1E068FAF718
:10597000F8FDE168206C2268091AE160914202D2C8
:10598000A168081AE060022F16D017E02068A8B9B5
:10599000A06801F0F9FE06460020A0600EE06068F5
:1059A000FAF7DFFDD4E90101226C104460608842FF
:1059B00004D32068606001E005B16D1E6D1CA56315
:1059C0003046BDE8F081000010B5044690F8610053
:1059D00050B101280BD002280ED0BDE8104007A01E
:1059E00040F6D971FBF7AAB8206B00F01DFC2046E9
:1059F000BDE8104000F018BC10BD00002E2E2F4D49
:105A00006964646C6577617265732F546869726448
:105A10005F50617274792F4672656552544F532FEF
:105A2000536F757263652F7461736B732E6300001F
:105A30000F484FF4803110B5420706D00C49C01D05
:105A400020F00700411AC1F580310A4C00220144C0
:105A50000839A4F1140321F00701C4E900020C1A6B
:105A600019604A600A60C0E900149C605C6010BD67
:105A7000DC1E0024D4000024144E4FF08058144C37
:105A8000DFF85090A6F29C4712E000BF00F09AFBAE
:105A9000F068C568281D00F017FBA068401EA060D4
:105AA0006068401E606000F0ABFB2846FFF78CFF8B
:105AB00060680028EAD138680128F9D9C9F800805F
:105AC000BFF34F8FBFF36F8FF2E70000D4160024AF
:105AD0006800002404ED00E0002807D00021816068
