:020000040800F2
:10000000202101246D030008094F00081148000851
:10001000014F0008E10C0008B16A00080000000070
:10002000000000000000000000000000D1510008A6
:10003000E90C000800000000114F00080152000800
:100040008B0300088B0300088B0300088B03000858
:100050008B0300088B0300088B0300088B03000848
:100060008B0300088B0300088B0300088B03000838
:100070008B0300088B0300088B0300088B03000828
:100080008B0300088B0300088B030008290D000870
:10009000390D00088B0300088B0300088B03000850
:1000A0008B030008C15300088B0300088B03000872
:1000B0008B0300088B0300088B0300088B030008E8
:1000C0008B0300088B0300088B0300088B030008D8
:1000D0008B0300088B0300088B0300088B030008C8
:1000E0008B0300088B030008000000008B0300084E
:1000F0008B0300088B0300088B0300088B030008A8
:100100008B0300088B0300088B0300088B03000897
:100110008B0300088B0300088B0300088B03000887
:100120008B0300088B0300088B0300088B03000877
:100130008B0300088B0300088B0300088B03000867
:1001400000000000000000000000000000000000AF
:100150008B0300088B0300088B0300088B03000847
:100160008B0300088B0300088B0300088B03000837
:100170008B0300088B0300088B03000800000000BD
:100180008B0300088B0300088B0300088B03000817
:100190008B0300088B0300088B0300088B03000807
:1001A0008B0300088B0300088B030008000000008D
:1001B0008B0300088B0300088B0300088B030008E7
:1001C0008B0300088B030008000000000000000003
:1001D00000000000000000008B0300080000000089
:1001E000000000000000000000000000000000000F
:1001F00000000000000000008B0300088B030008D3
:100200008B0300088B030008000000008B0300082C
:100210008B0300088B0300088B0300088B03000886
:100220008B030008000000008B03000800000000A2
:100230008B0300088B030008000000008B030008FC
:100240008B0300088B0300088B0300088B03000856
:100250008B0300088B0300088B0300088B03000846
:100260008B0300088B0300088B0300088B03000836
:100270008B0300088B0300088B03000800000000BC
:100280008B0300088B0300088B0300088B03000816
:10029000000000008B0300088B0300080000000032
:1002A000000000008B0300088B0300088B0300088C
:1002B0008B0300088B0300088B030008490D00081E
:1002C0008B0300088B0300088B03000800F002F882
:1002D00000F03CF80AA090E8000C82448344AAF1A4
:1002E0000107DA4501D100F031F8AFF2090EBAE8A2
:1002F0000F0013F0010F18BFFB1A43F0010318475A
:10030000D09F0000F09F0000103A24BF78C878C149
:10031000FAD8520724BF30C830C144BF04680C600B
:10032000704700000023002400250026103A28BF53
:1003300078C1FBD8520728BF30C148BF0B60704757
:100340001FB509F06FFD1FBD10B510BD00F075F9A8
:100350001146FFF7F5FF06F0AFFB00F093F903B489
:10036000FFF7F2FF03BC00F09BF900000A4880474A
:100370000A4880470A480047FEE7FEE7FEE7FEE737
:10038000FEE7FEE7FEE7FEE7FEE7FEE70548064973
:10039000064A074B70470000F90C0008E9520008B4
:1003A000CD020008201B012420210124201D01244E
:1003B000201D012453EA020C00F069802DE9F04B66
:1003C0004FF00006002B1FBFB3FA83F503FA05F4C4
:1003D00024FA05F65E4012BF1643B2FA82F502FA1D
:1003E00005F4C5F120051EBF22FA05FC44EA0C0401
:1003F000203556EA044C4FEA144418BF641C4FF0F1
:1004000000084FF00009904271EB030C39D300292A
:1004100019BFB1FA81F701FA07F6B0FA80F700FACE
:1004200007F6C7F120071EBF20FA07FC46EA0C06B4
:100430002037B6FBF4FCA7EB0507103F07F01F0BB6
:10044000CBF120062CFA06F60CFA0BFB44BFB346A0
:100450000026202FA4BF5E464FF0000B5BEA060C7F
:1004600008BF4FF0010B19EB0B0948EB0608ABFB7B
:10047000027C06FB02CC0BFB03CCC01B71EB0C0116
:10048000C1E70B46024641464846BDE8F08B13B52E
:10049000084318BF4FF0FF300146AFF30080BDE8BE
:1004A0001C407047032A40F2308010F0030C00F02B
:1004B000158011F8013BBCF1020F624498BF11F89E
:1004C00001CB00F8013B38BF11F8013BA2F1040257
:1004D00098BF00F801CB38BF00F8013B11F00303CF
:1004E00000F07980083AC0F0088051F8043B083ADF
:1004F00051F804CBA0E80810F5E7121D5CBF51F8D5
:10050000043B40F8043BAFF30080D20724BF11F84E
:10051000013B11F801CB48BF11F8012B24BF00F8B3
:10052000013B00F801CB48BF00F8012B704702F0F7
:10053000FF0343EA032242EA024200F024B84FF0EC
:1005400000020429C0F0128010F0030C00F01B80A0
:10055000CCF1040CBCF1020F18BF00F8012BA8BFAE
:1005600020F8022BA1EB0C0100F00DB85FEAC17C72
:1005700024BF00F8012B00F8012B48BF00F8012B25
:1005800070474FF0000200B5134694469646203956
:1005900022BFA0E80C50A0E80C50B1F12001BFF43C
:1005A000F7AF090728BFA0E80C5048BF0CC05DF8A2
:1005B00004EB890028BF40F8042B08BF704748BFF0
:1005C00020F8022B11F0804F18BF00F8012B704764
:1005D00070477047704710B5203AC0F00B80B1E803
:1005E0001850A0E81850B1E81850A0E81850203A68
:1005F000BFF4F5AF5FEA027C24BFB1E81850A0E871
:10060000185044BF18C918C0BDE810405FEA827C8A
:1006100024BF51F8043B40F8043B08BF7047D207A1
:1006200028BF31F8023B48BF11F8012B28BF20F842
:10063000023B48BF00F8012B7047754600F02CF8CC
:10064000AE4605006946534620F00700854618B0BF
:1006500020B5FFF79BFEBDE820404FF000064FF0AD
:1006600000074FF000084FF0000BAC46ACE8C009A3
:10067000ACE8C009ACE8C009ACE8C00921F007014A
:100680008D46704710B50446AFF300802046BDE8A4
:100690001040FFF764BE00000048704718000024B7
:1006A00001491820ABBEFEE726000200704700009B
:1006B00086B040F278050321C2F2004502224FF0D5
:1006C000FF33286A06F018FB6FF35E00012819D18A
:1006D00001AC1026A86800224FF0FF33214606F037
:1006E000D7FB0028F6D19DF80C20296D286A01312E
:1006F000296506FA02F106F0BBFA204600F08CFAF2
:10070000E8E700BF06F020FD92B040F27805032133
:10071000C2F2004502224FF0FF33286A06F0ECFADD
:100720006FF35E00012811D16C4600BFA86900225A
:100730004FF0FF33214606F0ABFB0028F6D1A86D41
:100740000130A865204600F06BFAEFE706F0FCFCEC
:1007500090B0684628214FF00008CDE90E88CDE919
:100760000C88CDE90A88FFF70CFF40F278050321D9
:10077000C2F2004502224FF0FF33286A06F0BCFAAD
:100780006FF35E00012849D106F00AFB044606F02B
:1007900023FB40F2E731064640184FF47A7248F1E5
:1007A00000010023FFF706FE8146002E0AAE6F46C9
:1007B00040F60C0A08BF4FF0010903E0204606F09E
:1007C000DBF900BFE86800220023314606F060FB39
:1007D0000028F7D0286900220023394606F058FB8C
:1007E0000028F7D0286A06F0F7F9024610EA0A0F47
:1007F00003D08DF83C808DF824803046394600F0D7
:10080000EFF9286E4C440130286606F0C9FA001B47
:10081000D4D4686E01306866D0E700BF06F094FC5F
:10082000B0B540F230201021C2F2004000F000FAD2
:10083000044640F2D020C2F20040202100F0F8F936
:10084000054640F27030C2F20040402100F0F0F95D
:1008500006210622002C18BF0121002D08BF1146D9
:10086000002840F27800C2F2004008BF1146006A3A
:10087000BDE8B04006F0FCB9B0B540F2EC10402144
:10088000C2F20040FFF77DFE40F278052421C2F25B
:10089000004505F14800FFF774FE49F6C0624020AC
:1008A000C0F60002142100246C6006F045FB49F6F6
:1008B000FC62A860C0F600020420182106F03CFB90
:1008C00049F67472E860C0F600020420282106F0A0
:1008D00033FB4AF230022861C0F6000220201821C2
:1008E00006F02AFB49F614726861C0F60002102077
:1008F000482106F021FB4AF21802A861C0F6000266
:100900000420242106F018FBE8614AF20800C0F632
:10091000000006F085F9286249F6F870C0F600007C
:1009200006F0BEFBA968686200291CBFE9680029BF
:100930000BD0296900291CBF6969002905D0A96964
:1009400000291CBFE969002902D12046B0BD00BFC3
:10095000296A002918BF0028F7D040F2B16049F693
:10096000D862C0F60000C0F60002002106F0F4FBD9
:10097000A86240F2517049F65072C0F60000C0F60D
:100980000002002106F0E8FBE86240F6013049F67B
:10099000B072C0F60000C0F60002002106F0DCFBD9
:1009A000286340F2097049F62C72C0F60000C0F6C8
:1009B0000002002106F0D0FB686340F6893049F65A
:1009C000D472C0F60000C0F60002002106F0C4FB9D
:1009D000A86340F6492049F68C72C0F60000C0F6C4
:1009E0000002002106F0B8FB05F12803E8630ECBF6
:1009F000002918BF0121002A18BF0122002B6C6BAF
:100A000018BF0123AD6B1140002C01EA030118BF90
:100A10000124002D18BF0125002801EA040118BF98
:100A20000120294001EA00042046B0BD000000007A
:100A300040F27801C2F20041087072B600BF00BFF8
:100A400000BF00BFFAE7000092B006F0A9F940F23B
:100A500078060446C2F2004609AD4FF06409E84644
:100A600017E000BF284600F0CFF806F0B5F90746BA
:100A7000002140F2E730E7FB09014FF47A720023CE
:100A8000FFF798FC002F08BF01200444204606F021
:100A900073F8B06C0990F06C0A90306D0B90706D2B
:100AA0000C90B06D0D90F06D0E90306E0F90706EDA
:100AB0001090B06E119006F073F9316A099019B177
:100AC000084606F089F800E000200A9000227168CC
:100AD0001191F0690023294606F082FA0028C1D05E
:100AE000F06900220023414606F0D2F9F0690022A5
:100AF0000023294606F074FAB4E700000000000065
:100B000086B040F278080020C2F200480590CDE996
:100B10000300CDE901000090D8F820000321022253
:100B20004FF0FF3306F0E8F86FF35E00012827D19D
:100B300006F036F904466D460A2700BFD8F81400BF
:100B400000220023294606F0A3F9B0FA80F04109FB
:100B5000284600F05DF806F03FF90646002140F215
:100B6000E730E6FB07014FF47A720023FFF722FC1F
:100B7000002E08BF01200444204605F0FDFFDDE7FC
:100B800006F0E2FA0000000006F00AF940F27806EA
:100B90000446C2F200460A2719E000BF306A06F098
:100BA0001BF800F041F806F017F9054640F2E7306F
:100BB0000021E5FB07014FF47A720023FFF7FAFBEF
:100BC000002D08BF01200444204605F0D5FF7068C1
:100BD0000028E3D0306A40F6040106F049F8DDE76A
:100BE000704700000000000040F27802C2F20042AC
:100BF000106404205164107072B600BF00BF00BFC3
:100C000000BF00BFFAE700007047000000000000CE
:100C10007047000000000000704700000000000066
:100C20007047000000000000704700000000000056
:100C300070B58AB005460026CDE9086606960C46D2
:100C40000796022004900120059002A92846CDE9CC
:100C5000026600F0E1F818B130460AB070BD00BF7E
:100C60004FF08040029002A9284600F0D5F818B154
:100C7000002630460AB070BD022102220123012065
:100C80000090284600F010F920B1002630460AB046
:100C900070BD00BF284600F017FF18B1002630468F
:100CA0000AB070BD01210022C0F20021284600F0E8
:100CB00067F838B1284600F023FF002630460AB016
:100CC00070BD00BF40F278002146C2F20040006AC9
:100CD00005F0CEFF012630460AB070BD00000000CE
:100CE000FEE7000000000000704700000000000068
:100CF00072B600BFFEE7000044F60400C5F602002D
:100D0000816841F0020181600168890409D40168A9
:100D100089045CBF01685FEA814102D401688904EB
:100D2000F2D570470000000040F23020C2F20040CF
:100D300000F01ABA0000000040F2D020C2F20040D9
:100D400000F012BA0000000040F27030C2F2004021
:100D500000F00ABA00000000B0B5044601F0B8F98E
:100D600040F200010546C2F20041621C097818BF3A
:100D70000C4400BF01F0ACF9401BA042FAD3B0BD57
:100D800090F89830013B012B0ED80068836D0B4220
:100D900012D0836D0B408B4216D1C36D43F002031A
:100DA000C3658B0514D418E000F19C0101200222D8
:100DB0000B681A430A607047C36D43F00103C365B3
:100DC0008B0505D409E000BF0323C3658B0504D55B
:100DD000D0F8E0301343C0F8E0304B0504D5D0F82C
:100DE000E4301A43C0F8E4204FF6FF72436DC3F6B7
:100DF000CF720A401A4342658A0F4AF61401002056
:100E0000C4F200010B681A430A607047000000003A
:100E1000704700000000000080B590F89820013A6B
:100E2000012A0BD80A68002ACA680FD00B69072A62
:100E300043EA427E18D18B691BE000BFD0F89C10BA
:100E400041F00201C0F89C10012080BD072A19D191
:100E50000A69D1F81CC012048B6942EA0C221A43B9
:100E600042F0605218E000BFD1F808C04B6943EA75
:100E70008C73006F496800EBC10240F831E000203C
:100E8000536080BD8B68D1F810C09B0743EAC262F3
:100E90004B6942EA0C421A434968C06E40F821206F
:100EA000002080BD0000000090F898C0BCF1010F48
:100EB0000ED19200006842EA0111DDF800C041EA5B
:100EC000430141EA0C01C0F880100020704700BFC8
:100ED000D0F89C1041F00401C0F89C10012070472C
:100EE000704700000000000040F23021C2F20041D3
:100EF00088420FD040F2D021C2F2004188420BD08C
:100F000040F27031C2F20041884218BF704702209F
:100F100003E000BF002000E0012040F27802012140
:100F2000C2F2004201FA00F0516808435060704775
:100F3000B422402908BFA4220068805800F07F0036
:100F400070470000000000002DE9F04390F8987011
:100F5000022F27D140292FD10668D6F8A07017F4A8
:100F6000FE0F00F0C780D6F8A4707F0600F0D48092
:100F7000D6F8A470D6F8A450ED01C7F3052E0AD513
:100F8000D6F8A070B7F1FF3F05DC0EF10107D6F8E7
:100F9000A06007EA164E00F1740400F14405F4461F
:100FA0003CE000BFD0F89C1041F00801C0F89C1054
:100FB0000120BDE8F08300BF412925D10668D6F89D
:100FC000B07017F4FE0F00F09580D6F8B4707F066D
:100FD00000F0A280D6F8B470D6F8B450ED01C7F393
:100FE000052E0AD5D6F8B070B7F1FF3F05DC0EF13B
:100FF0000107D6F8B06007EA164E00F1780400F158
:101000004C05F4460AE000BF076D8F4272D900F12B
:101010007C0400F154054FF0000C8E462D682468C6
:101020000EFB05F504EB850E54F8257017F080478C
:10103000576054F8257027F0604608BFC7F38A460A
:10104000166054F8257007F00057976054F8254053
:1010500004F000441461BEF80440D461BEF80640B8
:1010600014F00F04D460DEF8044004F480145461DA
:10107000DEF8044004F4001494619EF8074004F084
:101080007F041462DEF804404FEAD474546228D01E
:101090004AF248080024C0F600080EEB0406651C5E
:1010A000377A1F55D76818F80770BD4219D21F1933
:1010B000757A7D70D56818F80590A51C4D453FBF21
:1010C000B57ABD70D56818F805903CBFE51C4D4554
:1010D00007D2F57A0434FD70D56818F80550AC4293
:1010E000DBD3402910D10068C0F8A8C00020BDE8BB
:1010F000F08300BFD0F89C1041F02001C0F89C1094
:101100000120BDE8F08300BF41290FD10068C0F87D
:10111000B8C00020BDE8F083D0F89C1041F4807185
:10112000C0F89C100120BDE8F08300BF1F2909D83A
:101130000068012202FA01F1C0F898100020BDE811
:10114000F08300BF006801F01F01012202FA01F1E3
:10115000C0F89C100020BDE8F083000000000000F3
:1011600070470000000000002DE9F04F89B00446F0
:101170004AF61000C4F2000001684AF61400C4F2F6
:1011800000000268206802EA0108056DD0F854905A
:10119000036D0293436D0193036D0493436D0393B9
:1011A000036D0893436D0793036D0693436D059399
:1011B000D0F854A0D0F850B05FEACA530ED51BF453
:1011C00080710BD04FF4807101654AF61001002048
:1011D000C4F2000108602046FFF7C2FF05EA0906D5
:1011E0004AF610095FEA4A50C4F200094FEA8877CC
:1011F00011D51BF480600ED02068D0F8DC10D0F838
:10120000E42011404FF4806202650020C9F800001C
:10121000204600F051FEDDE9011000EA010506F468
:10122000704657B120680021016508F00300C9F835
:10123000000020463946FFF7EBFDDDE9031000EA28
:10124000010705F00F0546B120683146066500200C
:10125000C9F80000204600F037FE07F0F00645B15F
:101260002068294605650020C9F80000204600F0E6
:10127000B3FB46B12068314606650020C9F800007E
:10128000204600F01DFC5FEA0A500CD51BF40060FC
:1012900009D020684FF4006101650020C9F8000002
:1012A000204600F015FE5FEA8A5011D51BF400704D
:1012B0000ED02068D0F8D810D0F8E02011404FF4BC
:1012C000007202650020C9F80000204600F0F8FD19
:1012D0005FEA0A300CD51BF4002009D020684FF4D7
:1012E000002101650020C9F80000204600F070FBD5
:1012F0005FEACA300CD51BF4803009D020684FF467
:10130000803101650020C9F80000204600F0D0FDC2
:101310005FEA4A30DDE9051000EA01050CD51BF44F
:10132000802009D020684FF4802101650020C9F891
:101330000000204600F0B8FD5FEA8A30DDE90710C2
:1013400000EA010005F060710FD51BF400320CD0EB
:1013500022684FF4003313650022C9F80020D4F846
:101360009C2042F08002C4F89C2000F0715539B1F5
:10137000206801650020C9F800002046FFF7B4FD91
:10138000206845B105650021C9F80010D4F89C100B
:101390002943C4F89C10A9F5016188420AD0D4F809
:1013A0009C00002868D0204609B0BDE8F04FFFF748
:1013B00097BD00BF606881688907F0D0016A426A02
:1013C000036A476A114003EA070202F03005D0F8C9
:1013D0002080D0F82490D0F820B0D0F824A0026A61
:1013E000089211F00F01426A0792466A026A069259
:1013F00003D00162204600F04BFD08EA09072DB139
:10140000606829460562204600F04AFD70060BEA36
:101410000A0607F4C0750ED5069810F040000AD0F1
:1014200060684023C16BC26B090C02F03F0203628B
:10143000204600F031FDDDE9071000EA010706F45F
:10144000FC462DB1606829460562204600F01CFD6F
:1014500007F4F02036B161680E62D4F89C10314375
:10146000C4F89C1000289AD061680862D4F89C10D7
:101470000843C4F89C0092E709B0BDE8F08F000073
:101480002DE9F04F85B0A8B34AF200080446C4F233
:1014900000080068404531D094F89810A9B38169DC
:1014A00021F01001816100F013FE0546206881697A
:1014B000090705D500F00CFE401B0B28F6D310E001
:1014C000816941F00101816100F002FE054600BF23
:1014D00020688169C90721D100F0FAFD401B0B2863
:1014E000F6D30120D4F89C100843C4F89C000320D4
:1014F00084F89800012005B0BDE8F08F08F58071F0
:10150000616094F898100029C9D1002084F89900EE
:10151000204600F0B5F92068C1E700BF816941F0BD
:1015200002018161217C826922F04002012918BFF9
:1015300040328261617C826922F48042012908BFC5
:1015400002F580428261A17C826922F480520129E5
:1015500018BF02F580528261816921F44073D4E999
:1015600002120B438361836923F0A403836103693F
:1015700023F0100303619AB1012A0DD0022A09D089
:101580008369032A43F080038361036943F01002F7
:10159000026105D1202200E0042283691A4382619E
:1015A000D4E90572E369561E6FF0FF02256A02EB6B
:1015B0000323B1F5407F43EA4663A5F1010646EAFD
:1015C000030640F20003CFF6FF7303EB074746EA3A
:1015D0000701C16110D1D4E90B65D4E90917013FB6
:1015E00002EB06226FF00F063A4306EB05173A436B
:1015F00003EB01411143C160236E2BB1616ED0F842
:10160000C0201143C0F8C010E16DCDE90313D942E9
:1016100049F64061C0F6000109D0D0F8C820A36E99
:1016200022F0070251F823301A43C0F8C820D4F83A
:1016300040A0BAF1000F09D0D0F8BC20636C22F0B2
:10164000070251F823301A43C0F8BC20A76C57B1E9
:10165000D0F8BC20E36C22F0700251F8233042EA4B
:101660000312C0F8BC20D4F850C0BCF1000F0AD05F
:10167000D0F8BC20636D22F4E06251F8231042EAF6
:101680000121C0F8BC10404504D161688A6822F08D
:1016900003028A600021C4F89410C4F89C10012150
:1016A00084F898104FF6FC72D0F88410D4F83C906F
:1016B00021EA0203656CD4E90D120292019543EA16
:1016C0008103C0F88430D0F8843023F47F0343EAE8
:1016D0000243C0F884305318D0F888606FF38F0647
:1016E00046EA8306C0F88860D0F8886003EB4903B7
:1016F00026F4FE0646EA0946C0F88860D0F8A060E5
:101700006FF38F0646EA8306C0F8A060D0F8A060A9
:1017100005FB0A3326F4FE0646EA0A46C0F8A06036
:10172000D0F8B0606FF38F0646EA8306C0F8B06069
:10173000D0F8B06026F4FE0646EA0746C0F8B0606E
:10174000E66CD0F8AC506FF38F0506FB07337E4391
:1017500045EA8305C0F8AC50D4F8548008FB0C353A
:10176000D0F8F0306FF38F0308FB0CFC43EA8503DD
:10177000C0F8F030D0F8F0E0A36D2EF47C1242EA0D
:101780000342C0F8F02005EB4302D0F8C0506FF3DD
:101790008F0545EA8202C0F8C020D0F8C020DDF8ED
:1017A0000CB022F47C1242EA0B42C0F8C020019A2D
:1017B000D0F8C05025F07C5502FB0AFE4AF2000228
:1017C000C4F20002DDF810A002EB8101029A01F5DB
:1017D000406145EA0A6501EB8207C0F8C05007EB9B
:1017E000C902A56E02EB8E00626700EB86060BFB5A
:1017F00005F2276706EB8C07C4E91E060AFB05F015
:1018000007EBC30303EB8202C4F884304DF2FC33D0
:10181000E16602EB8000C4F200039842C4F88070D5
:10182000C4F88820C4F8900002D920205AE600BFEE
:10183000814221D20A46002042F8040BD4F89030AD
:101840009A4215D2486001F10802D4F890309A42C9
:101850003FBF0020886001F10C02D4F8903038BFFF
:101860009A4205D2C8601031D4F890209142E1D359
:1018700005B0BDE8F08F00BF002005B0BDE8F08FD7
:1018800010B586B04DF200420068C4F2000200219B
:1018900090420591CDE90311CDE9011130D04AF212
:1018A0000041C4F20001884254D04AF20001C4F25F
:1018B0000001884240F0898040F2E01144F2E040AB
:1018C000C2F20041C5F602000A68002A02F10102D4
:1018D0000A6008D1C16841F48071C160C16801F437
:1018E0008071009100990168132441F008010160A2
:1018F0000068092100F0080000900098032023E010
:1019000040F2E01144F2E040C2F20041C5F60200AC
:101910000A68002A02F101020A6008D1C16841F494
:101920008071C160C16801F4807100910099016803
:101930009F2441F0080101600068052100F00800C3
:10194000009000984FF44050019040F60040C5F6DA
:10195000020029E040F2E01144F2E040C2F200410E
:10196000C5F602000A68002A02F101020A6008D1E5
:10197000C16841F48071C160C16801F48071009157
:1019800000990168142441F002010160006840F6EA
:10199000004100F002000090C5F6020100986020AE
:1019A0000190A1F500600921059101A9022202928E
:1019B0000022CDE9032200F08FFA05210022204603
:1019C00000F09AFC204600F087FC06B010BD000035
:1019D00070470000000000002DE9F0438FB040F296
:1019E0007807C2F20047B96891B1044640F230204E
:1019F000C2F2004084420FD040F2D020C2F2004038
:101A000084420BD040F27030C2F20040844207D0D2
:101A10000FB0BDE8F08300BF002002E0012000E02D
:101A200002208DF8080040212046FFF781FA0028A7
:101A3000EED0684605AE00F10B054FF00009E84610
:101A400006E000BF40212046FFF772FA0028DFD0F1
:101A50004021204632462B46FFF776FA10BB00F0B5
:101A600037FB08990090481E00230828DDE905206F
:101A700000F140400192B0FA80F04FF000024FEACE
:101A800050108DF8090028BF4946B8688DF80A1033
:101A9000414605F0A5FA0028D4D0786D013078656C
:101AA000D0E700BF9DF808000228B1D8012101FA53
:101AB00000F07968084378600FB0BDE8F08300005B
:101AC000704700000000000090F8981001290DD127
:101AD000022180F8981001688A6922F001028A6167
:101AE0000021C0F89C100846704700BFD0F89C1039
:101AF00041F00401C0F89C10012070470000000074
:101B000090F8981002292BD1016851F8182F42F053
:101B100001020A600A68D20706D10A68D20704BF28
:101B20000A685FEAC27223D00A6822F010020A60D3
:101B30000A68120707D50A68120744BF0A685FEAF5
:101B4000027200F1CF800A6842F002020A600021AE
:101B5000C0F89410012280F898200846704700BF12
:101B6000D0F89C1041F00801C0F89C10012070478B
:101B70000A68D20704BF0A685FEAC272D4D10A6851
:101B8000D20704BF0A685FEAC272CDD10A68D207E1
:101B900004BF0A685FEAC272C6D10A68D20704BFEE
:101BA0000A685FEAC272BFD10A68D20704BF0A6836
:101BB0005FEAC272B8D10A68D20704BF0A685FEA56
:101BC000C272B1D10A68D20704BF0A685FEAC27262
:101BD000AAD10A68D20704BF0A685FEAC272A3D119
:101BE0000A68D20704BF0A685FEAC2729CD10A6819
:101BF000D20704BF0A685FEAC27295D10A68D207A9
:101C000004BF0A685FEAC2728ED10A68D20704BFB5
:101C10000A685FEAC2727FF487AF0A68D20704BF1E
:101C20000A685FEAC2727FF47FAF0A68D20704BF16
:101C30000A685FEAC2727FF477AF0A68D20704BF0E
:101C40000A685FEAC2727FF46FAF0A68D20704BF06
:101C50000A685FEAC2727FF467AF0A68D20704BFFE
:101C60000A685FEAC2727FF45FAF0A68D20704BFF6
:101C70000A685FEAC2727FF457AF0A68D20704BFEE
:101C80000A685FEAC2727FF44FAF0A68D20704BFE6
:101C90000A685FEAC2727FF447AF0A68D20704BFDE
:101CA0000A685FEAC2727FF43FAF0A68D20704BFD6
:101CB0000A685FEAC2727FF437AF0A68D20704BFCE
:101CC0000A685FEAC2727FF42FAF0A68D20704BFC6
:101CD0000A685FEAC2727FF427AF0A68D20700F091
:101CE000C58021E70A68120744BF0A685FEA0272EA
:101CF0007FF529AF0A68120744BF0A685FEA0272DB
:101D00007FF521AF0A68120744BF0A685FEA0272D2
:101D10007FF519AF0A68120744BF0A685FEA0272CA
:101D20007FF511AF0A68120744BF0A685FEA0272C2
:101D30007FF509AF0A68120744BF0A685FEA0272BA
:101D40007FF501AF0A68120744BF0A685FEA0272B2
:101D50007FF5F9AE0A68120744BF0A685FEA0272AB
:101D60007FF5F1AE0A68120744BF0A685FEA0272A3
:101D70007FF5E9AE0A68120744BF0A685FEA02729B
:101D80007FF5E1AE0A68120744BF0A685FEA027293
:101D90007FF5D9AE0A68120744BF0A685FEA02728B
:101DA0007FF5D1AE0A68120744BF0A685FEA027283
:101DB0007FF5C9AE0A68120744BF0A685FEA02727B
:101DC0007FF5C1AE0A68120744BF0A685FEA027273
:101DD0007FF5B9AE0A68120744BF0A685FEA02726B
:101DE0007FF5B1AE0A68120744BF0A685FEA027263
:101DF0007FF5A9AE0A68120744BF0A685FEA02725B
:101E00007FF5A1AE0A68120744BF0A685FEA027252
:101E10007FF599AE0A68120744BF0A685FEA02724A
:101E20007FF591AE0A68120744BF0A685FEA027242
:101E30007FF589AE0A68120744BF0A685FEA02723A
:101E40007FF581AE0A68120744BF0A685FEA027232
:101E50007FF579AE0A68120744BF0A685FEA02722A
:101E60007FF571AE0A6812077FF56DAED0F89C1051
:101E700041F00101C0F89C10032180F89810012066
:101E800070470000000000007047000000000000E4
:101E900070470000000000007047000000000000D4
:101EA00070470000000000007047000000000000C4
:101EB00070470000000000007047000000000000B4
:101EC00070470000000000007047000000000000A4
:101ED00070470000000000002DE9F04F84B08E46EE
:101EE00042F20042C5F602020A219042DEF800509A
:101EF00008BF0921002D009100F0E68000F1264284
:101F0000009902F1FF7200244FEAB2230126082B48
:101F10004FF0000738BF19464FF00008CDF808E031
:101F200000910DE0DEF8005008F1010835FA06F1E5
:101F300007F1020706F1010604F1040400F0C48071
:101F4000A6F1010A012101FA0AF315EA0309E9D011
:101F5000DEF804B00BF003056A1E012A1AD803212B
:101F6000D0F808C001FA07FE02992CEA0E0CDDF841
:101F700008E0CA68BA4042EA0C028260CBF3001261
:101F8000D0F804C02CEA030302FA0AF21A434260B2
:101F90000CE000BF032D09D1DEF80820012A05D18D
:101FA0000325BC4605FA07F2D1432FE00321C2689E
:101FB00001FA07F3022D6FEA030122EA0302DEF8B9
:101FC00008304FEA480C03FA07F342EA0302C26002
:101FD0001CD101916FF0030101EA5A0204F01C05C3
:101FE00002440F2101FA05F3D2F820B002992BEA3E
:101FF0000303D1F810E001990EFA05F5DDF808E0C9
:102000002B431362DEF804B00BF0030502681BF4E7
:10201000403F01EA020105FA0CF241EA02010160C7
:102020003FF480AF44F2F44240F2084CC5F602029D
:10203000C5F6000C0F25116841F00201116011680E
:1020400001F0020103912AF00301039A04F00C024B
:1020500051F80C309540AB43009D05FA02F21A434B
:1020600041F80C204FF0B04CDCF80010DEF80420F2
:1020700041EA0903D50258BF21EA09039502CCF8C9
:10208000003040F2040CC5F6000CDCF8001041EA08
:10209000090358BF21EA09039503CCF80030DCF8A6
:1020A000801041EA090358BF21EA0903D203CCF8A2
:1020B0008030DCF87C1041EA090358BF21EA0903AB
:1020C000CCF87C302EE700BF04B0BDE8F08F0000F4
:1020D00041F2D030C2F201400068704700000000B9
:1020E00040F2000041F2D031C2F20040C2F20141A0
:1020F00000780A6810440860704700000000000083
:1021000080B5032000F028F901F0A2FB44F2184149
:1021100049F69863C5F60201C0F600030A6809682B
:1021200001F00F01C2F30322595C9A5C01F01F0118
:1021300002F01F02D04040F20C02C2F2004220FA2C
:1021400001F1116040F20801C2F2004108600F2065
:1021500000F00AF800281CBF012080BD00F0A4F8A0
:10216000002080BD00000000B0B58AB00F283DD827
:102170000446192000222146002500F0BDF8192050
:1021800000F0AAF840F20400C2F20040046044F2F9
:10219000F040C5F60200016841F0010101600068ED
:1021A00001A900F001000290029802A801F09CFA37
:1021B00001F01EFB4DF683614000C4F21B3100228A
:1021C000A0FB010140F6F400C2F200404FF0FF33E3
:1021D000C4F20102026003EB9141C0E9011540F233
:1021E000E731C0E9031501F0C7FE18B101200AB0BC
:1021F000B0BD00BF40F6F400C2F2004001F03CFF69
:102200000AB0B0BD0000000010B54EF6A05E4178E7
:10221000CEF2000E90F800C04EF8081CDEF8001058
:1022200021F00101CEF8001041684EF8041C017B3A
:10223000C37A827A447B1B0643EA0171837B41EABD
:10224000C241C27B41EA8441447A41EA4341007A77
:1022500041EA024141EA042141EA400040EA0C001F
:10226000CEF8000010BD00004EF62450CEF2000063
:10227000BFF35F8F016821F48031016000210167A5
:1022800070470000000000004EF6245140F00100AD
:10229000CEF200010867086840F480300860BFF3A0
:1022A0004F8FBFF36F8F704781B044F2F44000222C
:1022B000C5F60200016841F00201016000680F21CB
:1022C00000F0020000906FF00100009B01B000F0F0
:1022D00013B8000000000000002848BF704700F05D
:1022E0001F01012202FA01F14EF200124009CEF262
:1022F000000242F820107047B0B54EF60C5C00F0BA
:102300000F05CEF2000C043D6544DCF800304FF0C0
:10231000FF3CC3F3022E8EF00703042B28BF0423D7
:10232000BEF1030438BF00240CFA03F3B0F1FF3F01
:1023300021EA030105F10C0300F160450CFA04F0F9
:10234000C8BF05F56443A14022EA0000084300012C
:102350001870B0BD000000004EF60C514FF6FF03A0
:10236000CEF200010A681A4060F30A2242F080604F
:1023700040F0FD700860704701680122C0F8D82461
:10238000002280F8CC24886940F000608861486DA4
:1023900040F08052002042F003024A65704700007E
:1023A000F0B581B0002800F02881044690F895042B
:1023B00028B9002084F89404204600F035F9032061
:1023C00084F89504206804F0B7F9D4E90001267C6C
:1023D000D4E90223009603F0FBFD002840F00A81B7
:1023E0002068002104F0B0F9002840F00381217931
:1023F000002900F0F680A1F1010C01F0030EBCF100
:10240000030F4FF0000345D301F0FC0204F19A00E2
:102410000126002500F8865C6F1C20F86C5C00F833
:10242000627C20F8487CAF1C00F83E7C20F8247CBD
:10243000EF1C043500F8856C00F8823C954240F8AA
:102440007E3C40F87A3C40F8763C00F8616C00F83D
:102450005E3C40F85A3C40F8563C40F8523C00F88C
:102460003D6C00F83A3C40F8363C40F8323C40F8CD
:102470002E3C00F8196C00F81A7C078000F8163C16
:1024800040F8123C40F80E3C40F80A3C00F1900045
:10249000C0D12B46BEF1000F2DD003EBC3000122AB
:1024A000BEF1010F04EB80054FF000006A752B753B
:1024B000EB852876C5E9070068621CD05D1CBEF17B
:1024C000020F05EBC50604EB860672753575F585BA
:1024D0003076C6E9070070620DD0981C012300EB2E
:1024E000C00204EB820253751075D085002010766F
:1024F000C2E907005062002973D0BCF1030F4FF00E
:10250000000236D301F0FC0004F53471002300BF53
:1025100001F87C3C5F1C01F8587C9F1C01F8347C5E
:10252000DF1C043301F87B2C834201F8782C41E94D
:102530001D2241F86C2C01F8572C01F8542C41E96C
:10254000142241F8482C01F8332C01F8302C41E9D1
:102550000B2241F8242C01F80F2C01F8107C01F813
:102560000C2C41F8082C41F8042C41F8902BCFD1C9
:102570001A46BEF1000F34D002EBC200BEF1010FCB
:1025800004EB80014FF0000081F8550281F85422DD
:1025900081F85802C1E99700C1F8640221D0511CAA
:1025A000BEF1020F01EBC10304EB830383F8550274
:1025B00083F8541283F85802C3E99700C3F8640201
:1025C0000FD0901C002200EBC00104EB810181F8C8
:1025D000552281F8540281F85822C1E99722C1F8A6
:1025E0006422D4E90001277CD4E90223009703F098
:1025F0004BFE28B1022084F89504012001B0F0BD03
:1026000000206074012084F89504207B012802D109
:102610002046FFF7B1FE206803F026FE002001B03F
:10262000F0BD00000000000070B5B6B002A904467D
:1026300001F10800B021FDF7A4FF00212068C4F2D9
:102640000401884202D036B070BD00BF4FF4802034
:10265000029005200C9028200D904FF400601190FE
:102660004FF40010239002A8002403940226CDE921
:102670000E661096139400F0AFF908B1FEF738FB20
:1026800044F2D845C5F6020500F056F8A86831A90D
:1026900040F00100A860A86800F001003190319876
:1026A0004FF48060CDE931060A2035900020C5F650
:1026B0000200CDE93344FFF70FFC40F2E410C2F210
:1026C00000400168002901F101010160BBD12868C7
:1026D00040F000702860286800F0007001900198B8
:1026E00036B070BD00000000B0B544F60C05C5F66C
:1026F000020529684907296806D401F00701081A6C
:1027000018BF0120B0BD00BF21F0070108432860B9
:10271000FFF7DEFC044600BF55F8080C800407D420
:10272000FFF7D6FC001BB0F57A7FF5D90120B0BDCC
:102730000020B0BD0000000044F60C00C5F6020009
:10274000016841F0807101607047000000000000E6
:1027500080B500F0F5FF44F2204149F69862C5F6D5
:102760000201C0F600020968C1F30211515C01F0D8
:102770001F01C84080BD000080B544F2384EC5F648
:10278000020E5EF8103C5EF8101CC1F3053C5EF8CA
:102790000C1CBCF1000FDEF8042015D0C1F30011B1
:1027A000C2F3CC02514300EE101A03F003010229D8
:1027B000B8EE400A0ED089B95EF8381C890611D4EB
:1027C0009FED361A1CE000BF00218160C0E90011B6
:1027D00080BD00BF9FED301A12E000BF9FED2D1AA3
:1027E0000EE000BF5EF8381C49F20002C0F2D032A1
:1027F000C1F3C10122FA01F101EE101AB8EE411A3B
:10280000DEF800109FED263A6FF35F2102EE101AFA
:10281000DEF80010C1F34621B8EE422A00EE032A8A
:1028200000EE10CAB7EE003AB8EE400A81EE000A98
:1028300032EE031A02EE101AB8EE422A20EE010A16
:1028400032EE031A80EE011ABCEEC11A80ED001AB6
:10285000DEF80010C1F3064101EE101AB8EE411A7D
:1028600031EE031A80EE011ABCEEC11A80ED011A96
:10287000DEF80010C1F3066101EE101AB8EE411A3D
:1028800031EE031A80EE010ABCEEC00A10EE101AF7
:10289000816080BD0024744A20BCBE4B0024744C6F
:1028A000000000390000000080B544F2404EC5F63B
:1028B000020E5EF8183C5EF8181CC1F3055C5EF869
:1028C000141CBCF1000FDEF8042015D0C1F3002168
:1028D000C2F3CC02514300EE101A03F003010229A7
:1028E000B8EE400A0ED089B95EF8401C890611D4B2
:1028F0009FED361A1CE000BF00218160C0E9001185
:1029000080BD00BF9FED301A12E000BF9FED2D1A71
:102910000EE000BF5EF8401C49F20002C0F2D03267
:10292000C1F3C10122FA01F101EE101AB8EE411A09
:10293000DEF800109FED263A6FF35F2102EE101AC9
:10294000DEF80010C1F34621B8EE422A00EE032A59
:1029500000EE10CAB7EE003AB8EE400A81EE000A67
:1029600032EE031A02EE101AB8EE422A20EE010AE5
:1029700032EE031A80EE011ABCEEC11A80ED001A85
:10298000DEF80010C1F3064101EE101AB8EE411A4C
:1029900031EE031A80EE011ABCEEC11A80ED011A65
:1029A000DEF80010C1F3066101EE101AB8EE411A0C
:1029B00031EE031A80EE010ABCEEC00A10EE101AC6
:1029C000816080BD0024744A20BCBE4B0024744C3E
:1029D00000000039000000002DE9F0470446C078EF
:1029E00044F22C480007C5F6020833D5606E4FEA62
:1029F000305103290CD8DFE801F003111D2600BF78
:102A0000D8F8001041F40031C8F800101BE000BFF6
:102A100001266078C0070BD020E000BF04F1080059
:102A2000022102F0A9FA064660B16078C00715D10C
:102A3000354646E004F12800022102F031FB06464B
:102A40000028F2D1606ED8F8241021F44011084318
:102A5000C8F8240000266078C007E9D0A06D0428DB
:102A60000ED83546DFE800F00412181E1E0000BF25
:102A7000D8F80000354640F40030C8F8000011E0F6
:102A800001250127607840071FD453E004F10800B6
:102A9000002102F071FA04E004F12800002102F0A4
:102AA000FFFA05462F461DB1607840070DD441E07E
:102AB000D8F82400A16D20F0070000250843C8F8CD
:102AC000240037466078400734D5D4F8A4004FEA94
:102AD000705005280CD8DFE800F00311171D1D1DEC
:102AE000D8F8000040F40030C8F8000012E000BF41
:102AF000012501266078000720D455E004F1080084
:102B0000002102F039FA04E004F12800002102F06B
:102B1000C7FA05462E461DB1607800070ED443E083
:102B2000D8F82C00D4F8A41020F460000025084345
:102B3000C8F82C003E466078000735D5D4F8A800C8
:102B40004FEA306005280DD8DFE800F00412181EA7
:102B50001E1E00BFD8F8000040F40030C8F8000086
:102B600012E000BF01250127E078800720D44EE065
:102B700004F10800002102F0FFF904E004F128004C
:102B8000002102F08DFA05462F461DB1E07880073E
:102B90000ED43CE0D8F82C00D4F8A81020F0E06067
:102BA00000250843C8F82C003746E07880072ED56A
:102BB000E06C4FEA301003280ED8DFE800F009037C
:102BC000130900BFD8F8000040F40030C8F8000036
:102BD0002E467DB912E000BF012501266078C006AF
:102BE00019D44CE004F10800022102F0C5F90546B1
:102BF0002E461DB16078C0060DD440E0D8F8200004
:102C0000E16C20F0300000250843C8F820003E4663
:102C10006078C00633D5E06D4FEA303004280DD817
:102C2000DFE800F00412181E1E0000BFD8F80000F4
:102C300040F40030C8F8000012E000BF0125012771
:102C4000607880061FD44EE004F10800002102F0F5
:102C500093F904E004F12800002102F021FA05466E
:102C60002F461DB1607880060DD43CE0D8F82400D2
:102C7000E16D20F4E04000250843C8F82400374601
:102C8000607880062FD5206E4FEA3040052809D89D
:102C9000DFE800F0040E1404040400BF2E46ADB9B2
:102CA00018E000BF01250126607840061FD44FE0E0
:102CB00004F10800012102F05FF904E004F12800AA
:102CC000012102F0EDF905462E461DB1607840065F
:102CD0000DD43DE0D8F82400216E20F4E02000253A
:102CE0000843C8F824003E466078400630D5D4F842
:102CF000AC004FEA3070052808D8DFE800F0030D7B
:102D0000130303032F46ADB918E000BF01250127C7
:102D10006078000620D442E004F10800012102F0AE
:102D20002BF904E004F12800012102F0B9F905466D
:102D30002F461DB1607800060ED430E0D8F82C0084
:102D4000D4F8AC1020F0E04000250843C8F82C006F
:102D500037466078000622D5E06E58B1B0F1005FCA
:102D60000CD0B0F1805F2FD1D8F8000040F40030D3
:102D7000C8F800002E469DB908E000BF04F1080025
:102D8000012102F0F9F805462E464DB9D8F8240085
:102D9000E16E20F0405000250843C8F824003E466C
:102DA000E078C00733D0A06C032813D8DFE800F028
:102DB00008021A08D8F8000040F40030C8F80000F3
:102DC000A946BDB91AE000BF01250126E078C00779
:102DD000E9D11CE001254FF00109A07840061AD581
:102DE0001CE000BF04F10800022102F0C5F805460E
:102DF000A9461DB1A07840060DD50FE0D8F82000F7
:102E0000A16C20F0030000250843C8F82000B1465B
:102E1000A078400602D44F4618E000BFD8F8D4038B
:102E200040F48070C8F8D403FFF752F9064600BF9B
:102E3000D8F8D403C00507D4FFF74AF9801B6428EB
:102E4000F6D90325032701E02F468DB12078C0076E
:102E500061D0A06F4FEAF00005283BD8DFE800F012
:102E600004404604040400BF002D2E4646D149E02C
:102E7000D8F84410D4F8B000414011F4407F11D08C
:102E8000D8F84410D8F8442042F48032C8F84420DE
:102E9000D8F8442021F4407122F48032C8F844204C
:102EA000C8F84410B0F5807F40F0CE82FFF710F9EB
:102EB000064641F2883A0325032700BFD8F84400AC
:102EC000800700F1BF82FFF703F9801B5045F5D959
:102ED000BCE700BF01250126207880071FD44CE005
:102EE00004F10800012102F047F804E004F1280091
:102EF000012102F0D5F805462E461DB12078800745
:102F00000DD43AE0D8F82800A16F20F03800002551
:102F10000843C8F828003E46207880072DD5606F0A
:102F2000052809D8DFE800F0040E1404040400BFEB
:102F30002F46ADB918E000BF0125012720784007D2
:102F40001FD44DE004F10800012102F015F804E05F
:102F500004F12800012102F0A3F805462F461DB117
:102F6000207840070DD43BE0D8F82800616F20F0AE
:102F7000070000250843C8F8280037462078400796
:102F80002ED5D4F89000052808D8DFE800F0030D0E
:102F9000130303032E46ADB918E000BF0126012537
:102FA0002078800620D451E004F10800012101F0CE
:102FB000E3FF04E004F12800012102F071F8054666
:102FC0002E461DB1207880060ED43FE0D8F82C00A4
:102FD000D4F8901020F0070000250843C8F82C0012
:102FE0003E462078800631D5D4F88C004FEA307008
:102FF000052809D8DFE800F0040E1404040400BF1B
:103000002F46ADB918E000BF012701252078400602
:1030100020D451E004F10800002101F0ADFF04E0EC
:1030200004F12800022102F03BF805462F461DB1AD
:10303000207840060ED43FE0D8F82800D4F88C1051
:1030400020F0E04000250843C8F8280037462078E3
:10305000400631D5D4F898004FEAB020052809D8A9
:10306000DFE800F0040E1404040400BF2E46ADB9DE
:1030700018E000BF012601252078000620D454E086
:1030800004F10800002101F077FF04E004F12800BA
:10309000022102F005F805462E461DB120780006F3
:1030A0000ED442E0D8F82C00D4F8981020F4E05068
:1030B00000250843C8F82C003E462078000634D589
:1030C000D4F89C004FEA703005280FD8DFE800F0F4
:1030D00004141A04040400BF2F46E5B12068010758
:1030E00027D4C1063ED4000355D475E0012701253D
:1030F00020680107F5D51CE004F10800002101F06B
:103100003BFF04E004F12800022101F0C9FF05465D
:10311000002D2F46E2D1D8F82C00D4F89C1020F4D2
:10312000604000250843C8F82C0037462068010796
:10313000D7D5D4F88000B0F5805F09D104F128001C
:10314000022101F0ADFF002818BF0127D4F880004C
:10315000D8F8281021F440510843C8F82800206806
:10316000C106C0D5D4F89400B0F5807F09D104F130
:103170002800022101F094FF002818BF0127D4F88D
:103180009400D8F82C1021F440710843C8F82C00A2
:103190002068000320D5D4F8A000B0F5003F0FD080
:1031A000B0F5803F06D078BB04F10800002101F0A3
:1031B000E3FE04E004F12800022101F071FF05465E
:1031C0002E4655B9D8F82C00D4F8A01020F4403081
:1031D00000250843C8F82C003E46A07840072BD5B0
:1031E000D4F88400B0F5401F0BD0B0F5001F11D00B
:1031F000B0F5801F2AD1D8F8000040F40030C8F89C
:1032000000002F46CDB90DE001260125A07840072A
:10321000E6D411E004F12800012101F041FF054648
:103220002F4655B9D8F82800D4F8841020F440105F
:1032300000250843C8F828003746A078C0070AD1FF
:103240003E462168880016D533E000BF01270125DE
:10325000A078C007F4D0206DB0F5803F10D018BB27
:10326000D8F8000040F40030C8F800002E4685B1C0
:10327000216888001DD460688A0326D465E000BFF9
:1032800004F10800022101F077FE0546002D2E46CC
:10329000EED1D8F82000216D20F4803000250843BD
:1032A000C8F82000CCE700BF01260125216888006E
:1032B000E1D504F12800022101F0F2FE002818BF38
:1032C0000126D4E900108A033FD5E26F6FF00103B5
:1032D00003EB3223022B0BD34FEA322343B1012BF2
:1032E00040F0AA80D8F8003043F40033C8F800302A
:1032F00025B3CA022CD48A0234D44A003CD4CA0F63
:1033000049D1090251D4C1075AD1810763D4410779
:103310006CD4010776D4C10600F18080800607D501
:1033200004F12800022101F0BBFE002818BF01258E
:10333000002D18BF01252846BDE8F087D8F82830B1
:1033400023F440731A43C8F828203546CA02D2D560
:10335000D8F82420236F22F000421A43C8F8242012
:103360008A02CAD5D8F82420A36E22F080721A43AC
:10337000C8F824204A00C2D558F81C2C22F4004278
:1033800048F81C2CD4F8B42058F81C3C1A4348F8D0
:103390001C2CCA0FB5D0D8F82020636D22F0405203
:1033A0001A43C8F820200902ADD5D8F82810D4F85F
:1033B000882021F440011143C8F82810C107A4D087
:1033C00004F10800002101F0D7FD002818BF0546D0
:1033D000606881079BD504F10800012101F0CCFD54
:1033E000002818BF05466068410792D504F108001F
:1033F000022101F0C1FD002818BF054660680107E1
:103400007FF589AF04F12800002101F049FE002872
:1034100018BF05466068C1067FF580AF04F128003B
:10342000012101F03DFE002818BF054660688006B6
:103430007FF57EAF74E700BF0125CA027FF55BAF61
:1034400086E700BFD4F8B0004FF6CF7358F81C2CB5
:10345000C0F2FF0300F4407122F47C5203EA10131F
:103460006FF31F30B1F5407F08BF1A43002548F8BD
:103470001C2CD8F844100843C8F84400FFF7CBBC14
:103480002DE9F04381B0002800F02A8142F20008C3
:103490000446C5F200288946D8F8000000F00F0065
:1034A00088420ED2D8F8000020F00F0040EA090050
:1034B000C8F80000D8F8000000F00F00484540F0C0
:1034C0000F81206844F218474107C5F602070AD564
:1034D00021693A6802F07002914204D93A6822F0F8
:1034E00070021143396001070AD561697A6802F0F8
:1034F0007002914204D97A6822F070021143796017
:10350000C1060AD5A1697A6802F4E062914204D941
:103510007A6822F4E0621143796081060AD5E16994
:10352000BA6802F07002914204D9BA6822F07002BF
:103530001143B96010F002010AD0E2683B6803F061
:103540000F039A4204D93B6823F00F031A433A60F1
:10355000C20746D0386820F47061D4E9010201281E
:1035600041EA0201396009D003280DD0022811D1A7
:1035700057F8181C890340F1B38010E057F8181C65
:10358000C90540F1AD800AE057F8181C890140F1E7
:10359000A78004E057F8181C490740F1A18057F8AC
:1035A000081C21F00701084347F8080CFEF790FDBE
:1035B000064641F2883500BF57F8080C616800F0F4
:1035C0003800B0EBC10F09D0FEF782FD801BA84286
:1035D000F2D9032001B0BDE8F08300BF206800F0FD
:1035E000020151B1E1683A6802F00F02914204D23F
:1035F0003A6822F00F0211433960D8F8001001F048
:103600000F0149450DD9D8F8001021F00F0141EA0A
:103610000901C8F80010D8F8001001F00F01494561
:103620005ED141070AD521693A6802F070029142E1
:1036300004D23A6822F070021143396001070AD5BA
:1036400061697A6802F07002914204D27A6822F0CD
:10365000700211437960C1060AD5A1697A6802F443
:10366000E062914204D27A6822F4E0621143796008
:1036700080060AD5E069B96801F07001884204D279
:10368000B96821F070010843B86000F0E1F83968CA
:1036900049F698633A68C0F60003C1F3032102F0CB
:1036A0000F02595C9A5C01F01F0120FA01F102F04F
:1036B0001F0040F20C0221FA00F0C2F2004210603A
:1036C00040F2040040F20802C2F20040C2F200429E
:1036D0000068116001B0BDE8F043FEF745BD00BFD2
:1036E000012001B0BDE8F0833F22026044F218429D
:1036F000C5F6020252F8083C03F007034360136862
:1037000003F470638360136803F00F03C3601368EE
:1037100003F070030361536803F07003436153685F
:1037200003F4E0638361926802F07002C26142F2C6
:103730000000C5F20020006800F00F00086070472C
:1037400080B500F085F844F2184149F69863C5F653
:103750000201C0F600030A68096801F00F01C2F314
:103760000322595C9A5C02F01F0220FA02F201F077
:103770001F0040F20C0122FA00F0C2F20041086082
:1037800040F20801C2F200410A6080BD0000000062
:1037900080B500F05DF844F2184C49F69861C5F622
:1037A000020CC0F60001DCF80020DCF8003003F069
:1037B0000F03C2F30322CB5C8A5C02F01F02D040ED
:1037C00003F01F0240F20C0320FA02F2C2F200439F
:1037D0001A6040F20803C2F200431860DCF80400EB
:1037E000C0F30210085C00F01F0022FA00F080BD58
:1037F00080B500F02DF844F2184C49F69861C5F6F2
:10380000020CC0F60001DCF80020DCF8003003F008
:103810000F03C2F30322CB5C8A5C02F01F02D0408C
:1038200003F01F0240F20C0320FA02F2C2F200433E
:103830001A6040F20803C2F200431860DCF804008A
:10384000C0F30220085C00F01F0022FA00F080BDE7
:1038500044F20041C5F602010869C0F3C200032822
:1038600010D002282CD088BB0868800649F20000DE
:10387000C0F2D03058BF70470968C1F3C101C840D9
:10388000704700BF8A6A886AC0F3051CC86ABCF129
:10389000000F4B6B20D0C3F3CC0300F00100584362
:1038A00002F00302022A00EE100AB8EE400A15D018
:1038B000C2B90868800619D49FED281A23E000BF1A
:1038C00047F64000C0F27D10704700BF40F6001080
:1038D000C0F23D00704700BF002070479FED1E1AE8
:1038E00011E000BF9FED1B1A0DE000BF086849F210
:1038F0000002C0F2D032C0F3C10022FA00F001EEA3
:10390000100AB8EE411A086B9FED153A6FF35F206D
:1039100002EE100A086BC0F34620B8EE422A0130CE
:1039200000EE032A00EE10CAB7EE003AB8EE400AE5
:1039300081EE000A32EE031A20EE010A01EE100AAF
:10394000B8EE411A80EE010ABCEEC00A10EE100A71
:10395000704700BF0024744A20BCBE4B0024744C46
:103960000000003900000000F0B581B0002800F030
:10397000D5800446007844F20046C007C5F602062A
:1039800022D12078800768D5306910F03801B06AFC
:1039900042D0182908BF5FEA80703DD0E0683168E6
:1039A000002800F0258121F0190108433060FEF75E
:1039B0008FFB05463068400748D4FEF789FB401B63
:1039C0000228F7D977E100BF306900F03801B06A0A
:1039D000102905D018290BD100F00300022807D1C7
:1039E00030688003CDD560680028CAD196E000BF5A
:1039F0006068002800F03281B0F5A02F00F0468109
:103A0000B0F5803F00F04681306820F480303060AF
:103A1000306820F4802040E130684007E06801D53C
:103A200000287BD0316821F0190108433060FEF78F
:103A30004FFB05463068400708D4FEF749FB401BA2
:103A400002284FF00300F5D901B0F0BD706821697C
:103A500020F0FE4040EA016070602078C00619D571
:103A6000306900F03801B06A082906D0182940F002
:103A7000818000F0030001287CD13068C00502D5A8
:103A8000E06980284AD1F068216A20F07C5040EA41
:103A90000160F0602078000744D42078800655D477
:103AA0002078400700F17E80656A9DB3306900F0A0
:103AB0003800182840F01481012DB16A306B2DD0E8
:103AC00001F00302A36A9A4228D1C1F30511E26A08
:103AD000914223D10146226B6FF35F21013A91425B
:103AE0001CD1C0F34622616B01398A4216D1C0F362
:103AF0000642A16B01398A4210D1C0F30660E16B26
:103B0000013988420AD1706BA16CC0F3CC008142AC
:103B100040F09C81002001B0F0BD00BF012001B049
:103B2000F0BD00BF60690028706F4FD040F0010009
:103B30007067FEF7CDFA0546706F8007ADD4FEF7CB
:103B4000C7FA401B0228F7D9B5E000BFA0690028DA
:103B5000306871D040F480503060FEF7B9FA054605
:103B6000306880049CD4FEF7B3FA401B0228F7D9D2
:103B7000A1E000BFE0690028306800F09F8040F0BD
:103B800080003060FEF7A4FA054600BF3068C0052B
:103B90003FF579AFFEF79CFA401B02284FF0030077
:103BA000F4D951E7D6F8000440F48070C6F8000458
:103BB000FEF78EFA054600BFD6F80004C00529D4EA
:103BC000FEF786FA401B6428F6D974E020F0010065
:103BD0007067FEF77DFA0546706F80077FF55DAF71
:103BE000FEF776FA401B02284FF00300F4D92BE7CA
:103BF00021F001003060FEF76BFA0546306840079F
:103C00007FF52BAFFEF764FA401B02284FF003004C
:103C1000F4D919E7A068002800F08480052800F096
:103C20009B80012800F09C80306F20F001003067FD
:103C3000306F20F0040096E020F480503060FEF7F2
:103C400047FA0546306880047FF52AAFFEF740FA50
:103C5000401B02284FF00300F4D9F5E6306820F449
:103C600080303060306820F480203060FEF730FA19
:103C7000054600BF306880037FF583AEFEF728FA63
:103C8000401B64284FF00300F4D9DDE6306840F4AF
:103C900080203060306840F480303060FEF718FAE1
:103CA000054600BF306880033FF56BAEFEF710FAA3
:103CB000401B6428F6D9032001B0F0BD20F080003D
:103CC0003060FEF705FA05463068C0057FF5E2AEC4
:103CD000FEF7FEF9401B02284FF00300F4D9B3E6CB
:103CE000306820F080703060FEF7F2F9022D054652
:103CF0000CD100BF3068800148D5FEF7E9F9401BC0
:103D000002284FF00300F5D99EE600BF306880011D
:103D10007FF500AFFEF7DCF9401B02284FF00300EF
:103D2000F4D991E6306F20F001003067306F20F059
:103D300004003067FEF7CCF9054641F28837306F52
:103D400080077FF5B1AEFEF7C3F9401BB8424FF0D4
:103D50000300F4D978E600BF306F40F0040030670C
:103D6000306F40F001003067FEF7B2F9054641F2CE
:103D7000883700BF306F80073FF596AEFEF7A8F991
:103D8000401BB8424FF00300F4D95DE604F1280768
:103D9000B06A40F2F33188438ECF0843591E40EA9F
:103DA00002104FF47E426FF35F21B06202EB4720B6
:103DB0004FF4FE0280B2E36B0844A16B02EB0141B9
:103DC0004FF0FE4201F4FE0102EB0362084402F0F0
:103DD000FE4108443063F06A4FF6F87120F00100AC
:103DE000F062706BA26C884340EAC2007063F06AB4
:103DF000216C20F00C000843F062F06A616C20F046
:103E000002000843F062F06A40F48030F062F06A29
:103E100040F40030F062F06A40F48020F062F06A12
:103E200040F00100F062306840F080703060FEF7D2
:103E30004FF90446306880013FF56CAEFEF748F953
:103E4000001B02284FF00300F4D9FDE5F06A20F0D2
:103E50000100F062FEF73CF90546FEF739F9A84289
:103E6000FBD0706B4FF6F871A26C884340EAC20039
:103E70007063F06A40F00100F062002001B0F0BD14
:103E800070470000000000007047000000000000C4
:103E90007047000000000000B0B590F83C20012AF7
:103EA0004FF0020263D080F83D2040F2004C0268DF
:103EB000C4F2010C42F4806363455368D2F808E011
:103EC00002BF23F470034C6823434DF6FF740D6862
:103ED000C4F2000423F07003A24243EA05035360D6
:103EE00014DC40F2FF73C4F200039A4222DD40F674
:103EF0000003C4F200039A422ED040F60043C4F2FD
:103F000000039A4228D041F6000321E04FF6FF73E8
:103F1000C4F200039A4213DD0023C4F201039A4263
:103F20001AD044F20003C4F201039A4214D062454D
:103F300012D016E0B2F1804F0ED040F2004307E0FD
:103F40004EF20003C4F200039A4205D04EF2004341
:103F5000C4F200039A4204D12EF080038968194309
:103F600091600022012180F83D1080F83C2010462D
:103F7000B0BD00000000000060B310B5044690F82A
:103F80003D0028B9002084F83C00204600F024F8C9
:103F9000022084F83D002068211D01F019FA01205B
:103FA00084F8480084F83E0084F83F0084F840001C
:103FB00084F8410084F8420084F8430084F8440007
:103FC00084F8450084F8460084F8470084F83D00F2
:103FD000002010BD0120704781B00068A0F1804032
:103FE000A0F580504FEAB020042842D8DFE800F066
:103FF00004144124340000BF44F2E840C5F6020036
:10400000016841F010010160006800F010000090AC
:10401000009801B0704700BF44F2E840C5F60200C6
:10402000016841F020010160006800F0200000906C
:10403000009801B0704700BF44F2E840C5F60200A6
:10404000016841F080010160006800F0800000908C
:10405000009801B0704700BF44F2E840C5F6020086
:10406000016841F480710160006800F48070009084
:10407000009801B07047000090F83D10012927D149
:10408000022180F83D1001684DF6FF70C4F2000077
:104090008142C86840F00100C8601BDC40F2FF703C
:1040A000C4F2000081422DDD40F60000C4F20000A1
:1040B00081423DD040F60040C4F20000814237D03A
:1040C00041F60000C4F20000814231D03CE000BF64
:1040D000012070474FF6FF70C4F2000081421BDDE3
:1040E0000020C4F20100814222D044F20000C4F258
:1040F000010081421CD040F20040C4F20100814224
:1041000016D021E0B1F1804F12D040F20040C4F24D
:10411000000081420CD017E04EF20000C4F2000013
:10412000814205D04EF20040C4F2000081420BD122
:1041300007228868C0F2010202400020062A18BF48
:10414000B2F5803F00D17047086840F00100086078
:1041500000207047000000007047000000000000D1
:10416000F0B581B004460068C5680669B10717D587
:1041700015F0020114D06FF00201016101212177D5
:104180008069800704D02046FFF7E6FF06E000BF05
:10419000204600F09DF8204600F09EF80020207791
:1041A000700719D515F0040016D020686FF00401CF
:1041B000016102212177806910F4407F04D02046FC
:1041C000FFF7CAFF06E000BF204600F081F8204656
:1041D00000F082F800202077300717D515F008008E
:1041E00014D020686FF00801016104212177C069B3
:1041F000800703D02046FFF7AFFF05E0204600F020
:1042000067F8204600F068F800202077F00619D5FE
:1042100015F0100016D020686FF010010161082120
:104220002177C06910F4407F04D02046FFF794FF47
:1042300006E000BF204600F04BF8204600F04CF8A6
:1042400000202077F00718BF15F0010006D0206885
:104250006FF001010161204600F042F805F080078F
:1042600016F4025F18BF002F02D1F00509D410E048
:1042700020686FF4025101612046FFF705FEF0054A
:1042800007D537B120686FF4807101612046FFF7D0
:10429000F7FD700609D515F0400006D020686FF0D4
:1042A00040010161204600F027F8B0060CD515F05A
:1042B000200009D020686FF020010161204601B084
:1042C000BDE8F040FFF7E4BD01B0F0BD0000000024
:1042D0007047000000000000704700000000000070
:1042E00000210068C4F20101884218BF7047FDF741
:1042F000F7BE000000000000704700000000000052
:1043000090F88410012901D1022070472421C0F8BF
:10431000881002681368116823F0005321F001012E
:1043200011600021416613602022C0F8882080F8C7
:10433000841008467047000070B590F88420012A68
:1043400002D1022070BD00BF2422C0F8882002687C
:10435000D0F864E0BEF1000FD2F800C0136823F07B
:1043600001031360936823F0606341EA03019160E5
:104370001AD091684AF2580E9368C0F6000E5B0F8F
:104380004AF26005C1F34266C0F600051EF803401C
:10439000E95C2301B3FBF1F11EF80630AE5D1B01B1
:1043A000B3FBF6F302E000BF01210123A0F86A107D
:1043B0002021A0F86830C2F800C0C0F888100021A1
:1043C00080F88410084670BD70B590F88420012AEA
:1043D00002D1022070BD00BF2422C0F888200268EC
:1043E000D0F864E0BEF1000FD2F800C0136823F0EB
:1043F00001031360936823F0604341EA0301916075
:104400001AD091684AF2580E9368C0F6000E5B0FFE
:104410004AF26005C1F34266C0F600051EF803408B
:10442000E95C2301B3FBF1F11EF80630AE5D1B0120
:10443000B3FBF6F302E000BF01210123A0F86A10EC
:104440002021A0F86830C2F800C0C0F88810002110
:1044500080F88410084670BD10B5E0B10446D0F86D
:10446000880028B9002084F88400204600F028F84D
:104470002420C4F888002068A16A0268002922F07C
:104480000101016002D0204601F05EF8204601F0F3
:1044900087F9012802D1012010BD00BF20684168C2
:1044A00021F490414160816821F02A018160016816
:1044B00041F0010101602046BDE8104001F0B4B8B0
:1044C000F0B5B5B000210446CDE93311CDE9311185
:1044D000309102A8B821FCF754F847F2FF71206828
:1044E000C4F2000188423BDD40F6FF71C4F20101D5
:1044F000884200F38D8047F60001C4F20001884233
:1045000000F0CC8047F60041C4F20001884240F040
:104510007C8102A80024039402250295FEF75CFA30
:1045200008B1FCF7E5FB44F2E040C5F60200816803
:1045300041F000418160816801F0004101910199E1
:10454000016841F010010160006800F01000019066
:1045500001980320CDE93005CDE932440820C4E0BC
:1045600044F20041C4F20001884200F0C58044F6E4
:104570000041C4F20001884200F0E68045F20001EB
:10458000C4F20001884240F0408102A80024039454
:1045900002250295FEF720FA08B1FCF7A9FB44F2C8
:1045A000E04041F20007C5F60200C5F60207082602
:1045B000816841F480118160816801F4801101916A
:1045C0000199016841F004010160016801F00401F2
:1045D00001910199016841F008010160006830A96A
:1045E00000F00800019001984FF48050CDE93005AB
:1045F000A7F500603496CDE93245FDF76DFC042047
:104600003496CDE93005CDE93244A7F58064F8E071
:1046100041F20001C4F20101884200F0C38041F67A
:104620000041C4F20101884240F0EF800120029075
:1046300002A800250395FEF7CFF908B1FCF758FB57
:1046400044F2E04041F20004C5F60200C5F602045F
:104650000226016941F080010161016901F08001D8
:1046600001910199016841F010010160006830A9D1
:1046700000F010000190019804203090CDE93350F3
:104680002046CDE93165FDF727FC0820CDE930064D
:10469000CDE932550B203490B3E000BF02A80024CE
:1046A000039402250295FEF797F908B1FCF720FB69
:1046B00044F2E040C5F60200816841F0804181602B
:1046C000816801F0804101910199016841F0100178
:1046D0000160006800F01000019001984FF4C07074
:1046E000CDE930050720CDE9324441F20004349091
:1046F000C5F6020485E000BF02A800240394022549
:104700000295FEF769F908B1FCF7F2FA44F2E040CD
:10471000C5F60200816841F400318160816801F4CE
:10472000003101910199016841F0010101600068C7
:1047300000F00100019001980C20CDE93005CDE991
:104740003244072026E000BF02A80024039402257B
:104750000295FEF741F908B1FCF7CAFA44F2E040CD
:10476000C5F60200816841F400218160816801F48E
:10477000002101910199016841F001010160006887
:1047800000F00100019001980320CDE930050820D8
:10479000CDE9324441F200013490C5F60201A1F5A1
:1047A00080542EE00120029002A800240394FEF71A
:1047B00013F908B1FCF79CFA44F2E040C5F6020098
:1047C000016941F010010161016901F010010191DD
:1047D0000199016841F002010160006841F20001A5
:1047E00000F002000190C5F6020101984FF440402C
:1047F000309002203394CDE9310404203490A1F5A7
:10480000406430A92046FDF767FB35B0F0BD0000DD
:10481000FEE700000000000080B540F230204AF2C0
:104820000001C2F20040C4F200014FF0010C4FF051
:10483000050E01600021C0E90211A0F810C002229B
:1048400081740D23C0F814E08261C0E90732C0E929
:1048500009E2C0E90B32C0E90D1CC0F83CC02022BF
:1048600002640422C0E91121C0E91321C0E9152125
:10487000C1651023C0E918318266FCF701FE0028EB
:1048800008BF80BDBDE88040FCF732BA00000000E0
:1048900080B540F2D0204AF20041C2F20040C4F29A
:1048A00000014FF0010C4FF0050E01600021C0E93E
:1048B0000211A0F810C0022281740D23C0F814E088
:1048C0008261C0E90732C0E909E2C0E90B324FF466
:1048D0008072C0F83CC0C0E90D2C20220264042282
:1048E000C165C0E91121C0E91321C0E915211023D8
:1048F0008266C0E91831FCF7C3FD002808BF80BDFF
:10490000BDE88040FCF7F4B980B540F270304DF25C
:104910000041C2F20040C4F200014FF0010C4FF020
:10492000050E01600021C0E90211A0F810C00222AA
:1049300081740D23C0F814E08261C0E90732C0E938
:1049400009E2C0E90B324FF40072C0F83CC0C0E984
:104950000D2C202202640422C165C0E91121C0E9A6
:104960001321C0E9152110238266C0E91831FCF734
:1049700087FD002808BF80BDBDE88040FCF7B8B9BE
:1049800080B5FBF779FF10B90120FCF751F845F22B
:10499000F9104AF26802C0F60000C0F600020021D9
:1049A00002F0DAFB40F22C21C2F20041086080BD27
:1049B00081B044F2E040C5F60200016841F0100108
:1049C0000160016801F0100100910099016841F057
:1049D00080010160016801F0800100910099016887
:1049E00041F001010160016801F0010100910099AD
:1049F000016841F002010160016801F002010091CB
:104A00000099016841F008010160016801F00801A6
:104A100000910099016841F004010160006800F014
:104A200004000090009801B07047000000000000F2
:104A300080B540F6401041F60041C2F20040C4F299
:104A400000014FF6FF7201600021C0E90111C0E9C9
:104A500003218161FFF790FA002808BF80BDBDE8FF
:104A60008040FCF745B9000080B540F68C1042F25A
:104A70000001C2F20040C4F200014FF6FF72016073
:104A80000021C0E90111C0E903218161FFF774FA37
:104A9000002808BF80BDBDE88040FCF729B90000B0
:104AA00010B584B040F6D81041F20001C2F20040C7
:104AB00000240294C4F20001C0E9001484604FF69F
:104AC000FF71C1608461FFF757FA08B1FCF710F974
:104AD00040F6D81001A9C2F2004001940394FFF7F8
:104AE000DBF908B1FCF704F904B010BD00000000C8
:104AF00010B584B040F6242041F20041C2F20040DB
:104B000000240294C4F20001C0E9001484604FF64E
:104B1000FF71C1608461FFF72FFA08B1FCF7E8F874
:104B200040F6242001A9C2F2004001940394FFF74B
:104B3000B3F908B1FCF7DCF804B010BD00000000C8
:104B400080B540F62C4044F60041C2F20040C4F269
:104B500000010C2201604FF4E13141600021C0E905
:104B600002110161C0E90521C0E90711C0E909117D
:104B7000FFF772FC08B1FCF7BBF840F62C400021AF
:104B8000C2F20040FFF720FC08B1FCF7B1F840F694
:104B90002C400021C2F20040FFF7CEFB08B1FCF729
:104BA000A7F840F62C40C2F20040FFF7A9FB00280E
:104BB00008BF80BDBDE88040FCF79AB80000000047
:104BC00080B540F6C04045F20001C2F20040C4F298
:104BD00000010C2201604FF4E13141600021C0E985
:104BE00002110161C0E90521C0E90711C0E90911FD
:104BF000FFF732FC08B1FCF77BF840F6C04000211B
:104C0000C2F20040FFF7E0FB08B1FCF771F840F694
:104C1000C0400021C2F20040FFF78EFB08B1FCF754
:104C200067F840F6C040C2F20040FFF769FB002879
:104C300008BF80BDBDE88040FCF75AB80000000006
:104C400080B540F6545047F60001C2F20040C4F26D
:104C500000010C2201604FF4E13141600021C0E904
:104C600002110161C0E90521C0E90711C0E909117C
:104C7000FFF7F2FB08B1FCF73BF840F65450002177
:104C8000C2F20040FFF7A0FB08B1FCF731F840F694
:104C900054500021C2F20040FFF74EFB08B1FCF770
:104CA00027F840F65450C2F20040FFF729FB0028D5
:104CB00008BF80BDBDE88040FCF71AB800000000C6
:104CC00080B540F6E85047F60041C2F20040C4F219
:104CD00000010C2201604FF4E13141600021C0E984
:104CE00002110161C0E90521C0E90711C0E90911FC
:104CF000FFF7B2FB08B1FBF7FBFF40F6E8500021DD
:104D0000C2F20040FFF760FB08B1FBF7F1FF40F68D
:104D1000E8500021C2F20040FFF70EFB08B1FBF79C
:104D2000E7FF40F6E850C2F20040FFF7E9FA00283A
:104D300008BF80BDBDE88040FBF7DABF000000007F
:104D400080B540F6043041F60041C2F20040C4F2A2
:104D500001010C2201604FF4E13141600021C0E902
:104D600002110161C0E90521C0E90711C0E909117B
:104D7000FFF772FB08B1FBF7BBFF40F604300021E0
:104D8000C2F20040FFF720FB08B1FBF7B1FF40F68D
:104D900004300021C2F20040FFF7CEFA08B1FBF761
:104DA000A7FF40F60430C2F20040FFF7A9FA00283E
:104DB00008BF80BDBDE88040FBF79ABF000000003F
:104DC00080B540F6702041F20001C2F20040C4F20A
:104DD00001010C2201604FF4E13141600021C0E982
:104DE00002110161C0E90521C0E90711C0E90911FB
:104DF000FFF732FB08B1FBF77BFF40F67020002184
:104E0000C2F20040FFF7E0FA08B1FBF771FF40F68D
:104E100070200021C2F20040FFF78EFA08B1FBF7C4
:104E200067FF40F67020C2F20040FFF769FA0028E1
:104E300008BF80BDBDE88040FBF75ABF00000000FE
:104E400080B540F6983044F20041C2F20040C4F20E
:104E500000010C2201604FF4E13141600021C0E902
:104E600002110161C0E90521C0E90711C0E909117A
:104E7000FFF7F2FA08B1FBF73BFF40F6983000214C
:104E8000C2F20040FFF7A0FA08B1FBF731FF40F68D
:104E900098300021C2F20040FFF74EFA08B1FBF74C
:104EA00027FF40F69830C2F20040FFF729FA0028A9
:104EB00008BF80BDBDE88040FBF71ABF00000000BE
:104EC00080B540F210400021C2F20040C4F204015B
:104ED0000160092101714FF40071C1800221C0F805
:104EE00009100021C1810174FDF75AFA002808BF9A
:104EF00080BDBDE88040FBF7FBBE00000000000065
:104F0000FEE7000000000000FEE7000000000000D7
:104F1000EFF30980BFF36F8F154B1A681EF0100F67
:104F200008BF20ED108A20E9F04F10602DE909003C
:104F30004FF0500072B680F31188BFF34F8FBFF36C
:104F40006F8F62B603F05CFC4FF0000080F31188B5
:104F5000BDE8090019680868B0E8F04F1EF0100FAE
:104F600008BFB0EC108A80F30988BFF36F8F7047D9
:104F70006C0F002400000000F0B581B044F22C4713
:104F8000C5F6020757F8042C02F00302032A03D1E6
:104F9000012001B0F0BD00BF054657F82C0C0C46AF
:104FA00020F0806047F82C0CFDF792F8064600BF11
:104FB00057F82C0C000105D5FDF78AF8801B022854
:104FC000F6D964E057F8040CEE6895E80E0020F47A
:104FD0007C30012C40EA0130A2F101016FF35F2126
:104FE0004FF47E4202EB432247F8040C92B24FF09A
:104FF000FE4302EB01004FF4FE012A6901EB06417A
:1050000001F4FE0103EB0262084402F0FE41084491
:10501000F8603868696920F0C00040EA0100386033
:105020003868A96920F0200040EA0100386038683B
:105030004FF6F87120F0100038603869EA6920EA0C
:1050400001004FF4001140EAC2003861386808BF1F
:105050004FF4801140F01000002C386008BF4FF46E
:10506000002138680843386057F82C0C40F0806005
:1050700047F82C0CFDF72CF8044600BF57F82C0C11
:10508000000107D4FDF724F8001B0328F6D3032002
:1050900001B0F0BD002001B0F0BD00000000000034
:1050A000F0B581B044F22C47C5F6020757F8042C3E
:1050B00002F00302032A03D1012001B0F0BD00BFBA
:1050C000054657F82C0C0C4620F0805047F82C0C65
:1050D000FCF7FEFF064600BF57F82C0C800005D5F4
:1050E000FCF7F6FF801B0228F6D964E057F8040CA1
:1050F000EE6895E80E0020F07C70012C40EA01502B
:10510000A2F101016FF35F214FF47E4202EB4322D3
:1051100047F8040C92B24FF0FE4302EB01004FF44B
:10512000FE012A6901EB064101F4FE0103EB026274
:10513000084402F0FE41084478613868696920F447
:10514000406040EA010038603868A96920F40070C6
:1051500040EA0100386038684FF6F87120F480703A
:105160003860B869EA6920EA01004FF0807140EACE
:10517000C200B861386808BF4FF4000140F4807085
:10518000002C386008BF4FF480013868084338604D
:1051900057F82C0C40F0805047F82C0CFCF798FF87
:1051A000044600BF57F82C0C800007D4FCF790FF92
:1051B000001B0328F6D3032001B0F0BD002001B08E
:1051C000F0BD000000000000000000000000000032
:1051D000074B19680868B0E8F04F80F30988BFF3FF
:1051E0006F8F4FF0000080F31188704700BF00BF41
:1051F0006C0F002400000000FBF712FB01F0A4FF7D
:1052000080B54EF21000CEF20000006804F04CFBB6
:10521000012808BF80BDBDE8804003F08DBD0000BF
:10522000B0B59CB044F61804022000251195CDE9D4
:105230000F55CDE90D55CDE90B550895C5F602047E
:10524000CDE90655CDE90455CDE902550195FDF7A7
:105250004BFA0095206820F440402060206800F45C
:105260004040009000982068800409D420688004A1
:105270005CBF20685FEA804002D420688004F2D5D9
:10528000012009904FF480310A9102212C22CDE9AE
:10529000152004201491CDE917010C20199009A8BC
:1052A0000024CDE91211CDE91A44FEF75DFB18B1D7
:1052B00072B600BFFEE700BF3F20019003204FF40D
:1052C0008061CDE90204082004904020CDE905006A
:1052D000CDE9071001A80321FEF7D2F810B172B68C
:1052E000FEE700BF1CB0B0BD4EF6885042F2000C85
:1052F000CEF20000C5F2002C026842F47002026097
:10530000DCF8000000F00F00062806D8DCF80000EA
:10531000072262F30300CCF8000044F200404EF68E
:105320007F51C5F60200CEF6F621026842F0010276
:10533000026000220261036819400160DCF800107D
:10534000090706D5DCF80010072363F30301CCF846
:10535000001040F200218261C261C0F202210262AB
:1053600081620021C0F2FF11C16240F28021C0F2CF
:105370000111016342638163C26301644264016895
:1053800021F4802101600266D0F8D410C90448BF1E
:105390007047D0F8D41043F2D20241F48051C0F8E3
:1053A000D41044F20001C5F200210A60D0F8D410F4
:1053B00021F48051C0F8D4107047000000000000B4
:1053C00040F6F400C2F20040FEF7CABE0000000042
:1053D00010B540F6FF32D0F800E0C4F2000290426F
:1053E00010DCB0F1804F1ED040F20043C4F2000345
:1053F000984218D040F60003C4F20003984212D03D
:1054000016E000BF40F60043C4F2000398420AD001
:1054100040F20043C4F20103984204D00023C4F2D6
:105420000103984204D12EF070024B6843EA020E49
:105430004EF2FF3343F6FF7CC4F20003C4F2010CCA
:10544000984213DD60452BDC4EF20043C4F20003AA
:10545000984242D00023C4F2010398423DD040F26A
:105460000043C4F20103984237D03BE040F2FF739F
:10547000C4F20003984227DD40F60003C4F20003A3
:1054800098422AD040F60043C4F20003984224D048
:105490004EF20003C4F2000398421ED022E000BF87
:1054A00044F20003C4F20103984216D044F600030C
:1054B000C4F20103984210D044F20043C4F2010345
:1054C00098420AD00EE000BFB0F1804F05D040F204
:1054D0000043C4F20003984204D12EF44072CB681A
:1054E00043EA020E4B6960450A688C68C4628262B6
:1054F00012DD44F20002C4F20102904217D044F6D9
:105500000002C4F20102904211D044F20042C4F2FF
:10551000010290420BD00CE00022C4F20102904242
:1055200005D040F20042C4F20102904201D1096963
:105530000163016841F004010160012141612EF025
:1055400080011943016010BD816A0A070CD4CA07A3
:1055500015D18A071ED44A0727D4CA0630D48A0632
:1055600039D44A0655D541E00268D0F838C05368AE
:1055700023F4004343EA0C035360CA07E9D00268EE
:10558000D0F82CC0536823F4003343EA0C03536073
:105590008A07E0D50268D0F830C0536823F480331E
:1055A00043EA0C0353604A07D7D50268D0F834C0E9
:1055B000536823F4802343EA0C035360CA06CED514
:1055C0000268D0F83CC0936823F4805343EA0C038C
:1055D00093608A06C5D50268D0F840C0936823F46A
:1055E000005343EA0C0393604A0612D50268D0F8D0
:1055F00044C0BCF5801F536823F4801343EA0C03B6
:10560000536006D1536823F4C00C836C43EA0C0347
:105610005360090658BF70470168C06C4A6822F49D
:105620000022104348607047B0B582B004460020A5
:10563000C4F89000FCF74CFD216805460A68120783
:1056400037D54FF4001100226FF07E4000902046C5
:105650002B4600F011FB58B3206850E8000F21687A
:1056600020F0800041E80002F2B1206850E8000F0D
:10567000216820F0800041E80002002A1FBF206856
:1056800050E8000F216820F080001CBF41E80002B4
:10569000002A09D0206850E8000F216820F080001F
:1056A00041E80002002AD7D12020C4F8880062E037
:1056B00021680868400765D54FF4800100226FF02B
:1056C0007E40009020462B4600F0D6FA002859D0A4
:1056D000206850E8000F216820F4907041E8000233
:1056E000F2B1206850E8000F216820F4907041E882
:1056F0000002002A1FBF206850E8000F216820F434
:1057000090701CBF41E80002002A09D0206850E8D0
:10571000000F216820F4907041E80002002AD7D1E0
:10572000206850E8020F216820F0010041E80202E1
:10573000F2B1206850E8020F216820F0010041E832
:105740000202002A1FBF206850E8020F216820F0E3
:1057500001001CBF41E80202002A09D0206850E87D
:10576000020F216820F0010041E80202002AD7D18F
:105770002020C4F88C000320002184F8841002B09B
:10578000B0BD00BF2020C4F88800C4F88C00002001
:10579000E0662067002184F8841002B0B0BD0000EC
:1057A00070B584B00446006804F1080340F6004E6A
:1057B000E669C5F6000E0ECB194363690B4346F646
:1057C000F3110568CCF6FF7133432940194301609A
:1057D00041684FF2FF4321F44051704541EA020114
:1057E0004160A269C1F2FF131CBF216A0A438168AC
:1057F00044F2544C1940C5F6020C1143816047F63F
:10580000FF32C16AC4F2000221F00F01656A9042C2
:105810004FF0800341EA0501C16219DD41F2FF71D9
:10582000C4F2010188422DDC47F60041C4F20001B8
:10583000884257D041F20001C4F20101884239D0B8
:1058400041F20041C4F20101884233D057E000BF69
:1058500044F6FF31C4F20001884237DD44F60041CE
:10586000C4F2000188423DD045F20001C4F20001BB
:10587000884237D047F60001C4F20001884231D097
:105880003DE000BF41F60001C4F20101884211D0A1
:1058900041F60041C4F2010188420BD070452ED17F
:1058A000DCF8041001F00702062A80F081800FF274
:1058B000BC3122E0DCF80010C1F3C202062A80F0FD
:1058C000778049F69261C0F6000116E044F200418B
:1058D000C4F20001884205D044F60001C4F2000180
:1058E00088420CD1DCF8001001F00702062A80F093
:1058F0005F8049F68C61C0F600018B181B787045FB
:1059000040F60010C0F23D0000F05A80B6F5004F9E
:1059100040F08480402B4FF0010100F29E81DFE8CF
:1059200013F0410019019C019C011F019C019C0185
:105930009C0127019C019C019C019C019C019C01F4
:105940009C012F019C019C019C019C019C019C01DC
:105950009C019C019C019C019C019C019C019C015F
:105960009C013F019C019C019C019C019C019C01AC
:105970009C019C019C019C019C019C019C019C013F
:105980009C019C019C019C019C019C019C019C012F
:105990009C019C019C019C019C019C019C019C011F
:1059A0009C013D01FDF7F4FE002840F0D680E5E0C3
:1059B0008023704540F60010C0F23D007FF4A6AF92
:1059C0009A1E01211E2A00F27780DFE812F01F00E4
:1059D00046017B004601460146018300460146011F
:1059E000460146014601460146018D004601460139
:1059F000460146014601460146014601460146016F
:105A0000460146014601460146019A00FCF7A0FE08
:105A1000002800F06680656A73E000BF402B4FF0FD
:105A2000010100F21A81DFE813F04100D9001801EA
:105A30001801DF00180118011801E700180118010A
:105A400018011801180118011801EF0018011801B8
:105A5000180118011801180118011801180118017E
:105A600018011801180118011801FF001801180188
:105A7000180118011801180118011801180118015E
:105A8000180118011801180118011801180118014E
:105A9000180118011801180118011801180118013E
:105AA00018011801180118011801FD00FDF770FE1A
:105AB000002840F09680A5E0402B40F0CE804FF4C7
:105AC00000401EE001A8FCF757FE029800287FF472
:105AD000A2AF06E001A8FCF7E7FE029800287FF4D9
