:020000040800F2
:10000000182501246D030008D1590008D9520008B1
:10001000C959000821170008C17600080000000037
:10002000000000000000000000000000E15D00088A
:100030002917000800000000E1590008115E0008BF
:100040008B0300088B0300088B0300088B03000858
:100050008B0300088B0300088B0300088B03000848
:100060008B0300088B0300088B0300088B03000838
:100070008B0300088B0300088B0300088B03000828
:100080008B0300088B0300088B0300081918000875
:10009000291800088B0300088B0300088B03000855
:1000A0008B030008D15F00088B0300088B03000856
:1000B0008B0300088B0300088B0300088B030008E8
:1000C0008B0300088B0300088B0300088B030008D8
:1000D0008B0300088B0300088B0300088B030008C8
:1000E0008B0300088B030008000000008B0300084E
:1000F0008B0300088B0300088B0300088B030008A8
:100100008B0300088B0300088B0300088B03000897
:100110008B0300088B0300088B0300088B03000887
:100120008B0300088B0300088B0300088B03000877
:100130008B0300088B0300088B0300088B03000867
:1001400000000000000000000000000000000000AF
:100150008B0300088B0300088B0300088B03000847
:100160008B0300088B0300088B0300088B03000837
:100170008B0300088B0300088B03000800000000BD
:100180008B0300088B0300088B0300088B03000817
:100190008B0300088B0300088B0300088B03000807
:1001A0008B0300088B0300088B030008000000008D
:1001B0008B0300088B0300088B0300088B030008E7
:1001C0008B0300088B030008000000000000000003
:1001D00000000000000000008B0300080000000089
:1001E000000000000000000000000000000000000F
:1001F00000000000000000008B0300088B030008D3
:100200008B0300088B030008000000008B0300082C
:100210008B0300088B0300088B0300088B03000886
:100220008B030008000000008B03000800000000A2
:100230008B0300088B030008000000008B030008FC
:100240008B0300088B0300088B0300088B03000856
:100250008B0300088B0300088B0300088B03000846
:100260008B0300088B0300088B0300088B03000836
:100270008B0300088B0300088B03000800000000BC
:100280008B0300088B0300088B0300088B03000816
:10029000000000008B0300088B0300080000000032
:1002A000000000008B0300088B0300088B0300088C
:1002B0008B0300088B0300088B0300083918000823
:1002C0008B0300088B0300088B03000800F002F882
:1002D00000F03CF80AA090E8000C82448344AAF1A4
:1002E0000107DA4501D100F031F8AFF2090EBAE8A2
:1002F0000F0013F0010F18BFFB1A43F0010318475A
:1003000038AF000058AF0000103A24BF78C878C159
:10031000FAD8520724BF30C830C144BF04680C600B
:10032000704700000023002400250026103A28BF53
:1003300078C1FBD8520728BF30C148BF0B60704757
:100340001FB50AF0BFFC1FBD10B510BD00F07AF953
:100350001146FFF7F5FF07F0B7F900F098F903B47D
:10036000FFF7F2FF03BC00F09BF900000A4880474A
:100370000A4880470A480047FEE7FEE7FEE7FEE737
:10038000FEE7FEE7FEE7FEE7FEE7FEE70548064973
:10039000064A074B70470000E9170008F95E00089D
:1003A000CD020008181F012418250124182101245A
:1003B0001821012453EA020C00F069802DE9F04B6A
:1003C0004FF00006002B1FBFB3FA83F503FA05F4C4
:1003D00024FA05F65E4012BF1643B2FA82F502FA1D
:1003E00005F4C5F120051EBF22FA05FC44EA0C0401
:1003F000203556EA044C4FEA144418BF641C4FF0F1
:1004000000084FF00009904271EB030C39D300292A
:1004100019BFB1FA81F701FA07F6B0FA80F700FACE
:1004200007F6C7F120071EBF20FA07FC46EA0C06B4
:100430002037B6FBF4FCA7EB0507103F07F01F0BB6
:10044000CBF120062CFA06F60CFA0BFB44BFB346A0
:100450000026202FA4BF5E464FF0000B5BEA060C7F
:1004600008BF4FF0010B19EB0B0948EB0608ABFB7B
:10047000027C06FB02CC0BFB03CCC01B71EB0C0116
:10048000C1E70B46024641464846BDE8F08B13B52E
:10049000084318BF4FF0FF300146AFF30080BDE8BE
:1004A0001C407047032A40F2308010F0030C00F02B
:1004B000158011F8013BBCF1020F624498BF11F89E
:1004C00001CB00F8013B38BF11F8013BA2F1040257
:1004D00098BF00F801CB38BF00F8013B11F00303CF
:1004E00000F02580083AC0F0088051F8043B083A33
:1004F00051F804CBA0E80810F5E7121D5CBF51F8D5
:10050000043B40F8043BAFF30080D20724BF11F84E
:10051000013B11F801CB48BF11F8012B24BF00F8B3
:10052000013B00F801CB48BF00F8012B704710B524
:10053000203AC0F00B80B1E81850A0E81850B1E89C
:100540001850A0E81850203ABFF4F5AF5FEA027CDB
:1005500024BFB1E81850A0E8185044BF18C918C00B
:10056000BDE810405FEA827C24BF51F8043B40F8AC
:10057000043B08BF7047D20728BF31F8023B48BF91
:1005800011F8012B28BF20F8023B48BF00F8012BCF
:10059000704702F0FF0343EA032242EA024200F0FE
:1005A00024B84FF000020429C0F0128010F0030CB0
:1005B00000F01B80CCF1040CBCF1020F18BF00F856
:1005C000012BA8BF20F8022BA1EB0C0100F00DB805
:1005D0005FEAC17C24BF00F8012B00F8012B48BF63
:1005E00000F8012B70474FF0000200B51346944607
:1005F0009646203922BFA0E80C50A0E80C50B1F17B
:100600002001BFF4F7AF090728BFA0E80C5048BF8E
:100610000CC05DF804EB890028BF40F8042B08BF2C
:10062000704748BF20F8022B11F0804F18BF00F828
:10063000012B7047704770477047000000487047B3
:10064000180000247546FFF7F9FFAE46050069461D
:10065000534620F00700854618B020B5FFF796FEF8
:10066000BDE820404FF000064FF000074FF00008B3
:100670004FF0000BAC46ACE8C009ACE8C009ACE8F0
:10068000C009ACE8C00921F007018D46704710B5DC
:100690000446AFF300802046BDE81040FFF75FBE80
:1006A00001491820ABBEFEE726000200704700009B
:1006B00010B5B0FA80F34FFA82FC4FEA531EB1FA3C
:1006C00081F40023BCF1010F4FEA5414B8BF012399
:1006D00044EA0E0453EA040C4FF000030CD10270FC
:1006E000C0E90113C0E90333C0E905330377C0E96A
:1006F00008338362C0F82B308CF0010010BD00007D
:10070000B0FA80F3083A4FEA531CB1FA81F34FEA8A
:10071000531318BF012243EA0C031A432CD10B8850
:100720009FED171ADBBA00EE103AB8EEC00A20EEC1
:10073000010AB2EE041A80ED080A4B88DBBA00EE1B
:10074000103AB8EEC00A20EE010A9FED0E1A80EDB5
:10075000090A8B88DBBA00EE103AB8EEC00A20EE28
:10076000010A80ED0A0A8B7980F82C30C97980F86B
:100770002D10012180F82E1082F00100704700BF7B
:10078000CDCCCC3D0AD7233C10B528B1044600F0AF
:1007900063F818B1012010BD002010BD2046BDE84F
:1007A000104000F0D1B800000120704700000000A8
:1007B000B0B5C0B140F27802C2F200421378002B0B
:1007C00008BFB0BD171D90E80850D0E90345406947
:1007D000146187E8085040F60C0355611942906196
:1007E0001CBF00201076B0BD70B5044600284FF045
:1007F000000008BF70BD40F2780640F29035C2F2AA
:100800000046C2F2004501222146C6E90100C6E9C0
:100810000300C6E905002846FFF74AFFC0B105F10D
:10082000300002222146FFF743FF88B105F1600046
:1008300003222146FFF73CFF50B105F1900004224E
:100840002146FFF735FF18B10120307070BD00BFA1
:100850000020307070BD000038B140F27801C2F263
:100860000041097809B1017A11B10020704700BF39
:10087000417A0029F9D040F2903190F804C0C2F2D8
:1008800000410B7863450B460ED00B4613F8302F12
:10089000624509D00B4613F8602F624504D011F869
:1008A000902F0B466245E0D1827A00F10B01184689
:1008B000FFF726BF000000007047000000000000A6
:1008C0007047000000000000F0B581B04FF0000656
:1008D000B0B30C46A1B340F250460546C2F2004602
:1008E00001223046294605F0D7F940F29407C2F2BA
:1008F000004718B306F11C000222294605F0CCF986
:10090000E0B106F138000322294605F0C5F9A8B187
:1009100006F154000422294605F0BEF970B1381DD5
:10092000012200232146012600F002FF07F12400E6
:1009300002220023214600F0FBFE00E000263E706C
:10094000304601B0F0BD000070B5044600284FF0FD
:10095000000046D040F29401C2F200410A78002A19
:1009600008BF70BD207A022822D001283AD1607ACF
:10097000C0B340F25046A37A04F10B05C2F2004620
:10098000616830462A4605F0ABF978B9A37A616808
:1009900006F11C002A4605F0A3F938B9A37A61686C
:1009A00006F138002A4605F09BF9E8B1012070BD38
:1009B000607AB8B9A07A082814D10846626810F89D
:1009C000043F03F500739A4206D011F8240F00F596
:1009D00000708242084605D104F10B0100F0C4FE0C
:1009E000012070BD002070BDA37A616806F154003B
:1009F0002A46BDE8704005F073B900000000000011
:100A000080B540F2C0404FF49071C2F20040FFF751
:100A1000EAFD40F2E0510120C2F2004100220A60EA
:100A200080BD00000000000010B5D0B10446007980
:100A3000032816D8E188402988BF10BD00EBC0000C
:100A400040F2C041C2F20041482201EBC000214601
:100A5000FFF76DFD207940F2E051C2F20041012222
:100A60000A5410BD00000000B0B540F2E455C2F2D7
:100A700000452A7812B10120B0BD00BF00F0E4FCAF
:100A800040B30020002400F0CBFCFFF7ADFEF8B12E
:100A9000012000F0C5FC0446022000F0C1FC014624
:100AA0002046FFF711FFA8B100F04EF890B100F01A
:100AB000C7FA78B1FFF7A4FF60B1FFF775FE48B140
:100AC00000F0AEFA30B100F007F818B101242C7034
:100AD0002046B0BD0020B0BD10B540F23014342126
:100AE000C2F20044201DFFF77EFD0120002121708D
:100AF00010BD000000000000002808BF7047B0B51E
:100B000040F230140269C2F200444569D0E900CED7
:100B1000D0E90231C4E90525C4E90331C4E901CEB5
:100B2000D0E906CED0E90835D0E90A12C4E90B12A3
:100B3000C4E90935C4E907CE006B60630120207069
:100B4000BDE8B0407047000040F2D8010120C2F279
:100B500000410022C1E90122C1E90322C1E90522C5
:100B60000A70704700000000002818BF002901D15A
:100B7000704700BF10B540F2D804C2F2004490E8BC
:100B80000E5040696160A260E360C4F810C0C4F810
:100B900014E0A06101202070BDE810407047000003
:100BA00040F26812C2F20042506504209165107054
:100BB00072B600BF00BF00BF00BF00BFFAE7000071
:100BC00080B540F6194040F6F931C0F60000C0F695
:100BD0000001FFF749FF002840F26810C2F2004010
:100BE0004FF0060118BF71214068BDE8804006F053
:100BF00047BE00000000000068B10078022888BFEE
:100C0000704740F268120121C2F2004201FA00F07E
:100C100091680843906070472DE9F04186B00C9CC4
:100C2000082C0CD81D4653B140F268180F46C2F28A
:100C30000048D8F80C10002918BF002802D106B0CF
:100C4000BDE8F08100780228F9D816468DF80C002E
:100C500009F092FD8DF80D6001AECDE9010700218C
:100C6000CDF8131006F10B00CDF80F1029462246DF
:100C70008DF80E40FFF716FCD8F80C000022002378
:100C8000314606F0B5FF0028D9D040F2E820C2F284
:100C90000040C1680131C16006B0BDE8F0810000CC
:100CA00080B540F26810C2F20040406820B106F002
:100CB0009BFD20EAE07080BD002080BD00000000A8
:100CC000002808BF7047B0B5044640F2E820C2F2E1
:100CD0000040D0E900CED0E90235D0E90412C4E9E1
:100CE0000412C4E90235C4E900CED0E906CED0E949
:100CF0000835D0E90A12C4E90A12C4E90835C4E982
:100D000006CE006B206306F053FE40F268152060AB
:100D1000C2F20045696829B1084606F065FD20EA7F
:100D2000E07000E000206060A8682063BDE8B0408B
:100D30007047000000000000F0B581B040F2E824E8
:100D40004021C2F2004404F13400FFF74CFC34218E
:100D50002046FFF748FC40F268174AF67852C2F284
:100D60000047C0F60002402014210024BC6006F0B9
:100D7000EBFE4AF6B452F860C0F6000204201821D7
:100D800006F0E2FE4AF66C623861C0F6000204200A
:100D9000282106F0D9FE4AF660727861C0F600029A
:100DA0002020182106F0D0FE4AF66052B861C0F645
:100DB000000208201C2106F0C7FE4AF65462F861C2
:100DC000C0F6000204202C2106F0BEFE4AF62C627A
:100DD0003862C0F600020220102106F0B5FE4AF685
:100DE000CC527862C0F600021020482106F0ACFE1A
:100DF0004AF64872B862C0F600020420342106F0B8
:100E0000A3FEF8624AF64460C0F6000006F010FD4A
:100E100078604AF63870C0F6000006F049FFF968BD
:100E20003863E1B1396900291CBF7969002916D0FE
:100E3000B96900291CBFF969002910D0396A002955
:100E40001CBF796A00290AD0B96A00291CBFF96A57
:100E5000002904D07968002918BF002802D1204653
:100E600001B0F0BD41F2C9004AF69052C0F6000050
:100E7000C0F60002002107F063F8786341F24910E0
:100E80004AF60862C0F60000C0F60002002107F032
:100E900057F8B86341F2F9104AF68462C0F60000D0
:100EA000C0F60002002107F04BF8F86341F29930D8
:100EB0004AF61472C0F60000C0F60002002107F0E6
:100EC0003FF8386441F2B9204AF6CC62C0F600001F
:100ED000C0F60002002107F033F8786441F20910EF
:100EE0004AF6E452C0F60000C0F60002002107F006
:100EF00027F8B86441F211304AF6F062C0F60000FB
:100F0000C0F60002002107F01BF8F86441F25920F6
:100F10004AF6A862C0F60000C0F60002002107F001
:100F20000FF807F1340338650ECB002918BF0121F3
:100F3000002A3C6C18BF0122D7E91156002B01EAA8
:100F4000020118BF0123002C18BF0124002D01EA63
:100F5000030118BF0125FA6C2140002E01EA0501AA
:100F600018BF0126002A18BF0122002801EA060145
:100F700018BF0120114001EA0004204601B0F0BD75
:100F8000F0B581B0054606F02FFD002140F2E734B0
:100F9000E0FB05414FF47A72A0FB05670023204671
:100FA000FFF708FA56EA0701014608BF0121002DA4
:100FB00018BF084601B0F0BD40F26811C2F200410E
:100FC000087072B600BF00BF00BF00BFFAE70000A4
:100FD00010B540F268110024C2F20041496841B1E5
:100FE00002460846114606F04BFCB0F1FF3FC8BF71
:100FF0000124204610BD000080B540F26810032196
:10100000C2F2004002224FF0FF33406806F07CFC41
:101010006FF35E000138B0FA80F0400980BD000037
:1010200040F2E8510120C2F2004100220A607047FC
:1010300040F2E851C2F20041086070470000000031
:1010400010B540F2F4042C21C2F2004404F1100067
:10105000FFF7C9FA01200021C4E90011A160E16095
:1010600010BD000000000000002808BF704740F2DB
:10107000F4018368C2F20041D0E900C2C068C1E94E
:1010800000C2C1E902307047002808BF7047B0B500
:1010900040F2F4040269C2F200444569D0E900CE8E
:1010A000D0E90231C4E9082500F11805C4E9063188
:1010B000C4E904CE2ECD806AA06304F128002EC0BE
:1010C000B0BD00000000000086B0FFF795FFC8B17A
:1010D00040F2741540F2E826C2F2004501ACC2F2BB
:1010E000004600BF286800224FF0FF33214606F07B
:1010F000D7FC0028F6D1B0680130B0602046FFF779
:1011000043FBEFE706F028FE92B0FFF775FFC8B18A
:1011100040F2901540F2E826C2F200456C46C2F259
:10112000004600BF286800224FF0FF33214606F03A
:10113000B7FC0028F6D13069013030612046FFF756
:1011400073FCEFE706F008FE90B000202821CDE9FF
:101150000E00CDE90C00CDE90A006846FFF743FA1E
:10116000FFF74AFF002845D006F022FC8146012007
:10117000FFF706FF40F2781440F27C1540F2E82BAE
:101180008046C2F200440AAEC2F200456F46C2F287
:10119000004B03E0484606F0F7FA00BF2068002243
:1011A0000023314606F07CFC0028F7D02868002296
:1011B0000023394606F074FC0028F7D0FFF770FDD5
:1011C000824630465146FFF7F3FA38465146FFF75C
:1011D00077FBDBF82800C1440130CBF8280006F08B
:1011E000E7FBB0EB0900D5D4DBF82C000130CBF8DD
:1011F0002C00CFE706F0B0FD88B000200790CDE9C5
:101200000500CDE90300CDE90100FFF7F5FEF8B1D7
:1012100006F0CEFB40F284170446C2F2004701AD4F
:10122000386800220023294606F03AFCB0FA80F024
:101230004609FFF735FD024628463146FFF73CFBDD
:101240000520FFF79DFE0444204606F09DFAE7E7DF
:1012500006F082FD000000009AB006F0A9FB40F203
:10126000941704460DADC2F200476E460AE000BF77
:101270002846FFF741FC6420FFF782FE0444204625
:1012800006F082FA2846FFF71BFD3868002200238B
:10129000294606F0ADFC0028EAD038680022002379
:1012A000314606F0FDFB386800220023294606F08F
:1012B0009FFCDDE70000000086B00020CDE90400BF
:1012C000CDE90200CDE90000FFF796FEE0B106F09F
:1012D0006FFB40F280160446C2F200466D4600BF26
:1012E000306800220023294606F0DAFBB0FA80F0CD
:1012F00041092846FFF738FC0A20FFF741FE044465
:10130000204606F041FAEBE706F026FD000000005B
:1013100040F26C100321C2F2004002224FF0FF3372
:10132000006806F0F1FA04466FF35E0406F040FB35
:1013300040F27015012C0446C2F2004523D00AE0A9
:10134000FFF7AEFCFFF774FE0A20FFF719FE044416
:10135000204606F019FA28680028F1D040F604006B
:10136000FFF736FEECE700BF40F60400FFF730FE63
:10137000FFF796FCFFF75CFE0A20FFF701FE04442E
:10138000204606F001FA00F09FF80028ECD028680B
:101390000028E9D1ECE7000090B0FFF72DFE00280F
:1013A0003CD040F28C1840F2E82740F28819C2F293
:1013B000004801ACC2F20047C2F2004905AD00BFCF
:1013C000032000214FF0FF3206F0CEFC0028F7D4B6
:1013D0000646C00712D1B007F2D500BFD8F800000A
:1013E00000220023214606F05BFB0028E8D1386A82
:1013F000013038622046FFF737FEEFE7D9F80000EA
:1014000000220023294606F04BFB0028E3D1B869EF
:101410000130B8612846FFF737FEEFE706F09CFC85
:1014200040F2C41200EB8003C2F20042117802EBDA
:101430008302002918BF111D032828BF0021084678
:101440007047000000000000F0B581B040F2C41702
:10145000C2F200473A780AB101262BE0044668B38D
:101460000D4640F22861381DC2F200410022234699
:101470000095002600F044F8E0B140F2C86107F1A1
:101480001800C2F2004101222346009500F038F80E
:10149000A0B140F2687107F12C00C2F200410222B3
:1014A0002346009500F02CF840B101263E703046EE
:1014B00001B0F0BD304601B0F0BD00BF002630469F
:1014C00001B0F0BD00000000F0B581B040F2C416DC
:1014D000C2F20046304610F8047B00F045F804469E
:1014E00006F1180000F040F8054606F12C0000F067
:1014F0003BF828402040384001B0F0BD000000001B
:10150000F0B581B0022A05464FF0000004D81DB1A5
:10151000002918BF002B01D101B0F0BD40F2042614
:101520001446C2F2004606EB8207786800284FF0A6
:101530000000F1D1287428462C70C5E901130699E2
:10154000E9607D6000F040F830B10120287400218E
:10155000315501B0F0BD00BF00207860C5E9010041
:10156000E86001B0F0BD000070B518B10446007825
:10157000022801D9002070BD40F20426C2F20046C4
:10158000305CC8B1656800202074A5B1284601F020
:101590000FF800281CBF002070BD204600F014F892
:1015A00000284FF0000008BF70BDC5F89C002178EE
:1015B00070540120207470BD207C002818BF0120C9
:1015C00070BD00000000000070B58AB010B3446820
:1015D0000025BCB1CDE90855CDE90655022004909F
:1015E00002A92046CDE902550126059600F08CF9A6
:1015F00040B900210022012320460096002500F07A
:10160000CBF918B128460AB070BD00BF204600F0E3
:10161000B3FF18B1002528460AB070BD0121002291
:10162000C0F20021204600F023F938B1204600F036
:10163000BFFF002528460AB070BD00BF012528461F
:101640000AB070BD0000000040F2EC52C2F200424D
:10165000116821B14B7A13B10B6883425ED0516897
:1016600021B14B7A13B10B68834257D0916821B1F5
:101670004B7A13B10B68834250D0D16821B14B7AB9
:1016800013B10B68834249D0116921B14B7A13B170
:101690000B68834242D0516921B14B7A13B10B6878
:1016A00083423BD0916921B14B7A13B10B688342DD
:1016B00034D0D16921B14B7A13B10B6883422DD05C
:1016C000116A21B14B7A13B10B68834226D0516A5B
:1016D00021B14B7A13B10B6883421FD0916A21B1BB
:1016E0004B7A13B10B68834218D0D16A21B14B7A7F
:1016F00013B10B68834211D0116B21B14B7A13B136
:101700000B6883420AD0516B31B14A7A002A08BF74
:1017100070470A68824201D0704700BF486800479E
:10172000FEE700000000000070470000000000001D
:10173000012B03D8002818BF002901D1704700BF32
:10174000A2F1090C1CF1080FF8D3027000224370BB
:10175000C0F80220C0E9022202740283C0F81220FD
:101760008275C16170470000002818BF002901D1AF
:10177000704700BF10B50A88037C12BA4FEA1244C2
:1017800063B183884EF2000CCFF6FF7CE31AB3F509
:10179000805F07DD4FF0FF3E0CE000BF01220274C6
:1017A0000FE000BF0CF58052934207DA4FF0010EB4
:1017B0004FF4005C6344826872448260C2681A44D9
:1017C000C260448084804A8812BA120C42828A889D
:1017D00012BA120C828289798175BDE81040704777
:1017E00072B600BFFEE7000044F60400C5F6020032
:1017F000816841F0020181600168890409D40168AF
:1018000089045CBF01685FEA814102D401688904F0
:10181000F2D570470000000040F22860C2F200409C
:1018200000F01EBA0000000040F2C860C2F20040A2
:1018300000F016BA0000000040F26870C2F20040EA
:1018400000F00EBA00000000B0B5044601F098F9AF
:1018500040F200010546C2F20041621C097818BF3F
:101860000C4400BF01F08CF9401BA042FAD3B0BD7C
:1018700090F89830013B012B0ED80068836D0B4225
:1018800012D0836D0B408B4216D1C36D43F002031F
:10189000C3658B0514D418E000F19C0101200222DD
:1018A0000B681A430A607047C36D43F00103C365B8
:1018B0008B0505D409E000BF0323C3658B0504D560
:1018C000D0F8E0301343C0F8E0304B0504D5D0F831
:1018D000E4301A43C0F8E4204FF6FF72436DC3F6BC
:1018E000CF720A401A4342658A0F4AF6140100205B
:1018F000C4F200010B681A430A6070470000000040
:10190000704700000000000080B590F89820013A70
:10191000012A0BD80A68002ACA680FD00B69072A67
:1019200043EA427E18D18B691BE000BFD0F89C10BF
:1019300041F00201C0F89C10012080BD072A19D196
:101940000A69D1F81CC012048B6942EA0C221A43BE
:1019500042F0605218E000BFD1F808C04B6943EA7A
:101960008C73006F496800EBC10240F831E0002041
:10197000536080BD8B68D1F810C09B0743EAC262F8
:101980004B6942EA0C421A434968C06E40F8212074
:10199000002080BD0000000090F898C0BCF1010F4D
:1019A0000ED19200006842EA0111DDF800C041EA60
:1019B000430141EA0C01C0F880100020704700BFCD
:1019C000D0F89C1041F00401C0F89C100120704731
:1019D00070470000000000008A0123D540F2042C6B
:1019E0000246C2F2004CDCF8040010B14368934296
:1019F0000ED0DCF8080010B1436893420AD0DCF83E
:101A00000C0078B14368934218BF7047022202E08D
:101A1000002200E0012201230CF80230C2680AB162
:101A2000104700BF70470000B422402908BFA4221D
:101A30000068805800F07F00704700000000000040
:101A40002DE9F04390F89870022F27D140292FD12B
:101A50000668D6F8A07017F4FE0F00F0C780D6F81D
:101A6000A4707F0600F0D480D6F8A470D6F8A450F5
:101A7000ED01C7F3052E0AD5D6F8A070B7F1FF3FE8
:101A800005DC0EF10107D6F8A06007EA164E00F15A
:101A9000740400F14405F4463CE000BFD0F89C100B
:101AA00041F00801C0F89C100120BDE8F08300BFA0
:101AB000412925D10668D6F8B07017F4FE0F00F062
:101AC0009580D6F8B4707F0600F0A280D6F8B47086
:101AD000D6F8B450ED01C7F3052E0AD5D6F8B0708C
:101AE000B7F1FF3F05DC0EF10107D6F8B06007EA59
:101AF000164E00F1780400F14C05F4460AE000BFF0
:101B0000076D8F4272D900F17C0400F154054FF04B
:101B1000000C8E462D6824680EFB05F504EB850E3F
:101B200054F8257017F08047576054F8257027F057
:101B3000604608BFC7F38A46166054F8257007F060
:101B40000057976054F8254004F000441461BEF833
:101B50000440D461BEF8064014F00F04D460DEF8EF
:101B6000044004F480145461DEF8044004F40014CA
:101B700094619EF8074004F07F041462DEF804408C
:101B80004FEAD474546228D04AF678780024C0F61C
:101B900000080EEB0406651C377A1F55D76818F845
:101BA0000770BD4219D21F19757A7D70D56818F873
:101BB0000590A51C4D453FBFB57ABD70D56818F896
:101BC00005903CBFE51C4D4507D2F57A0434FD7005
:101BD000D56818F80550AC42DBD3402910D1006815
:101BE000C0F8A8C00020BDE8F08300BFD0F89C106A
:101BF00041F02001C0F89C100120BDE8F08300BF37
:101C000041290FD10068C0F8B8C00020BDE8F083BA
:101C1000D0F89C1041F48071C0F89C100120BDE800
:101C2000F08300BF1F2909D80068012202FA01F1E0
:101C3000C0F898100020BDE8F08300BF006801F0F4
:101C40001F01012202FA01F1C0F89C100020BDE83A
:101C5000F08300000000000070470000000000005A
:101C60002DE9F04F89B004464AF61000C4F2000096
:101C700001684AF61400C4F200000268206802EA13
:101C80000108056DD0F85490036D0293436D0193E4
:101C9000036D0493436D0393036D0893436D0793A2
:101CA000036D0693436D0593D0F854A0D0F850B05F
:101CB0005FEACA530ED51BF480710BD04FF48071CC
:101CC00001654AF610010020C4F2000108602046B8
:101CD000FFF7C2FF05EA09064AF610095FEA4A5013
:101CE000C4F200094FEA887711D51BF480600ED04A
:101CF0002068D0F8DC10D0F8E42011404FF4806266
:101D000002650020C9F80000204600F02DFEDDE944
:101D1000011000EA010506F4704657B12068002161
:101D2000016508F00300C9F8000020463946FFF7B6
:101D3000E7FDDDE9031000EA010705F00F0546B1F4
:101D40002068314606650020C9F80000204600F0F2
:101D500013FE07F0F00645B120682946056500200E
:101D6000C9F80000204600F0B3FB46B120683146B8
:101D700006650020C9F80000204600F0F9FB5FEA84
:101D80000A500CD51BF4006009D020684FF40061A4
:101D900001650020C9F80000204600F0F1FD5FEA6F
:101DA0008A5011D51BF400700ED02068D0F8D810DE
:101DB000D0F8E02011404FF4007202650020C9F80D
:101DC0000000204600F0D4FD5FEA0A300CD51BF479
:101DD000002009D020684FF4002101650020C9F8D7
:101DE0000000204600F070FB5FEACA300CD51BF4FF
:101DF000803009D020684FF4803101650020C9F897
:101E00000000204600F0ACFD5FEA4A30DDE9051035
:101E100000EA01050CD51BF4802009D020684FF49E
:101E2000802101650020C9F80000204600F094FDE3
:101E30005FEA8A30DDE9071000EA010005F0607111
:101E40000FD51BF400320CD022684FF40033136519
:101E50000022C9F80020D4F89C2042F08002C4F887
:101E60009C2000F0715539B1206801650020C9F847
:101E700000002046FFF7B0FD206845B10565002150
:101E8000C9F80010D4F89C102943C4F89C10A9F597
:101E9000016188420AD0D4F89C00002868D020460E
:101EA00009B0BDE8F04FFFF793BD00BF60688168DF
:101EB0008907F0D0016A426A036A476A114003EA5F
:101EC000070202F03005D0F82080D0F82490D0F836
:101ED00020B0D0F824A0026A089211F00F01426AE3
:101EE0000792466A026A069203D00162204600F019
:101EF00027FD08EA09072DB16068294605622046DA
:101F000000F026FD70060BEA0A0607F4C0750ED530
:101F1000069810F040000AD060684023C16BC26B85
:101F2000090C02F03F020362204600F00DFDDDE9DE
:101F3000071000EA010706F4FC462DB16068294647
:101F40000562204600F0F8FC07F4F02036B1616825
:101F50000E62D4F89C103143C4F89C1000289AD02B
:101F600061680862D4F89C100843C4F89C0092E7AA
:101F700009B0BDE8F08F00002DE9F04F85B0A8B39F
:101F80004AF200080446C4F200080068404531D017
:101F900094F89810A9B3816921F01001816100F0D3
:101FA000EFFD054620688169090705D500F0E8FDC9
:101FB000401B0B28F6D310E0816941F001018161DB
:101FC00000F0DEFD054600BF20688169C90721D108
:101FD00000F0D6FD401B0B28F6D30120D4F89C104E
:101FE0000843C4F89C00032084F89800012005B041
:101FF000BDE8F08F08F58071616094F898100029B1
:10200000C9D1002084F89900204600F0B5F9206875
:10201000C1E700BF816941F002018161217C8269D1
:1020200022F04002012918BF40328261617C82693E
:1020300022F48042012908BF02F580428261A17C1E
:10204000826922F48052012918BF02F58052826110
:10205000816921F44073D4E902120B4383618369DF
:1020600023F0A4038361036923F0100303619AB191
:10207000012A0DD0022A09D08369032A43F0800384
:102080008361036943F01002026105D1202200E060
:10209000042283691A438261D4E90572E369561EFA
:1020A0006FF0FF02256A02EB0323B1F5407F43EA9C
:1020B0004663A5F1010646EA030640F20003CFF6A7
:1020C000FF7303EB074746EA0701C16110D1D4E96A
:1020D0000B65D4E90917013F02EB06226FF00F06EA
:1020E0003A4306EB05173A4303EB01411143C16044
:1020F000236E2BB1616ED0F8C0201143C0F8C01020
:10210000E16DCDE90313D9424AF6E041C0F6000182
:1021100009D0D0F8C820A36E22F0070251F823306E
:102120001A43C0F8C820D4F840A0BAF1000F09D073
:10213000D0F8BC20636C22F0070251F823301A4318
:10214000C0F8BC20A76C57B1D0F8BC20E36C22F0DB
:10215000700251F8233042EA0312C0F8BC20D4F8D0
:1021600050C0BCF1000F0AD0D0F8BC20636D22F43F
:10217000E06251F8231042EA0121C0F8BC1040454A
:1021800004D161688A6822F003028A600021C4F8E1
:102190009410C4F89C10012184F898104FF6FC723A
:1021A000D0F88410D4F83C9021EA0203656CD4E99D
:1021B0000D120292019543EA8103C0F88430D0F8F1
:1021C000843023F47F0343EA0243C0F88430531879
:1021D000D0F888606FF38F0646EA8306C0F88860FF
:1021E000D0F8886003EB490326F4FE0646EA094668
:1021F000C0F88860D0F8A0606FF38F0646EA8306C7
:10220000C0F8A060D0F8A06005FB0A3326F4FE06F3
:1022100046EA0A46C0F8A060D0F8B0606FF38F06B7
:1022200046EA8306C0F8B060D0F8B06026F4FE0637
:1022300046EA0746C0F8B060E66CD0F8AC506FF3E1
:102240008F0506FB07337E4345EA8305C0F8AC5093
:10225000D4F8548008FB0C35D0F8F0306FF38F03BE
:1022600008FB0CFC43EA8503C0F8F030D0F8F0E03E
:10227000A36D2EF47C1242EA0342C0F8F02005EB75
:102280004302D0F8C0506FF38F0545EA8202C0F8D0
:10229000C020D0F8C020DDF80CB022F47C1242EA55
:1022A0000B42C0F8C020019AD0F8C05025F07C55F0
:1022B00002FB0AFE4AF20002C4F20002DDF810A09E
:1022C00002EB8101029A01F5406145EA0A6501EBE2
:1022D0008207C0F8C05007EBC902A56E02EB8E0062
:1022E000626700EB86060BFB05F2276706EB8C079F
:1022F000C4E91E060AFB05F007EBC30303EB8202E9
:10230000C4F884304DF2FC33E16602EB8000C4F285
:1023100000039842C4F88070C4F88820C4F8900084
:1023200002D920205AE600BF814221D20A4600206D
:1023300042F8040BD4F890309A4215D2486001F16B
:102340000802D4F890309A423FBF0020886001F123
:102350000C02D4F8903038BF9A4205D2C8601031D0
:10236000D4F890209142E1D305B0BDE8F08F00BFD2
:10237000002005B0BDE8F08F10B586B04DF20042E8
:102380000068C4F20002002190420591CDE90311DA
:10239000CDE9011130D04AF20041C4F20001884277
:1023A00054D04AF20001C4F20001884240F0898012
:1023B00040F2843144F2E040C2F20041C5F602002E
:1023C0000A68002A02F101020A6008D1C16841F4DA
:1023D0008071C160C16801F4807100910099016849
:1023E000132441F0080101600068092100F0080091
:1023F00000900098032023E040F2843144F2E04052
:10240000C2F20041C5F602000A68002A02F1010288
:102410000A6008D1C16841F48071C160C16801F4EB
:1024200080710091009901689F2441F008010160CA
:102430000068052100F00800009000984FF440501B
:10244000019040F60040C5F6020029E040F28431D8
:1024500044F2E040C2F20041C5F602000A68002AD8
:1024600002F101020A6008D1C16841F48071C160C3
:10247000C16801F48071009100990168142441F051
:1024800002010160006840F6004100F00200009087
:10249000C5F60201009860200190A1F500600921B5
:1024A000059101A9022202920022CDE9032200F047
:1024B0006BFA05210022204600F076FC204600F051
:1024C00063FC06B010BD0000704700000000000073
:1024D0002DE9F0438DB040F204220446C2F20042DE
:1024E000556815B16868A04209D0956815B168684B
:1024F000A04204D0D568ADB36868A04232D1C80705
:1025000030D040212046FFF78FFA58B30DF10C0967
:1025100001AF6FF0804804E040212046FFF784FAC5
:1025200000B3402120464A463B46FFF789FAC8B926
:10253000049810EA080FEFD1AE68002EECD0069B8D
:1025400000F14040B0FA80F0591E08294FEA5012BD
:1025500028BF00230399D8B2009028463B46B047D5
:10256000DAE700BF0DB0BDE8F08300000000000016
:10257000704700000000000090F8981001290DD16C
:10258000022180F8981001688A6922F001028A61AC
:102590000021C0F89C100846704700BFD0F89C107E
:1025A00041F00401C0F89C100120704700000000B9
:1025B00090F8981002292BD1016851F8182F42F099
:1025C00001020A600A68D20706D10A68D20704BF6E
:1025D0000A685FEAC27223D00A6822F010020A6019
:1025E0000A68120707D50A68120744BF0A685FEA3B
:1025F000027200F1CF800A6842F002020A600021F4
:10260000C0F89410012280F898200846704700BF57
:10261000D0F89C1041F00801C0F89C1001207047D0
:102620000A68D20704BF0A685FEAC272D4D10A6896
:10263000D20704BF0A685FEAC272CDD10A68D20726
:1026400004BF0A685FEAC272C6D10A68D20704BF33
:102650000A685FEAC272BFD10A68D20704BF0A687B
:102660005FEAC272B8D10A68D20704BF0A685FEA9B
:10267000C272B1D10A68D20704BF0A685FEAC272A7
:10268000AAD10A68D20704BF0A685FEAC272A3D15E
:102690000A68D20704BF0A685FEAC2729CD10A685E
:1026A000D20704BF0A685FEAC27295D10A68D207EE
:1026B00004BF0A685FEAC2728ED10A68D20704BFFB
:1026C0000A685FEAC2727FF487AF0A68D20704BF64
:1026D0000A685FEAC2727FF47FAF0A68D20704BF5C
:1026E0000A685FEAC2727FF477AF0A68D20704BF54
:1026F0000A685FEAC2727FF46FAF0A68D20704BF4C
:102700000A685FEAC2727FF467AF0A68D20704BF43
:102710000A685FEAC2727FF45FAF0A68D20704BF3B
:102720000A685FEAC2727FF457AF0A68D20704BF33
:102730000A685FEAC2727FF44FAF0A68D20704BF2B
:102740000A685FEAC2727FF447AF0A68D20704BF23
:102750000A685FEAC2727FF43FAF0A68D20704BF1B
:102760000A685FEAC2727FF437AF0A68D20704BF13
:102770000A685FEAC2727FF42FAF0A68D20704BF0B
:102780000A685FEAC2727FF427AF0A68D20700F0D6
:10279000C58021E70A68120744BF0A685FEA02722F
:1027A0007FF529AF0A68120744BF0A685FEA027220
:1027B0007FF521AF0A68120744BF0A685FEA027218
:1027C0007FF519AF0A68120744BF0A685FEA027210
:1027D0007FF511AF0A68120744BF0A685FEA027208
:1027E0007FF509AF0A68120744BF0A685FEA027200
:1027F0007FF501AF0A68120744BF0A685FEA0272F8
:102800007FF5F9AE0A68120744BF0A685FEA0272F0
:102810007FF5F1AE0A68120744BF0A685FEA0272E8
:102820007FF5E9AE0A68120744BF0A685FEA0272E0
:102830007FF5E1AE0A68120744BF0A685FEA0272D8
:102840007FF5D9AE0A68120744BF0A685FEA0272D0
:102850007FF5D1AE0A68120744BF0A685FEA0272C8
:102860007FF5C9AE0A68120744BF0A685FEA0272C0
:102870007FF5C1AE0A68120744BF0A685FEA0272B8
:102880007FF5B9AE0A68120744BF0A685FEA0272B0
:102890007FF5B1AE0A68120744BF0A685FEA0272A8
:1028A0007FF5A9AE0A68120744BF0A685FEA0272A0
:1028B0007FF5A1AE0A68120744BF0A685FEA027298
:1028C0007FF599AE0A68120744BF0A685FEA027290
:1028D0007FF591AE0A68120744BF0A685FEA027288
:1028E0007FF589AE0A68120744BF0A685FEA027280
:1028F0007FF581AE0A68120744BF0A685FEA027278
:102900007FF579AE0A68120744BF0A685FEA02726F
:102910007FF571AE0A6812077FF56DAED0F89C1096
:1029200041F00101C0F89C10032180F898100120AB
:102930007047000000000000704700000000000029
:102940007047000000000000704700000000000019
:102950007047000000000000704700000000000009
:1029600070470000000000007047000000000000F9
:1029700070470000000000007047000000000000E9
:1029800070470000000000002DE9F04F84B08E4633
:1029900042F20042C5F602020A219042DEF80050DF
:1029A00008BF0921002D009100F0E68000F12642C9
:1029B000009902F1FF7200244FEAB2230126082B8E
:1029C0004FF0000738BF19464FF00008CDF808E077
:1029D00000910DE0DEF8005008F1010835FA06F12B
:1029E00007F1020706F1010604F1040400F0C480B7
:1029F000A6F1010A012101FA0AF315EA0309E9D057
:102A0000DEF804B00BF003056A1E012A1AD8032170
:102A1000D0F808C001FA07FE02992CEA0E0CDDF886
:102A200008E0CA68BA4042EA0C028260CBF30012A6
:102A3000D0F804C02CEA030302FA0AF21A434260F7
:102A40000CE000BF032D09D1DEF80820012A05D1D2
:102A50000325BC4605FA07F2D1432FE00321C268E3
:102A600001FA07F3022D6FEA030122EA0302DEF8FE
:102A700008304FEA480C03FA07F342EA0302C26047
:102A80001CD101916FF0030101EA5A0204F01C0508
:102A900002440F2101FA05F3D2F820B002992BEA83
:102AA0000303D1F810E001990EFA05F5DDF808E00E
:102AB0002B431362DEF804B00BF0030502681BF42D
:102AC000403F01EA020105FA0CF241EA020101600D
:102AD0003FF480AF44F2F44240F2084CC5F60202E3
:102AE000C5F6000C0F25116841F002011160116854
:102AF00001F0020103912AF00301039A04F00C0291
:102B000051F80C309540AB43009D05FA02F21A4390
:102B100041F80C204FF0B04CDCF80010DEF8042037
:102B200041EA0903D50258BF21EA09039502CCF80E
:102B3000003040F2040CC5F6000CDCF8001041EA4D
:102B4000090358BF21EA09039503CCF80030DCF8EB
:102B5000801041EA090358BF21EA0903D203CCF8E7
:102B60008030DCF87C1041EA090358BF21EA0903F0
:102B7000CCF87C302EE700BF04B0BDE8F08F000039
:102B800041F2C870C2F201400068704700000000C6
:102B900040F2000041F2C871C2F20040C2F20141AD
:102BA00000780A68104408607047000000000000C8
:102BB00080B5032000F028F901F0A2FB44F218418F
:102BC0004AF63853C5F60201C0F600030A680968E0
:102BD00001F00F01C2F30322595C9A5C01F01F015E
:102BE00002F01F02D04040F20C02C2F2004220FA72
:102BF00001F1116040F20801C2F2004108600F20AB
:102C000000F00AF800281CBF012080BD00F0A4F8E5
:102C1000002080BD00000000B0B58AB00F283DD86C
:102C20000446192000222146002500F0BDF8192095
:102C300000F0AAF840F20400C2F20040046044F23E
:102C4000F040C5F60200016841F001010160006832
:102C500001A900F001000290029802A801F09CFA7C
:102C600001F01EFB4DF683614000C4F21B310022CF
:102C7000A0FB010140F6EC40C2F200404FF0FF33F0
:102C8000C4F20102026003EB9141C0E9011540F278
:102C9000E731C0E9031501F0C7FE18B101200AB001
:102CA000B0BD00BF40F6EC40C2F2004001F03CFF76
:102CB0000AB0B0BD0000000010B54EF6A05E41782D
:102CC000CEF2000E90F800C04EF8081CDEF800109E
:102CD00021F00101CEF8001041684EF8041C017B80
:102CE000C37A827A447B1B0643EA0171837B41EA03
:102CF000C241C27B41EA8441447A41EA4341007ABD
:102D000041EA024141EA042141EA400040EA0C0064
:102D1000CEF8000010BD00004EF62450CEF20000A8
:102D2000BFF35F8F016821F48031016000210167EA
:102D300070470000000000004EF6245140F00100F2
:102D4000CEF200010867086840F480300860BFF3E5
:102D50004F8FBFF36F8F704781B044F2F440002271
:102D6000C5F60200016841F00201016000680F2110
:102D700000F0020000906FF00100009B01B000F035
:102D800013B8000000000000002848BF704700F0A2
:102D90001F01012202FA01F14EF200124009CEF2A7
:102DA000000242F820107047B0B54EF60C5C00F0FF
:102DB0000F05CEF2000C043D6544DCF800304FF006
:102DC000FF3CC3F3022E8EF00703042B28BF04231D
:102DD000BEF1030438BF00240CFA03F3B0F1FF3F47
:102DE00021EA030105F10C0300F160450CFA04F03F
:102DF000C8BF05F56443A14022EA00000843000172
:102E00001870B0BD000000004EF60C514FF6FF03E5
:102E1000CEF200010A681A4060F30A2242F0806094
:102E200040F0FD700860704701680122C0F8D824A6
:102E3000002280F8CC24886940F000608861486DE9
:102E400040F08052002042F003024A6570470000C3
:102E5000F0B581B0002800F02881044690F8950470
:102E600028B9002084F89404204600F035F90320A6
:102E700084F89504206804F067FAD4E90001267C00
:102E8000D4E90223009603F0ABFE002840F00A814B
:102E90002068002104F060FA002840F003812179C5
:102EA000002900F0F680A1F1010C01F0030EBCF145
:102EB000030F4FF0000345D301F0FC0204F19A0028
:102EC0000126002500F8865C6F1C20F86C5C00F879
:102ED000627C20F8487CAF1C00F83E7C20F8247C03
:102EE000EF1C043500F8856C00F8823C954240F8F0
:102EF0007E3C40F87A3C40F8763C00F8616C00F883
:102F00005E3C40F85A3C40F8563C40F8523C00F8D1
:102F10003D6C00F83A3C40F8363C40F8323C40F812
:102F20002E3C00F8196C00F81A7C078000F8163C5B
:102F300040F8123C40F80E3C40F80A3C00F190008A
:102F4000C0D12B46BEF1000F2DD003EBC3000122F0
:102F5000BEF1010F04EB80054FF000006A752B7580
:102F6000EB852876C5E9070068621CD05D1CBEF1C0
:102F7000020F05EBC50604EB860672753575F585FF
:102F80003076C6E9070070620DD0981C012300EB73
:102F9000C00204EB820253751075D08500201076B4
:102FA000C2E907005062002973D0BCF1030F4FF053
:102FB000000236D301F0FC0004F53471002300BF99
:102FC00001F87C3C5F1C01F8587C9F1C01F8347CA4
:102FD000DF1C043301F87B2C834201F8782C41E993
:102FE0001D2241F86C2C01F8572C01F8542C41E9B2
:102FF000142241F8482C01F8332C01F8302C41E917
:103000000B2241F8242C01F80F2C01F8107C01F858
:103010000C2C41F8082C41F8042C41F8902BCFD10E
:103020001A46BEF1000F34D002EBC200BEF1010F10
:1030300004EB80014FF0000081F8550281F8542222
:1030400081F85802C1E99700C1F8640221D0511CEF
:10305000BEF1020F01EBC10304EB830383F85502B9
:1030600083F8541283F85802C3E99700C3F8640246
:103070000FD0901C002200EBC00104EB810181F80D
:10308000552281F8540281F85822C1E99722C1F8EB
:103090006422D4E90001277CD4E90223009703F0DD
:1030A000FBFE28B1022084F89504012001B0F0BD98
:1030B00000206074012084F89504207B012802D14F
:1030C0002046FFF7B1FE206803F0D6FE002001B0D5
:1030D000F0BD00000000000070B5B6B002A90446C3
:1030E00001F10800B021FDF77EFA00212068C4F24A
:1030F0000401884202D036B070BD00BF4FF480207A
:10310000029005200C9028200D904FF40060119043
:103110004FF40010239002A8002403940226CDE966
:103120000E661096139400F0AFF908B1FEF758FB45
:1031300044F2D845C5F6020500F056F8A86831A952
:1031400040F00100A860A86800F0010031903198BB
:103150004FF48060CDE931060A2035900020C5F695
:103160000200CDE93344FFF70FFC40F28830C2F291
:1031700000400168002901F101010160BBD128680C
:1031800040F000702860286800F0007001900198FD
:1031900036B070BD00000000B0B544F60C05C5F6B1
:1031A000020529684907296806D401F00701081AB1
:1031B00018BF0120B0BD00BF21F0070108432860FF
:1031C000FFF7DEFC044600BF55F8080C800407D466
:1031D000FFF7D6FC001BB0F57A7FF5D90120B0BD12
:1031E0000020B0BD0000000044F60C00C5F602004F
:1031F000016841F08071016070470000000000002C
:1032000080B500F0F5FF44F220414AF63852C5F689
:103210000201C0F600020968C1F30211515C01F01D
:103220001F01C84080BD000080B544F2384EC5F68D
:10323000020E5EF8103C5EF8101CC1F3053C5EF80F
:103240000C1CBCF1000FDEF8042015D0C1F30011F6
:10325000C2F3CC02514300EE101A03F0030102291D
:10326000B8EE400A0ED089B95EF8381C890611D430
:103270009FED361A1CE000BF00218160C0E90011FB
:1032800080BD00BF9FED301A12E000BF9FED2D1AE8
:103290000EE000BF5EF8381C49F20002C0F2D032E6
:1032A000C1F3C10122FA01F101EE101AB8EE411A80
:1032B000DEF800109FED263A6FF35F2102EE101A40
:1032C000DEF80010C1F34621B8EE422A00EE032AD0
:1032D00000EE10CAB7EE003AB8EE400A81EE000ADE
:1032E00032EE031A02EE101AB8EE422A20EE010A5C
:1032F00032EE031A80EE011ABCEEC11A80ED001AFC
:10330000DEF80010C1F3064101EE101AB8EE411AC2
:1033100031EE031A80EE011ABCEEC11A80ED011ADB
:10332000DEF80010C1F3066101EE101AB8EE411A82
:1033300031EE031A80EE010ABCEEC00A10EE101A3C
:10334000816080BD0024744A20BCBE4B0024744CB4
:10335000000000390000000080B544F2404EC5F680
:10336000020E5EF8183C5EF8181CC1F3055C5EF8AE
:10337000141CBCF1000FDEF8042015D0C1F30021AD
:10338000C2F3CC02514300EE101A03F003010229EC
:10339000B8EE400A0ED089B95EF8401C890611D4F7
:1033A0009FED361A1CE000BF00218160C0E90011CA
:1033B00080BD00BF9FED301A12E000BF9FED2D1AB7
:1033C0000EE000BF5EF8401C49F20002C0F2D032AD
:1033D000C1F3C10122FA01F101EE101AB8EE411A4F
:1033E000DEF800109FED263A6FF35F2102EE101A0F
:1033F000DEF80010C1F34621B8EE422A00EE032A9F
:1034000000EE10CAB7EE003AB8EE400A81EE000AAC
:1034100032EE031A02EE101AB8EE422A20EE010A2A
:1034200032EE031A80EE011ABCEEC11A80ED001ACA
:10343000DEF80010C1F3064101EE101AB8EE411A91
:1034400031EE031A80EE011ABCEEC11A80ED011AAA
:10345000DEF80010C1F3066101EE101AB8EE411A51
:1034600031EE031A80EE010ABCEEC00A10EE101A0B
:10347000816080BD0024744A20BCBE4B0024744C83
:1034800000000039000000002DE9F0470446C07834
:1034900044F22C480007C5F6020833D5606E4FEAA7
:1034A000305103290CD8DFE801F003111D2600BFBD
:1034B000D8F8001041F40031C8F800101BE000BF3C
:1034C00001266078C0070BD020E000BF04F108009F
:1034D000022102F0B9FA064660B16078C00715D142
:1034E000354646E004F12800022102F041FB064681
:1034F0000028F2D1606ED8F8241021F4401108435E
:10350000C8F8240000266078C007E9D0A06D042820
:103510000ED83546DFE800F00412181E1E0000BF6A
:10352000D8F80000354640F40030C8F8000011E03B
:1035300001250127607840071FD453E004F10800FB
:10354000002102F081FA04E004F12800002102F0D9
:103550000FFB05462F461DB1607840070DD441E0B2
:10356000D8F82400A16D20F0070000250843C8F812
:10357000240037466078400734D5D4F8A4004FEAD9
:10358000705005280CD8DFE800F00311171D1D1D31
:10359000D8F8000040F40030C8F8000012E000BF86
:1035A000012501266078000720D455E004F10800C9
:1035B000002102F049FA04E004F12800002102F0A1
:1035C000D7FA05462E461DB1607800070ED443E0B9
:1035D000D8F82C00D4F8A41020F46000002508438B
:1035E000C8F82C003E466078000735D5D4F8A8000E
:1035F0004FEA306005280DD8DFE800F00412181EED
:103600001E1E00BFD8F8000040F40030C8F80000CB
:1036100012E000BF01250127E078800720D44EE0AA
:1036200004F10800002102F00FFA04E004F1280080
:10363000002102F09DFA05462F461DB1E078800773
:103640000ED43CE0D8F82C00D4F8A81020F0E060AC
:1036500000250843C8F82C003746E07880072ED5AF
:10366000E06C4FEA301003280ED8DFE800F00903C1
:10367000130900BFD8F8000040F40030C8F800007B
:103680002E467DB912E000BF012501266078C006F4
:1036900019D44CE004F10800022102F0D5F90546E6
:1036A0002E461DB16078C0060DD440E0D8F8200049
:1036B000E16C20F0300000250843C8F820003E46A9
:1036C0006078C00633D5E06D4FEA303004280DD85D
:1036D000DFE800F00412181E1E0000BFD8F800003A
:1036E00040F40030C8F8000012E000BF01250127B7
:1036F000607880061FD44EE004F10800002102F03B
:10370000A3F904E004F12800002102F031FA054693
:103710002F461DB1607880060DD43CE0D8F8240017
:10372000E16D20F4E04000250843C8F82400374646
:10373000607880062FD5206E4FEA3040052809D8E2
:10374000DFE800F0040E1404040400BF2E46ADB9F7
:1037500018E000BF01250126607840061FD44FE025
:1037600004F10800012102F06FF904E004F12800DF
:10377000012102F0FDF905462E461DB16078400694
:103780000DD43DE0D8F82400216E20F4E02000257F
:103790000843C8F824003E466078400630D5D4F887
:1037A000AC004FEA3070052808D8DFE800F0030DC0
:1037B000130303032F46ADB918E000BF012501270D
:1037C0006078000620D442E004F10800012102F0F4
:1037D0003BF904E004F12800012102F0C9F9054693
:1037E0002F461DB1607800060ED430E0D8F82C00CA
:1037F000D4F8AC1020F0E04000250843C8F82C00B5
:1038000037466078000622D5E06E58B1B0F1005F0F
:103810000CD0B0F1805F2FD1D8F8000040F4003018
:10382000C8F800002E469DB908E000BF04F108006A
:10383000012102F009F905462E464DB9D8F82400B9
:10384000E16E20F0405000250843C8F824003E46B1
:10385000E078C00733D0A06C032813D8DFE800F06D
:1038600008021A08D8F8000040F40030C8F8000038
:10387000A946BDB91AE000BF01250126E078C007BE
:10388000E9D11CE001254FF00109A07840061AD5C6
:103890001CE000BF04F10800022102F0D5F8054643
:1038A000A9461DB1A07840060DD50FE0D8F820003C
:1038B000A16C20F0030000250843C8F82000B146A1
:1038C000A078400602D44F4618E000BFD8F8D403D1
:1038D00040F48070C8F8D403FFF752F9064600BFE1
:1038E000D8F8D403C00507D4FFF74AF9801B642831
:1038F000F6D90325032701E02F468DB12078C007B4
:1039000061D0A06F4FEAF00005283BD8DFE800F057
:1039100004404604040400BF002D2E4646D149E071
:10392000D8F84410D4F8B000414011F4407F11D0D1
:10393000D8F84410D8F8442042F48032C8F8442023
:10394000D8F8442021F4407122F48032C8F8442091
:10395000C8F84410B0F5807F40F0CE82FFF710F930
:10396000064641F2883A0325032700BFD8F84400F1
:10397000800700F1BF82FFF703F9801B5045F5D99E
:10398000BCE700BF01250126207880071FD44CE04A
:1039900004F10800012102F057F804E004F12800C6
:1039A000012102F0E5F805462E461DB1207880077A
:1039B0000DD43AE0D8F82800A16F20F03800002597
:1039C0000843C8F828003E46207880072DD5606F50
:1039D000052809D8DFE800F0040E1404040400BF31
:1039E0002F46ADB918E000BF012501272078400718
:1039F0001FD44DE004F10800012102F025F804E095
:103A000004F12800012102F0B3F805462F461DB14C
:103A1000207840070DD43BE0D8F82800616F20F0F3
:103A2000070000250843C8F82800374620784007DB
:103A30002ED5D4F89000052808D8DFE800F0030D53
:103A4000130303032E46ADB918E000BF012601257C
:103A50002078800620D451E004F10800012101F013
:103A6000F3FF04E004F12800012102F081F805468B
:103A70002E461DB1207880060ED43FE0D8F82C00E9
:103A8000D4F8901020F0070000250843C8F82C0057
:103A90003E462078800631D5D4F88C004FEA30704D
:103AA000052809D8DFE800F0040E1404040400BF60
:103AB0002F46ADB918E000BF012701252078400648
:103AC00020D451E004F10800002101F0BDFF04E022
:103AD00004F12800022102F04BF805462F461DB1E3
:103AE000207840060ED43FE0D8F82800D4F88C1097
:103AF00020F0E04000250843C8F828003746207829
:103B0000400631D5D4F898004FEAB020052809D8EE
:103B1000DFE800F0040E1404040400BF2E46ADB923
:103B200018E000BF012601252078000620D454E0CB
:103B300004F10800002101F087FF04E004F12800EF
:103B4000022102F015F805462E461DB12078000628
:103B50000ED442E0D8F82C00D4F8981020F4E050AD
:103B600000250843C8F82C003E462078000634D5CE
:103B7000D4F89C004FEA703005280FD8DFE800F039
:103B800004141A04040400BF2F46E5B1206801079D
:103B900027D4C1063ED4000355D475E00127012582
:103BA00020680107F5D51CE004F10800002101F0B0
:103BB0004BFF04E004F12800022101F0D9FF054683
:103BC000002D2F46E2D1D8F82C00D4F89C1020F418
:103BD000604000250843C8F82C00374620680107DC
:103BE000D7D5D4F88000B0F5805F09D104F1280062
:103BF000022101F0BDFF002818BF0127D4F8800082
:103C0000D8F8281021F440510843C8F8280020684B
:103C1000C106C0D5D4F89400B0F5807F09D104F175
:103C20002800022101F0A4FF002818BF0127D4F8C2
:103C30009400D8F82C1021F440710843C8F82C00E7
:103C40002068000320D5D4F8A000B0F5003F0FD0C5
:103C5000B0F5803F06D078BB04F10800002101F0E8
:103C6000F3FE04E004F12800022101F081FF054683
:103C70002E4655B9D8F82C00D4F8A01020F44030C6
:103C800000250843C8F82C003E46A07840072BD5F5
:103C9000D4F88400B0F5401F0BD0B0F5001F11D050
:103CA000B0F5801F2AD1D8F8000040F40030C8F8E1
:103CB00000002F46CDB90DE001260125A078400770
:103CC000E6D411E004F12800012101F051FF05467E
:103CD0002F4655B9D8F82800D4F8841020F44010A5
:103CE00000250843C8F828003746A078C0070AD145
:103CF0003E462168880016D533E000BF0127012524
:103D0000A078C007F4D0206DB0F5803F10D018BB6C
:103D1000D8F8000040F40030C8F800002E4685B105
:103D2000216888001DD460688A0326D465E000BF3E
:103D300004F10800022101F087FE0546002D2E4601
:103D4000EED1D8F82000216D20F480300025084302
:103D5000C8F82000CCE700BF0126012521688800B3
:103D6000E1D504F12800022101F002FF002818BF6C
:103D70000126D4E900108A033FD5E26F6FF00103FA
:103D800003EB3223022B0BD34FEA322343B1012B37
:103D900040F0AA80D8F8003043F40033C8F800306F
:103DA00025B3CA022CD48A0234D44A003CD4CA0FA8
:103DB00049D1090251D4C1075AD1810763D44107BF
:103DC0006CD4010776D4C10600F18080800607D547
:103DD00004F12800022101F0CBFE002818BF0125C4
:103DE000002D18BF01252846BDE8F087D8F82830F7
:103DF00023F440731A43C8F828203546CA02D2D5A6
:103E0000D8F82420236F22F000421A43C8F8242057
:103E10008A02CAD5D8F82420A36E22F080721A43F1
:103E2000C8F824204A00C2D558F81C2C22F40042BD
:103E300048F81C2CD4F8B42058F81C3C1A4348F815
:103E40001C2CCA0FB5D0D8F82020636D22F0405248
:103E50001A43C8F820200902ADD5D8F82810D4F8A4
:103E6000882021F440011143C8F82810C107A4D0CC
:103E700004F10800002101F0E7FD002818BF054605
:103E8000606881079BD504F10800012101F0DCFD89
:103E9000002818BF05466068410792D504F1080064
:103EA000022101F0D1FD002818BF05466068010716
:103EB0007FF589AF04F12800002101F059FE0028A8
:103EC00018BF05466068C1067FF580AF04F1280081
:103ED000012101F04DFE002818BF054660688006EC
:103EE0007FF57EAF74E700BF0125CA027FF55BAFA7
:103EF00086E700BFD4F8B0004FF6CF7358F81C2CFB
:103F0000C0F2FF0300F4407122F47C5203EA101364
:103F10006FF31F30B1F5407F08BF1A43002548F802
:103F20001C2CD8F844100843C8F84400FFF7CBBC59
:103F30002DE9F04381B0002800F02A8142F2000808
:103F40000446C5F200288946D8F8000000F00F00AA
:103F500088420ED2D8F8000020F00F0040EA090095
:103F6000C8F80000D8F8000000F00F00484540F005
:103F70000F81206844F218474107C5F602070AD5A9
:103F800021693A6802F07002914204D93A6822F03D
:103F900070021143396001070AD561697A6802F03D
:103FA0007002914204D97A6822F07002114379605C
:103FB000C1060AD5A1697A6802F4E062914204D987
:103FC0007A6822F4E0621143796081060AD5E169DA
:103FD000BA6802F07002914204D9BA6822F0700205
:103FE0001143B96010F002010AD0E2683B6803F0A7
:103FF0000F039A4204D93B6823F00F031A433A6037
:10400000C20746D0386820F47061D4E90102012863
:1040100041EA0201396009D003280DD0022811D1EC
:1040200057F8181C890340F1B38010E057F8181CAA
:10403000C90540F1AD800AE057F8181C890140F12C
:10404000A78004E057F8181C490740F1A18057F8F1
:10405000081C21F00701084347F8080CFEF790FD03
:10406000064641F2883500BF57F8080C616800F039
:104070003800B0EBC10F09D0FEF782FD801BA842CB
:10408000F2D9032001B0BDE8F08300BF206800F042
:10409000020151B1E1683A6802F00F02914204D284
:1040A0003A6822F00F0211433960D8F8001001F08D
:1040B0000F0149450DD9D8F8001021F00F0141EA50
:1040C0000901C8F80010D8F8001001F00F014945A7
:1040D0005ED141070AD521693A6802F07002914227
:1040E00004D23A6822F070021143396001070AD500
:1040F00061697A6802F07002914204D27A6822F013
:10410000700211437960C1060AD5A1697A6802F488
:10411000E062914204D27A6822F4E062114379604D
:1041200080060AD5E069B96801F07001884204D2BE
:10413000B96821F070010843B86000F0E1F839680F
:104140004AF638533A68C0F60003C1F3032102F07F
:104150000F02595C9A5C01F01F0120FA01F102F094
:104160001F0040F20C0221FA00F0C2F2004210607F
:1041700040F2040040F20802C2F20040C2F20042E3
:104180000068116001B0BDE8F043FEF745BD00BF17
:10419000012001B0BDE8F0833F22026044F21842E2
:1041A000C5F6020252F8083C03F0070343601368A7
:1041B00003F470638360136803F00F03C360136834
:1041C00003F070030361536803F0700343615368A5
:1041D00003F4E0638361926802F07002C26142F20C
:1041E0000000C5F20020006800F00F000860704772
:1041F00080B500F085F844F218414AF63853C5F608
:104200000201C0F600030A68096801F00F01C2F359
:104210000322595C9A5C02F01F0220FA02F201F0BC
:104220001F0040F20C0122FA00F0C2F200410860C7
:1042300040F20801C2F200410A6080BD00000000A7
:1042400080B500F05DF844F2184C4AF63851C5F6D6
:10425000020CC0F60001DCF80020DCF8003003F0AE
:104260000F03C2F30322CB5C8A5C02F01F02D04032
:1042700003F01F0240F20C0320FA02F2C2F20043E4
:104280001A6040F20803C2F200431860DCF8040030
:10429000C0F30210085C00F01F0022FA00F080BD9D
:1042A00080B500F02DF844F2184C4AF63851C5F6A6
:1042B000020CC0F60001DCF80020DCF8003003F04E
:1042C0000F03C2F30322CB5C8A5C02F01F02D040D2
:1042D00003F01F0240F20C0320FA02F2C2F2004384
:1042E0001A6040F20803C2F200431860DCF80400D0
:1042F000C0F30220085C00F01F0022FA00F080BD2D
:1043000044F20041C5F602010869C0F3C200032867
:1043100010D002282CD088BB0868800649F2000023
:10432000C0F2D03058BF70470968C1F3C101C8401E
:10433000704700BF8A6A886AC0F3051CC86ABCF16E
:10434000000F4B6B20D0C3F3CC0300F001005843A7
:1043500002F00302022A00EE100AB8EE400A15D05D
:10436000C2B90868800619D49FED281A23E000BF5F
:1043700047F64000C0F27D10704700BF40F60010C5
:10438000C0F23D00704700BF002070479FED1E1A2D
:1043900011E000BF9FED1B1A0DE000BF086849F255
:1043A0000002C0F2D032C0F3C10022FA00F001EEE8
:1043B000100AB8EE411A086B9FED153A6FF35F20B3
:1043C00002EE100A086BC0F34620B8EE422A013014
:1043D00000EE032A00EE10CAB7EE003AB8EE400A2B
:1043E00081EE000A32EE031A20EE010A01EE100AF5
:1043F000B8EE411A80EE010ABCEEC00A10EE100AB7
:10440000704700BF0024744A20BCBE4B0024744C8B
:104410000000003900000000F0B581B0002800F075
:10442000D5800446007844F20046C007C5F602066F
:1044300022D12078800768D5306910F03801B06A41
:1044400042D0182908BF5FEA80703DD0E06831682B
:10445000002800F0258121F0190108433060FEF7A3
:104460008FFB05463068400748D4FEF789FB401BA8
:104470000228F7D977E100BF306900F03801B06A4F
:10448000102905D018290BD100F00300022807D10C
:1044900030688003CDD560680028CAD196E000BF9F
:1044A0006068002800F03281B0F5A02F00F046814E
:1044B000B0F5803F00F04681306820F480303060F5
:1044C000306820F4802040E130684007E06801D582
:1044D00000287BD0316821F0190108433060FEF7D5
:1044E0004FFB05463068400708D4FEF749FB401BE8
:1044F00002284FF00300F5D901B0F0BD70682169C2
:1045000020F0FE4040EA016070602078C00619D5B6
:10451000306900F03801B06A082906D0182940F047
:10452000818000F0030001287CD13068C00502D5ED
:10453000E06980284AD1F068216A20F07C5040EA86
:104540000160F0602078000744D42078800655D4BC
:104550002078400700F17E80656A9DB3306900F0E5
:104560003800182840F01481012DB16A306B2DD02D
:1045700001F00302A36A9A4228D1C1F30511E26A4D
:10458000914223D10146226B6FF35F21013A9142A0
:104590001CD1C0F34622616B01398A4216D1C0F3A7
:1045A0000642A16B01398A4210D1C0F30660E16B6B
:1045B000013988420AD1706BA16CC0F3CC008142F2
:1045C00040F09C81002001B0F0BD00BF012001B08F
:1045D000F0BD00BF60690028706F4FD040F001004F
:1045E0007067FEF7CDFA0546706F8007ADD4FEF711
:1045F000C7FA401B0228F7D9B5E000BFA069002820
:10460000306871D040F480503060FEF7B9FA05464A
:10461000306880049CD4FEF7B3FA401B0228F7D917
:10462000A1E000BFE0690028306800F09F8040F002
:1046300080003060FEF7A4FA054600BF3068C00570
:104640003FF579AFFEF79CFA401B02284FF00300BC
:10465000F4D951E7D6F8000440F48070C6F800049D
:10466000FEF78EFA054600BFD6F80004C00529D42F
:10467000FEF786FA401B6428F6D974E020F00100AA
:104680007067FEF77DFA0546706F80077FF55DAFB6
:10469000FEF776FA401B02284FF00300F4D92BE70F
:1046A00021F001003060FEF76BFA054630684007E4
:1046B0007FF52BAFFEF764FA401B02284FF0030092
:1046C000F4D919E7A068002800F08480052800F0DC
:1046D0009B80012800F09C80306F20F00100306743
:1046E000306F20F0040096E020F480503060FEF738
:1046F00047FA0546306880047FF52AAFFEF740FA96
:10470000401B02284FF00300F4D9F5E6306820F48E
:1047100080303060306820F480203060FEF730FA5E
:10472000054600BF306880037FF583AEFEF728FAA8
:10473000401B64284FF00300F4D9DDE6306840F4F4
:1047400080203060306840F480303060FEF718FA26
:10475000054600BF306880033FF56BAEFEF710FAE8
:10476000401B6428F6D9032001B0F0BD20F0800082
:104770003060FEF705FA05463068C0057FF5E2AE09
:10478000FEF7FEF9401B02284FF00300F4D9B3E610
:10479000306820F080703060FEF7F2F9022D054697
:1047A0000CD100BF3068800148D5FEF7E9F9401B05
:1047B00002284FF00300F5D99EE600BF3068800163
:1047C0007FF500AFFEF7DCF9401B02284FF0030035
:1047D000F4D991E6306F20F001003067306F20F09F
:1047E00004003067FEF7CCF9054641F28837306F98
:1047F00080077FF5B1AEFEF7C3F9401BB8424FF01A
:104800000300F4D978E600BF306F40F00400306751
:10481000306F40F001003067FEF7B2F9054641F213
:10482000883700BF306F80073FF596AEFEF7A8F9D6
:10483000401BB8424FF00300F4D95DE604F12807AD
:10484000B06A40F2F33188438ECF0843591E40EAE4
:1048500002104FF47E426FF35F21B06202EB4720FB
:104860004FF4FE0280B2E36B0844A16B02EB0141FE
:104870004FF0FE4201F4FE0102EB0362084402F035
:10488000FE4108443063F06A4FF6F87120F00100F1
:10489000F062706BA26C884340EAC2007063F06AF9
:1048A000216C20F00C000843F062F06A616C20F08B
:1048B00002000843F062F06A40F48030F062F06A6F
:1048C00040F40030F062F06A40F48020F062F06A58
:1048D00040F00100F062306840F080703060FEF718
:1048E0004FF90446306880013FF56CAEFEF748F999
:1048F000001B02284FF00300F4D9FDE5F06A20F018
:104900000100F062FEF73CF90546FEF739F9A842CE
:10491000FBD0706B4FF6F871A26C884340EAC2007E
:104920007063F06A40F00100F062002001B0F0BD59
:104930007047000000000000704700000000000009
:104940007047000000000000B0B590F83C20012A3C
:104950004FF0020263D080F83D2040F2004C026824
:10496000C4F2010C42F4806363455368D2F808E056
:1049700002BF23F470034C6823434DF6FF740D68A7
:10498000C4F2000423F07003A24243EA050353601B
:1049900014DC40F2FF73C4F200039A4222DD40F6B9
:1049A0000003C4F200039A422ED040F60043C4F242
:1049B00000039A4228D041F6000321E04FF6FF732E
:1049C000C4F200039A4213DD0023C4F201039A42A9
:1049D0001AD044F20003C4F201039A4214D0624593
:1049E00012D016E0B2F1804F0ED040F2004307E043
:1049F0004EF20003C4F200039A4205D04EF2004387
:104A0000C4F200039A4204D12EF08003896819434E
:104A100091600022012180F83D1080F83C20104672
:104A2000B0BD00000000000060B310B5044690F86F
:104A30003D0028B9002084F83C00204600F024F80E
:104A4000022084F83D002068211D01F0C9FA0120F0
:104A500084F8480084F83E0084F83F0084F8400061
:104A600084F8410084F8420084F8430084F844004C
:104A700084F8450084F8460084F8470084F83D0037
:104A8000002010BD0120704781B00068A0F1804077
:104A9000A0F580504FEAB020042842D8DFE800F0AB
:104AA00004144124340000BF44F2E840C5F602007B
:104AB000016841F010010160006800F010000090F2
:104AC000009801B0704700BF44F2E840C5F602000C
:104AD000016841F020010160006800F020000090B2
:104AE000009801B0704700BF44F2E840C5F60200EC
:104AF000016841F080010160006800F080000090D2
:104B0000009801B0704700BF44F2E840C5F60200CB
:104B1000016841F480710160006800F480700090C9
:104B2000009801B07047000090F83D10012927D18E
:104B3000022180F83D1001684DF6FF70C4F20000BC
:104B40008142C86840F00100C8601BDC40F2FF7081
:104B5000C4F2000081422DDD40F60000C4F20000E6
:104B600081423DD040F60040C4F20000814237D07F
:104B700041F60000C4F20000814231D03CE000BFA9
:104B8000012070474FF6FF70C4F2000081421BDD28
:104B90000020C4F20100814222D044F20000C4F29D
:104BA000010081421CD040F20040C4F20100814269
:104BB00016D021E0B1F1804F12D040F20040C4F293
:104BC000000081420CD017E04EF20000C4F2000059
:104BD000814205D04EF20040C4F2000081420BD168
:104BE00007228868C0F2010202400020062A18BF8E
:104BF000B2F5803F00D17047086840F001000860BE
:104C00000020704700000000704700000000000016
:104C1000F0B581B004460068C5680669B10717D5CC
:104C200015F0020114D06FF002010161012121771A
:104C30008069800704D02046FFF7E6FF06E000BF4A
:104C4000204600F09DF8204600F09EF800202077D6
:104C5000700719D515F0040016D020686FF0040114
:104C6000016102212177806910F4407F04D0204641
:104C7000FFF7CAFF06E000BF204600F081F820469B
:104C800000F082F800202077300717D515F00800D3
:104C900014D020686FF00801016104212177C069F8
:104CA000800703D02046FFF7AFFF05E0204600F065
:104CB00067F8204600F068F800202077F00619D544
:104CC00015F0100016D020686FF010010161082166
:104CD0002177C06910F4407F04D02046FFF794FF8D
:104CE00006E000BF204600F04BF8204600F04CF8EC
:104CF00000202077F00718BF15F0010006D02068CB
:104D00006FF001010161204600F042F805F08007D4
:104D100016F4025F18BF002F02D1F00509D410E08D
:104D200020686FF4025101612046FFF705FEF0058F
:104D300007D537B120686FF4807101612046FFF715
:104D4000F7FD700609D515F0400006D020686FF019
:104D500040010161204600F033F8B0060CD515F093
:104D6000200009D020686FF020010161204601B0C9
:104D7000BDE8F040FFF7E4BD01B0F0BD0000000069
:104D800070470000000000007047000000000000B5
:104D900010B5002104460068C4F20101884205D024
:104DA0002046BDE81040FCF74FBC00BFFDF7F0FE09
:104DB0002046BDE81040FCF747BC000000000000A2
:104DC000704700000000000090F88410012901D114
:104DD000022070472421C0F8881002681368116807
:104DE00023F0005321F0010111600021416613609E
:104DF0002022C0F8882080F8841008467047000000
:104E000070B590F88420012A02D1022070BD00BF45
:104E10002422C0F888200268D0F864E0BEF1000FB8
:104E2000D2F800C0136823F001031360936823F0E5
:104E3000606341EA030191601AD091684AF6887E66
:104E40009368C0F6000E5B0F4AF69075C1F3426698
:104E5000C0F600051EF80340E95C2301B3FBF1F145
:104E60001EF80630AE5D1B01B3FBF6F302E000BF97
:104E700001210123A0F86A102021A0F86830C2F8AF
:104E800000C0C0F88810002180F88410084670BD6A
:104E900070B590F88420012A02D1022070BD00BFB5
:104EA0002422C0F888200268D0F864E0BEF1000F28
:104EB000D2F800C0136823F001031360936823F055
:104EC000604341EA030191601AD091684AF6887EF6
:104ED0009368C0F6000E5B0F4AF69075C1F3426608
:104EE000C0F600051EF80340E95C2301B3FBF1F1B5
:104EF0001EF80630AE5D1B01B3FBF6F302E000BF07
:104F000001210123A0F86A102021A0F86830C2F81E
:104F100000C0C0F88810002180F88410084670BDD9
:104F200010B5E0B10446D0F8880028B9002084F814
:104F30008400204600F028F82420C4F88800206867
:104F4000A16A0268002922F00101016002D0204616
:104F500001F002F9204601F02BFA012802D10120CC
:104F600010BD00BF2068416821F490414160816814
:104F700021F02A018160016841F0010101602046B1
:104F8000BDE8104001F058B9F0B5B5B000210446B5
:104F9000CDE93311CDE93111309102A8B821FBF7E9
:104FA00022FB47F2FF712068C4F2000188423BDD1A
:104FB00040F6FF71C4F20101884200F38D8047F68C
:104FC0000001C4F20001884200F0CC8047F60041A5
:104FD000C4F20001884240F07C8102A800240394BE
:104FE00002250295FEF750FA08B1FCF7F9FB44F2EE
:104FF000E040C5F60200816841F0004181608168AF
:1050000001F0004101910199016841F01001016036
:10501000006800F01000019001980320CDE93005F0
:10502000CDE932440820C4E044F20041C4F200015A
:10503000884200F0C58044F60041C4F20001884275
:1050400000F0E68045F20001C4F20001884240F021
:10505000408102A80024039402250295FEF714FA69
:1050600008B1FCF7BDFB44F2E04041F20007C5F691
:105070000200C5F602070826816841F480118160AC
:10508000816801F4801101910199016841F00401E6
:105090000160016801F0040101910199016841F08A
:1050A00008010160006830A900F008000190019833
:1050B0004FF48050CDE93005A7F500603496CDE976
:1050C0003245FDF761FC04203496CDE93005CDE989
:1050D0003244A7F58064F8E041F20001C4F2010116
:1050E000884200F0C38041F60041C4F201018842C9
:1050F00040F0EF800120029002A800250395FEF702
:10510000C3F908B1FCF76CFB44F2E04041F2000443
:10511000C5F60200C5F602040226016941F08001CD
:105120000161016901F0800101910199016841F07B
:1051300010010160006830A900F010000190019892
:1051400004203090CDE933502046CDE93165FDF79C
:105150001BFC0820CDE93006CDE932550B203490F8
:10516000B3E000BF02A80024039402250295FEF7D5
:105170008BF908B1FCF734FB44F2E040C5F60200BD
:10518000816841F080418160816801F08041019136
:105190000199016841F010010160006800F0100001
:1051A000019001984FF4C070CDE930050720CDE99A
:1051B000324441F200043490C5F6020485E000BF99
:1051C00002A80024039402250295FEF75DF908B1B8
:1051D000FCF706FB44F2E040C5F60200816841F4AA
:1051E00000318160816801F4003101910199016809
:1051F00041F001010160006800F001000190019898
:105200000C20CDE93005CDE93244072026E000BF6F
:1052100002A80024039402250295FEF735F908B18F
:10522000FCF7DEFA44F2E040C5F60200816841F482
:1052300000218160816801F40021019101990168D8
:1052400041F001010160006800F001000190019847
:105250000320CDE930050820CDE9324441F20001B8
:105260003490C5F60201A1F580542EE00120029091
:1052700002A800240394FEF707F908B1FCF7B0FA7E
:1052800044F2E040C5F60200016941F010010161FD
:10529000016901F0100101910199016841F00201D9
:1052A0000160006841F2000100F002000190C5F6C3
:1052B000020101984FF44040309002203394CDE930
:1052C000310404203490A1F5406430A92046FDF754
:1052D0005BFB35B0F0BD0000FEE700000000000001
:1052E00080B540F228604AF20001C2F20040C4F2E8
:1052F00000014FF0010C4FF0050E01600021C0E9E4
:105300000211A0F810C0022281740D23C0F814E02D
:105310008261C0E90732C0E909E2C0E90B32C0E9A5
:105320000D1CC0F83CC0202202640422C0E91121F7
:10533000C0E91321C0E91521C1651023C0E9183166
:105340008266FCF719FE002808BF80BDBDE88040DA
:10535000FCF746BA0000000080B540F2C8604AF28F
:105360000041C2F20040C4F200014FF0010C4FF0C6
:10537000050E01600021C0E90211A0F810C0022250
:1053800081740D23C0F814E08261C0E90732C0E9DE
:1053900009E2C0E90B324FF48072C0F83CC0C0E9AA
:1053A0000D2C202202640422C165C0E91121C0E94C
:1053B0001321C0E9152110238266C0E91831FCF7DA
:1053C000DBFD002808BF80BDBDE88040FCF708BABF
:1053D00080B540F268704DF20041C2F20040C4F264
:1053E00000014FF0010C4FF0050E01600021C0E9F3
:1053F0000211A0F810C0022281740D23C0F814E03D
:105400008261C0E90732C0E909E2C0E90B324FF41A
:105410000072C0F83CC0C0E90D2C202202640422B6
:10542000C165C0E91121C0E91321C0E9152110238C
:105430008266C0E91831FCF79FFD002808BF80BDD7
:10544000BDE88040FCF7CCB980B5FBF775FC10B91E
:105450000120FBF7B1FD45F609604AF69872C0F6E7
:105460000000C0F60002002102F06AFD40F2246153
:10547000C2F20041086080BD81B044F2E040C5F650
:105480000200016841F010010160016801F01001A3
:1054900000910099016841F080010160016801F00C
:1054A000800100910099016841F0010101600168EB
:1054B00001F0010100910099016841F002010160D1
:1054C000016801F0020100910099016841F00801B2
:1054D0000160016801F0080100910099016841F044
:1054E00004010160006800F004000090009801B021
:1054F000704700000000000080B540F6385041F6CB
:105500000041C2F20040C4F200014FF6FF72016098
:105510000021C0E90111C0E903218161FFF784FA8C
:10552000002808BF80BDBDE88040FCF759B90000E5
:1055300080B540F6845042F20001C2F20040C4F24D
:1055400000014FF6FF7201600021C0E90111C0E9BE
:1055500003218161FFF768FA002808BF80BDBDE81C
:105560008040FCF73DB9000010B584B040F6D05043
:1055700041F20001C2F2004000240294C4F2000192
:10558000C0E9001484604FF6FF71C1608461FFF7C9
:105590004BFA08B1FCF724F940F6D05001A9C2F249
:1055A000004001940394FFF7CFF908B1FCF718F914
:1055B00004B010BD0000000010B584B040F61C60BF
:1055C00041F20041C2F2004000240294C4F2000102
:1055D000C0E9001484604FF6FF71C1608461FFF779
:1055E00023FA08B1FCF7FCF840F61C6001A9C2F2EE
:1055F000004001940394FFF7A7F908B1FCF7F0F815
:1056000004B010BD0000000080B541F2240044F653
:105610000041C2F20040C4F200010C2201604FF4CC
:10562000E13141600021C0E902110161C0E90521B9
:10563000C0E90711C0E90911FFF772FC08B1FCF7D6
:10564000CFF841F224000021C2F20040FFF720FC15
:1056500008B1FCF7C5F841F224000021C2F2004075
:10566000FFF7CEFB08B1FCF7BBF841F22400C2F211
:105670000040FFF7A9FB002808BF80BDBDE88040BF
:10568000FCF7AEB80000000080B541F2B80045F26A
:105690000001C2F20040C4F200010C2201604FF48C
:1056A000E13141600021C0E902110161C0E9052139
:1056B000C0E90711C0E90911FFF732FC08B1FCF796
:1056C0008FF841F2B8000021C2F20040FFF7E0FB82
:1056D00008B1FCF785F841F2B8000021C2F20040A1
:1056E000FFF78EFB08B1FCF77BF841F2B800C2F27D
:1056F0000040FFF769FB002808BF80BDBDE880407F
:10570000FCF76EB80000000080B541F24C1047F67F
:105710000001C2F20040C4F200010C2201604FF40B
:10572000E13141600021C0E902110161C0E90521B8
:10573000C0E90711C0E90911FFF7F2FB08B1FCF756
:105740004FF841F24C100021C2F20040FFF7A0FBDD
:1057500008B1FCF745F841F24C100021C2F20040BC
:10576000FFF74EFB08B1FCF73BF841F24C10C2F2D8
:105770000040FFF729FB002808BF80BDBDE880403E
:10578000FCF72EB80000000080B541F2E01047F6AB
:105790000041C2F20040C4F200010C2201604FF44B
:1057A000E13141600021C0E902110161C0E9052138
:1057B000C0E90711C0E90911FFF7B2FB08B1FCF716
:1057C0000FF841F2E0100021C2F20040FFF760FB49
:1057D00008B1FCF705F841F2E0100021C2F20040E8
:1057E000FFF70EFB08B1FBF7FBFF41F2E010C2F23E
:1057F0000040FFF7E9FA002808BF80BDBDE88040FF
:10580000FBF7EEBF0000000080B540F6FC6041F6FB
:105810000041C2F20040C4F201010C2201604FF4C9
:10582000E13141600021C0E902110161C0E90521B7
:10583000C0E90711C0E90911FFF772FB08B1FBF7D6
:10584000CFFF40F6FC600021C2F20040FFF720FBD2
:1058500008B1FBF7C5FF40F6FC600021C2F2004032
:10586000FFF7CEFA08B1FBF7BBFF40F6FC60C2F2CF
:105870000040FFF7A9FA002808BF80BDBDE88040BE
:10588000FBF7AEBF0000000080B540F6686041F253
:105890000001C2F20040C4F201010C2201604FF489
:1058A000E13141600021C0E902110161C0E9052137
:1058B000C0E90711C0E90911FFF732FB08B1FBF796
:1058C0008FFF40F668600021C2F20040FFF7E0FA67
:1058D00008B1FBF785FF40F668600021C2F2004086
:1058E000FFF78EFA08B1FBF77BFF40F66860C2F263
:1058F0000040FFF769FA002808BF80BDBDE880407E
:10590000FBF76EBF0000000080B540F6907044F2D7
:105910000041C2F20040C4F200010C2201604FF4C9
:10592000E13141600021C0E902110161C0E90521B6
:10593000C0E90711C0E90911FFF7F2FA08B1FBF756
:105940004FFF40F690700021C2F20040FFF7A0FA2E
:1059500008B1FBF745FF40F690700021C2F200400D
:10596000FFF74EFA08B1FBF73BFF40F69070C2F22A
:105970000040FFF729FA002808BF80BDBDE880403D
:10598000FBF72EBF0000000080B540F608000021A4
:10599000C2F20040C4F204010160092101714FF418
:1059A0000071C1800221C0F809100021C181017479
:1059B000FDF74EFA002808BF80BDBDE88040FBF728
:1059C0000FBF000000000000FEE700000000000024
:1059D000FEE70000000000000000000000000000E2
:1059E000EFF30980BFF36F8F154B1A681EF0100F8D
:1059F00008BF20ED108A20E9F04F10602DE9090062
:105A00004FF0500072B680F31188BFF34F8FBFF391
:105A10006F8F62B603F0E8FD4FF0000080F311884D
:105A2000BDE8090019680868B0E8F04F1EF0100FD3
:105A300008BFB0EC108A80F30988BFF36F8F7047FE
:105A40006413002400000000F0B581B044F22C473C
:105A5000C5F6020757F8042C02F00302032A03D10B
:105A6000012001B0F0BD00BF054657F82C0C0C46D4
:105A700020F0806047F82C0CFDF782F8064600BF46
:105A800057F82C0C000105D5FDF77AF8801B022889
:105A9000F6D964E057F8040CEE6895E80E0020F49F
:105AA0007C30012C40EA0130A2F101016FF35F214B
:105AB0004FF47E4202EB432247F8040C92B24FF0BF
:105AC000FE4302EB01004FF4FE012A6901EB06419F
:105AD00001F4FE0103EB0262084402F0FE410844B7
