:020000040800F2
:10000000B80700246D030008F134000871330008BC
:10001000E934000811080008793A000800000000DF
:100020000000000000000000000000005137000840
:100030001908000800000000F934000859370008CA
:100040008B0300088B0300088B0300088B03000858
:100050008B0300088B0300088B0300088B03000848
:100060008B0300088B0300088B0300088B03000838
:100070008B0300088B0300088B0300088B03000828
:100080008B0300088B0300088B0300085908000845
:100090008B030008690800088B0300088B03000825
:1000A0008B0300088B0300088B0300088B030008F8
:1000B0008B0300088B0300088B0300088B030008E8
:1000C0008B0300088B0300088B0300088B030008D8
:1000D0008B0300088B0300088B0300088B030008C8
:1000E0008B0300088B030008000000008B0300084E
:1000F0008B0300088B0300088B0300088B030008A8
:100100008B0300088B0300088B0300088B03000897
:100110008B0300088B0300088B0300088B03000887
:100120008B0300088B0300088B0300088B03000877
:100130008B0300088B0300088B0300088B03000867
:1001400000000000000000000000000000000000AF
:100150008B0300088B0300088B0300088B03000847
:100160008B0300088B0300088B0300088B03000837
:100170008B0300088B0300088B03000800000000BD
:100180008B0300088B0300088B0300088B03000817
:100190008B0300088B0300088B0300088B03000807
:1001A0008B0300088B0300088B030008000000008D
:1001B0008B0300088B0300088B0300088B030008E7
:1001C0008B0300088B030008000000000000000003
:1001D00000000000000000008B0300080000000089
:1001E000000000000000000000000000000000000F
:1001F00000000000000000008B0300088B030008D3
:100200008B0300088B030008000000008B0300082C
:100210008B0300088B0300088B0300088B03000886
:100220008B030008000000008B03000800000000A2
:100230008B0300088B030008000000008B030008FC
:100240008B0300088B0300088B0300088B03000856
:100250008B0300088B0300088B0300088B03000846
:100260008B0300088B0300088B0300088B03000836
:100270008B0300088B0300088B03000800000000BC
:100280008B0300088B0300088B0300088B03000816
:10029000000000008B0300088B0300080000000032
:1002A000000000008B0300088B0300088B0300088C
:1002B0008B0300088B0300088B0300088B030008E6
:1002C0008B0300088B0300088B03000800F002F882
:1002D00000F03CF80AA090E8000C82448344AAF1A4
:1002E0000107DA4501D100F031F8AFF2090EBAE8A2
:1002F0000F0013F0010F18BFFB1A43F0010318475A
:1003000084380000A4380000103A24BF78C878C1AF
:10031000FAD8520724BF30C830C144BF04680C600B
:10032000704700000023002400250026103A28BF53
:1003300078C1FBD8520728BF30C148BF0B60704757
:100340001FB503F0DCFB1FBD10B510BD00F05CF85D
:100350001146FFF7F5FF03F0AFFB00F07AF803B4A6
:10036000FFF7F2FF03BC00F081F800000A48804765
:100370000A4880470A480047FEE7FEE7FEE7FEE737
:10038000FEE7FEE7FEE7FEE7FEE7FEE70548064973
:10039000064A074B70470000290800082938000862
:1003A000CD020008B8010024B8070024B8030024D7
:1003B000B80300244FF0000200B513469446964659
:1003C000203922BFA0E80C50A0E80C50B1F1200168
:1003D000BFF4F7AF090728BFA0E80C5048BF0CC016
:1003E0005DF804EB890028BF40F8042B08BF704774
:1003F00048BF20F8022B11F0804F18BF00F8012BE6
:100400007047704770477047754600F02BF8AE464E
:1004100005006946534620F00700854618B020B510
:10042000FFF7B4FFBDE820404FF000064FF0000793
:100430004FF000084FF0000BAC46ACE8C009ACE848
:10044000C009ACE8C009ACE8C00921F007018D463D
:10045000704710B50446AFF300802046BDE8104059
:10046000FFF77DBF004870471000002401491820A5
:10047000ABBEFEE72600020070470000000000004F
:1004800010B5B0FA80F34FFA82FC4FEA531EB1FA6E
:1004900081F40023BCF1010F4FEA5414B8BF0123CB
:1004A00044EA0E0453EA040C4FF000030CD102702E
:1004B000C0E90113C0E90333C0E905330377C0E99C
:1004C00008338362C0F82B308CF0010010BD0000AF
:1004D000B0FA80F3083A4FEA531CB1FA81F34FEABD
:1004E000531318BF012243EA0C031A432CD10B8883
:1004F0009FED171ADBBA00EE103AB8EEC00A20EEF4
:10050000010AB2EE041A80ED080A4B88DBBA00EE4D
:10051000103AB8EEC00A20EE010A9FED0E1A80EDE7
:10052000090A8B88DBBA00EE103AB8EEC00A20EE5A
:10053000010A80ED0A0A8B7980F82C30C97980F89D
:100540002D10012180F82E1082F00100704700BFAD
:10055000CDCCCC3D0AD7233CB0B52DED068B82B077
:1005600040B304460D464FF00000F1B16168E1B1BF
:10057000B0EE608AF5EE400AF1EE10FA15DD9FED5F
:10058000329A84ED048A80FE490A9FED30AA6561A3
:1005900080FE0A0A84ED020A01F02AFB217F79B16C
:1005A000A169411AA9420BD2012002B0BDEC068B11
:1005B000B0BD00BF002002B0BDEC068BB0BD00BFD7
:1005C00094ED021A94ED030AB4EE410AF1EE10FA2A
:1005D0000ADA30EE082A82FE411AB4EE420AF1EE3F
:1005E00010FA30FE010A0EE0B4EE410AF1EE10FA04
:1005F00009DD30EE482A82FE400AB4EE421AF1EEDE
:1006000010FA31FE000A80FE491A2178A06101200B
:100610002077606881FE0A1A01F54071042384ED99
:10062000030AB6EEC11A81FE491A81FE0A1ABDEE0E
:10063000C11A11EE102A12BA019201AA00F068F84C
:1006400002B0BDEC068BB0BD0050C3470050C3C71D
:10065000F0B581B0022A05464FF0000004D81DB164
:10066000002918BF002B01D101B0F0BD40F2700687
:100670001446C2F2004606EB8207786800284FF065
:100680000000F1D1287328462C70C5E901137D6064
:1006900000F07EF830B1012028730021315501B0FF
:1006A000F0BD00BF00207860686001B0F0BD0000C0
:1006B00070B518B104460078022801D9002070BD39
:1006C00040F27006C2F20046305CC8B16568002096
:1006D0002073A5B1284600F0A3FF00281CBF00200E
:1006E00070BD204600F054F800284FF0000008BF0D
:1006F00070BDC5F89C00217870540120207370BD36
:10070000207B002818BF012070BD00000000000001
:1007100080B58AB0844600284FF00000099014D0BC
:100720009CF80C00A0B19CF800E040F27000C2F20E
:100730000040082B10F80EE04FF0000005D8B0EB99
:10074000517F08BFBEF1000F06D00AB080BD00BFC8
:1007500000200AB080BD00BF4FF000000AB9002B96
:10076000F3D101914FF08041CDE90210CDE9043081
:10077000CDE906000890DCF8040001A900F0D8F8E3
:10078000B0FA80F040090AB080BD0000000000000F
:1007900070B58AB010B344680025BCB1CDE90855E6
:1007A000CDE906550220049002A92046CDE9025564
:1007B0000126059600F038F940B9002100220123F6
:1007C00020460096002500F077F918B128460AB0B7
:1007D00070BD00BF204600F007FF18B10025284675
:1007E0000AB070BD01210022C0F20021204600F0B5
:1007F00057F838B1204600F013FF002528460AB00C
:1008000070BD00BF012528460AB070BD0000000081
:10081000FEE700000000000070470000000000003C
:1008200072B600BFFEE7000044F60400C5F6020001
:10083000816841F0020181600168890409D401687E
:1008400089045CBF01685FEA814102D401688904C0
:10085000F2D570470000000040F2C400C2F2004030
:1008600000F086BA0000000040F2C400C2F200406E
:1008700000F07EBA00000000B0B5044601F0B8F9FF
:1008800040F200010546C2F20041621C097818BF1F
:100890000C4400BF01F0ACF9401BA042FAD3B0BD3C
:1008A00090F89830013B012B0ED80068836D0B4205
:1008B00012D0836D0B408B4216D1C36D43F00203FF
:1008C000C3658B0514D418E000F19C0101200222BD
:1008D0000B681A430A607047C36D43F00103C36598
:1008E0008B0505D409E000BF0323C3658B0504D540
:1008F000D0F8E0301343C0F8E0304B0504D5D0F811
:10090000E4301A43C0F8E4204FF6FF72436DC3F69B
:10091000CF720A401A4342658A0F4AF6140100203A
:10092000C4F200010B681A430A607047000000001F
:100930002DE9F04390F89830022B19D10668D6F8CB
:10094000C03013F07C5F1DD0D6F8C4309B0223D496
:10095000D6F8C4304D68002D0D69C3F3044C8B6884
:1009600024D00C682B43234343F0804E22E000BF89
:10097000D0F89C1041F00801C0F89C100120BDE89F
:10098000F08300BFD0F89C1041F02001C0F89C100B
:100990000120BDE8F08300BFD0F89C1041F4007145
:1009A000C0F89C100120BDE8F08300BF0C682B4309
:1009B00043EA844E836ED0F88450D1E907970CFB4C
:1009C00003F48B6949EA0767D1F81480D1F80C90D9
:1009D0001F4305EB840347EA080745F824E047EA8C
:1009E00009475F60CF6887B143F674350833033237
:1009F0000024C0F6000500BF171957F8037C1F51EB
:100A0000CF680434EF5DBC42F6D3012101FA0CF14A
:100A1000C6F8D010C0F894100020BDE8F0830000A4
:100A2000704700000000000080B590F89820013A5F
:100A3000012A0BD80A68002ACA680FD00B69072A56
:100A400043EA427E18D18B691BE000BFD0F89C10AE
:100A500041F00201C0F89C10012080BD072A19D185
:100A60000A69D1F81CC012048B6942EA0C221A43AD
:100A700042F0605218E000BFD1F808C04B6943EA69
:100A80008C73006F496800EBC10240F831E0002030
:100A9000536080BD8B68D1F810C09B0743EAC262E7
:100AA0004B6942EA0C421A434968C06E40F8212063
:100AB000002080BD0000000090F898C0BCF1010F3C
:100AC0000ED19200006842EA0111DDF800C041EA4F
:100AD000430141EA0C01C0F880100020704700BFBC
:100AE000D0F89C1041F00401C0F89C100120704720
:100AF000704700000000000089011AD540F2700123
:100B0000C2F200414A6812B1526882420CD08A682F
:100B100012B15268824209D0CA6852B15268824208
:100B200018BF7047022002E0002000E001200122EF
:100B30000A54704700000000B422402908BFA422D4
:100B40000068805800F07F0070470000000000003F
:100B50002DE9F04390F89870022F27D140292FD12A
:100B60000668D6F8A07017F4FE0F00F0C780D6F81C
:100B7000A4707F0600F0D480D6F8A470D6F8A450F4
:100B8000ED01C7F3052E0AD5D6F8A070B7F1FF3FE7
:100B900005DC0EF10107D6F8A06007EA164E00F159
:100BA000740400F14405F4463CE000BFD0F89C100A
:100BB00041F00801C0F89C100120BDE8F08300BF9F
:100BC000412925D10668D6F8B07017F4FE0F00F061
:100BD0009580D6F8B4707F0600F0A280D6F8B47085
:100BE000D6F8B450ED01C7F3052E0AD5D6F8B0708B
:100BF000B7F1FF3F05DC0EF10107D6F8B06007EA58
:100C0000164E00F1780400F14C05F4460AE000BFEE
:100C1000076D8F4272D900F17C0400F154054FF04A
:100C2000000C8E462D6824680EFB05F504EB850E3E
:100C300054F8257017F08047576054F8257027F056
:100C4000604608BFC7F38A46166054F8257007F05F
:100C50000057976054F8254004F000441461BEF832
:100C60000440D461BEF8064014F00F04D460DEF8EE
:100C7000044004F480145461DEF8044004F40014C9
:100C800094619EF8074004F07F041462DEF804408B
:100C90004FEAD474546228D043F674380024C0F666
:100CA00000080EEB0406651C377A1F55D76818F844
:100CB0000770BD4219D21F19757A7D70D56818F872
:100CC0000590A51C4D453FBFB57ABD70D56818F895
:100CD00005903CBFE51C4D4507D2F57A0434FD7004
:100CE000D56818F80550AC42DBD3402910D1006814
:100CF000C0F8A8C00020BDE8F08300BFD0F89C1069
:100D000041F02001C0F89C100120BDE8F08300BF35
:100D100041290FD10068C0F8B8C00020BDE8F083B9
:100D2000D0F89C1041F48071C0F89C100120BDE8FF
:100D3000F08300BF1F2909D80068012202FA01F1DF
:100D4000C0F898100020BDE8F08300BF006801F0F3
:100D50001F01012202FA01F1C0F89C100020BDE839
:100D6000F083000000000000704700000000000059
:100D70002DE9F04F89B004464AF61000C4F2000095
:100D800001684AF61400C4F200000268206802EA12
:100D90000108056DD0F85490036D0293436D0193E3
:100DA000036D0493436D0393036D0893436D0793A1
:100DB000036D0693436D0593D0F854A0D0F850B05E
:100DC0005FEACA530ED51BF480710BD04FF48071CB
:100DD00001654AF610010020C4F2000108602046B7
:100DE000FFF7C2FF05EA09064AF610095FEA4A5012
:100DF000C4F200094FEA887711D51BF480600ED049
:100E00002068D0F8DC10D0F8E42011404FF4806264
:100E100002650020C9F80000204600F0DDFDDDE994
:100E2000011000EA010506F4704657B12068002160
:100E3000016508F00300C9F8000020463946FFF7B5
:100E4000EFFDDDE9031000EA010705F00F0546B1EB
:100E50002068314606650020C9F80000204600F0F1
:100E6000C3FD07F0F00645B120682946056500205E
:100E7000C9F80000204600F06FFB46B120683146FB
:100E800006650020C9F80000204600F0A9FB5FEAD3
:100E90000A500CD51BF4006009D020684FF40061A3
:100EA00001650020C9F80000204600F0A1FD5FEABE
:100EB0008A5011D51BF400700ED02068D0F8D810DD
:100EC000D0F8E02011404FF4007202650020C9F80C
:100ED0000000204600F084FD5FEA0A300CD51BF4C8
:100EE000002009D020684FF4002101650020C9F8D6
:100EF0000000204600F02CFB5FEACA300CD51BF442
:100F0000803009D020684FF4803101650020C9F895
:100F10000000204600F05CFD5FEA4A30DDE9051084
:100F200000EA01050CD51BF4802009D020684FF49D
:100F3000802101650020C9F80000204600F044FD32
:100F40005FEA8A30DDE9071000EA010005F0607110
:100F50000FD51BF400320CD022684FF40033136518
:100F60000022C9F80020D4F89C2042F08002C4F886
:100F70009C2000F0715539B1206801650020C9F846
:100F800000002046FFF7B8FD206845B10565002147
:100F9000C9F80010D4F89C102943C4F89C10A9F596
:100FA000016188420AD0D4F89C00002868D020460D
:100FB00009B0BDE8F04FFFF79BBD00BF60688168D6
:100FC0008907F0D0016A426A036A476A114003EA5E
:100FD000070202F03005D0F82080D0F82490D0F835
:100FE00020B0D0F824A0026A089211F00F01426AE2
:100FF0000792466A026A069203D00162204600F018
:10100000D7FC08EA09072DB1606829460562204629
:1010100000F0D6FC70060BEA0A0607F4C0750ED580
:10102000069810F040000AD060684023C16BC26B84
:10103000090C02F03F020362204600F0BDFCDDE92E
:10104000071000EA010706F4FC462DB16068294646
:101050000562204600F0A8FC07F4F02036B1616874
:101060000E62D4F89C103143C4F89C1000289AD02A
:1010700061680862D4F89C100843C4F89C0092E7A9
:1010800009B0BDE8F08F00002DE9F04F85B0A8B39E
:101090004AF200080446C4F200080068404531D016
:1010A00094F89810A9B3816921F01001816100F0D2
:1010B0009FFD054620688169090705D500F098FD68
:1010C000401B0B28F6D310E0816941F001018161DA
:1010D00000F08EFD054600BF20688169C90721D157
:1010E00000F086FD401B0B28F6D30120D4F89C109D
:1010F0000843C4F89C00032084F89800012005B040
:10110000BDE8F08F08F58071616094F898100029AF
:10111000C9D1002084F89900204600F0B5F9206874
:10112000C1E700BF816941F002018161217C8269D0
:1011300022F04002012918BF40328261617C82693D
:1011400022F48042012908BF02F580428261A17C1D
:10115000826922F48052012918BF02F5805282610F
:10116000816921F44073D4E902120B4383618369DE
:1011700023F0A4038361036923F0100303619AB190
:10118000012A0DD0022A09D08369032A43F0800383
:101190008361036943F01002026105D1202200E05F
:1011A000042283691A438261D4E90572E369561EF9
:1011B0006FF0FF02256A02EB0323B1F5407F43EA9B
:1011C0004663A5F1010646EA030640F20003CFF6A6
:1011D000FF7303EB074746EA0701C16110D1D4E969
:1011E0000B65D4E90917013F02EB06226FF00F06E9
:1011F0003A4306EB05173A4303EB01411143C16043
:10120000236E2BB1616ED0F8C0201143C0F8C0101E
:10121000E16DCDE90313D94243F61831C0F6000160
:1012200009D0D0F8C820A36E22F0070251F823306D
:101230001A43C0F8C820D4F840A0BAF1000F09D072
:10124000D0F8BC20636C22F0070251F823301A4317
:10125000C0F8BC20A76C57B1D0F8BC20E36C22F0DA
:10126000700251F8233042EA0312C0F8BC20D4F8CF
:1012700050C0BCF1000F0AD0D0F8BC20636D22F43E
:10128000E06251F8231042EA0121C0F8BC10404549
:1012900004D161688A6822F003028A600021C4F8E0
:1012A0009410C4F89C10012184F898104FF6FC7239
:1012B000D0F88410D4F83C9021EA0203656CD4E99C
:1012C0000D120292019543EA8103C0F88430D0F8F0
:1012D000843023F47F0343EA0243C0F88430531878
:1012E000D0F888606FF38F0646EA8306C0F88860FE
:1012F000D0F8886003EB490326F4FE0646EA094667
:10130000C0F88860D0F8A0606FF38F0646EA8306C5
:10131000C0F8A060D0F8A06005FB0A3326F4FE06F2
:1013200046EA0A46C0F8A060D0F8B0606FF38F06B6
:1013300046EA8306C0F8B060D0F8B06026F4FE0636
:1013400046EA0746C0F8B060E66CD0F8AC506FF3E0
:101350008F0506FB07337E4345EA8305C0F8AC5092
:10136000D4F8548008FB0C35D0F8F0306FF38F03BD
:1013700008FB0CFC43EA8503C0F8F030D0F8F0E03D
:10138000A36D2EF47C1242EA0342C0F8F02005EB74
:101390004302D0F8C0506FF38F0545EA8202C0F8CF
:1013A000C020D0F8C020DDF80CB022F47C1242EA54
:1013B0000B42C0F8C020019AD0F8C05025F07C55EF
:1013C00002FB0AFE4AF20002C4F20002DDF810A09D
:1013D00002EB8101029A01F5406145EA0A6501EBE1
:1013E0008207C0F8C05007EBC902A56E02EB8E0061
:1013F000626700EB86060BFB05F2276706EB8C079E
:10140000C4E91E060AFB05F007EBC30303EB8202E7
:10141000C4F884304DF2FC33E16602EB8000C4F284
:1014200000039842C4F88070C4F88820C4F8900083
:1014300002D920205AE600BF814221D20A4600206C
:1014400042F8040BD4F890309A4215D2486001F16A
:101450000802D4F890309A423FBF0020886001F122
:101460000C02D4F8903038BF9A4205D2C8601031CF
:10147000D4F890209142E1D305B0BDE8F08F00BFD1
:10148000002005B0BDE8F08FB0B5B4B069460446A1
:1014900001F128009021FEF78DFF4AF2000120683B
:1014A000C4F20001884201D034B0B0BD00244FF432
:1014B00000400090052002900225CDE904508020D4
:1014C0000194CDE907044FF000501B90684650216D
:1014D00003910695099400F0D7FC08B1FFF7A0F935
:1014E00044F2E040C5F60200C16841F48071C16079
:1014F000C16801F480712F912F99016841F00101B9
:10150000016000682FA900F001002F902F984FF480
:10151000C050CDE92F05092033900020C5F6020008
:10152000CDE9314400F068FA13200021002200F0D8
:1015300043FC132000F030FC15200021002200F0B5
:101540003BFC152000F028FC34B0B0BD00000000CA
:1015500070470000000000002DE9F0438DB040F21C
:1015600070020446C2F20042556815B16868A04294
:1015700009D0956815B16868A04204D0D5684DB30C
:101580006868A04226D1C80724D040212046FFF732
:10159000D3FAF8B10DF10C0901AF6FF0804804E007
:1015A00040212046FFF7C8FAA0B1402120464A4614
:1015B0003B46FFF7CDFA68B9049810EA080FEFD15F
:1015C000AE68002EECD09DF81830039928463A46B4
:1015D000B047E5E70DB0BDE8F08300000000000073
:1015E000704700000000000090F8981001290DD10C
:1015F000022180F8981001688A6922F001028A614C
:101600000021C0F89C100846704700BFD0F89C101D
:1016100041F00401C0F89C10012070470000000058
:1016200090F8981002292BD1016851F8182F42F038
:1016300001020A600A68D20706D10A68D20704BF0D
:101640000A685FEAC27223D00A6822F010020A60B8
:101650000A68120707D50A68120744BF0A685FEADA
:10166000027200F1CF800A6842F002020A60002193
:10167000C0F89410012280F898200846704700BFF7
:10168000D0F89C1041F00801C0F89C100120704770
:101690000A68D20704BF0A685FEAC272D4D10A6836
:1016A000D20704BF0A685FEAC272CDD10A68D207C6
:1016B00004BF0A685FEAC272C6D10A68D20704BFD3
:1016C0000A685FEAC272BFD10A68D20704BF0A681B
:1016D0005FEAC272B8D10A68D20704BF0A685FEA3B
:1016E000C272B1D10A68D20704BF0A685FEAC27247
:1016F000AAD10A68D20704BF0A685FEAC272A3D1FE
:101700000A68D20704BF0A685FEAC2729CD10A68FD
:10171000D20704BF0A685FEAC27295D10A68D2078D
:1017200004BF0A685FEAC2728ED10A68D20704BF9A
:101730000A685FEAC2727FF487AF0A68D20704BF03
:101740000A685FEAC2727FF47FAF0A68D20704BFFB
:101750000A685FEAC2727FF477AF0A68D20704BFF3
:101760000A685FEAC2727FF46FAF0A68D20704BFEB
:101770000A685FEAC2727FF467AF0A68D20704BFE3
:101780000A685FEAC2727FF45FAF0A68D20704BFDB
:101790000A685FEAC2727FF457AF0A68D20704BFD3
:1017A0000A685FEAC2727FF44FAF0A68D20704BFCB
:1017B0000A685FEAC2727FF447AF0A68D20704BFC3
:1017C0000A685FEAC2727FF43FAF0A68D20704BFBB
:1017D0000A685FEAC2727FF437AF0A68D20704BFB3
:1017E0000A685FEAC2727FF42FAF0A68D20704BFAB
:1017F0000A685FEAC2727FF427AF0A68D20700F076
:10180000C58021E70A68120744BF0A685FEA0272CE
:101810007FF529AF0A68120744BF0A685FEA0272BF
:101820007FF521AF0A68120744BF0A685FEA0272B7
:101830007FF519AF0A68120744BF0A685FEA0272AF
:101840007FF511AF0A68120744BF0A685FEA0272A7
:101850007FF509AF0A68120744BF0A685FEA02729F
:101860007FF501AF0A68120744BF0A685FEA027297
:101870007FF5F9AE0A68120744BF0A685FEA027290
:101880007FF5F1AE0A68120744BF0A685FEA027288
:101890007FF5E9AE0A68120744BF0A685FEA027280
:1018A0007FF5E1AE0A68120744BF0A685FEA027278
:1018B0007FF5D9AE0A68120744BF0A685FEA027270
:1018C0007FF5D1AE0A68120744BF0A685FEA027268
:1018D0007FF5C9AE0A68120744BF0A685FEA027260
:1018E0007FF5C1AE0A68120744BF0A685FEA027258
:1018F0007FF5B9AE0A68120744BF0A685FEA027250
:101900007FF5B1AE0A68120744BF0A685FEA027247
:101910007FF5A9AE0A68120744BF0A685FEA02723F
:101920007FF5A1AE0A68120744BF0A685FEA027237
:101930007FF599AE0A68120744BF0A685FEA02722F
:101940007FF591AE0A68120744BF0A685FEA027227
:101950007FF589AE0A68120744BF0A685FEA02721F
:101960007FF581AE0A68120744BF0A685FEA027217
:101970007FF579AE0A68120744BF0A685FEA02720F
:101980007FF571AE0A6812077FF56DAED0F89C1036
:1019900041F00101C0F89C10032180F8981001204B
:1019A00070470000000000007047000000000000C9
:1019B00070470000000000007047000000000000B9
:1019C00070470000000000007047000000000000A9
:1019D0007047000000000000704700000000000099
:1019E0007047000000000000704700000000000089
:1019F00070470000000000002DE9F04F84B08E46D3
:101A000042F20042C5F602020A219042DEF800507E
:101A100008BF0921002D009100F0E68000F1264268
:101A2000009902F1FF7200244FEAB2230126082B2D
:101A30004FF0000738BF19464FF00008CDF808E016
:101A400000910DE0DEF8005008F1010835FA06F1CA
:101A500007F1020706F1010604F1040400F0C48056
:101A6000A6F1010A012101FA0AF315EA0309E9D0F6
:101A7000DEF804B00BF003056A1E012A1AD8032110
:101A8000D0F808C001FA07FE02992CEA0E0CDDF826
:101A900008E0CA68BA4042EA0C028260CBF3001246
:101AA000D0F804C02CEA030302FA0AF21A43426097
:101AB0000CE000BF032D09D1DEF80820012A05D172
:101AC0000325BC4605FA07F2D1432FE00321C26883
:101AD00001FA07F3022D6FEA030122EA0302DEF89E
:101AE00008304FEA480C03FA07F342EA0302C260E7
:101AF0001CD101916FF0030101EA5A0204F01C05A8
:101B000002440F2101FA05F3D2F820B002992BEA22
:101B10000303D1F810E001990EFA05F5DDF808E0AD
:101B20002B431362DEF804B00BF0030502681BF4CC
:101B3000403F01EA020105FA0CF241EA02010160AC
:101B40003FF480AF44F2F44240F2084CC5F6020282
:101B5000C5F6000C0F25116841F0020111601168F3
:101B600001F0020103912AF00301039A04F00C0230
:101B700051F80C309540AB43009D05FA02F21A4330
:101B800041F80C204FF0B04CDCF80010DEF80420D7
:101B900041EA0903D50258BF21EA09039502CCF8AE
:101BA000003040F2040CC5F6000CDCF8001041EAED
:101BB000090358BF21EA09039503CCF80030DCF88B
:101BC000801041EA090358BF21EA0903D203CCF887
:101BD0008030DCF87C1041EA090358BF21EA090390
:101BE000CCF87C302EE700BF04B0BDE8F08F0000D9
:101BF00040F2B010C2F200400068704700000000E0
:101C000040F2000040F2B011C2F20040C2F20041C6
:101C100000780A6810440860704700000000000067
:101C200080B5032000F0F8F800F0B6FF44F2184148
:101C300043F66433C5F60201C0F600030A6809687A
:101C400001F00F01C2F30322595C9A5C01F01F01FD
:101C500002F01F02D04040F20C02C2F2004220FA11
:101C600001F1116040F20801C2F2004108600F204A
:101C700000F00AF800281CBF012080BD00F07CF8AD
:101C8000002080BD0000000070B540F20006C2F2E6
:101C900000463178E1B1044640F20800C2F200404B
:101CA0004FF47A72B2FBF1F10068B0FBF1F001F091
:101CB0008BFA0F2C4FF0010508D838B94FF0FF30E0
:101CC00000222146002500F077F87460284670BD98
:101CD000012070BD0000000010B54EF6A05E4178F6
:101CE000CEF2000E90F800C04EF8081CDEF800108E
:101CF00021F00101CEF8001041684EF8041C017B70
:101D0000C37A827A447B1B0643EA0171837B41EAF2
:101D1000C241C27B41EA8441447A41EA4341007AAC
:101D200041EA024141EA042141EA400040EA0C0054
:101D3000CEF8000010BD00004EF62450CEF2000098
:101D4000BFF35F8F016821F48031016000210167DA
:101D500070470000000000004EF6245140F00100E2
:101D6000CEF200010867086840F480300860BFF3D5
:101D70004F8FBFF36F8F704781B044F2F440C5F6C8
:101D80000200016841F002010160006800F00200F9
:101D90000090009801B07047002848BF704700F0DD
:101DA0001F01012202FA01F14EF200124009CEF2A7
:101DB000000242F820107047B0B54EF60C5C00F0FF
:101DC0000F05CEF2000C043D6544DCF800304FF006
:101DD000FF3CC3F3022E8EF00703042B28BF04231D
:101DE000BEF1030438BF00240CFA03F3B0F1FF3F47
:101DF00021EA030105F10C0300F160450CFA04F03F
:101E0000C8BF05F56443A14022EA00000843000171
:101E10001870B0BD000000004EF60C514FF6FF03E5
:101E2000CEF200010A681A4060F30A2242F0806094
:101E300040F0FD7008607047B0B544F60C05C5F67B
:101E4000020529684907296806D401F00701081A24
:101E500018BF0120B0BD00BF21F007010843286072
:101E6000FFF7C6FE044600BF55F8080C800407D4EF
:101E7000FFF7BEFE001BB0F57A7FF5D90120B0BD9B
:101E80000020B0BD000000002DE9F0470446C078F6
:101E900044F22C480007C5F6020833D5606E4FEABD
:101EA000305103290CD8DFE801F003111D2600BFD3
:101EB000D8F8001041F40031C8F800101BE000BF52
:101EC00001266078C0070BD020E000BF04F10800B5
:101ED000022101F015FB064660B16078C00715D1FC
:101EE000354646E004F12800022101F09DFB06463C
:101EF0000028F2D1606ED8F8241021F44011084374
:101F0000C8F8240000266078C007E9D0A06D042836
:101F10000ED83546DFE800F00412181E1E0000BF80
:101F2000D8F80000354640F40030C8F8000011E051
:101F300001250127607840071FD453E004F1080011
:101F4000002101F0DDFA04E004F12800002101F095
:101F50006BFB05462F461DB1607840070DD441E06C
:101F6000D8F82400A16D20F0070000250843C8F828
:101F7000240037466078400734D5D4F8A4004FEAEF
:101F8000705005280CD8DFE800F00311171D1D1D47
:101F9000D8F8000040F40030C8F8000012E000BF9C
:101FA000012501266078000720D455E004F10800DF
:101FB000002101F0A5FA04E004F12800002101F05D
:101FC00033FB05462E461DB1607800070ED443E072
:101FD000D8F82C00D4F8A41020F4600000250843A1
:101FE000C8F82C003E466078000735D5D4F8A80024
:101FF0004FEA306005280DD8DFE800F00412181E03
:102000001E1E00BFD8F8000040F40030C8F80000E1
:1020100012E000BF01250127E078800720D44EE0C0
:1020200004F10800002101F06BFA04E004F128003B
:10203000002101F0F9FA05462F461DB1E07880072E
:102040000ED43CE0D8F82C00D4F8A81020F0E060C2
:1020500000250843C8F82C003746E07880072ED5C5
:10206000E06C4FEA301003280ED8DFE800F00903D7
:10207000130900BFD8F8000040F40030C8F8000091
:102080002E467DB912E000BF012501266078C0060A
:1020900019D44CE004F10800022101F031FA0546A0
:1020A0002E461DB16078C0060DD440E0D8F820005F
:1020B000E16C20F0300000250843C8F820003E46BF
:1020C0006078C00633D5E06D4FEA303004280DD873
:1020D000DFE800F00412181E1E0000BFD8F8000050
:1020E00040F40030C8F8000012E000BF01250127CD
:1020F000607880061FD44EE004F10800002101F052
:10210000FFF904E004F12800002101F08DFA0546F2
:102110002F461DB1607880060DD43CE0D8F824002D
:10212000E16D20F4E04000250843C8F8240037465C
:10213000607880062FD5206E4FEA3040052809D8F8
:10214000DFE800F0040E1404040400BF2E46ADB90D
:1021500018E000BF01250126607840061FD44FE03B
:1021600004F10800012101F0CBF904E004F128009A
:10217000012101F059FA05462E461DB1607840064E
:102180000DD43DE0D8F82400216E20F4E020002595
:102190000843C8F824003E466078400630D5D4F89D
:1021A000AC004FEA3070052808D8DFE800F0030DD6
:1021B000130303032F46ADB918E000BF0125012723
:1021C0006078000620D442E004F10800012101F00B
:1021D00097F904E004F12800012101F025FA0546F1
:1021E0002F461DB1607800060ED430E0D8F82C00E0
:1021F000D4F8AC1020F0E04000250843C8F82C00CB
:1022000037466078000622D5E06E58B1B0F1005F25
:102210000CD0B0F1805F2FD1D8F8000040F400302E
:10222000C8F800002E469DB908E000BF04F1080080
:10223000012101F065F905462E464DB9D8F8240074
:10224000E16E20F0405000250843C8F824003E46C7
:10225000E078C00733D0A06C032813D8DFE800F083
:1022600008021A08D8F8000040F40030C8F800004E
:10227000A946BDB91AE000BF01250126E078C007D4
:10228000E9D11CE001254FF00109A07840061AD5DC
:102290001CE000BF04F10800022101F031F90546FD
:1022A000A9461DB1A07840060DD50FE0D8F8200052
:1022B000A16C20F0030000250843C8F82000B146B7
:1022C000A078400602D44F4618E000BFD8F8D403E7
:1022D00040F48070C8F8D403FFF78AFC064600BFBC
:1022E000D8F8D403C00507D4FFF782FC801B64280C
:1022F000F6D90325032701E02F468DB12078C007CA
:1023000061D0A06F4FEAF00005283BD8DFE800F06D
:1023100004404604040400BF002D2E4646D149E087
:10232000D8F84410D4F8B000414011F4407F11D0E7
:10233000D8F84410D8F8442042F48032C8F8442039
:10234000D8F8442021F4407122F48032C8F84420A7
:10235000C8F84410B0F5807F40F0CE82FFF748FC0B
:10236000064641F2883A0325032700BFD8F8440007
:10237000800700F1BF82FFF73BFC801B5045F5D979
:10238000BCE700BF01250126207880071FD44CE060
:1023900004F10800012101F0B3F804E004F1280081
:1023A000012101F041F905462E461DB12078800734
:1023B0000DD43AE0D8F82800A16F20F038000025AD
:1023C0000843C8F828003E46207880072DD5606F66
:1023D000052809D8DFE800F0040E1404040400BF47
:1023E0002F46ADB918E000BF01250127207840072E
:1023F0001FD44DE004F10800012101F081F804E050
:1024000004F12800012101F00FF905462F461DB106
:10241000207840070DD43BE0D8F82800616F20F009
:10242000070000250843C8F82800374620784007F1
:102430002ED5D4F89000052808D8DFE800F0030D69
:10244000130303032E46ADB918E000BF0126012592
:102450002078800620D451E004F10800012101F029
:102460004FF804E004F12800012101F0DDF80546F1
:102470002E461DB1207880060ED43FE0D8F82C00FF
:10248000D4F8901020F0070000250843C8F82C006D
:102490003E462078800631D5D4F88C004FEA307063
:1024A000052809D8DFE800F0040E1404040400BF76
:1024B0002F46ADB918E000BF01270125207840065E
:1024C00020D451E004F10800002101F019F804E0E3
:1024D00004F12800022101F0A7F805462F461DB19E
:1024E000207840060ED43FE0D8F82800D4F88C10AD
:1024F00020F0E04000250843C8F82800374620783F
:10250000400631D5D4F898004FEAB020052809D804
:10251000DFE800F0040E1404040400BF2E46ADB939
:1025200018E000BF012601252078000620D454E0E1
:1025300004F10800002100F0E3FF04E004F12800AA
:10254000022101F071F805462E461DB120780006E3
:102550000ED442E0D8F82C00D4F8981020F4E050C3
:1025600000250843C8F82C003E462078000634D5E4
:10257000D4F89C004FEA703005280FD8DFE800F04F
:1025800004141A04040400BF2F46E5B120680107B3
:1025900027D4C1063ED4000355D475E00127012598
:1025A00020680107F5D51CE004F10800002100F0C7
:1025B000A7FF04E004F12800022101F035F80546E8
:1025C000002D2F46E2D1D8F82C00D4F89C1020F42E
:1025D000604000250843C8F82C00374620680107F2
:1025E000D7D5D4F88000B0F5805F09D104F1280078
:1025F000022101F019F8002818BF0127D4F8800043
:10260000D8F8281021F440510843C8F82800206861
:10261000C106C0D5D4F89400B0F5807F09D104F18B
:102620002800022101F000F8002818BF0127D4F883
:102630009400D8F82C1021F440710843C8F82C00FD
:102640002068000320D5D4F8A000B0F5003F0FD0DB
:10265000B0F5803F06D078BB04F10800002100F0FF
:102660004FFF04E004F12800022100F0DDFF0546E1
:102670002E4655B9D8F82C00D4F8A01020F44030DC
:1026800000250843C8F82C003E46A07840072BD50B
:10269000D4F88400B0F5401F0BD0B0F5001F11D066
:1026A000B0F5801F2AD1D8F8000040F40030C8F8F7
:1026B00000002F46CDB90DE001260125A078400786
:1026C000E6D411E004F12800012100F0ADFF054639
:1026D0002F4655B9D8F82800D4F8841020F44010BB
:1026E00000250843C8F828003746A078C0070AD15B
:1026F0003E462168880016D533E000BF012701253A
:10270000A078C007F4D0206DB0F5803F10D018BB82
:10271000D8F8000040F40030C8F800002E4685B11B
:10272000216888001DD460688A0326D465E000BF54
:1027300004F10800022100F0E3FE0546002D2E46BC
:10274000EED1D8F82000216D20F480300025084318
:10275000C8F82000CCE700BF0126012521688800C9
:10276000E1D504F12800022100F05EFF002818BF27
:102770000126D4E900108A033FD5E26F6FF0010310
:1027800003EB3223022B0BD34FEA322343B1012B4D
:1027900040F0AA80D8F8003043F40033C8F8003085
:1027A00025B3CA022CD48A0234D44A003CD4CA0FBE
:1027B00049D1090251D4C1075AD1810763D44107D5
:1027C0006CD4010776D4C10600F18080800607D55D
:1027D00004F12800022100F027FF002818BF01257E
:1027E000002D18BF01252846BDE8F087D8F828300D
:1027F00023F440731A43C8F828203546CA02D2D5BC
:10280000D8F82420236F22F000421A43C8F824206D
:102810008A02CAD5D8F82420A36E22F080721A4307
:10282000C8F824204A00C2D558F81C2C22F40042D3
:1028300048F81C2CD4F8B42058F81C3C1A4348F82B
:102840001C2CCA0FB5D0D8F82020636D22F040525E
:102850001A43C8F820200902ADD5D8F82810D4F8BA
:10286000882021F440011143C8F82810C107A4D0E2
:1028700004F10800002100F043FE002818BF0546BF
:10288000606881079BD504F10800012100F038FE43
:10289000002818BF05466068410792D504F108007A
:1028A000022100F02DFE002818BF054660680107D0
:1028B0007FF589AF04F12800002100F0B5FE002863
:1028C00018BF05466068C1067FF580AF04F1280097
:1028D000012100F0A9FE002818BF054660688006A7
:1028E0007FF57EAF74E700BF0125CA027FF55BAFBD
:1028F00086E700BFD4F8B0004FF6CF7358F81C2C11
:10290000C0F2FF0300F4407122F47C5203EA10137A
:102910006FF31F30B1F5407F08BF1A43002548F818
:102920001C2CD8F844100843C8F84400FFF7CBBC6F
:102930002DE9F04381B0002800F02A8142F200081E
:102940000446C5F200288946D8F8000000F00F00C0
:1029500088420ED2D8F8000020F00F0040EA0900AB
:10296000C8F80000D8F8000000F00F00484540F01B
:102970000F81206844F218474107C5F602070AD5BF
:1029800021693A6802F07002914204D93A6822F053
:1029900070021143396001070AD561697A6802F053
:1029A0007002914204D97A6822F070021143796072
:1029B000C1060AD5A1697A6802F4E062914204D99D
:1029C0007A6822F4E0621143796081060AD5E169F0
:1029D000BA6802F07002914204D9BA6822F070021B
:1029E0001143B96010F002010AD0E2683B6803F0BD
:1029F0000F039A4204D93B6823F00F031A433A604D
:102A0000C20746D0386820F47061D4E90102012879
:102A100041EA0201396009D003280DD0022811D102
:102A200057F8181C890340F1B38010E057F8181CC0
:102A3000C90540F1AD800AE057F8181C890140F142
:102A4000A78004E057F8181C490740F1A18057F807
:102A5000081C21F00701084347F8080CFFF7C8F8E5
:102A6000064641F2883500BF57F8080C616800F04F
:102A70003800B0EBC10F09D0FFF7BAF8801BA842AD
:102A8000F2D9032001B0BDE8F08300BF206800F058
:102A9000020151B1E1683A6802F00F02914204D29A
:102AA0003A6822F00F0211433960D8F8001001F0A3
:102AB0000F0149450DD9D8F8001021F00F0141EA66
:102AC0000901C8F80010D8F8001001F00F014945BD
:102AD0005ED141070AD521693A6802F0700291423D
:102AE00004D23A6822F070021143396001070AD516
:102AF00061697A6802F07002914204D27A6822F029
:102B0000700211437960C1060AD5A1697A6802F49E
:102B1000E062914204D27A6822F4E0621143796063
:102B200080060AD5E069B96801F07001884204D2D4
:102B3000B96821F070010843B86000F02DF83968D9
:102B400043F664333A68C0F60003C1F3032102F090
:102B50000F02595C9A5C01F01F0120FA01F102F0AA
:102B60001F0040F20C0221FA00F0C2F20042106095
:102B700040F2040040F20802C2F20040C2F20042F9
:102B80000068116001B0BDE8F043FFF77DB800BFF9
:102B9000012001B0BDE8F08344F20041C5F6020116
:102BA0000869C0F3C200032810D002282CD088BBCB
:102BB0000868800649F20000C0F2D03058BF704764
:102BC0000968C1F3C101C840704700BF8A6A886ABA
:102BD000C0F3051CC86ABCF1000F4B6B20D0C3F3D7
:102BE000CC0300F00100584302F00302022A00EE79
:102BF000100AB8EE400A15D0C2B90868800619D488
:102C00009FED281A23E000BF47F64000C0F27D1078
:102C1000704700BF40F60010C0F23D00704700BF93
:102C2000002070479FED1E1A11E000BF9FED1B1A98
:102C30000DE000BF086849F20002C0F2D032C0F3D4
:102C4000C10022FA00F001EE100AB8EE411A086B3A
:102C50009FED153A6FF35F2002EE100A086BC0F388
:102C60004620B8EE422A013000EE032A00EE10CAD8
:102C7000B7EE003AB8EE400A81EE000A32EE031ACF
:102C800020EE010A01EE100AB8EE411A80EE010AA8
:102C9000BCEEC00A10EE100A704700BF0024744A50
:102CA00020BCBE4B0024744C000000390000000022
:102CB000F0B581B0002800F0D5800446007844F2D9
:102CC0000046C007C5F6020622D12078800768D5E5
:102CD000306910F03801B06A42D0182908BF5FEAA5
:102CE00080703DD0E0683168002800F0258121F037
:102CF000190108433060FEF77BFF05463068400746
:102D000048D4FEF775FF401B0228F7D977E100BFD2
:102D1000306900F03801B06A102905D018290BD1AC
:102D200000F00300022807D130688003CDD5606829
:102D30000028CAD196E000BF6068002800F0328108
:102D4000B0F5A02F00F04681B0F5803F00F046813D
:102D5000306820F480303060306820F4802040E11A
:102D600030684007E06801D500287BD0316821F049
:102D7000190108433060FEF73BFF05463068400705
:102D800008D4FEF735FF401B02284FF00300F5D9A9
:102D900001B0F0BD7068216920F0FE4040EA01609A
:102DA00070602078C00619D5306900F03801B06A2B
:102DB000082906D0182940F0818000F0030001287E
:102DC0007CD13068C00502D5E06980284AD1F0681E
:102DD000216A20F07C5040EA0160F0602078000712
:102DE00044D42078800655D42078400700F17E80B6
:102DF000656A9DB3306900F03800182840F01481EE
:102E0000012DB16A306B2DD001F00302A36A9A4202
:102E100028D1C1F30511E26A914223D10146226B08
:102E20006FF35F21013A91421CD1C0F34622616BDE
:102E300001398A4216D1C0F30642A16B01398A4298
:102E400010D1C0F30660E16B013988420AD1706B82
:102E5000A16CC0F3CC00814240F09C81002001B005
:102E6000F0BD00BF012001B0F0BD00BF60690028C7
:102E7000706F4FD040F001007067FEF7B9FE054655
:102E8000706F8007ADD4FEF7B3FE401B0228F7D960
:102E9000B5E000BFA0690028306871D040F48050D0
:102EA0003060FEF7A5FE0546306880049CD4FEF72E
:102EB0009FFE401B0228F7D9A1E000BFE06900286F
:102EC000306800F09F8040F080003060FEF790FE98
:102ED000054600BF3068C0053FF579AFFEF788FEB4
:102EE000401B02284FF00300F4D951E7D6F8000444
:102EF00040F48070C6F80004FEF77AFE054600BF75
:102F0000D6F80004C00529D4FEF772FE401B6428E1
:102F1000F6D974E020F001007067FEF769FE0546FF
:102F2000706F80077FF55DAFFEF762FE401B0228E1
:102F30004FF00300F4D92BE721F001003060FEF7D9
:102F400057FE0546306840077FF52BAFFEF750FE71
:102F5000401B02284FF00300F4D919E7A0680028AD
:102F600000F08480052800F09B80012800F09C8000
:102F7000306F20F001003067306F20F0040096E0E1
:102F800020F480503060FEF733FE05463068800440
:102F90007FF52AAFFEF72CFE401B02284FF00300FE
:102FA000F4D9F5E6306820F480303060306820F4E1
:102FB00080203060FEF71CFE054600BF30688003AD
:102FC0007FF583AEFEF714FE401B64284FF003002C
:102FD000F4D9DDE6306840F480203060306840F499
:102FE00080303060FEF704FE054600BF3068800385
:102FF0003FF56BAEFEF7FCFD401B6428F6D90320BD
:1030000001B0F0BD20F080003060FEF7F1FD054614
:103010003068C0057FF5E2AEFEF7EAFD401B0228EE
:103020004FF00300F4D9B3E6306820F080703060D0
:10303000FEF7DEFD022D05460CD100BF3068800191
:1030400048D5FEF7D5FD401B02284FF00300F5D907
:103050009EE600BF306880017FF500AFFEF7C8FD37
:10306000401B02284FF00300F4D991E6306F20F0A6
:1030700001003067306F20F004003067FEF7B8FDC4
:10308000054641F28837306F80077FF5B1AEFEF715
:10309000AFFD401BB8424FF00300F4D978E600BF03
:1030A000306F40F004003067306F40F0010030674F
:1030B000FEF79EFD054641F2883700BF306F80075E
:1030C0003FF596AEFEF794FD401BB8424FF003006B
:1030D000F4D95DE604F12807B06A40F2F331884381
:1030E0008ECF0843591E40EA02104FF47E426FF320
:1030F0005F21B06202EB47204FF4FE0280B2E36B27
:103100000844A16B02EB01414FF0FE4201F4FE01C5
:1031100002EB0362084402F0FE4108443063F06AA7
:103120004FF6F87120F00100F062706BA26C8843DA
:1031300040EAC2007063F06A216C20F00C00084382
:10314000F062F06A616C20F002000843F062F06AFD
:1031500040F48030F062F06A40F40030F062F06ACF
:1031600040F48020F062F06A40F00100F0623068C4
:1031700040F080703060FEF73BFD0446306880010F
:103180003FF56CAEFEF734FD001B02284FF0030044
:10319000F4D9FDE5F06A20F00100F062FEF728FDA9
:1031A0000546FEF725FDA842FBD0706B4FF6F8717F
:1031B000A26C884340EAC2007063F06A40F00100EC
:1031C000F062002001B0F0BD411E0020B0EB116F95
:1031D00002D00120704700BF4EF21002F023CEF261
:1031E000000251604EF62351CEF200010B70072110
:1031F0009060116070470000B0B590F83C20012A43
:103200004FF0020263D080F83D2040F2004C02688B
:10321000C4F2010C42F4806363455368D2F808E0BD
:1032200002BF23F470034C6823434DF6FF740D680E
:10323000C4F2000423F07003A24243EA0503536082
:1032400014DC40F2FF73C4F200039A4222DD40F620
:103250000003C4F200039A422ED040F60043C4F2A9
:1032600000039A4228D041F6000321E04FF6FF7395
:10327000C4F200039A4213DD0023C4F201039A4210
:103280001AD044F20003C4F201039A4214D06245FA
:1032900012D016E0B2F1804F0ED040F2004307E0AA
:1032A0004EF20003C4F200039A4205D04EF20043EE
:1032B000C4F200039A4204D12EF0800389681943B6
:1032C00091600022012180F83D1080F83C201046DA
:1032D000B0BD00000000000060B310B5044690F8D7
:1032E0003D0028B9002084F83C00204600F024F876
:1032F000022084F83D002068211D00F001FB012020
:1033000084F8480084F83E0084F83F0084F84000C8
:1033100084F8410084F8420084F8430084F84400B3
:1033200084F8450084F8460084F8470084F83D009E
:10333000002010BD0120704781B041F200010068FB
:10334000C4F20001884201D001B0704744F2E84065
:10335000C5F60200016841F010010160006800F04C
:1033600010000090009801B07047000000000000BD
:10337000FEE7000000000000B0B540F2800540F21A
:10338000C401C2F2004543F681232C1DC2F2004164
:10339000C0F6000300222046FDF75AF9002808BFB6
:1033A000B0BD05F1140002222146BDE8B040FDF792
:1033B00067B800000000000010B540F28004C2F2BF
:1033C0000044201DFDF774F940B194ED000A04F1AA
:1033D0001400DFED050A0A21FDF7BEF80220BDE862
:1033E0001040FDF749BA00BF0000C84200000000CD
:1033F00080B540F2C4004AF20001C2F20040C4F2BB
:1034000000010122052301600021C0E902110282AE
:103410008174C0E905320D23C3610223C0E908327B
:10342000C0E90A22C0E90C21C0E90E212022026471
:103430000423C0E91131C0E91331C0E91531C0E9F5
:103440001712C0E91913FDF71FFE002808BF80BD41
:10345000BDE88040FDF7E4B982B044F2E040C5F633
:103460000200016841F080010160016801F0800103
:1034700001910199016841F001010160006800F0CB
:1034800001000090009802B07047000000000000AA
:1034900010B584B040F2641041F20001C2F2004065
:1034A00000240294C4F2000101604FF48971C0E964
:1034B000011440F2E731C16080218161FFF70CFF08
:1034C00008B1FDF7ADF940F2641001A9C2F2004065
:1034D00001940394FFF790FE08B1FDF7A1F904B041
:1034E00010BD000000000000FEE70000000000002A
:1034F000FEE7000000000000704700000000000030
:10350000F0B581B044F22C47C5F6020757F8042CF9
:1035100002F00302032A03D1012001B0F0BD00BF75
:10352000054657F82C0C0C4620F0806047F82C0C10
:10353000FEF75EFB064600BF57F82C0C000105D5D0
:10354000FEF756FB801B0228F6D964E057F8040CFE
:10355000EE6895E80E0020F47C30012C40EA013042
:10356000A2F101016FF35F214FF47E4202EB43228F
:1035700047F8040C92B24FF0FE4302EB01004FF407
:10358000FE012A6901EB064101F4FE0103EB026230
:10359000084402F0FE410844F8603868696920F088
:1035A000C00040EA010038603868A96920F02000B6
:1035B00040EA0100386038684FF6F87120F01000DA
:1035C00038603869EA6920EA01004FF4001140EAE6
:1035D000C2003861386808BF4FF4801140F0100015
:1035E000002C386008BF4FF4002138680843386069
:1035F00057F82C0C40F0806047F82C0CFEF7F8FAD6
:10360000044600BF57F82C0C000107D4FEF7F0FA6F
:10361000001B0328F6D3032001B0F0BD002001B049
:10362000F0BD000000000000F0B581B044F22C476E
:10363000C5F6020757F8042C02F00302032A03D14F
:10364000012001B0F0BD00BF054657F82C0C0C4618
:1036500020F0805047F82C0CFEF7CAFA064600BF4F
:1036600057F82C0C800005D5FEF7C2FA801B022803
:10367000F6D964E057F8040CEE6895E80E0020F0E7
:103680007C70012C40EA0150A2F101016FF35F212F
:103690004FF47E4202EB432247F8040C92B24FF003
:1036A000FE4302EB01004FF4FE012A6901EB0641E3
:1036B00001F4FE0103EB0262084402F0FE410844FB
:1036C00078613868696920F4406040EA0100386038
:1036D0003868A96920F4007040EA01003860386851
:1036E0004FF6F87120F480703860B869EA6920EA12
:1036F00001004FF0807140EAC200B861386808BF2D
:103700004FF4000140F48070002C386008BF4FF483
:10371000800138680843386057F82C0C40F080501E
:1037200047F82C0CFEF764FA044600BF57F82C0C3F
:10373000800007D4FEF75CFA001B0328F6D30320B1
:1037400001B0F0BD002001B0F0BD0000000000009D
:103750007047000000000000FEF752BA00000000B1
:10376000B0B59CB044F61804022000251195CDE9AF
:103770000F55CDE90D55CDE90B550895C5F6020459
:10378000CDE90655CDE90455CDE902550195FEF781
:1037900053FB0095206820F440402060206800F42E
:1037A0004040009000982068800409D4206880047C
:1037B0005CBF20685FEA804002D420688004F2D5B4
:1037C000012009904FF480310A9102212C22CDE989
:1037D000152004201491CDE917010C20199009A897
:1037E0000024CDE91211CDE91A44FFF761FA18B1AE
:1037F00072B600BFFEE700BF3F20019003204FF4E8
:103800008061CDE90204082004904020CDE9050044
:10381000CDE9071001A80321FFF78AF810B172B6AD
:10382000FEE700BF1CB0B0BD4EF6885042F2000C5F
:10383000CEF20000C5F2002C026842F47002026071
:10384000DCF8000000F00F00062806D8DCF80000C5
:10385000072262F30300CCF8000044F200404EF669
:103860007F51C5F60200CEF6F621026842F0010251
:10387000026000220261036819400160DCF8001058
:10388000090706D5DCF80010072363F30301CCF821
:10389000001040F200218261C261C0F20221026286
:1038A00081620021C0F2FF11C16240F28021C0F2AA
:1038B0000111016342638163C26301644264016870
:1038C00021F4802101600266D0F8D410C90448BFF9
:1038D0007047D0F8D41043F2D20241F48051C0F8BE
:1038E000D41044F20001C5F200210A60D0F8D410CF
:1038F00021F48051C0F8D41070470000000000008F
:1039000010B540F6FF32D0F800E0C4F20002904259
:1039100010DCB0F1804F1ED040F20043C4F200032F
:10392000984218D040F60003C4F20003984212D027
:1039300016E000BF40F60043C4F2000398420AD0EC
:1039400040F20043C4F20103984204D00023C4F2C1
:103950000103984204D12EF070024B6843EA020E34
:103960004EF2FF3343F6FF7CC4F20003C4F2010CB5
:10397000984213DD60452BDC4EF20043C4F2000395
:10398000984242D00023C4F2010398423DD040F255
:103990000043C4F20103984237D03BE040F2FF738A
:1039A000C4F20003984227DD40F60003C4F200038E
:1039B00098422AD040F60043C4F20003984224D033
:1039C0004EF20003C4F2000398421ED022E000BF72
:1039D00044F20003C4F20103984216D044F60003F7
:1039E000C4F20103984210D044F20043C4F2010330
:1039F00098420AD00EE000BFB0F1804F05D040F2EF
:103A00000043C4F20003984204D12EF44072CB6804
:103A100043EA020E4B6960450A688C68C4628262A0
:103A200012DD44F20002C4F20102904217D044F6C3
:103A30000002C4F20102904211D044F20042C4F2EA
:103A4000010290420BD00CE00022C4F2010290422D
:103A500005D040F20042C4F20102904201D109694E
:103A60000163016841F004010160012141612EF010
:103A700080011943016010BDFEE700000000000056
:103A800080B540F2800CC2F2004C0CF1040E70457F
:103A90000ED16AB1C9B29CF81400884218BF80BD2B
:103AA0000CF1140011461A46BDE88040FCF710BD29
:103AB00080BD00000000000084B001200090FEF7EF
:103AC0003BF90020019048F21F70029040F2011073
:103AD00003906846FEF700F90420FEF73DF9FEF773
:103AE0009FF8FFF73DFEFFF7B7FCFFF781FCFFF7FC
:103AF000CFFCFFF741FC00BFFFF75EFCFCE7F1EEF7
:103B0000100A4FF6FF71C0F2C03120EA010040F008
:103B10004070E1EE100A7047000000000000000055
:103B20000000000000000000000000000100000094
:103B3000020000000300000004000000000000007C
:103B40000500000000000000000000000000000070
:103B5000060000000000000000000000000000005F
:103B6000070000000000000001020304010203043A
:103B7000060708090001020304050607080C1014D3
:103B800018203040A83B000800000024100000006E
:103B900008030008B83B000810000024A807000034
:103BA00024030008000000000100000010000000D5
:083BB0000090D0030090D00347
:04000005080002CD20
:00000001FF
