:020000040800F2
:100000003007002029020008631700089516000831
:1000100061170008270500087D1B0008000000008C
:10002000000000000000000000000000011A0008AD
:100030006D0500080000000065170008031A00089D
:10004000430200084302000843020008430200087C
:10005000430200084302000843020008430200086C
:10006000430200084302000843020008430200085C
:10007000430200084302000843020008430200084C
:10008000430200084302000843020008430200083C
:10009000290500083505000841050008430200084D
:1000A000430200084302000843020008430200081C
:1000B000430200084302000843020008430200080C
:1000C00043020008430200084302000843020008FC
:1000D00043020008430200084302000843020008EC
:1000E00043020008430200084302000843020008DC
:1000F00043020008430200084302000843020008CC
:1001000043020008430200084302000843020008BB
:1001100043020008430200084302000843020008AB
:10012000430200084302000843020008430200089B
:100130004302000800000000000000004302000825
:10014000430200084302000843020008430200087B
:10015000430200084302000843020008430200086B
:10016000430200084302000843020008430200085B
:1001700043020008430200080000000000000000E5
:10018000430200084302000800F002F800F03CF8C7
:100190000AA090E8000C82448344AAF10107DA45E2
:1001A00001D100F031F8AFF2090EBAE80F0013F0F8
:1001B000010F18BFFB1A43F001031847C01A0000D3
:1001C000E01A0000103A24BF78C878C1FAD8520764
:1001D00024BF30C830C144BF04680C6070470000C1
:1001E0000023002400250026103A28BF78C1FBD840
:1001F000520728BF30C148BF0B6070471FB501F0E0
:1002000030FD1FBD10B510BD00F0CFF81146FFF74F
:10021000F5FF01F013FD00F0EDF803B4FFF7F2FF76
:1002200003BC00F0F5F80000094880470948004782
:10023000FEE7FEE7FEE7FEE7FEE7FEE7FEE7FEE796
:10024000FEE7FEE704480549054A064B70470000F3
:100250009D1A0008890100083001002030070020A5
:10026000300300203003002053EA020C00F06980C4
:100270002DE9F04B4FF00006002B1FBFB3FA83F5BA
:1002800003FA05F424FA05F65E4012BF1643B2FAEB
:1002900082F502FA05F4C5F120051EBF22FA05FC1D
:1002A00044EA0C04203556EA044C4FEA144418BFC3
:1002B000641C4FF000084FF00009904271EB030CF2
:1002C00039D3002919BFB1FA81F701FA07F6B0FA5C
:1002D00080F700FA07F6C7F120071EBF20FA07FCD7
:1002E00046EA0C062037B6FBF4FCA7EB0507103FE7
:1002F00007F01F0BCBF120060CFA0BFB2CFA06F6CD
:1003000044BFB3460026202FA4BF5E464FF0000B2B
:100310005BEA060C08BF4FF0010B19EB0B09ABFBB6
:10032000027C48EB0608C01B06FB02CC0BFB03CC8F
:1003300071EB0C01C1E70B46024641464846BDE859
:10034000F08B13B54FF000004FF00001AFF30080C9
:10035000BDE81C4070474FF0000200B513469446BC
:100360009646203922BFA0E80C50A0E80C50B1F10D
:100370002001BFF4F7AF090728BFA0E80C5048BF21
:100380000CC05DF804EB890028BF40F8042B08BFBF
:10039000704748BF20F8022B11F0804F18BF00F8BB
:1003A000012B7047704770477047754600F02CF876
:1003B000AE4605006946534620F00700854618B052
:1003C00020B5FFF73FFFBDE820404FF000064FF09B
:1003D00000074FF000084FF0000B21F00701AC467A
:1003E000ACE8C009ACE8C009ACE8C009ACE8C00999
:1003F0008D46704710B50446AFF300802046BDE837
:100400001040FFF70ABF000000487047D0000020EE
:1004100001491820ABBEFEE726000200704710B16C
:100420004068002800D10020704710B58AB0FFF75F
:10043000F6FF044628216846FFF78DFFD4B100215E
:100440000120CDE9061003910491089005910E203A
:1004500000910191029109906946204600F004F94B
:1004600040B9204600F02AFC20B90221204600F0C5
:1004700080F810B100200AB010BD0120FBE7000099
:100480002DE9F0411546040007D031B12BB1032D01
:1004900003D20C4E56F8250010B10020BDE8F081C3
:1004A0002570C4E901130027277346F8254020462C
:1004B000FFF7BBFF10B101202073EFE746F825706E
:1004C0006760EAE79800002018B1007B08B10120BE
:1004D000704700207047F0B587B00D4606461C46B1
:1004E000174618216846FFF736FFBEB1307BA8B12A
:1004F000B5F1005F12D2082C10D804B177B10420F6
:10050000CDE901500020CDE903043046FFF787FF15
:1005100006AB3A46694600F03EF810B1002007B03D
:10052000F0BD0120FBE7FEE7014800F0B0B9000094
:1005300028000020014800F0AAB90000280000208F
:10054000014800F0A4B900002800002030B4064C97
:10055000A04206D1002A04D004F1100030BC01F002
:1005600043B930BC70470000A4000020704772B649
:10057000FEE790F82020012A07D0022A05D0416A20
:1005800041F48021416201207047006842690A43BA
:10059000426100207047F0B590F820500468A468CC
:1005A000012D05D0022D03D0416A41F4802157E08E
:1005B00014F0406F01D1E5004FD5C4F3016401256B
:1005C000A5401D608D684FF4C0739DB1CE68354362
:1005D0004E6845EAC605066803EB0417F5514FF46B
:1005E000C275076805EB04150E697E51097D012966
:1005F00005D009E00E88CD6845EA4655EBE701686D
:100600004E5946F480764E511179D579567941EAA2
:10061000056195792D0445EA062529434FF4C676F0
:10062000056806EB0416A9511178D57841EA0561F1
:10063000957852782D0445EA022211434FF4C4758F
:10064000026805EB04155151006803EB0411425890
:1006500042F0010242500020F0BD416A41F4001115
:1006600041620120F0BD000010B590F82020012A61
:1006700007D0022A05D0416A41F48021416201205D
:1006800010BD3B48D0F8002242F00102C0F8002221
:10069000D0F8002222F47C52C0F80022D0F80022C8
:1006A0004B6A42EA0322C0F800220A7D02F01F03CF
:1006B00001229A40D0F81C329343C0F81C32CB6917
:1006C000B3B9D0F80C329343C0F80C328C894B6824
:1006D00064F31F434C6900EBC404C4F840320C8936
:1006E0000B6864F31F434C6900EBC404C4F8443244
:1006F000CB69012B16D1D0F80C321343C0F80C3261
:100700000C884B6864F31F434C6900EBC404C4F8C5
:1007100040320C89CB6864F31F434C6900EBC4047E
:10072000C4F844328B69002BD0F804320ED0134346
:10073000C0F804320B69002BD0F8143208D01343F0
:10074000C0F81432096A012904D008E09343EFE7A6
:100750009343F5E7D0F81C121143C0F81C12D0F8EF
:10076000001221F00101C0F80012002010BD0000AD
:1007700000640040704700000246002092F82030DC
:10078000012B01D0022B05D1106821B1D0F8100047
:1007900000F003007047C068FAE770B590F8204099
:1007A000012C05D0022C03D0416A41F4802128E0BD
:1007B000046809B32469A40720D04FF4D8740568ED
:1007C00004EB01142D5915F00405956005682D59A9
:1007D0001AD0ED08556005682C5904F00204D46065
:1007E0004FF4DA74056804EB01142E5906F00F0675
:1007F000082E0CD308250DE0E468DCE7416A41F4DB
:1008000000114162012070BD6D0D1560E3E72D59A7
:1008100005F00F05156105682D59C5F3072595618C
:1008200005682C59240C54614FF4DC72046802EB07
:100830000112A4581C700468A458240A5C7004684F
:10084000A458240C9C700468A258120EDA704FF45D
:10085000DE72046802EB0112A4581C710468A458EB
:10086000240A5C710468A458240C9C710468A25882
:10087000120EDA71006829B1016941F020010161AD
:10088000002070BDC16841F02001C160F8E72DE98A
:10089000F05F0546006800244669D0F80490876838
:1008A000D0F80CB0D0F810A0D0F81880F10748D0DC
:1008B000F90714D001218160B80703D5284600F05C
:1008C0002AFA0CE0780702D54FF4006407E03807F5
:1008D00002D54FF4805402E0284600F01BFAF805D8
:1008E00016D529684FF480708860B80503D528466E
:1008F00000F013FA0CE0780502D544F4005407E048
:10090000380502D544F4804402E0284600F004FA99
:10091000F80316D529684FF480308860B80303D5F2
:10092000284600F0FCF90CE0780302D544F40044BA
:1009300007E0380302D544F4803402E0284600F092
:10094000EDF9300707D55FEACB6004D529681020A0
:1009500044F40074C86070074FF0080707D55FEAD9
:100960000B7004D52868C760284600F069F9B00705
:1009700006D52868C068800702D0284600F062F9D2
:10098000700607D55FEACA6004D52968102044F4D0
:1009900080640861B00607D55FEA0A7004D528684C
:1009A0000761284600F086F9F00606D52868006938
:1009B000800702D0284600F07EF9B00308D55FEA30
:1009C000C96005D5296810204860284600F074F9F0
:1009D000F00307D55FEA097004D528684760284608
:1009E00000F09EF9300446D55FEA497040D5F00525
:1009F00004D55FEAC87001D044F00104B00504D505
:100A00005FEA887001D544F00204700504D55FEAFE
:100A1000487001D544F00404300529D518F0700F52
:100A200026D008F07000402815D006DC102809D028
:100A300020280AD0302816D10AE050280ED060288D
:100A400011D10EE044F008040DE044F010040AE077
:100A500044F0200407E044F0400404E044F0800443
:100A600001E044F480742868816921F0700181619B
:100A7000296804204860002C05D0686A2043686219
:100A80002846FFF777FEBDE8F09F70B5040003D05D
:100A900094F8200010B104E0012070BD204600F061
:100AA00081F82068016841F00101016000F032FA2C
:100AB0000546052604E000F02DFA401B0A2811D84F
:100AC00020684068C007F6D02068016821F0020164
:100AD000016000F01FFA05460BE000F01BFA401B16
:100AE0000A2806D9606A40F40030606284F8206009
:100AF000D2E7206840688007EFD4207E0128206874
:100B000001683DD021F080010160607E01282068ED
:100B1000016838D021F040010160A07E01282068E2
:100B2000016833D021F020010160E07E01282068B7
:100B300001682ED041F010010160207F012820685B
:100B4000016829D021F008010160607F0128206838
:100B5000016824D021F004010160D4E902010843B6
:100B6000D4E90412114308436168491E084321680F
:100B7000C86100206062012084F82000002070BD60
:100B800041F08001C0E741F04001C5E741F020019C
:100B9000CAE721F01001CFE741F00801D4E741F0A6
:100BA0000401D9E710B586B0044614216846FFF762
:100BB000D2FB20492068884239D11F4800210268B1
:100BC00042F000720260006800F0007005901A4860
:100BD0001038026842F002020260006800F0020071
:100BE00005904FF4407000900220CDE901010320F0
:100BF0000390092004906946104800F093F8002201
:100C00001146142000F0F4F9142000F0E3F900225A
:100C10001146152000F0ECF9152000F0DBF9002258
:100C20001146162000F0E4F9162000F0D3F906B0C2
:100C300010BD000000640040403802400004024043
:100C40007047000070B5054619498AB0002000BF02
:100C500051F820202AB15268AA4202D151F820400E
:100C60001FE0401CC0B20328F2D30AB070BD07AB2E
:100C70006A4600212846FFF790FD0028F5D102982A
:100C800008B104280DD1A06858B10298042801D1F8
:100C9000019800900498A668C3B2009907AA20465C
:100CA000B04700212846FFF767FD0028DFD1DCE7C9
:100CB00098000020704770477047000070B50446E8
:100CC00090F82000012804D0606A40F4002060629F
:100CD00018E0022084F820002068016821F001015A
:100CE000016000F017F905460EE000BF00F012F9B0
:100CF000401B0A2808D9606A40F400306062052071
:100D000084F82000012070BD20684068C007EDD144
:100D1000606270BD7047704770477047704770479A
:100D2000704700002DE9F84FDFF8BCA10022012533
:100D300003264FF00F090AF1040BAAF1040E00BFBD
:100D40000B6805FA02F42340A34270D10F7907F033
:100D50000307012F01D0022F16D187684FEA4208FE
:100D600006FA08FC27EA0C07D1F80CC00CFA08FCBC
:100D70004CEA070CC0F808C04768A7430C79C4F3D5
:100D8000001494403C4344600C79E443A4070AD027
:100D9000C4684FEA420C06FA0CF7BC438F6807FAA6
:100DA0000CF72743C7600C7904F00304022C12D11E
:100DB000D40800EB840CDCF820405707FF0E09FA3A
:100DC00007F824EA0804D1F8108008FA07F848EA7E
:100DD0000408CCF8208004684FEA420C06FA0CF7AD
:100DE000BC430F7907F0030707FA0CF727430760A6
:100DF0004C6814F4403F70D03C4C276847F480475F
:100E00002760246822F0030704F480440094384CDF
:100E100007EB040CDCF8084897074FEA177809FA43
:100E200008F7BC43334FB84202D1002724E054E016
:100E3000314FB84201D101271EE0304FB84201D1F5
:100E4000022719E02E4FB84201D1032714E02D4F9D
:100E5000B84201D104270FE02B4FB84201D105273A
:100E60000AE02A4FB84201D1062705E0284FB842D0
:100E700001D1072700E0082707FA08F72743CCF835
:100E80000878DAF800405746D1F804C09C435FEA7E
:100E9000CC2C00D51C433C60DBF800405F46D1F809
:100EA00004C09C435FEA8C2C00D51C433C60DEF8F8
:100EB00000407746D1F804C09C435FEA8C3C00D5E3
:100EC0001C433C60084F083F3C68D1F804C09C4379
:100ED0005FEACC3C00D51C433C60521C102AFFF456
:100EE0002FAFBDE8F88F0000083C014044380240B5
:100EF00000300140000002400004024000080240AF
:100F0000000C024000100240001402400018024091
:100F1000001C024001488068704700001800002053
:100F200002488168027811448160704718000020EF
:100F30000B4810B5016841F400710160016841F48B
:100F400080610160016841F480710160032000F05C
:100F50006FF80F2000F006F800F024F8002010BD14
:100F6000003C024070B50D4D04464FF47A7128786C
:100F7000B1FBF0F00A490968B1FBF0F000F0ECFABF
:100F800048B9102C07D200222146501E00F030F83C
:100F900000206C6070BD012070BD000018000020B2
:100FA000240000200A4808B5016841F4804101602E
:100FB000006800F4804000900548001F016841F07F
:100FC00080510160006800F08050009008BD000072
:100FD00044380240002809DB00F01F020121914043
:100FE0004009800000F1E020C0F8001170470000C7
:100FF000F0B40E4B1B680C46C3F30223C3F1070584
:10100000042D00D90425191D072901D2002300E071
:10101000DB1E012606FA05F1491E214099409E403B
:10102000761E16403143F0BC00F0F8BD0CED00E038
:10103000064900F0070208684FF6FF03184040EA2F
:101040000220034A10430860704700000CED00E0E6
:101050000000FA052DE9F0470E46050065D0DFF8DF
:101060001481D8F80000F7B200F00700B04207D2B0
:1010700088F80070D8F8000000F00700B04254D1A2
:1010800028683D4C810712D5400703D5206840F4FD
:10109000E05020602878000703D5206840F46040C5
:1010A00020602068A96820F0F000084320602878BC
:1010B000C0072DD0304968680839012812D00228AD
:1010C00013D0032811D00968890700292DDA216877
:1010D00021F0030101432160FFF71CFF814641F22B
:1010E000883A0EE009688903EFE709688901ECE7AF
:1010F000FFF710FFA0EB0901514502D90320BDE81D
:10110000F0872068696800F00C00B0EB810FEFD128
:10111000D8F80010404601F00701B14207D9077026
:10112000006800F00700B04201D00120E7E728780E
:10113000400705D52068E96820F4E05008432060A6
:101140002878000706D52068296920F4604040EA25
:10115000C100206000F018F82168084AC1F30311AB
:10116000515CC8400649086006480068FFF7FAFE6F
:101170000020C4E7003C0240083802406C1C000814
:10118000240000201C000020154810B5006810F055
:101190000C02144813D01449042A0FD0082A0ED187
:1011A0000F4C241F2268236802F03F025B0207D520
:1011B0002068C0F38810A0FB010106E0084610BDBE
:1011C0002168C1F38811A1FB00010023FFF74CF84F
:1011D0002168C1F30141491C4900B0FBF1F010BD89
:1011E000083802400024F40040787D012DE9F84FD2
:1011F00004006ED02078DFF84C93C007A9F10405F5
:101200004AD009F104000168C1F38101012908D025
:101210000068C0F3810002280AD1D9F8000040021A
:1012200006D52868800337D560680028E1D033E010
:101230006068B0F5803F10D0B0F5A02F286810D0BE
:1012400020F480302860286820F4802028606068BE
:10125000A8B1FFF75FFE06460DE0286840F4803035
:10126000F4E740F480202860F7E700BFFFF752FE64
:10127000801B642873D828688003F7D50CE0FFF73B
:1012800049FE064605E000BFFFF744FE801B6428C8
:10129000F0D828688003F7D42078DFF8AC82800784
:1012A0004FF0000A3ED5A748001D016811F00C0F51
:1012B00008D00068C0F3810002280BD1D9F80000E3
:1012C000400207D42868800716D5E068012800D1BD
:1012D00012E033E1E068B8B10120C8F80000FFF780
:1012E00019FE064605E000BFFFF714FE801B02282A
:1012F000C0D828688007F7D52868216920F0F80051
:1013000040EAC10028600DE0C8F800A0FFF702FE27
:10131000064604E0FFF7FEFD801B02281FD8286860
:101320008007F7D42078000722D5864F8748616967
:10133000703771B101210160FFF7ECFD064604E052
:10134000FFF7E8FD801B022809D838688007F7D529
:101350000EE0C0F800A0FFF7DDFD064605E082E0E4
:10136000FFF7D8FD801B02287DD838688007F7D4A6
:101370002078400768D5DFF8CCB100270BF13C0B93
:10138000DBF80000C0000BD4DBF8001041F0805106
:10139000CBF80010DBF80000012700F0805000902F
:1013A0006B4E3068C00510D4306840F480703060F7
:1013B000FFF7B0FD009005E0FFF7ACFD0099401A83
:1013C000022850D83068C005F6D55E4EA0686C364D
:1013D00001280FD00528306810D020F001003060BF
:1013E000306820F004003060A068B8B1FFF792FDCB
:1013F00000900FE0306840F00100F4E740F0040096
:101400003060F7E7FFF786FD0099411A41F2883016
:10141000814266D830688007F4D50EE0FFF77AFD88
:10142000009007E0FFF776FD0099411A41F28830FD
:10143000814256D830688007F4D42FB1DBF8001011
:1014400021F08051CBF80010A069C8B33D49091DB7
:101450000968C1F3810102294AD00228504607D009
:10146000C8F8600000E03CE0FFF754FD04463BE0B4
:101470004746C8F86000FFF74DFD064605E000BF8F
:10148000FFF748FD801B02282BD828688001F7D47D
:10149000D4E907010843A16A2E4A490802EB014139
:1014A000626A41EA8211084394F82C1040EA016113
:1014B000C9F8001001203866FFF72CFD044606E04D
:1014C0003EE000BFFFF726FD001B022809D8286870
:1014D0008001F7D534E000BFFFF71CFD001B022898
:1014E00002D90320BDE8F88F28688001F4D427E0F2
:1014F0000128F7D0D9F80000E26900F48001914298
:101500001CD1226A00F03F01914217D147F6C07109
:10151000626A0140B1EB821F10D1A26A4FF0FF3323
:1015200000F4403103EB5202B1EB024F06D194F8C4
:101530002C1000F07060B0EB016F01D00120D1E7FA
:101540000020CFE70438024000004742800E4742A7
:10155000007000400000FFFF10B5401EB0F1807F1A
:1015600001D3012010BD4FF0E02460610F2160170E
:1015700000F054FB0020A06107202061002010BD76
:1015800070B590F83C20012A32D0012480F83C400C
:10159000022280F83D2003685A689D6822F0700698
:1015A0000A6832435A60134B02689A4214D0B2F16F
:1015B000804F11D0104B9A420ED0104B9A420BD054
:1015C0000F4B9A4208D00F4B9A4205D00E4B9A42CD
:1015D00002D00E4B9A4204D1496825F0800319438A
:1015E000916080F83D40002180F83C10084670BDB5
:1015F000022070BD000001400004004000080040CF
:10160000000C004000040140004001400018004070
:1016100010B5040003D094F83D0010B107E001209C
:1016200010BD002084F83C00204600F01FF8022086
:1016300084F83D00211D206800F038FA012084F86C
:10164000460084F83E0084F83F0084F8400084F8A7
:10165000410084F8420084F8430084F8440084F890
:10166000450084F83D00002010BD000008B500686A
:101670000649884208D10648016841F0200101600E
:10168000006800F02000009008BD00000014004039
:1016900040380240FEE70000104810B50E490160D6
:1016A0000421416000214FF4C0228160C0E903128F
:1016B0004FF4801242610176012242768176C27631
:1016C00001774177FFF7E1F9002803D0BDE810402A
:1016D000FEF74DBF10BD0000006400402800002050
:1016E0000D4808B5016841F080010160016801F012
:1016F00080010091016841F001010160016801F081
:1017000001010091016841F002010160006800F0F0
:101710000200009008BD0000303802401CB50024D3
:101720000E4800940C490194C0E900144FF6FF7173
:10173000C0E902418461FFF76BFF08B1FEF717FFB4
:101740000094694605480194FFF71AFF002801D06C
:10175000FEF70DFF1CBD00000014004050000020EB
:10176000FEE7FEE77047032100F094B8B4EEE00A0C
:10177000F1EE10FA02D2B0EE600A08E0F0EE411A83
:10178000B4EEE10AF1EE10FA01DDB0EE410A70EEBE
:10179000601A00EE100A71EE600AB8EE400A61EEBF
:1017A000801A81EEA00ABCEEC00A10EE100A80B2C8
:1017B0007047000018B111B10AB17F2A01D9002089
:1017C00070470270002242709FED060A416080ED72
:1017D000020A80ED030A80ED040A80ED050A027614
:1017E00001207047000000002DE9F04104000FD0F7
:1017F00072B10220B0EB116F0AD12078C1F3072536
:10180000A84205D1C8B26178884201D1082B02D024
:101810000020BDE8F081518810884EBA91884FF6BB
:10182000FF784DBAD18840BA4FBA4146DFED140A6D
:101830009FED140A00F0D3F884ED020A4146DFED73
:10184000120A9FED120A304600F0C9F884ED030A2F
:101850004146F3EE010ABBEE010A284600F0BFF84C
:1018600084ED040A00EE107ADFED090A0120B8EEDB
:10187000400A20EE200A84ED050A2076C9E7000020
:10188000B81E4941B81E49C100003042000030C2B4
:10189000CDCCCC3D1CB500220092019268B14468C9
:1018A0005CB14278090641EA02210078082301432D
:1018B0006A462046FEF70FFE1CBD00201CBD00003E
:1018C0002DE9F04304002DED048B83B0F0EE428A45
:1018D000B0EE619AF0EE419AB0EE608A5BD060683B
:1018E000F0B34FF6FF7948469FED2C1ADFED2C0A36
:1018F000FFF73CFF804648469FED2A1ADFED2A0A93
:10190000B0EE480AFFF732FF9FED298A07464846A6
:101910009FED261AF0EE480AB0EE690AFFF726FF9F
:1019200006464846B1EE041AF0EE480AB0EE490AFF
:10193000FFF71CFF05464846B3EE011AFBEE010A0D
:10194000B0EE680AFFF712FF4FEA18218DF8001079
:101950008DF80180390A8DF802108DF8037000E0CF
:1019600019E0310A8DF804108DF80560290A8DF808
:1019700006108DF807504FF08071227841EA00215F
:10198000114308236A466068FEF7A5FD03B0BDEC6D
:10199000048BBDE8F0830020F8E70000B81E494141
:1019A000B81E49C100003042000030C20000FA43B6
:1019B000000000001CB500210091019168B1416850
:1019C00059B101218DF800100188406841F0C061D3
:1019D00008236A46FEF77FFD1CBD00201CBD30EECB
:1019E000C01A00EE900AF8EE600A21EE201A00EE0E
:1019F000901AF8EE601AC1EE210A30EE800A7047A4
:101A00007047FFF78DBA000070B592B0302168467C
:101A1000FEF7A1FC14210CA8FEF79DFC1D48002533
:101A2000016841F080510160006800F08050119021
:101A30001948016841F4804101600068022400F403
:101A40008040119001200090000401908001CDE9B8
:101A500006400F260896C020CDE9090404200B900B
:101A60006846FFF7C3FB08B172B6FEE74FF4A0501B
:101A7000CDE90E504FF48050CDE90C641090052153
:101A80000CA8FFF7E7FA002801D072B6FEE712B003
:101A900070BD0000403802400070004002480168FC
:101AA00041F470010160704788ED00E0F0B5026814
:101AB000274B284D284E294F294C4FF0804C9842F7
:101AC00009D0604507D0A84205D0B04203D0B84243
:101AD00001D0A04204D122F0700E4A6842EA0E0200
:101AE00098421BD0604519D0A84217D0B04215D0FB
:101AF000B84213D0A04211D01A4DA8420ED01A4DB0
:101B0000A8420BD0194DA84208D0194DA84205D0C3
:101B1000184DA84202D0184DA84203D122F44075B6
:101B2000CA682A434D6922F080022A438D68C56243
:101B30000D688562984201D0A04201D10969016314
:101B4000016841F004010160012141610260F0BDC2
:101B5000000001400004004000080040000C00406C
:101B600000040140004001400044014000480140A1
:101B700000180040001C004000200040FEE700006C
:101B800010B5104B002210491048FEF779FCB0B197
:101B90000E49012201F11000FFF70CFE78B10B484D
:101BA0001030FFF707FF00280AD0FFF7B3F9084904
:101BB00048610648BDE810401030FFF7D4BD002052
:101BC00010BD00004D05000828000020A4000020E2
:101BD0000000002010B50F48FEF776FC002817D053
:101BE000FFF798F90C494A69821A052A10D348610F
:101BF00091ED042AD1ED031A91ED021AD1ED010AFB
:101C000091ED000A0348BDE810401030FFF758BEC0
:101C100010BD0000A4000020000000200907090EEC
:101C2000002804DB00F1E02080F80014704700F089
:101C30000F0000F1E02080F8141D7047FFF778F9DD
:101C4000FFF7E2FEFFF74CFDFFF726FDFFF766FD0D
:101C5000FFF796FF18B100BFFFF7BCFFFCE772B6B5
:101C6000FEE74FF04070E1EE100A70470000000000
:101C70000000000001020304060708099C1C00087C
:101C80000000002028000000C4010008C41C000857
:101C90002800002008070000E00100080000000004
:101CA00000000000000000410000803F0000000034
:101CB0000000000001000000100000000000000013
:041CC0000024F40008
:040000050800018965
:00000001FF
